{
  "contracts/FixedSwapNFT.sol": {
    "FixedSwapNFT": {
      "abi": [
        {
          "anonymous": false,
          "inputs": [
            {
              "indexed": true,
              "internalType": "address",
              "name": "sender",
              "type": "address"
            },
            {
              "indexed": true,
              "internalType": "uint256",
              "name": "index",
              "type": "uint256"
            },
            {
              "indexed": false,
              "internalType": "uint256",
              "name": "amount0",
              "type": "uint256"
            }
          ],
          "name": "Claimed",
          "type": "event"
        },
        {
          "anonymous": false,
          "inputs": [
            {
              "indexed": true,
              "internalType": "address",
              "name": "sender",
              "type": "address"
            },
            {
              "indexed": true,
              "internalType": "uint256",
              "name": "index",
              "type": "uint256"
            },
            {
              "components": [
                {
                  "internalType": "address payable",
                  "name": "creator",
                  "type": "address"
                },
                {
                  "internalType": "string",
                  "name": "name",
                  "type": "string"
                },
                {
                  "internalType": "address",
                  "name": "token0",
                  "type": "address"
                },
                {
                  "internalType": "address",
                  "name": "token1",
                  "type": "address"
                },
                {
                  "internalType": "uint256",
                  "name": "tokenId",
                  "type": "uint256"
                },
                {
                  "internalType": "uint256",
                  "name": "amountTotal0",
                  "type": "uint256"
                },
                {
                  "internalType": "uint256",
                  "name": "amountTotal1",
                  "type": "uint256"
                },
                {
                  "internalType": "uint256",
                  "name": "closeAt",
                  "type": "uint256"
                },
                {
                  "internalType": "uint256",
                  "name": "nftType",
                  "type": "uint256"
                }
              ],
              "indexed": false,
              "internalType": "struct FixedSwapNFT.Pool",
              "name": "pool",
              "type": "tuple"
            }
          ],
          "name": "Created",
          "type": "event"
        },
        {
          "anonymous": false,
          "inputs": [
            {
              "indexed": true,
              "internalType": "address",
              "name": "previousGovernor",
              "type": "address"
            },
            {
              "indexed": true,
              "internalType": "address",
              "name": "newGovernor",
              "type": "address"
            }
          ],
          "name": "GovernorshipTransferred",
          "type": "event"
        },
        {
          "anonymous": false,
          "inputs": [
            {
              "indexed": true,
              "internalType": "address",
              "name": "sender",
              "type": "address"
            },
            {
              "indexed": true,
              "internalType": "uint256",
              "name": "index",
              "type": "uint256"
            },
            {
              "indexed": false,
              "internalType": "uint256",
              "name": "amount0",
              "type": "uint256"
            },
            {
              "indexed": false,
              "internalType": "uint256",
              "name": "amount1",
              "type": "uint256"
            }
          ],
          "name": "Swapped",
          "type": "event"
        },
        {
          "inputs": [],
          "name": "checkToken0",
          "outputs": [
            {
              "internalType": "bool",
              "name": "",
              "type": "bool"
            }
          ],
          "stateMutability": "view",
          "type": "function"
        },
        {
          "inputs": [
            {
              "internalType": "string",
              "name": "name",
              "type": "string"
            },
            {
              "internalType": "address",
              "name": "token0",
              "type": "address"
            },
            {
              "internalType": "address",
              "name": "token1",
              "type": "address"
            },
            {
              "internalType": "uint256",
              "name": "tokenId",
              "type": "uint256"
            },
            {
              "internalType": "uint256",
              "name": "amountTotal0",
              "type": "uint256"
            },
            {
              "internalType": "uint256",
              "name": "amountTotal1",
              "type": "uint256"
            },
            {
              "internalType": "uint256",
              "name": "duration",
              "type": "uint256"
            }
          ],
          "name": "createErc1155",
          "outputs": [],
          "stateMutability": "payable",
          "type": "function"
        },
        {
          "inputs": [
            {
              "internalType": "string",
              "name": "name",
              "type": "string"
            },
            {
              "internalType": "address",
              "name": "token0",
              "type": "address"
            },
            {
              "internalType": "address",
              "name": "token1",
              "type": "address"
            },
            {
              "internalType": "uint256",
              "name": "tokenId",
              "type": "uint256"
            },
            {
              "internalType": "uint256",
              "name": "amountTotal1",
              "type": "uint256"
            },
            {
              "internalType": "uint256",
              "name": "duration",
              "type": "uint256"
            }
          ],
          "name": "createErc721",
          "outputs": [],
          "stateMutability": "payable",
          "type": "function"
        },
        {
          "inputs": [
            {
              "internalType": "uint256",
              "name": "index",
              "type": "uint256"
            }
          ],
          "name": "creatorClaim",
          "outputs": [],
          "stateMutability": "nonpayable",
          "type": "function"
        },
        {
          "inputs": [
            {
              "internalType": "uint256",
              "name": "",
              "type": "uint256"
            }
          ],
          "name": "creatorClaimedP",
          "outputs": [
            {
              "internalType": "bool",
              "name": "",
              "type": "bool"
            }
          ],
          "stateMutability": "view",
          "type": "function"
        },
        {
          "inputs": [
            {
              "internalType": "bytes32",
              "name": "key",
              "type": "bytes32"
            },
            {
              "internalType": "address",
              "name": "addr",
              "type": "address"
            }
          ],
          "name": "getConfig",
          "outputs": [
            {
              "internalType": "uint256",
              "name": "",
              "type": "uint256"
            }
          ],
          "stateMutability": "view",
          "type": "function"
        },
        {
          "inputs": [
            {
              "internalType": "bytes32",
              "name": "key",
              "type": "bytes32"
            }
          ],
          "name": "getConfig",
          "outputs": [
            {
              "internalType": "uint256",
              "name": "",
              "type": "uint256"
            }
          ],
          "stateMutability": "view",
          "type": "function"
        },
        {
          "inputs": [
            {
              "internalType": "bytes32",
              "name": "key",
              "type": "bytes32"
            },
            {
              "internalType": "uint256",
              "name": "index",
              "type": "uint256"
            }
          ],
          "name": "getConfig",
          "outputs": [
            {
              "internalType": "uint256",
              "name": "",
              "type": "uint256"
            }
          ],
          "stateMutability": "view",
          "type": "function"
        },
        {
          "inputs": [],
          "name": "getPoolCount",
          "outputs": [
            {
              "internalType": "uint256",
              "name": "",
              "type": "uint256"
            }
          ],
          "stateMutability": "view",
          "type": "function"
        },
        {
          "inputs": [],
          "name": "governor",
          "outputs": [
            {
              "internalType": "address",
              "name": "",
              "type": "address"
            }
          ],
          "stateMutability": "view",
          "type": "function"
        },
        {
          "inputs": [
            {
              "internalType": "address",
              "name": "_governor",
              "type": "address"
            }
          ],
          "name": "initialize",
          "outputs": [],
          "stateMutability": "nonpayable",
          "type": "function"
        },
        {
          "inputs": [
            {
              "internalType": "address",
              "name": "",
              "type": "address"
            }
          ],
          "name": "myCreatedP",
          "outputs": [
            {
              "internalType": "uint256",
              "name": "",
              "type": "uint256"
            }
          ],
          "stateMutability": "view",
          "type": "function"
        },
        {
          "inputs": [
            {
              "internalType": "string",
              "name": "",
              "type": "string"
            }
          ],
          "name": "myNameP",
          "outputs": [
            {
              "internalType": "uint256",
              "name": "",
              "type": "uint256"
            }
          ],
          "stateMutability": "view",
          "type": "function"
        },
        {
          "inputs": [
            {
              "internalType": "address",
              "name": "",
              "type": "address"
            },
            {
              "internalType": "address",
              "name": "",
              "type": "address"
            },
            {
              "internalType": "uint256",
              "name": "",
              "type": "uint256"
            },
            {
              "internalType": "uint256",
              "name": "",
              "type": "uint256"
            },
            {
              "internalType": "bytes",
              "name": "",
              "type": "bytes"
            }
          ],
          "name": "onERC1155Received",
          "outputs": [
            {
              "internalType": "bytes4",
              "name": "",
              "type": "bytes4"
            }
          ],
          "stateMutability": "nonpayable",
          "type": "function"
        },
        {
          "inputs": [
            {
              "internalType": "address",
              "name": "",
              "type": "address"
            },
            {
              "internalType": "address",
              "name": "",
              "type": "address"
            },
            {
              "internalType": "uint256",
              "name": "",
              "type": "uint256"
            },
            {
              "internalType": "bytes",
              "name": "",
              "type": "bytes"
            }
          ],
          "name": "onERC721Received",
          "outputs": [
            {
              "internalType": "bytes4",
              "name": "",
              "type": "bytes4"
            }
          ],
          "stateMutability": "nonpayable",
          "type": "function"
        },
        {
          "inputs": [
            {
              "internalType": "uint256",
              "name": "",
              "type": "uint256"
            }
          ],
          "name": "pools",
          "outputs": [
            {
              "internalType": "address payable",
              "name": "creator",
              "type": "address"
            },
            {
              "internalType": "string",
              "name": "name",
              "type": "string"
            },
            {
              "internalType": "address",
              "name": "token0",
              "type": "address"
            },
            {
              "internalType": "address",
              "name": "token1",
              "type": "address"
            },
            {
              "internalType": "uint256",
              "name": "tokenId",
              "type": "uint256"
            },
            {
              "internalType": "uint256",
              "name": "amountTotal0",
              "type": "uint256"
            },
            {
              "internalType": "uint256",
              "name": "amountTotal1",
              "type": "uint256"
            },
            {
              "internalType": "uint256",
              "name": "closeAt",
              "type": "uint256"
            },
            {
              "internalType": "uint256",
              "name": "nftType",
              "type": "uint256"
            }
          ],
          "stateMutability": "view",
          "type": "function"
        },
        {
          "inputs": [],
          "name": "renounceGovernorship",
          "outputs": [],
          "stateMutability": "nonpayable",
          "type": "function"
        },
        {
          "inputs": [
            {
              "internalType": "bytes32",
              "name": "key",
              "type": "bytes32"
            },
            {
              "internalType": "uint256",
              "name": "value",
              "type": "uint256"
            }
          ],
          "name": "setConfig",
          "outputs": [],
          "stateMutability": "nonpayable",
          "type": "function"
        },
        {
          "inputs": [
            {
              "internalType": "bytes32",
              "name": "key",
              "type": "bytes32"
            },
            {
              "internalType": "address",
              "name": "addr",
              "type": "address"
            },
            {
              "internalType": "uint256",
              "name": "value",
              "type": "uint256"
            }
          ],
          "name": "setConfig",
          "outputs": [],
          "stateMutability": "nonpayable",
          "type": "function"
        },
        {
          "inputs": [
            {
              "internalType": "bytes32",
              "name": "key",
              "type": "bytes32"
            },
            {
              "internalType": "uint256",
              "name": "index",
              "type": "uint256"
            },
            {
              "internalType": "uint256",
              "name": "value",
              "type": "uint256"
            }
          ],
          "name": "setConfig",
          "outputs": [],
          "stateMutability": "nonpayable",
          "type": "function"
        },
        {
          "inputs": [
            {
              "internalType": "uint256",
              "name": "index",
              "type": "uint256"
            },
            {
              "internalType": "uint256",
              "name": "amount0",
              "type": "uint256"
            }
          ],
          "name": "swap",
          "outputs": [],
          "stateMutability": "payable",
          "type": "function"
        },
        {
          "inputs": [
            {
              "internalType": "uint256",
              "name": "",
              "type": "uint256"
            }
          ],
          "name": "swappedAmount0P",
          "outputs": [
            {
              "internalType": "uint256",
              "name": "",
              "type": "uint256"
            }
          ],
          "stateMutability": "view",
          "type": "function"
        },
        {
          "inputs": [
            {
              "internalType": "uint256",
              "name": "",
              "type": "uint256"
            }
          ],
          "name": "swappedAmount1P",
          "outputs": [
            {
              "internalType": "uint256",
              "name": "",
              "type": "uint256"
            }
          ],
          "stateMutability": "view",
          "type": "function"
        },
        {
          "inputs": [
            {
              "internalType": "uint256",
              "name": "",
              "type": "uint256"
            }
          ],
          "name": "swappedP",
          "outputs": [
            {
              "internalType": "bool",
              "name": "",
              "type": "bool"
            }
          ],
          "stateMutability": "view",
          "type": "function"
        },
        {
          "inputs": [
            {
              "internalType": "address",
              "name": "",
              "type": "address"
            }
          ],
          "name": "token0List",
          "outputs": [
            {
              "internalType": "bool",
              "name": "",
              "type": "bool"
            }
          ],
          "stateMutability": "view",
          "type": "function"
        },
        {
          "inputs": [
            {
              "internalType": "address",
              "name": "_governor",
              "type": "address"
            }
          ],
          "name": "transferGovernor",
          "outputs": [],
          "stateMutability": "nonpayable",
          "type": "function"
        },
        {
          "inputs": [
            {
              "internalType": "address",
              "name": "newGovernor",
              "type": "address"
            }
          ],
          "name": "transferGovernorship",
          "outputs": [],
          "stateMutability": "nonpayable",
          "type": "function"
        }
      ],
      "evm": {
        "bytecode": {
          "linkReferences": {},
          "object": "608060405234801561001057600080fd5b506145e1806100206000396000f3fe60806040526004361061019c5760003560e01c80638eec5d70116100ec578063c4d66de81161008a578063db06c05f11610064578063db06c05f146105ed578063ddf2be3f1461062a578063e87ba7aa14610653578063f23a6e61146106905761019c565b8063c4d66de81461056b578063cbe4b8eb14610594578063d96073cf146105d15761019c565b8063b21544f3116100c6578063b21544f3146104b3578063b6aa515b146104dc578063b8cc9ce614610505578063bbe7180d1461052e5761019c565b80638eec5d70146104065780639d6ce84b14610431578063ac4afa381461046e5761019c565b80632ca77bf8116101595780636dd5b69d116101335780636dd5b69d1461035957806373d9ced91461039657806381c0c263146103b25780638ec872e3146103c95761019c565b80632ca77bf8146102b457806352665f47146102df5780636d17b1d81461031c5761019c565b806306350d71146101a15780630c340a24146101bd578063150b7a02146101e857806315fe96dc1461022557806329dbd0981461024e5780632ad540ed1461028b575b600080fd5b6101bb60048036038101906101b69190613253565b6106cd565b005b3480156101c957600080fd5b506101d2610789565b6040516101df9190613d20565b60405180910390f35b3480156101f457600080fd5b5061020f600480360381019061020a9190612ef7565b6107af565b60405161021c9190613fbb565b60405180910390f35b34801561023157600080fd5b5061024c600480360381019061024791906130e6565b6107c4565b005b34801561025a57600080fd5b5061027560048036038101906102709190612ece565b61082c565b6040516102829190613fa0565b60405180910390f35b34801561029757600080fd5b506102b260048036038101906102ad9190613309565b61084c565b005b3480156102c057600080fd5b506102c9610e2c565b6040516102d69190613fa0565b60405180910390f35b3480156102eb57600080fd5b506103066004803603810190610301919061305b565b610e3f565b604051610313919061433a565b60405180910390f35b34801561032857600080fd5b50610343600480360381019061033e9190613309565b610e7b565b604051610350919061433a565b60405180910390f35b34801561036557600080fd5b50610380600480360381019061037b9190613032565b610e93565b60405161038d919061433a565b60405180910390f35b6103b060048036038101906103ab91906131b2565b610eb0565b005b3480156103be57600080fd5b506103c7610f72565b005b3480156103d557600080fd5b506103f060048036038101906103eb91906130e6565b61108d565b6040516103fd919061433a565b60405180910390f35b34801561041257600080fd5b5061041b6110b3565b604051610428919061433a565b60405180910390f35b34801561043d57600080fd5b5061045860048036038101906104539190613171565b6110c0565b604051610465919061433a565b60405180910390f35b34801561047a57600080fd5b5061049560048036038101906104909190613309565b6110ee565b6040516104aa99989796959493929190613dca565b60405180910390f35b3480156104bf57600080fd5b506104da60048036038101906104d59190613097565b611241565b005b3480156104e857600080fd5b5061050360048036038101906104fe9190612ece565b6112c8565b005b34801561051157600080fd5b5061052c60048036038101906105279190612ece565b61132e565b005b34801561053a57600080fd5b5061055560048036038101906105509190612ece565b61145b565b604051610562919061433a565b60405180910390f35b34801561057757600080fd5b50610592600480360381019061058d9190612ece565b611473565b005b3480156105a057600080fd5b506105bb60048036038101906105b69190613309565b611686565b6040516105c8919061433a565b60405180910390f35b6105eb60048036038101906105e69190613332565b61169e565b005b3480156105f957600080fd5b50610614600480360381019061060f9190613309565b611ca5565b6040516106219190613fa0565b60405180910390f35b34801561063657600080fd5b50610651600480360381019061064c9190613122565b611cc5565b005b34801561065f57600080fd5b5061067a60048036038101906106759190613309565b611d36565b6040516106879190613fa0565b60405180910390f35b34801561069c57600080fd5b506106b760048036038101906106b29190612f77565b611d56565b6040516106c49190613fbb565b60405180910390f35b603a60009054906101000a900460ff161561076f57603b60008773ffffffffffffffffffffffffffffffffffffffff1673ffffffffffffffffffffffffffffffffffffffff16815260200190815260200160002060009054906101000a900460ff1661076e576040517f08c379a000000000000000000000000000000000000000000000000000000000815260040161076590614058565b60405180910390fd5b5b610780878787878787876001611d6c565b50505050505050565b603360009054906101000a900473ffffffffffffffffffffffffffffffffffffffff1681565b600063150b7a0260e01b905095945050505050565b603360009054906101000a900473ffffffffffffffffffffffffffffffffffffffff1673ffffffffffffffffffffffffffffffffffffffff163373ffffffffffffffffffffffffffffffffffffffff161461081e57600080fd5b610828828261267f565b5050565b603b6020528060005260406000206000915054906101000a900460ff1681565b806035805490508110610894576040517f08c379a000000000000000000000000000000000000000000000000000000000815260040161088b906140f8565b60405180910390fd5b8142603582815481106108a357fe5b90600052602060002090600902016007015411156108f6576040517f08c379a00000000000000000000000000000000000000000000000000000000081526004016108ed906142d8565b60405180910390fd5b826039600082815260200190815260200160002060009054906101000a900460ff1615610958576040517f08c379a000000000000000000000000000000000000000000000000000000000815260040161094f906141d8565b60405180910390fd5b61096233856126b6565b6109a1576040517f08c379a000000000000000000000000000000000000000000000000000000000815260040161099890614098565b60405180910390fd5b6038600085815260200190815260200160002060009054906101000a900460ff1615610a02576040517f08c379a00000000000000000000000000000000000000000000000000000000081526004016109f9906141b8565b60405180910390fd5b60016038600086815260200190815260200160002060006101000a81548160ff021916908315150217905550603660003373ffffffffffffffffffffffffffffffffffffffff1673ffffffffffffffffffffffffffffffffffffffff16815260200190815260200160002060009055610a79612cb1565b60358581548110610a8657fe5b9060005260206000209060090201604051806101200160405290816000820160009054906101000a900473ffffffffffffffffffffffffffffffffffffffff1673ffffffffffffffffffffffffffffffffffffffff1673ffffffffffffffffffffffffffffffffffffffff168152602001600182018054600181600116156101000203166002900480601f016020809104026020016040519081016040528092919081815260200182805460018160011615610100020316600290048015610b8f5780601f10610b6457610100808354040283529160200191610b8f565b820191906000526020600020905b815481529060010190602001808311610b7257829003601f168201915b505050505081526020016002820160009054906101000a900473ffffffffffffffffffffffffffffffffffffffff1673ffffffffffffffffffffffffffffffffffffffff1673ffffffffffffffffffffffffffffffffffffffff1681526020016003820160009054906101000a900473ffffffffffffffffffffffffffffffffffffffff1673ffffffffffffffffffffffffffffffffffffffff1673ffffffffffffffffffffffffffffffffffffffff16815260200160048201548152602001600582015481526020016006820154815260200160078201548152602001600882015481525050905060008161010001511415610d0657806040015173ffffffffffffffffffffffffffffffffffffffff166342842e0e30836000015184608001516040518463ffffffff1660e01b8152600401610ccf93929190613e5e565b600060405180830381600087803b158015610ce957600080fd5b505af1158015610cfd573d6000803e3d6000fd5b50505050610dad565b806040015173ffffffffffffffffffffffffffffffffffffffff1663f242432a3083600001518460800151610d5b603c60008c8152602001908152602001600020548760a0015161273e90919063ffffffff16565b6040518563ffffffff1660e01b8152600401610d7a9493929190613eda565b600060405180830381600087803b158015610d9457600080fd5b505af1158015610da8573d6000803e3d6000fd5b505050505b843373ffffffffffffffffffffffffffffffffffffffff167f987d620f307ff6b94d58743cb7a7509f24071586a77759b77c2d4e29f75a2f9a610e10603c60008a8152602001908152602001600020548560a0015161273e90919063ffffffff16565b604051610e1d919061433a565b60405180910390a35050505050565b603a60009054906101000a900460ff1681565b6000603460008373ffffffffffffffffffffffffffffffffffffffff168560001c1860001b815260200190815260200160002054905092915050565b603c6020528060005260406000206000915090505481565b600060346000838152602001908152602001600020549050919050565b603a60009054906101000a900460ff1615610f5257603b60008673ffffffffffffffffffffffffffffffffffffffff1673ffffffffffffffffffffffffffffffffffffffff16815260200190815260200160002060009054906101000a900460ff16610f51576040517f08c379a0000000000000000000000000000000000000000000000000000000008152600401610f4890614058565b60405180910390fd5b5b600060019050610f69878787878588886000611d6c565b50505050505050565b603360009054906101000a900473ffffffffffffffffffffffffffffffffffffffff1673ffffffffffffffffffffffffffffffffffffffff163373ffffffffffffffffffffffffffffffffffffffff1614610fcc57600080fd5b600073ffffffffffffffffffffffffffffffffffffffff16603360009054906101000a900473ffffffffffffffffffffffffffffffffffffffff1673ffffffffffffffffffffffffffffffffffffffff167fc7c0c772add429241571afb3805861fb3cfa2af374534088b76cdb4325a87e9a60405160405180910390a36000603360006101000a81548173ffffffffffffffffffffffffffffffffffffffff021916908373ffffffffffffffffffffffffffffffffffffffff160217905550565b600060346000838560001c1860001b815260200190815260200160002054905092915050565b6000603580549050905090565b6037818051602081018201805184825260208301602085012081835280955050505050506000915090505481565b603581815481106110fb57fe5b90600052602060002090600902016000915090508060000160009054906101000a900473ffffffffffffffffffffffffffffffffffffffff1690806001018054600181600116156101000203166002900480601f0160208091040260200160405190810160405280929190818152602001828054600181600116156101000203166002900480156111cd5780601f106111a2576101008083540402835291602001916111cd565b820191906000526020600020905b8154815290600101906020018083116111b057829003601f168201915b5050505050908060020160009054906101000a900473ffffffffffffffffffffffffffffffffffffffff16908060030160009054906101000a900473ffffffffffffffffffffffffffffffffffffffff16908060040154908060050154908060060154908060070154908060080154905089565b603360009054906101000a900473ffffffffffffffffffffffffffffffffffffffff1673ffffffffffffffffffffffffffffffffffffffff163373ffffffffffffffffffffffffffffffffffffffff161461129b57600080fd5b6112c38273ffffffffffffffffffffffffffffffffffffffff168460001c1860001b8261267f565b505050565b603360009054906101000a900473ffffffffffffffffffffffffffffffffffffffff1673ffffffffffffffffffffffffffffffffffffffff163373ffffffffffffffffffffffffffffffffffffffff161461132257600080fd5b61132b8161278e565b50565b603360009054906101000a900473ffffffffffffffffffffffffffffffffffffffff1673ffffffffffffffffffffffffffffffffffffffff163373ffffffffffffffffffffffffffffffffffffffff1614806113d85750600073ffffffffffffffffffffffffffffffffffffffff16603360009054906101000a900473ffffffffffffffffffffffffffffffffffffffff1673ffffffffffffffffffffffffffffffffffffffff16145b611417576040517f08c379a000000000000000000000000000000000000000000000000000000000815260040161140e90614018565b60405180910390fd5b80603360006101000a81548173ffffffffffffffffffffffffffffffffffffffff021916908373ffffffffffffffffffffffffffffffffffffffff16021790555050565b60366020528060005260406000206000915090505481565b600060019054906101000a900460ff16806114925750611491612888565b5b806114a8575060008054906101000a900460ff16155b6114e7576040517f08c379a00000000000000000000000000000000000000000000000000000000081526004016114de90614238565b60405180910390fd5b60008060019054906101000a900460ff161590508015611537576001600060016101000a81548160ff02191690831515021790555060016000806101000a81548160ff0219169083151502179055505b603360009054906101000a900473ffffffffffffffffffffffffffffffffffffffff1673ffffffffffffffffffffffffffffffffffffffff163373ffffffffffffffffffffffffffffffffffffffff1614806115e15750600073ffffffffffffffffffffffffffffffffffffffff16603360009054906101000a900473ffffffffffffffffffffffffffffffffffffffff1673ffffffffffffffffffffffffffffffffffffffff16145b611620576040517f08c379a000000000000000000000000000000000000000000000000000000000815260040161161790614018565b60405180910390fd5b81603360006101000a81548173ffffffffffffffffffffffffffffffffffffffff021916908373ffffffffffffffffffffffffffffffffffffffff16021790555080156116825760008060016101000a81548160ff0219169083151502179055505b5050565b603d6020528060005260406000206000915090505481565b8160358054905081106116e6576040517f08c379a00000000000000000000000000000000000000000000000000000000081526004016116dd906140f8565b60405180910390fd5b8242603582815481106116f557fe5b90600052602060002090600902016007015411611747576040517f08c379a000000000000000000000000000000000000000000000000000000000815260040161173e90614118565b60405180910390fd5b836039600082815260200190815260200160002060009054906101000a900460ff16156117a9576040517f08c379a00000000000000000000000000000000000000000000000000000000081526004016117a0906141d8565b60405180910390fd5b6000603586815481106117b857fe5b90600052602060002090600902019050600185101580156117dd575080600501548511155b61181c576040517f08c379a000000000000000000000000000000000000000000000000000000000815260040161181390614278565b60405180910390fd5b806005015461184786603c60008a81526020019081526020016000205461289f90919063ffffffff16565b1115611888576040517f08c379a000000000000000000000000000000000000000000000000000000000815260040161187f906142f8565b60405180910390fd5b60006118b782600501546118a98460060154896128f490919063ffffffff16565b61296490919063ffffffff16565b90506118df86603c60008a81526020019081526020016000205461289f90919063ffffffff16565b603c60008981526020019081526020016000208190555061191c81603d60008a81526020019081526020016000205461289f90919063ffffffff16565b603d6000898152602001908152602001600020819055508160050154603c600089815260200190815260200160002054141561197f5760016039600089815260200190815260200160002060006101000a81548160ff0219169083151502179055505b600073ffffffffffffffffffffffffffffffffffffffff168260030160009054906101000a900473ffffffffffffffffffffffffffffffffffffffff1673ffffffffffffffffffffffffffffffffffffffff161415611a8e57348114611a1a576040517f08c379a0000000000000000000000000000000000000000000000000000000008152600401611a1190614298565b60405180910390fd5b8160000160009054906101000a900473ffffffffffffffffffffffffffffffffffffffff1673ffffffffffffffffffffffffffffffffffffffff166108fc83600601549081150290604051600060405180830381858888f19350505050158015611a88573d6000803e3d6000fd5b50611b04565b611b03338360000160009054906101000a900473ffffffffffffffffffffffffffffffffffffffff16838560030160009054906101000a900473ffffffffffffffffffffffffffffffffffffffff1673ffffffffffffffffffffffffffffffffffffffff166129ba909392919063ffffffff16565b5b600082600801541415611bad578160020160009054906101000a900473ffffffffffffffffffffffffffffffffffffffff1673ffffffffffffffffffffffffffffffffffffffff166342842e0e303385600401546040518463ffffffff1660e01b8152600401611b7693929190613e5e565b600060405180830381600087803b158015611b9057600080fd5b505af1158015611ba4573d6000803e3d6000fd5b50505050611c4b565b8160020160009054906101000a900473ffffffffffffffffffffffffffffffffffffffff1673ffffffffffffffffffffffffffffffffffffffff1663f242432a3033856004015486600501546040518563ffffffff1660e01b8152600401611c189493929190613eda565b600060405180830381600087803b158015611c3257600080fd5b505af1158015611c46573d6000803e3d6000fd5b505050505b863373ffffffffffffffffffffffffffffffffffffffff167f36a39cf3f9b8206db312650e7d954482535a2e33fb0b54e1030f149ed213823a8884604051611c94929190614355565b60405180910390a350505050505050565b60396020528060005260406000206000915054906101000a900460ff1681565b603360009054906101000a900473ffffffffffffffffffffffffffffffffffffffff1673ffffffffffffffffffffffffffffffffffffffff163373ffffffffffffffffffffffffffffffffffffffff1614611d1f57600080fd5b611d31828460001c1860001b8261267f565b505050565b60386020528060005260406000206000915054906101000a900460ff1681565b600063f23a6e6160e01b90509695505050505050565b336000603660008373ffffffffffffffffffffffffffffffffffffffff1673ffffffffffffffffffffffffffffffffffffffff168152602001908152602001600020541115611ea157603960006001603660008573ffffffffffffffffffffffffffffffffffffffff1673ffffffffffffffffffffffffffffffffffffffff1681526020019081526020016000205403815260200190815260200160002060009054906101000a900460ff1615611e6557603660008273ffffffffffffffffffffffffffffffffffffffff1673ffffffffffffffffffffffffffffffffffffffff16815260200190815260200160002060009055611ea0565b6040517f08c379a0000000000000000000000000000000000000000000000000000000008152600401611e97906140d8565b60405180910390fd5b5b886000603782604051611eb49190613d09565b9081526020016040518091039020541115611fdb5760006001603783604051611edd9190613d09565b90815260200160405180910390205403905060006036600060358481548110611f0257fe5b906000526020600020906009020160000160009054906101000a900473ffffffffffffffffffffffffffffffffffffffff1673ffffffffffffffffffffffffffffffffffffffff1673ffffffffffffffffffffffffffffffffffffffff16815260200190815260200160002054118015611f9957504260358281548110611f8557fe5b906000526020600020906009020160070154115b15611fd9576040517f08c379a0000000000000000000000000000000000000000000000000000000008152600401611fd090613ff8565b60405180910390fd5b505b600085141561201f576040517f08c379a0000000000000000000000000000000000000000000000000000000008152600401612016906140b8565b60405180910390fd5b6000841415612063576040517f08c379a000000000000000000000000000000000000000000000000000000000815260040161205a90614038565b60405180910390fd5b600f8a5111156120a8576040517f08c379a000000000000000000000000000000000000000000000000000000000815260040161209f906141f8565b60405180910390fd5b6120b0612cb1565b33816000019073ffffffffffffffffffffffffffffffffffffffff16908173ffffffffffffffffffffffffffffffffffffffff16815250508a816020018190525089816040019073ffffffffffffffffffffffffffffffffffffffff16908173ffffffffffffffffffffffffffffffffffffffff168152505088816060019073ffffffffffffffffffffffffffffffffffffffff16908173ffffffffffffffffffffffffffffffffffffffff168152505087816080018181525050868160a0018181525050858160c0018181525050612192854261289f90919063ffffffff16565b8160e0018181525050838161010001818152505060006035805490509050603582908060018154018082558091505060019003906000526020600020906009020160009091909190915060008201518160000160006101000a81548173ffffffffffffffffffffffffffffffffffffffff021916908373ffffffffffffffffffffffffffffffffffffffff160217905550602082015181600101908051906020019061223f929190612d3f565b5060408201518160020160006101000a81548173ffffffffffffffffffffffffffffffffffffffff021916908373ffffffffffffffffffffffffffffffffffffffff16021790555060608201518160030160006101000a81548173ffffffffffffffffffffffffffffffffffffffff021916908373ffffffffffffffffffffffffffffffffffffffff1602179055506080820151816004015560a0820151816005015560c0820151816006015560e0820151816007015561010082015181600801555050603580549050603660003373ffffffffffffffffffffffffffffffffffffffff1673ffffffffffffffffffffffffffffffffffffffff1681526020019081526020016000208190555060358054905060378d6040516123629190613d09565b90815260200160405180910390208190555060008514156124cd57600188146123c0576040517f08c379a00000000000000000000000000000000000000000000000000000000081526004016123b790614198565b60405180910390fd5b8a73ffffffffffffffffffffffffffffffffffffffff166342842e0e33308c6040518463ffffffff1660e01b81526004016123fd93929190613d3b565b600060405180830381600087803b15801561241757600080fd5b505af115801561242b573d6000803e3d6000fd5b50505050603e60009054906101000a900473ffffffffffffffffffffffffffffffffffffffff1673ffffffffffffffffffffffffffffffffffffffff16634091214c8c8b6001603580549050036040518463ffffffff1660e01b815260040161249693929190613f69565b600060405180830381600087803b1580156124b057600080fd5b505af11580156124c4573d6000803e3d6000fd5b50505050612622565b6000881415612511576040517f08c379a000000000000000000000000000000000000000000000000000000000815260040161250890614198565b60405180910390fd5b8a73ffffffffffffffffffffffffffffffffffffffff1663f242432a33308c8c6040518563ffffffff1660e01b81526004016125509493929190613d72565b600060405180830381600087803b15801561256a57600080fd5b505af115801561257e573d6000803e3d6000fd5b50505050603e60009054906101000a900473ffffffffffffffffffffffffffffffffffffffff1673ffffffffffffffffffffffffffffffffffffffff1663f5444c678c84600001518c6001603580549050036040518563ffffffff1660e01b81526004016125ef9493929190613e95565b600060405180830381600087803b15801561260957600080fd5b505af115801561261d573d6000803e3d6000fd5b505050505b803373ffffffffffffffffffffffffffffffffffffffff167f89e79b43dbf06920dd0e7fc08d9dfb54eb6ee8dae358c231d80c8649929b767b846040516126699190614318565b60405180910390a3505050505050505050505050565b806034600084815260200190815260200160002054146126b2578060346000848152602001908152602001600020819055505b5050565b60008273ffffffffffffffffffffffffffffffffffffffff16603583815481106126dc57fe5b906000526020600020906009020160000160009054906101000a900473ffffffffffffffffffffffffffffffffffffffff1673ffffffffffffffffffffffffffffffffffffffff1614156127335760019050612738565b600090505b92915050565b600082821115612783576040517f08c379a000000000000000000000000000000000000000000000000000000000815260040161277a90614138565b60405180910390fd5b818303905092915050565b600073ffffffffffffffffffffffffffffffffffffffff168173ffffffffffffffffffffffffffffffffffffffff1614156127c857600080fd5b8073ffffffffffffffffffffffffffffffffffffffff16603360009054906101000a900473ffffffffffffffffffffffffffffffffffffffff1673ffffffffffffffffffffffffffffffffffffffff167fc7c0c772add429241571afb3805861fb3cfa2af374534088b76cdb4325a87e9a60405160405180910390a380603360006101000a81548173ffffffffffffffffffffffffffffffffffffffff021916908373ffffffffffffffffffffffffffffffffffffffff16021790555050565b6000803090506000813b9050600081149250505090565b6000808284019050838110156128ea576040517f08c379a00000000000000000000000000000000000000000000000000000000081526004016128e190614078565b60405180910390fd5b8091505092915050565b600080831415612907576000905061295e565b600082840290508284828161291857fe5b0414612959576040517f08c379a000000000000000000000000000000000000000000000000000000000815260040161295090614218565b60405180910390fd5b809150505b92915050565b60008082116129a8576040517f08c379a000000000000000000000000000000000000000000000000000000000815260040161299f90614178565b60405180910390fd5b8183816129b157fe5b04905092915050565b612a3d846323b872dd60e01b8585856040516024016129db93929190613f32565b604051602081830303815290604052907bffffffffffffffffffffffffffffffffffffffffffffffffffffffff19166020820180517bffffffffffffffffffffffffffffffffffffffffffffffffffffffff8381831617835250505050612a43565b50505050565b6060612aa5826040518060400160405280602081526020017f5361666545524332303a206c6f772d6c6576656c2063616c6c206661696c65648152508573ffffffffffffffffffffffffffffffffffffffff16612b0a9092919063ffffffff16565b9050600081511115612b055780806020019051810190612ac59190613009565b612b04576040517f08c379a0000000000000000000000000000000000000000000000000000000008152600401612afb906142b8565b60405180910390fd5b5b505050565b6060612b198484600085612b22565b90509392505050565b606082471015612b67576040517f08c379a0000000000000000000000000000000000000000000000000000000008152600401612b5e90614158565b60405180910390fd5b612b7085612c37565b612baf576040517f08c379a0000000000000000000000000000000000000000000000000000000008152600401612ba690614258565b60405180910390fd5b600060608673ffffffffffffffffffffffffffffffffffffffff168587604051612bd99190613cf2565b60006040518083038185875af1925050503d8060008114612c16576040519150601f19603f3d011682016040523d82523d6000602084013e612c1b565b606091505b5091509150612c2b828286612c4a565b92505050949350505050565b600080823b905060008111915050919050565b60608315612c5a57829050612caa565b600083511115612c6d5782518084602001fd5b816040517f08c379a0000000000000000000000000000000000000000000000000000000008152600401612ca19190613fd6565b60405180910390fd5b9392505050565b604051806101200160405280600073ffffffffffffffffffffffffffffffffffffffff16815260200160608152602001600073ffffffffffffffffffffffffffffffffffffffff168152602001600073ffffffffffffffffffffffffffffffffffffffff16815260200160008152602001600081526020016000815260200160008152602001600081525090565b828054600181600116156101000203166002900490600052602060002090601f016020900481019282601f10612d8057805160ff1916838001178555612dae565b82800160010185558215612dae579182015b82811115612dad578251825591602001919060010190612d92565b5b509050612dbb9190612dbf565b5090565b5b80821115612dd8576000816000905550600101612dc0565b5090565b600081359050612deb8161454f565b92915050565b600081519050612e0081614566565b92915050565b600081359050612e158161457d565b92915050565b60008083601f840112612e2d57600080fd5b8235905067ffffffffffffffff811115612e4657600080fd5b602083019150836001820283011115612e5e57600080fd5b9250929050565b600082601f830112612e7657600080fd5b8135612e89612e84826143ab565b61437e565b91508082526020830160208301858383011115612ea557600080fd5b612eb08382846144fc565b50505092915050565b600081359050612ec881614594565b92915050565b600060208284031215612ee057600080fd5b6000612eee84828501612ddc565b91505092915050565b600080600080600060808688031215612f0f57600080fd5b6000612f1d88828901612ddc565b9550506020612f2e88828901612ddc565b9450506040612f3f88828901612eb9565b935050606086013567ffffffffffffffff811115612f5c57600080fd5b612f6888828901612e1b565b92509250509295509295909350565b60008060008060008060a08789031215612f9057600080fd5b6000612f9e89828a01612ddc565b9650506020612faf89828a01612ddc565b9550506040612fc089828a01612eb9565b9450506060612fd189828a01612eb9565b935050608087013567ffffffffffffffff811115612fee57600080fd5b612ffa89828a01612e1b565b92509250509295509295509295565b60006020828403121561301b57600080fd5b600061302984828501612df1565b91505092915050565b60006020828403121561304457600080fd5b600061305284828501612e06565b91505092915050565b6000806040838503121561306e57600080fd5b600061307c85828601612e06565b925050602061308d85828601612ddc565b9150509250929050565b6000806000606084860312156130ac57600080fd5b60006130ba86828701612e06565b93505060206130cb86828701612ddc565b92505060406130dc86828701612eb9565b9150509250925092565b600080604083850312156130f957600080fd5b600061310785828601612e06565b925050602061311885828601612eb9565b9150509250929050565b60008060006060848603121561313757600080fd5b600061314586828701612e06565b935050602061315686828701612eb9565b925050604061316786828701612eb9565b9150509250925092565b60006020828403121561318357600080fd5b600082013567ffffffffffffffff81111561319d57600080fd5b6131a984828501612e65565b91505092915050565b60008060008060008060c087890312156131cb57600080fd5b600087013567ffffffffffffffff8111156131e557600080fd5b6131f189828a01612e65565b965050602061320289828a01612ddc565b955050604061321389828a01612ddc565b945050606061322489828a01612eb9565b935050608061323589828a01612eb9565b92505060a061324689828a01612eb9565b9150509295509295509295565b600080600080600080600060e0888a03121561326e57600080fd5b600088013567ffffffffffffffff81111561328857600080fd5b6132948a828b01612e65565b97505060206132a58a828b01612ddc565b96505060406132b68a828b01612ddc565b95505060606132c78a828b01612eb9565b94505060806132d88a828b01612eb9565b93505060a06132e98a828b01612eb9565b92505060c06132fa8a828b01612eb9565b91505092959891949750929550565b60006020828403121561331b57600080fd5b600061332984828501612eb9565b91505092915050565b6000806040838503121561334557600080fd5b600061335385828601612eb9565b925050602061336485828601612eb9565b9150509250929050565b613377816144c6565b82525050565b61338681614448565b82525050565b61339581614448565b82525050565b6133a481614436565b82525050565b6133b381614436565b82525050565b6133c28161445a565b82525050565b6133d181614470565b82525050565b60006133e2826143d7565b6133ec81856143fe565b93506133fc81856020860161450b565b80840191505092915050565b6000613413826143e2565b61341d8185614409565b935061342d81856020860161450b565b6134368161453e565b840191505092915050565b600061344c826143e2565b613456818561441a565b935061346681856020860161450b565b61346f8161453e565b840191505092915050565b6000613485826143e2565b61348f818561442b565b935061349f81856020860161450b565b80840191505092915050565b60006134b860298361441a565b91507f61206c69766520706f6f6c20686173206265656e20637265617465642062792060008301527f74686973206e616d6500000000000000000000000000000000000000000000006020830152604082019050919050565b600061351e60108361441a565b91507f696e76616c696420676f7665726e6f72000000000000000000000000000000006000830152602082019050919050565b600061355e601e8361441a565b91507f7468652076616c7565206f66206475726174696f6e206973207a65726f2e00006000830152602082019050919050565b600061359e600e8361441a565b91507f696e76616c696420746f6b656e300000000000000000000000000000000000006000830152602082019050919050565b60006135de601b8361441a565b91507f536166654d6174683a206164646974696f6e206f766572666c6f7700000000006000830152602082019050919050565b600061361e601a8361441a565b91507f73656e646572206973206e6f7420706f6f6c2063726561746f720000000000006000830152602082019050919050565b600061365e60228361441a565b91507f7468652076616c7565206f6620616d6f756e74546f74616c31206973207a657260008301527f6f2e0000000000000000000000000000000000000000000000000000000000006020830152604082019050919050565b60006136c460228361441a565b91507f6120706f6f6c206861732063726561746564206279207468697320616464726560008301527f73730000000000000000000000000000000000000000000000000000000000006020830152604082019050919050565b600061372a60188361441a565b91507f7468697320706f6f6c20646f6573206e6f7420657869737400000000000000006000830152602082019050919050565b600061376a60138361441a565b91507f7468697320706f6f6c20697320636c6f736564000000000000000000000000006000830152602082019050919050565b60006137aa601e8361441a565b91507f536166654d6174683a207375627472616374696f6e206f766572666c6f7700006000830152602082019050919050565b60006137ea60268361441a565b91507f416464726573733a20696e73756666696369656e742062616c616e636520666f60008301527f722063616c6c00000000000000000000000000000000000000000000000000006020830152604082019050919050565b6000613850601a8361441a565b91507f536166654d6174683a206469766973696f6e206279207a65726f0000000000006000830152602082019050919050565b600061389060148361441a565b91507f696e76616c696420616d6f756e74546f74616c300000000000000000000000006000830152602082019050919050565b60006138d0601d8361441a565b91507f63726561746f722068617320636c61696d6564207468697320706f6f6c0000006000830152602082019050919050565b600061391060148361441a565b91507f7468697320706f6f6c20697320737761707065640000000000000000000000006000830152602082019050919050565b6000613950601e8361441a565b91507f746865206c656e677468206f66206e616d6520697320746f6f206c6f6e6700006000830152602082019050919050565b600061399060218361441a565b91507f536166654d6174683a206d756c7469706c69636174696f6e206f766572666c6f60008301527f77000000000000000000000000000000000000000000000000000000000000006020830152604082019050919050565b60006139f6602e8361441a565b91507f436f6e747261637420696e7374616e63652068617320616c726561647920626560008301527f656e20696e697469616c697a65640000000000000000000000000000000000006020830152604082019050919050565b6000613a5c6000836143ed565b9150600082019050919050565b6000613a76601d8361441a565b91507f416464726573733a2063616c6c20746f206e6f6e2d636f6e74726163740000006000830152602082019050919050565b6000613ab6600f8361441a565b91507f696e76616c696420616d6f756e743000000000000000000000000000000000006000830152602082019050919050565b6000613af660128361441a565b91507f696e76616c69642045544820616d6f756e7400000000000000000000000000006000830152602082019050919050565b6000613b36602a8361441a565b91507f5361666545524332303a204552433230206f7065726174696f6e20646964206e60008301527f6f742073756363656564000000000000000000000000000000000000000000006020830152604082019050919050565b6000613b9c60178361441a565b91507f7468697320706f6f6c206973206e6f7420636c6f7365640000000000000000006000830152602082019050919050565b6000613bdc601e8361441a565b91507f706f6f6c2066696c6c6564206f7220696e76616c696420616d6f756e743000006000830152602082019050919050565b600061012083016000830151613c28600086018261337d565b5060208301518482036020860152613c408282613408565b9150506040830151613c55604086018261339b565b506060830151613c68606086018261339b565b506080830151613c7b6080860182613cd4565b5060a0830151613c8e60a0860182613cd4565b5060c0830151613ca160c0860182613cd4565b5060e0830151613cb460e0860182613cd4565b50610100830151613cc9610100860182613cd4565b508091505092915050565b613cdd816144bc565b82525050565b613cec816144bc565b82525050565b6000613cfe82846133d7565b915081905092915050565b6000613d15828461347a565b915081905092915050565b6000602082019050613d3560008301846133aa565b92915050565b6000606082019050613d50600083018661336e565b613d5d60208301856133aa565b613d6a6040830184613ce3565b949350505050565b600060a082019050613d87600083018761336e565b613d9460208301866133aa565b613da16040830185613ce3565b613dae6060830184613ce3565b8181036080830152613dbf81613a4f565b905095945050505050565b600061012082019050613de0600083018c61338c565b8181036020830152613df2818b613441565b9050613e01604083018a6133aa565b613e0e60608301896133aa565b613e1b6080830188613ce3565b613e2860a0830187613ce3565b613e3560c0830186613ce3565b613e4260e0830185613ce3565b613e50610100830184613ce3565b9a9950505050505050505050565b6000606082019050613e7360008301866133aa565b613e80602083018561336e565b613e8d6040830184613ce3565b949350505050565b6000608082019050613eaa60008301876133aa565b613eb7602083018661336e565b613ec46040830185613ce3565b613ed16060830184613ce3565b95945050505050565b600060a082019050613eef60008301876133aa565b613efc602083018661336e565b613f096040830185613ce3565b613f166060830184613ce3565b8181036080830152613f2781613a4f565b905095945050505050565b6000606082019050613f4760008301866133aa565b613f5460208301856133aa565b613f616040830184613ce3565b949350505050565b6000606082019050613f7e60008301866133aa565b613f8b6020830185613ce3565b613f986040830184613ce3565b949350505050565b6000602082019050613fb560008301846133b9565b92915050565b6000602082019050613fd060008301846133c8565b92915050565b60006020820190508181036000830152613ff08184613441565b905092915050565b60006020820190508181036000830152614011816134ab565b9050919050565b6000602082019050818103600083015261403181613511565b9050919050565b6000602082019050818103600083015261405181613551565b9050919050565b6000602082019050818103600083015261407181613591565b9050919050565b60006020820190508181036000830152614091816135d1565b9050919050565b600060208201905081810360008301526140b181613611565b9050919050565b600060208201905081810360008301526140d181613651565b9050919050565b600060208201905081810360008301526140f1816136b7565b9050919050565b600060208201905081810360008301526141118161371d565b9050919050565b600060208201905081810360008301526141318161375d565b9050919050565b600060208201905081810360008301526141518161379d565b9050919050565b60006020820190508181036000830152614171816137dd565b9050919050565b6000602082019050818103600083015261419181613843565b9050919050565b600060208201905081810360008301526141b181613883565b9050919050565b600060208201905081810360008301526141d1816138c3565b9050919050565b600060208201905081810360008301526141f181613903565b9050919050565b6000602082019050818103600083015261421181613943565b9050919050565b6000602082019050818103600083015261423181613983565b9050919050565b60006020820190508181036000830152614251816139e9565b9050919050565b6000602082019050818103600083015261427181613a69565b9050919050565b6000602082019050818103600083015261429181613aa9565b9050919050565b600060208201905081810360008301526142b181613ae9565b9050919050565b600060208201905081810360008301526142d181613b29565b9050919050565b600060208201905081810360008301526142f181613b8f565b9050919050565b6000602082019050818103600083015261431181613bcf565b9050919050565b600060208201905081810360008301526143328184613c0f565b905092915050565b600060208201905061434f6000830184613ce3565b92915050565b600060408201905061436a6000830185613ce3565b6143776020830184613ce3565b9392505050565b6000604051905081810181811067ffffffffffffffff821117156143a157600080fd5b8060405250919050565b600067ffffffffffffffff8211156143c257600080fd5b601f19601f8301169050602081019050919050565b600081519050919050565b600081519050919050565b600082825260208201905092915050565b600081905092915050565b600082825260208201905092915050565b600082825260208201905092915050565b600081905092915050565b60006144418261449c565b9050919050565b60006144538261449c565b9050919050565b60008115159050919050565b6000819050919050565b60007fffffffff0000000000000000000000000000000000000000000000000000000082169050919050565b600073ffffffffffffffffffffffffffffffffffffffff82169050919050565b6000819050919050565b60006144d1826144d8565b9050919050565b60006144e3826144ea565b9050919050565b60006144f58261449c565b9050919050565b82818337600083830152505050565b60005b8381101561452957808201518184015260208101905061450e565b83811115614538576000848401525b50505050565b6000601f19601f8301169050919050565b61455881614436565b811461456357600080fd5b50565b61456f8161445a565b811461457a57600080fd5b50565b61458681614466565b811461459157600080fd5b50565b61459d816144bc565b81146145a857600080fd5b5056fea26469706673582212203dd10a3af2923159134d2d0c08464c74b2a1e9beb0af255f4c1988b90b1e5f0b64736f6c634300060c0033",
          "opcodes": "PUSH1 0x80 PUSH1 0x40 MSTORE CALLVALUE DUP1 ISZERO PUSH2 0x10 JUMPI PUSH1 0x0 DUP1 REVERT JUMPDEST POP PUSH2 0x45E1 DUP1 PUSH2 0x20 PUSH1 0x0 CODECOPY PUSH1 0x0 RETURN INVALID PUSH1 0x80 PUSH1 0x40 MSTORE PUSH1 0x4 CALLDATASIZE LT PUSH2 0x19C JUMPI PUSH1 0x0 CALLDATALOAD PUSH1 0xE0 SHR DUP1 PUSH4 0x8EEC5D70 GT PUSH2 0xEC JUMPI DUP1 PUSH4 0xC4D66DE8 GT PUSH2 0x8A JUMPI DUP1 PUSH4 0xDB06C05F GT PUSH2 0x64 JUMPI DUP1 PUSH4 0xDB06C05F EQ PUSH2 0x5ED JUMPI DUP1 PUSH4 0xDDF2BE3F EQ PUSH2 0x62A JUMPI DUP1 PUSH4 0xE87BA7AA EQ PUSH2 0x653 JUMPI DUP1 PUSH4 0xF23A6E61 EQ PUSH2 0x690 JUMPI PUSH2 0x19C JUMP JUMPDEST DUP1 PUSH4 0xC4D66DE8 EQ PUSH2 0x56B JUMPI DUP1 PUSH4 0xCBE4B8EB EQ PUSH2 0x594 JUMPI DUP1 PUSH4 0xD96073CF EQ PUSH2 0x5D1 JUMPI PUSH2 0x19C JUMP JUMPDEST DUP1 PUSH4 0xB21544F3 GT PUSH2 0xC6 JUMPI DUP1 PUSH4 0xB21544F3 EQ PUSH2 0x4B3 JUMPI DUP1 PUSH4 0xB6AA515B EQ PUSH2 0x4DC JUMPI DUP1 PUSH4 0xB8CC9CE6 EQ PUSH2 0x505 JUMPI DUP1 PUSH4 0xBBE7180D EQ PUSH2 0x52E JUMPI PUSH2 0x19C JUMP JUMPDEST DUP1 PUSH4 0x8EEC5D70 EQ PUSH2 0x406 JUMPI DUP1 PUSH4 0x9D6CE84B EQ PUSH2 0x431 JUMPI DUP1 PUSH4 0xAC4AFA38 EQ PUSH2 0x46E JUMPI PUSH2 0x19C JUMP JUMPDEST DUP1 PUSH4 0x2CA77BF8 GT PUSH2 0x159 JUMPI DUP1 PUSH4 0x6DD5B69D GT PUSH2 0x133 JUMPI DUP1 PUSH4 0x6DD5B69D EQ PUSH2 0x359 JUMPI DUP1 PUSH4 0x73D9CED9 EQ PUSH2 0x396 JUMPI DUP1 PUSH4 0x81C0C263 EQ PUSH2 0x3B2 JUMPI DUP1 PUSH4 0x8EC872E3 EQ PUSH2 0x3C9 JUMPI PUSH2 0x19C JUMP JUMPDEST DUP1 PUSH4 0x2CA77BF8 EQ PUSH2 0x2B4 JUMPI DUP1 PUSH4 0x52665F47 EQ PUSH2 0x2DF JUMPI DUP1 PUSH4 0x6D17B1D8 EQ PUSH2 0x31C JUMPI PUSH2 0x19C JUMP JUMPDEST DUP1 PUSH4 0x6350D71 EQ PUSH2 0x1A1 JUMPI DUP1 PUSH4 0xC340A24 EQ PUSH2 0x1BD JUMPI DUP1 PUSH4 0x150B7A02 EQ PUSH2 0x1E8 JUMPI DUP1 PUSH4 0x15FE96DC EQ PUSH2 0x225 JUMPI DUP1 PUSH4 0x29DBD098 EQ PUSH2 0x24E JUMPI DUP1 PUSH4 0x2AD540ED EQ PUSH2 0x28B JUMPI JUMPDEST PUSH1 0x0 DUP1 REVERT JUMPDEST PUSH2 0x1BB PUSH1 0x4 DUP1 CALLDATASIZE SUB DUP2 ADD SWAP1 PUSH2 0x1B6 SWAP2 SWAP1 PUSH2 0x3253 JUMP JUMPDEST PUSH2 0x6CD JUMP JUMPDEST STOP JUMPDEST CALLVALUE DUP1 ISZERO PUSH2 0x1C9 JUMPI PUSH1 0x0 DUP1 REVERT JUMPDEST POP PUSH2 0x1D2 PUSH2 0x789 JUMP JUMPDEST PUSH1 0x40 MLOAD PUSH2 0x1DF SWAP2 SWAP1 PUSH2 0x3D20 JUMP JUMPDEST PUSH1 0x40 MLOAD DUP1 SWAP2 SUB SWAP1 RETURN JUMPDEST CALLVALUE DUP1 ISZERO PUSH2 0x1F4 JUMPI PUSH1 0x0 DUP1 REVERT JUMPDEST POP PUSH2 0x20F PUSH1 0x4 DUP1 CALLDATASIZE SUB DUP2 ADD SWAP1 PUSH2 0x20A SWAP2 SWAP1 PUSH2 0x2EF7 JUMP JUMPDEST PUSH2 0x7AF JUMP JUMPDEST PUSH1 0x40 MLOAD PUSH2 0x21C SWAP2 SWAP1 PUSH2 0x3FBB JUMP JUMPDEST PUSH1 0x40 MLOAD DUP1 SWAP2 SUB SWAP1 RETURN JUMPDEST CALLVALUE DUP1 ISZERO PUSH2 0x231 JUMPI PUSH1 0x0 DUP1 REVERT JUMPDEST POP PUSH2 0x24C PUSH1 0x4 DUP1 CALLDATASIZE SUB DUP2 ADD SWAP1 PUSH2 0x247 SWAP2 SWAP1 PUSH2 0x30E6 JUMP JUMPDEST PUSH2 0x7C4 JUMP JUMPDEST STOP JUMPDEST CALLVALUE DUP1 ISZERO PUSH2 0x25A JUMPI PUSH1 0x0 DUP1 REVERT JUMPDEST POP PUSH2 0x275 PUSH1 0x4 DUP1 CALLDATASIZE SUB DUP2 ADD SWAP1 PUSH2 0x270 SWAP2 SWAP1 PUSH2 0x2ECE JUMP JUMPDEST PUSH2 0x82C JUMP JUMPDEST PUSH1 0x40 MLOAD PUSH2 0x282 SWAP2 SWAP1 PUSH2 0x3FA0 JUMP JUMPDEST PUSH1 0x40 MLOAD DUP1 SWAP2 SUB SWAP1 RETURN JUMPDEST CALLVALUE DUP1 ISZERO PUSH2 0x297 JUMPI PUSH1 0x0 DUP1 REVERT JUMPDEST POP PUSH2 0x2B2 PUSH1 0x4 DUP1 CALLDATASIZE SUB DUP2 ADD SWAP1 PUSH2 0x2AD SWAP2 SWAP1 PUSH2 0x3309 JUMP JUMPDEST PUSH2 0x84C JUMP JUMPDEST STOP JUMPDEST CALLVALUE DUP1 ISZERO PUSH2 0x2C0 JUMPI PUSH1 0x0 DUP1 REVERT JUMPDEST POP PUSH2 0x2C9 PUSH2 0xE2C JUMP JUMPDEST PUSH1 0x40 MLOAD PUSH2 0x2D6 SWAP2 SWAP1 PUSH2 0x3FA0 JUMP JUMPDEST PUSH1 0x40 MLOAD DUP1 SWAP2 SUB SWAP1 RETURN JUMPDEST CALLVALUE DUP1 ISZERO PUSH2 0x2EB JUMPI PUSH1 0x0 DUP1 REVERT JUMPDEST POP PUSH2 0x306 PUSH1 0x4 DUP1 CALLDATASIZE SUB DUP2 ADD SWAP1 PUSH2 0x301 SWAP2 SWAP1 PUSH2 0x305B JUMP JUMPDEST PUSH2 0xE3F JUMP JUMPDEST PUSH1 0x40 MLOAD PUSH2 0x313 SWAP2 SWAP1 PUSH2 0x433A JUMP JUMPDEST PUSH1 0x40 MLOAD DUP1 SWAP2 SUB SWAP1 RETURN JUMPDEST CALLVALUE DUP1 ISZERO PUSH2 0x328 JUMPI PUSH1 0x0 DUP1 REVERT JUMPDEST POP PUSH2 0x343 PUSH1 0x4 DUP1 CALLDATASIZE SUB DUP2 ADD SWAP1 PUSH2 0x33E SWAP2 SWAP1 PUSH2 0x3309 JUMP JUMPDEST PUSH2 0xE7B JUMP JUMPDEST PUSH1 0x40 MLOAD PUSH2 0x350 SWAP2 SWAP1 PUSH2 0x433A JUMP JUMPDEST PUSH1 0x40 MLOAD DUP1 SWAP2 SUB SWAP1 RETURN JUMPDEST CALLVALUE DUP1 ISZERO PUSH2 0x365 JUMPI PUSH1 0x0 DUP1 REVERT JUMPDEST POP PUSH2 0x380 PUSH1 0x4 DUP1 CALLDATASIZE SUB DUP2 ADD SWAP1 PUSH2 0x37B SWAP2 SWAP1 PUSH2 0x3032 JUMP JUMPDEST PUSH2 0xE93 JUMP JUMPDEST PUSH1 0x40 MLOAD PUSH2 0x38D SWAP2 SWAP1 PUSH2 0x433A JUMP JUMPDEST PUSH1 0x40 MLOAD DUP1 SWAP2 SUB SWAP1 RETURN JUMPDEST PUSH2 0x3B0 PUSH1 0x4 DUP1 CALLDATASIZE SUB DUP2 ADD SWAP1 PUSH2 0x3AB SWAP2 SWAP1 PUSH2 0x31B2 JUMP JUMPDEST PUSH2 0xEB0 JUMP JUMPDEST STOP JUMPDEST CALLVALUE DUP1 ISZERO PUSH2 0x3BE JUMPI PUSH1 0x0 DUP1 REVERT JUMPDEST POP PUSH2 0x3C7 PUSH2 0xF72 JUMP JUMPDEST STOP JUMPDEST CALLVALUE DUP1 ISZERO PUSH2 0x3D5 JUMPI PUSH1 0x0 DUP1 REVERT JUMPDEST POP PUSH2 0x3F0 PUSH1 0x4 DUP1 CALLDATASIZE SUB DUP2 ADD SWAP1 PUSH2 0x3EB SWAP2 SWAP1 PUSH2 0x30E6 JUMP JUMPDEST PUSH2 0x108D JUMP JUMPDEST PUSH1 0x40 MLOAD PUSH2 0x3FD SWAP2 SWAP1 PUSH2 0x433A JUMP JUMPDEST PUSH1 0x40 MLOAD DUP1 SWAP2 SUB SWAP1 RETURN JUMPDEST CALLVALUE DUP1 ISZERO PUSH2 0x412 JUMPI PUSH1 0x0 DUP1 REVERT JUMPDEST POP PUSH2 0x41B PUSH2 0x10B3 JUMP JUMPDEST PUSH1 0x40 MLOAD PUSH2 0x428 SWAP2 SWAP1 PUSH2 0x433A JUMP JUMPDEST PUSH1 0x40 MLOAD DUP1 SWAP2 SUB SWAP1 RETURN JUMPDEST CALLVALUE DUP1 ISZERO PUSH2 0x43D JUMPI PUSH1 0x0 DUP1 REVERT JUMPDEST POP PUSH2 0x458 PUSH1 0x4 DUP1 CALLDATASIZE SUB DUP2 ADD SWAP1 PUSH2 0x453 SWAP2 SWAP1 PUSH2 0x3171 JUMP JUMPDEST PUSH2 0x10C0 JUMP JUMPDEST PUSH1 0x40 MLOAD PUSH2 0x465 SWAP2 SWAP1 PUSH2 0x433A JUMP JUMPDEST PUSH1 0x40 MLOAD DUP1 SWAP2 SUB SWAP1 RETURN JUMPDEST CALLVALUE DUP1 ISZERO PUSH2 0x47A JUMPI PUSH1 0x0 DUP1 REVERT JUMPDEST POP PUSH2 0x495 PUSH1 0x4 DUP1 CALLDATASIZE SUB DUP2 ADD SWAP1 PUSH2 0x490 SWAP2 SWAP1 PUSH2 0x3309 JUMP JUMPDEST PUSH2 0x10EE JUMP JUMPDEST PUSH1 0x40 MLOAD PUSH2 0x4AA SWAP10 SWAP9 SWAP8 SWAP7 SWAP6 SWAP5 SWAP4 SWAP3 SWAP2 SWAP1 PUSH2 0x3DCA JUMP JUMPDEST PUSH1 0x40 MLOAD DUP1 SWAP2 SUB SWAP1 RETURN JUMPDEST CALLVALUE DUP1 ISZERO PUSH2 0x4BF JUMPI PUSH1 0x0 DUP1 REVERT JUMPDEST POP PUSH2 0x4DA PUSH1 0x4 DUP1 CALLDATASIZE SUB DUP2 ADD SWAP1 PUSH2 0x4D5 SWAP2 SWAP1 PUSH2 0x3097 JUMP JUMPDEST PUSH2 0x1241 JUMP JUMPDEST STOP JUMPDEST CALLVALUE DUP1 ISZERO PUSH2 0x4E8 JUMPI PUSH1 0x0 DUP1 REVERT JUMPDEST POP PUSH2 0x503 PUSH1 0x4 DUP1 CALLDATASIZE SUB DUP2 ADD SWAP1 PUSH2 0x4FE SWAP2 SWAP1 PUSH2 0x2ECE JUMP JUMPDEST PUSH2 0x12C8 JUMP JUMPDEST STOP JUMPDEST CALLVALUE DUP1 ISZERO PUSH2 0x511 JUMPI PUSH1 0x0 DUP1 REVERT JUMPDEST POP PUSH2 0x52C PUSH1 0x4 DUP1 CALLDATASIZE SUB DUP2 ADD SWAP1 PUSH2 0x527 SWAP2 SWAP1 PUSH2 0x2ECE JUMP JUMPDEST PUSH2 0x132E JUMP JUMPDEST STOP JUMPDEST CALLVALUE DUP1 ISZERO PUSH2 0x53A JUMPI PUSH1 0x0 DUP1 REVERT JUMPDEST POP PUSH2 0x555 PUSH1 0x4 DUP1 CALLDATASIZE SUB DUP2 ADD SWAP1 PUSH2 0x550 SWAP2 SWAP1 PUSH2 0x2ECE JUMP JUMPDEST PUSH2 0x145B JUMP JUMPDEST PUSH1 0x40 MLOAD PUSH2 0x562 SWAP2 SWAP1 PUSH2 0x433A JUMP JUMPDEST PUSH1 0x40 MLOAD DUP1 SWAP2 SUB SWAP1 RETURN JUMPDEST CALLVALUE DUP1 ISZERO PUSH2 0x577 JUMPI PUSH1 0x0 DUP1 REVERT JUMPDEST POP PUSH2 0x592 PUSH1 0x4 DUP1 CALLDATASIZE SUB DUP2 ADD SWAP1 PUSH2 0x58D SWAP2 SWAP1 PUSH2 0x2ECE JUMP JUMPDEST PUSH2 0x1473 JUMP JUMPDEST STOP JUMPDEST CALLVALUE DUP1 ISZERO PUSH2 0x5A0 JUMPI PUSH1 0x0 DUP1 REVERT JUMPDEST POP PUSH2 0x5BB PUSH1 0x4 DUP1 CALLDATASIZE SUB DUP2 ADD SWAP1 PUSH2 0x5B6 SWAP2 SWAP1 PUSH2 0x3309 JUMP JUMPDEST PUSH2 0x1686 JUMP JUMPDEST PUSH1 0x40 MLOAD PUSH2 0x5C8 SWAP2 SWAP1 PUSH2 0x433A JUMP JUMPDEST PUSH1 0x40 MLOAD DUP1 SWAP2 SUB SWAP1 RETURN JUMPDEST PUSH2 0x5EB PUSH1 0x4 DUP1 CALLDATASIZE SUB DUP2 ADD SWAP1 PUSH2 0x5E6 SWAP2 SWAP1 PUSH2 0x3332 JUMP JUMPDEST PUSH2 0x169E JUMP JUMPDEST STOP JUMPDEST CALLVALUE DUP1 ISZERO PUSH2 0x5F9 JUMPI PUSH1 0x0 DUP1 REVERT JUMPDEST POP PUSH2 0x614 PUSH1 0x4 DUP1 CALLDATASIZE SUB DUP2 ADD SWAP1 PUSH2 0x60F SWAP2 SWAP1 PUSH2 0x3309 JUMP JUMPDEST PUSH2 0x1CA5 JUMP JUMPDEST PUSH1 0x40 MLOAD PUSH2 0x621 SWAP2 SWAP1 PUSH2 0x3FA0 JUMP JUMPDEST PUSH1 0x40 MLOAD DUP1 SWAP2 SUB SWAP1 RETURN JUMPDEST CALLVALUE DUP1 ISZERO PUSH2 0x636 JUMPI PUSH1 0x0 DUP1 REVERT JUMPDEST POP PUSH2 0x651 PUSH1 0x4 DUP1 CALLDATASIZE SUB DUP2 ADD SWAP1 PUSH2 0x64C SWAP2 SWAP1 PUSH2 0x3122 JUMP JUMPDEST PUSH2 0x1CC5 JUMP JUMPDEST STOP JUMPDEST CALLVALUE DUP1 ISZERO PUSH2 0x65F JUMPI PUSH1 0x0 DUP1 REVERT JUMPDEST POP PUSH2 0x67A PUSH1 0x4 DUP1 CALLDATASIZE SUB DUP2 ADD SWAP1 PUSH2 0x675 SWAP2 SWAP1 PUSH2 0x3309 JUMP JUMPDEST PUSH2 0x1D36 JUMP JUMPDEST PUSH1 0x40 MLOAD PUSH2 0x687 SWAP2 SWAP1 PUSH2 0x3FA0 JUMP JUMPDEST PUSH1 0x40 MLOAD DUP1 SWAP2 SUB SWAP1 RETURN JUMPDEST CALLVALUE DUP1 ISZERO PUSH2 0x69C JUMPI PUSH1 0x0 DUP1 REVERT JUMPDEST POP PUSH2 0x6B7 PUSH1 0x4 DUP1 CALLDATASIZE SUB DUP2 ADD SWAP1 PUSH2 0x6B2 SWAP2 SWAP1 PUSH2 0x2F77 JUMP JUMPDEST PUSH2 0x1D56 JUMP JUMPDEST PUSH1 0x40 MLOAD PUSH2 0x6C4 SWAP2 SWAP1 PUSH2 0x3FBB JUMP JUMPDEST PUSH1 0x40 MLOAD DUP1 SWAP2 SUB SWAP1 RETURN JUMPDEST PUSH1 0x3A PUSH1 0x0 SWAP1 SLOAD SWAP1 PUSH2 0x100 EXP SWAP1 DIV PUSH1 0xFF AND ISZERO PUSH2 0x76F JUMPI PUSH1 0x3B PUSH1 0x0 DUP8 PUSH20 0xFFFFFFFFFFFFFFFFFFFFFFFFFFFFFFFFFFFFFFFF AND PUSH20 0xFFFFFFFFFFFFFFFFFFFFFFFFFFFFFFFFFFFFFFFF AND DUP2 MSTORE PUSH1 0x20 ADD SWAP1 DUP2 MSTORE PUSH1 0x20 ADD PUSH1 0x0 KECCAK256 PUSH1 0x0 SWAP1 SLOAD SWAP1 PUSH2 0x100 EXP SWAP1 DIV PUSH1 0xFF AND PUSH2 0x76E JUMPI PUSH1 0x40 MLOAD PUSH32 0x8C379A000000000000000000000000000000000000000000000000000000000 DUP2 MSTORE PUSH1 0x4 ADD PUSH2 0x765 SWAP1 PUSH2 0x4058 JUMP JUMPDEST PUSH1 0x40 MLOAD DUP1 SWAP2 SUB SWAP1 REVERT JUMPDEST JUMPDEST PUSH2 0x780 DUP8 DUP8 DUP8 DUP8 DUP8 DUP8 DUP8 PUSH1 0x1 PUSH2 0x1D6C JUMP JUMPDEST POP POP POP POP POP POP POP JUMP JUMPDEST PUSH1 0x33 PUSH1 0x0 SWAP1 SLOAD SWAP1 PUSH2 0x100 EXP SWAP1 DIV PUSH20 0xFFFFFFFFFFFFFFFFFFFFFFFFFFFFFFFFFFFFFFFF AND DUP2 JUMP JUMPDEST PUSH1 0x0 PUSH4 0x150B7A02 PUSH1 0xE0 SHL SWAP1 POP SWAP6 SWAP5 POP POP POP POP POP JUMP JUMPDEST PUSH1 0x33 PUSH1 0x0 SWAP1 SLOAD SWAP1 PUSH2 0x100 EXP SWAP1 DIV PUSH20 0xFFFFFFFFFFFFFFFFFFFFFFFFFFFFFFFFFFFFFFFF AND PUSH20 0xFFFFFFFFFFFFFFFFFFFFFFFFFFFFFFFFFFFFFFFF AND CALLER PUSH20 0xFFFFFFFFFFFFFFFFFFFFFFFFFFFFFFFFFFFFFFFF AND EQ PUSH2 0x81E JUMPI PUSH1 0x0 DUP1 REVERT JUMPDEST PUSH2 0x828 DUP3 DUP3 PUSH2 0x267F JUMP JUMPDEST POP POP JUMP JUMPDEST PUSH1 0x3B PUSH1 0x20 MSTORE DUP1 PUSH1 0x0 MSTORE PUSH1 0x40 PUSH1 0x0 KECCAK256 PUSH1 0x0 SWAP2 POP SLOAD SWAP1 PUSH2 0x100 EXP SWAP1 DIV PUSH1 0xFF AND DUP2 JUMP JUMPDEST DUP1 PUSH1 0x35 DUP1 SLOAD SWAP1 POP DUP2 LT PUSH2 0x894 JUMPI PUSH1 0x40 MLOAD PUSH32 0x8C379A000000000000000000000000000000000000000000000000000000000 DUP2 MSTORE PUSH1 0x4 ADD PUSH2 0x88B SWAP1 PUSH2 0x40F8 JUMP JUMPDEST PUSH1 0x40 MLOAD DUP1 SWAP2 SUB SWAP1 REVERT JUMPDEST DUP2 TIMESTAMP PUSH1 0x35 DUP3 DUP2 SLOAD DUP2 LT PUSH2 0x8A3 JUMPI INVALID JUMPDEST SWAP1 PUSH1 0x0 MSTORE PUSH1 0x20 PUSH1 0x0 KECCAK256 SWAP1 PUSH1 0x9 MUL ADD PUSH1 0x7 ADD SLOAD GT ISZERO PUSH2 0x8F6 JUMPI PUSH1 0x40 MLOAD PUSH32 0x8C379A000000000000000000000000000000000000000000000000000000000 DUP2 MSTORE PUSH1 0x4 ADD PUSH2 0x8ED SWAP1 PUSH2 0x42D8 JUMP JUMPDEST PUSH1 0x40 MLOAD DUP1 SWAP2 SUB SWAP1 REVERT JUMPDEST DUP3 PUSH1 0x39 PUSH1 0x0 DUP3 DUP2 MSTORE PUSH1 0x20 ADD SWAP1 DUP2 MSTORE PUSH1 0x20 ADD PUSH1 0x0 KECCAK256 PUSH1 0x0 SWAP1 SLOAD SWAP1 PUSH2 0x100 EXP SWAP1 DIV PUSH1 0xFF AND ISZERO PUSH2 0x958 JUMPI PUSH1 0x40 MLOAD PUSH32 0x8C379A000000000000000000000000000000000000000000000000000000000 DUP2 MSTORE PUSH1 0x4 ADD PUSH2 0x94F SWAP1 PUSH2 0x41D8 JUMP JUMPDEST PUSH1 0x40 MLOAD DUP1 SWAP2 SUB SWAP1 REVERT JUMPDEST PUSH2 0x962 CALLER DUP6 PUSH2 0x26B6 JUMP JUMPDEST PUSH2 0x9A1 JUMPI PUSH1 0x40 MLOAD PUSH32 0x8C379A000000000000000000000000000000000000000000000000000000000 DUP2 MSTORE PUSH1 0x4 ADD PUSH2 0x998 SWAP1 PUSH2 0x4098 JUMP JUMPDEST PUSH1 0x40 MLOAD DUP1 SWAP2 SUB SWAP1 REVERT JUMPDEST PUSH1 0x38 PUSH1 0x0 DUP6 DUP2 MSTORE PUSH1 0x20 ADD SWAP1 DUP2 MSTORE PUSH1 0x20 ADD PUSH1 0x0 KECCAK256 PUSH1 0x0 SWAP1 SLOAD SWAP1 PUSH2 0x100 EXP SWAP1 DIV PUSH1 0xFF AND ISZERO PUSH2 0xA02 JUMPI PUSH1 0x40 MLOAD PUSH32 0x8C379A000000000000000000000000000000000000000000000000000000000 DUP2 MSTORE PUSH1 0x4 ADD PUSH2 0x9F9 SWAP1 PUSH2 0x41B8 JUMP JUMPDEST PUSH1 0x40 MLOAD DUP1 SWAP2 SUB SWAP1 REVERT JUMPDEST PUSH1 0x1 PUSH1 0x38 PUSH1 0x0 DUP7 DUP2 MSTORE PUSH1 0x20 ADD SWAP1 DUP2 MSTORE PUSH1 0x20 ADD PUSH1 0x0 KECCAK256 PUSH1 0x0 PUSH2 0x100 EXP DUP2 SLOAD DUP2 PUSH1 0xFF MUL NOT AND SWAP1 DUP4 ISZERO ISZERO MUL OR SWAP1 SSTORE POP PUSH1 0x36 PUSH1 0x0 CALLER PUSH20 0xFFFFFFFFFFFFFFFFFFFFFFFFFFFFFFFFFFFFFFFF AND PUSH20 0xFFFFFFFFFFFFFFFFFFFFFFFFFFFFFFFFFFFFFFFF AND DUP2 MSTORE PUSH1 0x20 ADD SWAP1 DUP2 MSTORE PUSH1 0x20 ADD PUSH1 0x0 KECCAK256 PUSH1 0x0 SWAP1 SSTORE PUSH2 0xA79 PUSH2 0x2CB1 JUMP JUMPDEST PUSH1 0x35 DUP6 DUP2 SLOAD DUP2 LT PUSH2 0xA86 JUMPI INVALID JUMPDEST SWAP1 PUSH1 0x0 MSTORE PUSH1 0x20 PUSH1 0x0 KECCAK256 SWAP1 PUSH1 0x9 MUL ADD PUSH1 0x40 MLOAD DUP1 PUSH2 0x120 ADD PUSH1 0x40 MSTORE SWAP1 DUP2 PUSH1 0x0 DUP3 ADD PUSH1 0x0 SWAP1 SLOAD SWAP1 PUSH2 0x100 EXP SWAP1 DIV PUSH20 0xFFFFFFFFFFFFFFFFFFFFFFFFFFFFFFFFFFFFFFFF AND PUSH20 0xFFFFFFFFFFFFFFFFFFFFFFFFFFFFFFFFFFFFFFFF AND PUSH20 0xFFFFFFFFFFFFFFFFFFFFFFFFFFFFFFFFFFFFFFFF AND DUP2 MSTORE PUSH1 0x20 ADD PUSH1 0x1 DUP3 ADD DUP1 SLOAD PUSH1 0x1 DUP2 PUSH1 0x1 AND ISZERO PUSH2 0x100 MUL SUB AND PUSH1 0x2 SWAP1 DIV DUP1 PUSH1 0x1F ADD PUSH1 0x20 DUP1 SWAP2 DIV MUL PUSH1 0x20 ADD PUSH1 0x40 MLOAD SWAP1 DUP2 ADD PUSH1 0x40 MSTORE DUP1 SWAP3 SWAP2 SWAP1 DUP2 DUP2 MSTORE PUSH1 0x20 ADD DUP3 DUP1 SLOAD PUSH1 0x1 DUP2 PUSH1 0x1 AND ISZERO PUSH2 0x100 MUL SUB AND PUSH1 0x2 SWAP1 DIV DUP1 ISZERO PUSH2 0xB8F JUMPI DUP1 PUSH1 0x1F LT PUSH2 0xB64 JUMPI PUSH2 0x100 DUP1 DUP4 SLOAD DIV MUL DUP4 MSTORE SWAP2 PUSH1 0x20 ADD SWAP2 PUSH2 0xB8F JUMP JUMPDEST DUP3 ADD SWAP2 SWAP1 PUSH1 0x0 MSTORE PUSH1 0x20 PUSH1 0x0 KECCAK256 SWAP1 JUMPDEST DUP2 SLOAD DUP2 MSTORE SWAP1 PUSH1 0x1 ADD SWAP1 PUSH1 0x20 ADD DUP1 DUP4 GT PUSH2 0xB72 JUMPI DUP3 SWAP1 SUB PUSH1 0x1F AND DUP3 ADD SWAP2 JUMPDEST POP POP POP POP POP DUP2 MSTORE PUSH1 0x20 ADD PUSH1 0x2 DUP3 ADD PUSH1 0x0 SWAP1 SLOAD SWAP1 PUSH2 0x100 EXP SWAP1 DIV PUSH20 0xFFFFFFFFFFFFFFFFFFFFFFFFFFFFFFFFFFFFFFFF AND PUSH20 0xFFFFFFFFFFFFFFFFFFFFFFFFFFFFFFFFFFFFFFFF AND PUSH20 0xFFFFFFFFFFFFFFFFFFFFFFFFFFFFFFFFFFFFFFFF AND DUP2 MSTORE PUSH1 0x20 ADD PUSH1 0x3 DUP3 ADD PUSH1 0x0 SWAP1 SLOAD SWAP1 PUSH2 0x100 EXP SWAP1 DIV PUSH20 0xFFFFFFFFFFFFFFFFFFFFFFFFFFFFFFFFFFFFFFFF AND PUSH20 0xFFFFFFFFFFFFFFFFFFFFFFFFFFFFFFFFFFFFFFFF AND PUSH20 0xFFFFFFFFFFFFFFFFFFFFFFFFFFFFFFFFFFFFFFFF AND DUP2 MSTORE PUSH1 0x20 ADD PUSH1 0x4 DUP3 ADD SLOAD DUP2 MSTORE PUSH1 0x20 ADD PUSH1 0x5 DUP3 ADD SLOAD DUP2 MSTORE PUSH1 0x20 ADD PUSH1 0x6 DUP3 ADD SLOAD DUP2 MSTORE PUSH1 0x20 ADD PUSH1 0x7 DUP3 ADD SLOAD DUP2 MSTORE PUSH1 0x20 ADD PUSH1 0x8 DUP3 ADD SLOAD DUP2 MSTORE POP POP SWAP1 POP PUSH1 0x0 DUP2 PUSH2 0x100 ADD MLOAD EQ ISZERO PUSH2 0xD06 JUMPI DUP1 PUSH1 0x40 ADD MLOAD PUSH20 0xFFFFFFFFFFFFFFFFFFFFFFFFFFFFFFFFFFFFFFFF AND PUSH4 0x42842E0E ADDRESS DUP4 PUSH1 0x0 ADD MLOAD DUP5 PUSH1 0x80 ADD MLOAD PUSH1 0x40 MLOAD DUP5 PUSH4 0xFFFFFFFF AND PUSH1 0xE0 SHL DUP2 MSTORE PUSH1 0x4 ADD PUSH2 0xCCF SWAP4 SWAP3 SWAP2 SWAP1 PUSH2 0x3E5E JUMP JUMPDEST PUSH1 0x0 PUSH1 0x40 MLOAD DUP1 DUP4 SUB DUP2 PUSH1 0x0 DUP8 DUP1 EXTCODESIZE ISZERO DUP1 ISZERO PUSH2 0xCE9 JUMPI PUSH1 0x0 DUP1 REVERT JUMPDEST POP GAS CALL ISZERO DUP1 ISZERO PUSH2 0xCFD JUMPI RETURNDATASIZE PUSH1 0x0 DUP1 RETURNDATACOPY RETURNDATASIZE PUSH1 0x0 REVERT JUMPDEST POP POP POP POP PUSH2 0xDAD JUMP JUMPDEST DUP1 PUSH1 0x40 ADD MLOAD PUSH20 0xFFFFFFFFFFFFFFFFFFFFFFFFFFFFFFFFFFFFFFFF AND PUSH4 0xF242432A ADDRESS DUP4 PUSH1 0x0 ADD MLOAD DUP5 PUSH1 0x80 ADD MLOAD PUSH2 0xD5B PUSH1 0x3C PUSH1 0x0 DUP13 DUP2 MSTORE PUSH1 0x20 ADD SWAP1 DUP2 MSTORE PUSH1 0x20 ADD PUSH1 0x0 KECCAK256 SLOAD DUP8 PUSH1 0xA0 ADD MLOAD PUSH2 0x273E SWAP1 SWAP2 SWAP1 PUSH4 0xFFFFFFFF AND JUMP JUMPDEST PUSH1 0x40 MLOAD DUP6 PUSH4 0xFFFFFFFF AND PUSH1 0xE0 SHL DUP2 MSTORE PUSH1 0x4 ADD PUSH2 0xD7A SWAP5 SWAP4 SWAP3 SWAP2 SWAP1 PUSH2 0x3EDA JUMP JUMPDEST PUSH1 0x0 PUSH1 0x40 MLOAD DUP1 DUP4 SUB DUP2 PUSH1 0x0 DUP8 DUP1 EXTCODESIZE ISZERO DUP1 ISZERO PUSH2 0xD94 JUMPI PUSH1 0x0 DUP1 REVERT JUMPDEST POP GAS CALL ISZERO DUP1 ISZERO PUSH2 0xDA8 JUMPI RETURNDATASIZE PUSH1 0x0 DUP1 RETURNDATACOPY RETURNDATASIZE PUSH1 0x0 REVERT JUMPDEST POP POP POP POP JUMPDEST DUP5 CALLER PUSH20 0xFFFFFFFFFFFFFFFFFFFFFFFFFFFFFFFFFFFFFFFF AND PUSH32 0x987D620F307FF6B94D58743CB7A7509F24071586A77759B77C2D4E29F75A2F9A PUSH2 0xE10 PUSH1 0x3C PUSH1 0x0 DUP11 DUP2 MSTORE PUSH1 0x20 ADD SWAP1 DUP2 MSTORE PUSH1 0x20 ADD PUSH1 0x0 KECCAK256 SLOAD DUP6 PUSH1 0xA0 ADD MLOAD PUSH2 0x273E SWAP1 SWAP2 SWAP1 PUSH4 0xFFFFFFFF AND JUMP JUMPDEST PUSH1 0x40 MLOAD PUSH2 0xE1D SWAP2 SWAP1 PUSH2 0x433A JUMP JUMPDEST PUSH1 0x40 MLOAD DUP1 SWAP2 SUB SWAP1 LOG3 POP POP POP POP POP JUMP JUMPDEST PUSH1 0x3A PUSH1 0x0 SWAP1 SLOAD SWAP1 PUSH2 0x100 EXP SWAP1 DIV PUSH1 0xFF AND DUP2 JUMP JUMPDEST PUSH1 0x0 PUSH1 0x34 PUSH1 0x0 DUP4 PUSH20 0xFFFFFFFFFFFFFFFFFFFFFFFFFFFFFFFFFFFFFFFF AND DUP6 PUSH1 0x0 SHR XOR PUSH1 0x0 SHL DUP2 MSTORE PUSH1 0x20 ADD SWAP1 DUP2 MSTORE PUSH1 0x20 ADD PUSH1 0x0 KECCAK256 SLOAD SWAP1 POP SWAP3 SWAP2 POP POP JUMP JUMPDEST PUSH1 0x3C PUSH1 0x20 MSTORE DUP1 PUSH1 0x0 MSTORE PUSH1 0x40 PUSH1 0x0 KECCAK256 PUSH1 0x0 SWAP2 POP SWAP1 POP SLOAD DUP2 JUMP JUMPDEST PUSH1 0x0 PUSH1 0x34 PUSH1 0x0 DUP4 DUP2 MSTORE PUSH1 0x20 ADD SWAP1 DUP2 MSTORE PUSH1 0x20 ADD PUSH1 0x0 KECCAK256 SLOAD SWAP1 POP SWAP2 SWAP1 POP JUMP JUMPDEST PUSH1 0x3A PUSH1 0x0 SWAP1 SLOAD SWAP1 PUSH2 0x100 EXP SWAP1 DIV PUSH1 0xFF AND ISZERO PUSH2 0xF52 JUMPI PUSH1 0x3B PUSH1 0x0 DUP7 PUSH20 0xFFFFFFFFFFFFFFFFFFFFFFFFFFFFFFFFFFFFFFFF AND PUSH20 0xFFFFFFFFFFFFFFFFFFFFFFFFFFFFFFFFFFFFFFFF AND DUP2 MSTORE PUSH1 0x20 ADD SWAP1 DUP2 MSTORE PUSH1 0x20 ADD PUSH1 0x0 KECCAK256 PUSH1 0x0 SWAP1 SLOAD SWAP1 PUSH2 0x100 EXP SWAP1 DIV PUSH1 0xFF AND PUSH2 0xF51 JUMPI PUSH1 0x40 MLOAD PUSH32 0x8C379A000000000000000000000000000000000000000000000000000000000 DUP2 MSTORE PUSH1 0x4 ADD PUSH2 0xF48 SWAP1 PUSH2 0x4058 JUMP JUMPDEST PUSH1 0x40 MLOAD DUP1 SWAP2 SUB SWAP1 REVERT JUMPDEST JUMPDEST PUSH1 0x0 PUSH1 0x1 SWAP1 POP PUSH2 0xF69 DUP8 DUP8 DUP8 DUP8 DUP6 DUP9 DUP9 PUSH1 0x0 PUSH2 0x1D6C JUMP JUMPDEST POP POP POP POP POP POP POP JUMP JUMPDEST PUSH1 0x33 PUSH1 0x0 SWAP1 SLOAD SWAP1 PUSH2 0x100 EXP SWAP1 DIV PUSH20 0xFFFFFFFFFFFFFFFFFFFFFFFFFFFFFFFFFFFFFFFF AND PUSH20 0xFFFFFFFFFFFFFFFFFFFFFFFFFFFFFFFFFFFFFFFF AND CALLER PUSH20 0xFFFFFFFFFFFFFFFFFFFFFFFFFFFFFFFFFFFFFFFF AND EQ PUSH2 0xFCC JUMPI PUSH1 0x0 DUP1 REVERT JUMPDEST PUSH1 0x0 PUSH20 0xFFFFFFFFFFFFFFFFFFFFFFFFFFFFFFFFFFFFFFFF AND PUSH1 0x33 PUSH1 0x0 SWAP1 SLOAD SWAP1 PUSH2 0x100 EXP SWAP1 DIV PUSH20 0xFFFFFFFFFFFFFFFFFFFFFFFFFFFFFFFFFFFFFFFF AND PUSH20 0xFFFFFFFFFFFFFFFFFFFFFFFFFFFFFFFFFFFFFFFF AND PUSH32 0xC7C0C772ADD429241571AFB3805861FB3CFA2AF374534088B76CDB4325A87E9A PUSH1 0x40 MLOAD PUSH1 0x40 MLOAD DUP1 SWAP2 SUB SWAP1 LOG3 PUSH1 0x0 PUSH1 0x33 PUSH1 0x0 PUSH2 0x100 EXP DUP2 SLOAD DUP2 PUSH20 0xFFFFFFFFFFFFFFFFFFFFFFFFFFFFFFFFFFFFFFFF MUL NOT AND SWAP1 DUP4 PUSH20 0xFFFFFFFFFFFFFFFFFFFFFFFFFFFFFFFFFFFFFFFF AND MUL OR SWAP1 SSTORE POP JUMP JUMPDEST PUSH1 0x0 PUSH1 0x34 PUSH1 0x0 DUP4 DUP6 PUSH1 0x0 SHR XOR PUSH1 0x0 SHL DUP2 MSTORE PUSH1 0x20 ADD SWAP1 DUP2 MSTORE PUSH1 0x20 ADD PUSH1 0x0 KECCAK256 SLOAD SWAP1 POP SWAP3 SWAP2 POP POP JUMP JUMPDEST PUSH1 0x0 PUSH1 0x35 DUP1 SLOAD SWAP1 POP SWAP1 POP SWAP1 JUMP JUMPDEST PUSH1 0x37 DUP2 DUP1 MLOAD PUSH1 0x20 DUP2 ADD DUP3 ADD DUP1 MLOAD DUP5 DUP3 MSTORE PUSH1 0x20 DUP4 ADD PUSH1 0x20 DUP6 ADD KECCAK256 DUP2 DUP4 MSTORE DUP1 SWAP6 POP POP POP POP POP POP PUSH1 0x0 SWAP2 POP SWAP1 POP SLOAD DUP2 JUMP JUMPDEST PUSH1 0x35 DUP2 DUP2 SLOAD DUP2 LT PUSH2 0x10FB JUMPI INVALID JUMPDEST SWAP1 PUSH1 0x0 MSTORE PUSH1 0x20 PUSH1 0x0 KECCAK256 SWAP1 PUSH1 0x9 MUL ADD PUSH1 0x0 SWAP2 POP SWAP1 POP DUP1 PUSH1 0x0 ADD PUSH1 0x0 SWAP1 SLOAD SWAP1 PUSH2 0x100 EXP SWAP1 DIV PUSH20 0xFFFFFFFFFFFFFFFFFFFFFFFFFFFFFFFFFFFFFFFF AND SWAP1 DUP1 PUSH1 0x1 ADD DUP1 SLOAD PUSH1 0x1 DUP2 PUSH1 0x1 AND ISZERO PUSH2 0x100 MUL SUB AND PUSH1 0x2 SWAP1 DIV DUP1 PUSH1 0x1F ADD PUSH1 0x20 DUP1 SWAP2 DIV MUL PUSH1 0x20 ADD PUSH1 0x40 MLOAD SWAP1 DUP2 ADD PUSH1 0x40 MSTORE DUP1 SWAP3 SWAP2 SWAP1 DUP2 DUP2 MSTORE PUSH1 0x20 ADD DUP3 DUP1 SLOAD PUSH1 0x1 DUP2 PUSH1 0x1 AND ISZERO PUSH2 0x100 MUL SUB AND PUSH1 0x2 SWAP1 DIV DUP1 ISZERO PUSH2 0x11CD JUMPI DUP1 PUSH1 0x1F LT PUSH2 0x11A2 JUMPI PUSH2 0x100 DUP1 DUP4 SLOAD DIV MUL DUP4 MSTORE SWAP2 PUSH1 0x20 ADD SWAP2 PUSH2 0x11CD JUMP JUMPDEST DUP3 ADD SWAP2 SWAP1 PUSH1 0x0 MSTORE PUSH1 0x20 PUSH1 0x0 KECCAK256 SWAP1 JUMPDEST DUP2 SLOAD DUP2 MSTORE SWAP1 PUSH1 0x1 ADD SWAP1 PUSH1 0x20 ADD DUP1 DUP4 GT PUSH2 0x11B0 JUMPI DUP3 SWAP1 SUB PUSH1 0x1F AND DUP3 ADD SWAP2 JUMPDEST POP POP POP POP POP SWAP1 DUP1 PUSH1 0x2 ADD PUSH1 0x0 SWAP1 SLOAD SWAP1 PUSH2 0x100 EXP SWAP1 DIV PUSH20 0xFFFFFFFFFFFFFFFFFFFFFFFFFFFFFFFFFFFFFFFF AND SWAP1 DUP1 PUSH1 0x3 ADD PUSH1 0x0 SWAP1 SLOAD SWAP1 PUSH2 0x100 EXP SWAP1 DIV PUSH20 0xFFFFFFFFFFFFFFFFFFFFFFFFFFFFFFFFFFFFFFFF AND SWAP1 DUP1 PUSH1 0x4 ADD SLOAD SWAP1 DUP1 PUSH1 0x5 ADD SLOAD SWAP1 DUP1 PUSH1 0x6 ADD SLOAD SWAP1 DUP1 PUSH1 0x7 ADD SLOAD SWAP1 DUP1 PUSH1 0x8 ADD SLOAD SWAP1 POP DUP10 JUMP JUMPDEST PUSH1 0x33 PUSH1 0x0 SWAP1 SLOAD SWAP1 PUSH2 0x100 EXP SWAP1 DIV PUSH20 0xFFFFFFFFFFFFFFFFFFFFFFFFFFFFFFFFFFFFFFFF AND PUSH20 0xFFFFFFFFFFFFFFFFFFFFFFFFFFFFFFFFFFFFFFFF AND CALLER PUSH20 0xFFFFFFFFFFFFFFFFFFFFFFFFFFFFFFFFFFFFFFFF AND EQ PUSH2 0x129B JUMPI PUSH1 0x0 DUP1 REVERT JUMPDEST PUSH2 0x12C3 DUP3 PUSH20 0xFFFFFFFFFFFFFFFFFFFFFFFFFFFFFFFFFFFFFFFF AND DUP5 PUSH1 0x0 SHR XOR PUSH1 0x0 SHL DUP3 PUSH2 0x267F JUMP JUMPDEST POP POP POP JUMP JUMPDEST PUSH1 0x33 PUSH1 0x0 SWAP1 SLOAD SWAP1 PUSH2 0x100 EXP SWAP1 DIV PUSH20 0xFFFFFFFFFFFFFFFFFFFFFFFFFFFFFFFFFFFFFFFF AND PUSH20 0xFFFFFFFFFFFFFFFFFFFFFFFFFFFFFFFFFFFFFFFF AND CALLER PUSH20 0xFFFFFFFFFFFFFFFFFFFFFFFFFFFFFFFFFFFFFFFF AND EQ PUSH2 0x1322 JUMPI PUSH1 0x0 DUP1 REVERT JUMPDEST PUSH2 0x132B DUP2 PUSH2 0x278E JUMP JUMPDEST POP JUMP JUMPDEST PUSH1 0x33 PUSH1 0x0 SWAP1 SLOAD SWAP1 PUSH2 0x100 EXP SWAP1 DIV PUSH20 0xFFFFFFFFFFFFFFFFFFFFFFFFFFFFFFFFFFFFFFFF AND PUSH20 0xFFFFFFFFFFFFFFFFFFFFFFFFFFFFFFFFFFFFFFFF AND CALLER PUSH20 0xFFFFFFFFFFFFFFFFFFFFFFFFFFFFFFFFFFFFFFFF AND EQ DUP1 PUSH2 0x13D8 JUMPI POP PUSH1 0x0 PUSH20 0xFFFFFFFFFFFFFFFFFFFFFFFFFFFFFFFFFFFFFFFF AND PUSH1 0x33 PUSH1 0x0 SWAP1 SLOAD SWAP1 PUSH2 0x100 EXP SWAP1 DIV PUSH20 0xFFFFFFFFFFFFFFFFFFFFFFFFFFFFFFFFFFFFFFFF AND PUSH20 0xFFFFFFFFFFFFFFFFFFFFFFFFFFFFFFFFFFFFFFFF AND EQ JUMPDEST PUSH2 0x1417 JUMPI PUSH1 0x40 MLOAD PUSH32 0x8C379A000000000000000000000000000000000000000000000000000000000 DUP2 MSTORE PUSH1 0x4 ADD PUSH2 0x140E SWAP1 PUSH2 0x4018 JUMP JUMPDEST PUSH1 0x40 MLOAD DUP1 SWAP2 SUB SWAP1 REVERT JUMPDEST DUP1 PUSH1 0x33 PUSH1 0x0 PUSH2 0x100 EXP DUP2 SLOAD DUP2 PUSH20 0xFFFFFFFFFFFFFFFFFFFFFFFFFFFFFFFFFFFFFFFF MUL NOT AND SWAP1 DUP4 PUSH20 0xFFFFFFFFFFFFFFFFFFFFFFFFFFFFFFFFFFFFFFFF AND MUL OR SWAP1 SSTORE POP POP JUMP JUMPDEST PUSH1 0x36 PUSH1 0x20 MSTORE DUP1 PUSH1 0x0 MSTORE PUSH1 0x40 PUSH1 0x0 KECCAK256 PUSH1 0x0 SWAP2 POP SWAP1 POP SLOAD DUP2 JUMP JUMPDEST PUSH1 0x0 PUSH1 0x1 SWAP1 SLOAD SWAP1 PUSH2 0x100 EXP SWAP1 DIV PUSH1 0xFF AND DUP1 PUSH2 0x1492 JUMPI POP PUSH2 0x1491 PUSH2 0x2888 JUMP JUMPDEST JUMPDEST DUP1 PUSH2 0x14A8 JUMPI POP PUSH1 0x0 DUP1 SLOAD SWAP1 PUSH2 0x100 EXP SWAP1 DIV PUSH1 0xFF AND ISZERO JUMPDEST PUSH2 0x14E7 JUMPI PUSH1 0x40 MLOAD PUSH32 0x8C379A000000000000000000000000000000000000000000000000000000000 DUP2 MSTORE PUSH1 0x4 ADD PUSH2 0x14DE SWAP1 PUSH2 0x4238 JUMP JUMPDEST PUSH1 0x40 MLOAD DUP1 SWAP2 SUB SWAP1 REVERT JUMPDEST PUSH1 0x0 DUP1 PUSH1 0x1 SWAP1 SLOAD SWAP1 PUSH2 0x100 EXP SWAP1 DIV PUSH1 0xFF AND ISZERO SWAP1 POP DUP1 ISZERO PUSH2 0x1537 JUMPI PUSH1 0x1 PUSH1 0x0 PUSH1 0x1 PUSH2 0x100 EXP DUP2 SLOAD DUP2 PUSH1 0xFF MUL NOT AND SWAP1 DUP4 ISZERO ISZERO MUL OR SWAP1 SSTORE POP PUSH1 0x1 PUSH1 0x0 DUP1 PUSH2 0x100 EXP DUP2 SLOAD DUP2 PUSH1 0xFF MUL NOT AND SWAP1 DUP4 ISZERO ISZERO MUL OR SWAP1 SSTORE POP JUMPDEST PUSH1 0x33 PUSH1 0x0 SWAP1 SLOAD SWAP1 PUSH2 0x100 EXP SWAP1 DIV PUSH20 0xFFFFFFFFFFFFFFFFFFFFFFFFFFFFFFFFFFFFFFFF AND PUSH20 0xFFFFFFFFFFFFFFFFFFFFFFFFFFFFFFFFFFFFFFFF AND CALLER PUSH20 0xFFFFFFFFFFFFFFFFFFFFFFFFFFFFFFFFFFFFFFFF AND EQ DUP1 PUSH2 0x15E1 JUMPI POP PUSH1 0x0 PUSH20 0xFFFFFFFFFFFFFFFFFFFFFFFFFFFFFFFFFFFFFFFF AND PUSH1 0x33 PUSH1 0x0 SWAP1 SLOAD SWAP1 PUSH2 0x100 EXP SWAP1 DIV PUSH20 0xFFFFFFFFFFFFFFFFFFFFFFFFFFFFFFFFFFFFFFFF AND PUSH20 0xFFFFFFFFFFFFFFFFFFFFFFFFFFFFFFFFFFFFFFFF AND EQ JUMPDEST PUSH2 0x1620 JUMPI PUSH1 0x40 MLOAD PUSH32 0x8C379A000000000000000000000000000000000000000000000000000000000 DUP2 MSTORE PUSH1 0x4 ADD PUSH2 0x1617 SWAP1 PUSH2 0x4018 JUMP JUMPDEST PUSH1 0x40 MLOAD DUP1 SWAP2 SUB SWAP1 REVERT JUMPDEST DUP2 PUSH1 0x33 PUSH1 0x0 PUSH2 0x100 EXP DUP2 SLOAD DUP2 PUSH20 0xFFFFFFFFFFFFFFFFFFFFFFFFFFFFFFFFFFFFFFFF MUL NOT AND SWAP1 DUP4 PUSH20 0xFFFFFFFFFFFFFFFFFFFFFFFFFFFFFFFFFFFFFFFF AND MUL OR SWAP1 SSTORE POP DUP1 ISZERO PUSH2 0x1682 JUMPI PUSH1 0x0 DUP1 PUSH1 0x1 PUSH2 0x100 EXP DUP2 SLOAD DUP2 PUSH1 0xFF MUL NOT AND SWAP1 DUP4 ISZERO ISZERO MUL OR SWAP1 SSTORE POP JUMPDEST POP POP JUMP JUMPDEST PUSH1 0x3D PUSH1 0x20 MSTORE DUP1 PUSH1 0x0 MSTORE PUSH1 0x40 PUSH1 0x0 KECCAK256 PUSH1 0x0 SWAP2 POP SWAP1 POP SLOAD DUP2 JUMP JUMPDEST DUP2 PUSH1 0x35 DUP1 SLOAD SWAP1 POP DUP2 LT PUSH2 0x16E6 JUMPI PUSH1 0x40 MLOAD PUSH32 0x8C379A000000000000000000000000000000000000000000000000000000000 DUP2 MSTORE PUSH1 0x4 ADD PUSH2 0x16DD SWAP1 PUSH2 0x40F8 JUMP JUMPDEST PUSH1 0x40 MLOAD DUP1 SWAP2 SUB SWAP1 REVERT JUMPDEST DUP3 TIMESTAMP PUSH1 0x35 DUP3 DUP2 SLOAD DUP2 LT PUSH2 0x16F5 JUMPI INVALID JUMPDEST SWAP1 PUSH1 0x0 MSTORE PUSH1 0x20 PUSH1 0x0 KECCAK256 SWAP1 PUSH1 0x9 MUL ADD PUSH1 0x7 ADD SLOAD GT PUSH2 0x1747 JUMPI PUSH1 0x40 MLOAD PUSH32 0x8C379A000000000000000000000000000000000000000000000000000000000 DUP2 MSTORE PUSH1 0x4 ADD PUSH2 0x173E SWAP1 PUSH2 0x4118 JUMP JUMPDEST PUSH1 0x40 MLOAD DUP1 SWAP2 SUB SWAP1 REVERT JUMPDEST DUP4 PUSH1 0x39 PUSH1 0x0 DUP3 DUP2 MSTORE PUSH1 0x20 ADD SWAP1 DUP2 MSTORE PUSH1 0x20 ADD PUSH1 0x0 KECCAK256 PUSH1 0x0 SWAP1 SLOAD SWAP1 PUSH2 0x100 EXP SWAP1 DIV PUSH1 0xFF AND ISZERO PUSH2 0x17A9 JUMPI PUSH1 0x40 MLOAD PUSH32 0x8C379A000000000000000000000000000000000000000000000000000000000 DUP2 MSTORE PUSH1 0x4 ADD PUSH2 0x17A0 SWAP1 PUSH2 0x41D8 JUMP JUMPDEST PUSH1 0x40 MLOAD DUP1 SWAP2 SUB SWAP1 REVERT JUMPDEST PUSH1 0x0 PUSH1 0x35 DUP7 DUP2 SLOAD DUP2 LT PUSH2 0x17B8 JUMPI INVALID JUMPDEST SWAP1 PUSH1 0x0 MSTORE PUSH1 0x20 PUSH1 0x0 KECCAK256 SWAP1 PUSH1 0x9 MUL ADD SWAP1 POP PUSH1 0x1 DUP6 LT ISZERO DUP1 ISZERO PUSH2 0x17DD JUMPI POP DUP1 PUSH1 0x5 ADD SLOAD DUP6 GT ISZERO JUMPDEST PUSH2 0x181C JUMPI PUSH1 0x40 MLOAD PUSH32 0x8C379A000000000000000000000000000000000000000000000000000000000 DUP2 MSTORE PUSH1 0x4 ADD PUSH2 0x1813 SWAP1 PUSH2 0x4278 JUMP JUMPDEST PUSH1 0x40 MLOAD DUP1 SWAP2 SUB SWAP1 REVERT JUMPDEST DUP1 PUSH1 0x5 ADD SLOAD PUSH2 0x1847 DUP7 PUSH1 0x3C PUSH1 0x0 DUP11 DUP2 MSTORE PUSH1 0x20 ADD SWAP1 DUP2 MSTORE PUSH1 0x20 ADD PUSH1 0x0 KECCAK256 SLOAD PUSH2 0x289F SWAP1 SWAP2 SWAP1 PUSH4 0xFFFFFFFF AND JUMP JUMPDEST GT ISZERO PUSH2 0x1888 JUMPI PUSH1 0x40 MLOAD PUSH32 0x8C379A000000000000000000000000000000000000000000000000000000000 DUP2 MSTORE PUSH1 0x4 ADD PUSH2 0x187F SWAP1 PUSH2 0x42F8 JUMP JUMPDEST PUSH1 0x40 MLOAD DUP1 SWAP2 SUB SWAP1 REVERT JUMPDEST PUSH1 0x0 PUSH2 0x18B7 DUP3 PUSH1 0x5 ADD SLOAD PUSH2 0x18A9 DUP5 PUSH1 0x6 ADD SLOAD DUP10 PUSH2 0x28F4 SWAP1 SWAP2 SWAP1 PUSH4 0xFFFFFFFF AND JUMP JUMPDEST PUSH2 0x2964 SWAP1 SWAP2 SWAP1 PUSH4 0xFFFFFFFF AND JUMP JUMPDEST SWAP1 POP PUSH2 0x18DF DUP7 PUSH1 0x3C PUSH1 0x0 DUP11 DUP2 MSTORE PUSH1 0x20 ADD SWAP1 DUP2 MSTORE PUSH1 0x20 ADD PUSH1 0x0 KECCAK256 SLOAD PUSH2 0x289F SWAP1 SWAP2 SWAP1 PUSH4 0xFFFFFFFF AND JUMP JUMPDEST PUSH1 0x3C PUSH1 0x0 DUP10 DUP2 MSTORE PUSH1 0x20 ADD SWAP1 DUP2 MSTORE PUSH1 0x20 ADD PUSH1 0x0 KECCAK256 DUP2 SWAP1 SSTORE POP PUSH2 0x191C DUP2 PUSH1 0x3D PUSH1 0x0 DUP11 DUP2 MSTORE PUSH1 0x20 ADD SWAP1 DUP2 MSTORE PUSH1 0x20 ADD PUSH1 0x0 KECCAK256 SLOAD PUSH2 0x289F SWAP1 SWAP2 SWAP1 PUSH4 0xFFFFFFFF AND JUMP JUMPDEST PUSH1 0x3D PUSH1 0x0 DUP10 DUP2 MSTORE PUSH1 0x20 ADD SWAP1 DUP2 MSTORE PUSH1 0x20 ADD PUSH1 0x0 KECCAK256 DUP2 SWAP1 SSTORE POP DUP2 PUSH1 0x5 ADD SLOAD PUSH1 0x3C PUSH1 0x0 DUP10 DUP2 MSTORE PUSH1 0x20 ADD SWAP1 DUP2 MSTORE PUSH1 0x20 ADD PUSH1 0x0 KECCAK256 SLOAD EQ ISZERO PUSH2 0x197F JUMPI PUSH1 0x1 PUSH1 0x39 PUSH1 0x0 DUP10 DUP2 MSTORE PUSH1 0x20 ADD SWAP1 DUP2 MSTORE PUSH1 0x20 ADD PUSH1 0x0 KECCAK256 PUSH1 0x0 PUSH2 0x100 EXP DUP2 SLOAD DUP2 PUSH1 0xFF MUL NOT AND SWAP1 DUP4 ISZERO ISZERO MUL OR SWAP1 SSTORE POP JUMPDEST PUSH1 0x0 PUSH20 0xFFFFFFFFFFFFFFFFFFFFFFFFFFFFFFFFFFFFFFFF AND DUP3 PUSH1 0x3 ADD PUSH1 0x0 SWAP1 SLOAD SWAP1 PUSH2 0x100 EXP SWAP1 DIV PUSH20 0xFFFFFFFFFFFFFFFFFFFFFFFFFFFFFFFFFFFFFFFF AND PUSH20 0xFFFFFFFFFFFFFFFFFFFFFFFFFFFFFFFFFFFFFFFF AND EQ ISZERO PUSH2 0x1A8E JUMPI CALLVALUE DUP2 EQ PUSH2 0x1A1A JUMPI PUSH1 0x40 MLOAD PUSH32 0x8C379A000000000000000000000000000000000000000000000000000000000 DUP2 MSTORE PUSH1 0x4 ADD PUSH2 0x1A11 SWAP1 PUSH2 0x4298 JUMP JUMPDEST PUSH1 0x40 MLOAD DUP1 SWAP2 SUB SWAP1 REVERT JUMPDEST DUP2 PUSH1 0x0 ADD PUSH1 0x0 SWAP1 SLOAD SWAP1 PUSH2 0x100 EXP SWAP1 DIV PUSH20 0xFFFFFFFFFFFFFFFFFFFFFFFFFFFFFFFFFFFFFFFF AND PUSH20 0xFFFFFFFFFFFFFFFFFFFFFFFFFFFFFFFFFFFFFFFF AND PUSH2 0x8FC DUP4 PUSH1 0x6 ADD SLOAD SWAP1 DUP2 ISZERO MUL SWAP1 PUSH1 0x40 MLOAD PUSH1 0x0 PUSH1 0x40 MLOAD DUP1 DUP4 SUB DUP2 DUP6 DUP9 DUP9 CALL SWAP4 POP POP POP POP ISZERO DUP1 ISZERO PUSH2 0x1A88 JUMPI RETURNDATASIZE PUSH1 0x0 DUP1 RETURNDATACOPY RETURNDATASIZE PUSH1 0x0 REVERT JUMPDEST POP PUSH2 0x1B04 JUMP JUMPDEST PUSH2 0x1B03 CALLER DUP4 PUSH1 0x0 ADD PUSH1 0x0 SWAP1 SLOAD SWAP1 PUSH2 0x100 EXP SWAP1 DIV PUSH20 0xFFFFFFFFFFFFFFFFFFFFFFFFFFFFFFFFFFFFFFFF AND DUP4 DUP6 PUSH1 0x3 ADD PUSH1 0x0 SWAP1 SLOAD SWAP1 PUSH2 0x100 EXP SWAP1 DIV PUSH20 0xFFFFFFFFFFFFFFFFFFFFFFFFFFFFFFFFFFFFFFFF AND PUSH20 0xFFFFFFFFFFFFFFFFFFFFFFFFFFFFFFFFFFFFFFFF AND PUSH2 0x29BA SWAP1 SWAP4 SWAP3 SWAP2 SWAP1 PUSH4 0xFFFFFFFF AND JUMP JUMPDEST JUMPDEST PUSH1 0x0 DUP3 PUSH1 0x8 ADD SLOAD EQ ISZERO PUSH2 0x1BAD JUMPI DUP2 PUSH1 0x2 ADD PUSH1 0x0 SWAP1 SLOAD SWAP1 PUSH2 0x100 EXP SWAP1 DIV PUSH20 0xFFFFFFFFFFFFFFFFFFFFFFFFFFFFFFFFFFFFFFFF AND PUSH20 0xFFFFFFFFFFFFFFFFFFFFFFFFFFFFFFFFFFFFFFFF AND PUSH4 0x42842E0E ADDRESS CALLER DUP6 PUSH1 0x4 ADD SLOAD PUSH1 0x40 MLOAD DUP5 PUSH4 0xFFFFFFFF AND PUSH1 0xE0 SHL DUP2 MSTORE PUSH1 0x4 ADD PUSH2 0x1B76 SWAP4 SWAP3 SWAP2 SWAP1 PUSH2 0x3E5E JUMP JUMPDEST PUSH1 0x0 PUSH1 0x40 MLOAD DUP1 DUP4 SUB DUP2 PUSH1 0x0 DUP8 DUP1 EXTCODESIZE ISZERO DUP1 ISZERO PUSH2 0x1B90 JUMPI PUSH1 0x0 DUP1 REVERT JUMPDEST POP GAS CALL ISZERO DUP1 ISZERO PUSH2 0x1BA4 JUMPI RETURNDATASIZE PUSH1 0x0 DUP1 RETURNDATACOPY RETURNDATASIZE PUSH1 0x0 REVERT JUMPDEST POP POP POP POP PUSH2 0x1C4B JUMP JUMPDEST DUP2 PUSH1 0x2 ADD PUSH1 0x0 SWAP1 SLOAD SWAP1 PUSH2 0x100 EXP SWAP1 DIV PUSH20 0xFFFFFFFFFFFFFFFFFFFFFFFFFFFFFFFFFFFFFFFF AND PUSH20 0xFFFFFFFFFFFFFFFFFFFFFFFFFFFFFFFFFFFFFFFF AND PUSH4 0xF242432A ADDRESS CALLER DUP6 PUSH1 0x4 ADD SLOAD DUP7 PUSH1 0x5 ADD SLOAD PUSH1 0x40 MLOAD DUP6 PUSH4 0xFFFFFFFF AND PUSH1 0xE0 SHL DUP2 MSTORE PUSH1 0x4 ADD PUSH2 0x1C18 SWAP5 SWAP4 SWAP3 SWAP2 SWAP1 PUSH2 0x3EDA JUMP JUMPDEST PUSH1 0x0 PUSH1 0x40 MLOAD DUP1 DUP4 SUB DUP2 PUSH1 0x0 DUP8 DUP1 EXTCODESIZE ISZERO DUP1 ISZERO PUSH2 0x1C32 JUMPI PUSH1 0x0 DUP1 REVERT JUMPDEST POP GAS CALL ISZERO DUP1 ISZERO PUSH2 0x1C46 JUMPI RETURNDATASIZE PUSH1 0x0 DUP1 RETURNDATACOPY RETURNDATASIZE PUSH1 0x0 REVERT JUMPDEST POP POP POP POP JUMPDEST DUP7 CALLER PUSH20 0xFFFFFFFFFFFFFFFFFFFFFFFFFFFFFFFFFFFFFFFF AND PUSH32 0x36A39CF3F9B8206DB312650E7D954482535A2E33FB0B54E1030F149ED213823A DUP9 DUP5 PUSH1 0x40 MLOAD PUSH2 0x1C94 SWAP3 SWAP2 SWAP1 PUSH2 0x4355 JUMP JUMPDEST PUSH1 0x40 MLOAD DUP1 SWAP2 SUB SWAP1 LOG3 POP POP POP POP POP POP POP JUMP JUMPDEST PUSH1 0x39 PUSH1 0x20 MSTORE DUP1 PUSH1 0x0 MSTORE PUSH1 0x40 PUSH1 0x0 KECCAK256 PUSH1 0x0 SWAP2 POP SLOAD SWAP1 PUSH2 0x100 EXP SWAP1 DIV PUSH1 0xFF AND DUP2 JUMP JUMPDEST PUSH1 0x33 PUSH1 0x0 SWAP1 SLOAD SWAP1 PUSH2 0x100 EXP SWAP1 DIV PUSH20 0xFFFFFFFFFFFFFFFFFFFFFFFFFFFFFFFFFFFFFFFF AND PUSH20 0xFFFFFFFFFFFFFFFFFFFFFFFFFFFFFFFFFFFFFFFF AND CALLER PUSH20 0xFFFFFFFFFFFFFFFFFFFFFFFFFFFFFFFFFFFFFFFF AND EQ PUSH2 0x1D1F JUMPI PUSH1 0x0 DUP1 REVERT JUMPDEST PUSH2 0x1D31 DUP3 DUP5 PUSH1 0x0 SHR XOR PUSH1 0x0 SHL DUP3 PUSH2 0x267F JUMP JUMPDEST POP POP POP JUMP JUMPDEST PUSH1 0x38 PUSH1 0x20 MSTORE DUP1 PUSH1 0x0 MSTORE PUSH1 0x40 PUSH1 0x0 KECCAK256 PUSH1 0x0 SWAP2 POP SLOAD SWAP1 PUSH2 0x100 EXP SWAP1 DIV PUSH1 0xFF AND DUP2 JUMP JUMPDEST PUSH1 0x0 PUSH4 0xF23A6E61 PUSH1 0xE0 SHL SWAP1 POP SWAP7 SWAP6 POP POP POP POP POP POP JUMP JUMPDEST CALLER PUSH1 0x0 PUSH1 0x36 PUSH1 0x0 DUP4 PUSH20 0xFFFFFFFFFFFFFFFFFFFFFFFFFFFFFFFFFFFFFFFF AND PUSH20 0xFFFFFFFFFFFFFFFFFFFFFFFFFFFFFFFFFFFFFFFF AND DUP2 MSTORE PUSH1 0x20 ADD SWAP1 DUP2 MSTORE PUSH1 0x20 ADD PUSH1 0x0 KECCAK256 SLOAD GT ISZERO PUSH2 0x1EA1 JUMPI PUSH1 0x39 PUSH1 0x0 PUSH1 0x1 PUSH1 0x36 PUSH1 0x0 DUP6 PUSH20 0xFFFFFFFFFFFFFFFFFFFFFFFFFFFFFFFFFFFFFFFF AND PUSH20 0xFFFFFFFFFFFFFFFFFFFFFFFFFFFFFFFFFFFFFFFF AND DUP2 MSTORE PUSH1 0x20 ADD SWAP1 DUP2 MSTORE PUSH1 0x20 ADD PUSH1 0x0 KECCAK256 SLOAD SUB DUP2 MSTORE PUSH1 0x20 ADD SWAP1 DUP2 MSTORE PUSH1 0x20 ADD PUSH1 0x0 KECCAK256 PUSH1 0x0 SWAP1 SLOAD SWAP1 PUSH2 0x100 EXP SWAP1 DIV PUSH1 0xFF AND ISZERO PUSH2 0x1E65 JUMPI PUSH1 0x36 PUSH1 0x0 DUP3 PUSH20 0xFFFFFFFFFFFFFFFFFFFFFFFFFFFFFFFFFFFFFFFF AND PUSH20 0xFFFFFFFFFFFFFFFFFFFFFFFFFFFFFFFFFFFFFFFF AND DUP2 MSTORE PUSH1 0x20 ADD SWAP1 DUP2 MSTORE PUSH1 0x20 ADD PUSH1 0x0 KECCAK256 PUSH1 0x0 SWAP1 SSTORE PUSH2 0x1EA0 JUMP JUMPDEST PUSH1 0x40 MLOAD PUSH32 0x8C379A000000000000000000000000000000000000000000000000000000000 DUP2 MSTORE PUSH1 0x4 ADD PUSH2 0x1E97 SWAP1 PUSH2 0x40D8 JUMP JUMPDEST PUSH1 0x40 MLOAD DUP1 SWAP2 SUB SWAP1 REVERT JUMPDEST JUMPDEST DUP9 PUSH1 0x0 PUSH1 0x37 DUP3 PUSH1 0x40 MLOAD PUSH2 0x1EB4 SWAP2 SWAP1 PUSH2 0x3D09 JUMP JUMPDEST SWAP1 DUP2 MSTORE PUSH1 0x20 ADD PUSH1 0x40 MLOAD DUP1 SWAP2 SUB SWAP1 KECCAK256 SLOAD GT ISZERO PUSH2 0x1FDB JUMPI PUSH1 0x0 PUSH1 0x1 PUSH1 0x37 DUP4 PUSH1 0x40 MLOAD PUSH2 0x1EDD SWAP2 SWAP1 PUSH2 0x3D09 JUMP JUMPDEST SWAP1 DUP2 MSTORE PUSH1 0x20 ADD PUSH1 0x40 MLOAD DUP1 SWAP2 SUB SWAP1 KECCAK256 SLOAD SUB SWAP1 POP PUSH1 0x0 PUSH1 0x36 PUSH1 0x0 PUSH1 0x35 DUP5 DUP2 SLOAD DUP2 LT PUSH2 0x1F02 JUMPI INVALID JUMPDEST SWAP1 PUSH1 0x0 MSTORE PUSH1 0x20 PUSH1 0x0 KECCAK256 SWAP1 PUSH1 0x9 MUL ADD PUSH1 0x0 ADD PUSH1 0x0 SWAP1 SLOAD SWAP1 PUSH2 0x100 EXP SWAP1 DIV PUSH20 0xFFFFFFFFFFFFFFFFFFFFFFFFFFFFFFFFFFFFFFFF AND PUSH20 0xFFFFFFFFFFFFFFFFFFFFFFFFFFFFFFFFFFFFFFFF AND PUSH20 0xFFFFFFFFFFFFFFFFFFFFFFFFFFFFFFFFFFFFFFFF AND DUP2 MSTORE PUSH1 0x20 ADD SWAP1 DUP2 MSTORE PUSH1 0x20 ADD PUSH1 0x0 KECCAK256 SLOAD GT DUP1 ISZERO PUSH2 0x1F99 JUMPI POP TIMESTAMP PUSH1 0x35 DUP3 DUP2 SLOAD DUP2 LT PUSH2 0x1F85 JUMPI INVALID JUMPDEST SWAP1 PUSH1 0x0 MSTORE PUSH1 0x20 PUSH1 0x0 KECCAK256 SWAP1 PUSH1 0x9 MUL ADD PUSH1 0x7 ADD SLOAD GT JUMPDEST ISZERO PUSH2 0x1FD9 JUMPI PUSH1 0x40 MLOAD PUSH32 0x8C379A000000000000000000000000000000000000000000000000000000000 DUP2 MSTORE PUSH1 0x4 ADD PUSH2 0x1FD0 SWAP1 PUSH2 0x3FF8 JUMP JUMPDEST PUSH1 0x40 MLOAD DUP1 SWAP2 SUB SWAP1 REVERT JUMPDEST POP JUMPDEST PUSH1 0x0 DUP6 EQ ISZERO PUSH2 0x201F JUMPI PUSH1 0x40 MLOAD PUSH32 0x8C379A000000000000000000000000000000000000000000000000000000000 DUP2 MSTORE PUSH1 0x4 ADD PUSH2 0x2016 SWAP1 PUSH2 0x40B8 JUMP JUMPDEST PUSH1 0x40 MLOAD DUP1 SWAP2 SUB SWAP1 REVERT JUMPDEST PUSH1 0x0 DUP5 EQ ISZERO PUSH2 0x2063 JUMPI PUSH1 0x40 MLOAD PUSH32 0x8C379A000000000000000000000000000000000000000000000000000000000 DUP2 MSTORE PUSH1 0x4 ADD PUSH2 0x205A SWAP1 PUSH2 0x4038 JUMP JUMPDEST PUSH1 0x40 MLOAD DUP1 SWAP2 SUB SWAP1 REVERT JUMPDEST PUSH1 0xF DUP11 MLOAD GT ISZERO PUSH2 0x20A8 JUMPI PUSH1 0x40 MLOAD PUSH32 0x8C379A000000000000000000000000000000000000000000000000000000000 DUP2 MSTORE PUSH1 0x4 ADD PUSH2 0x209F SWAP1 PUSH2 0x41F8 JUMP JUMPDEST PUSH1 0x40 MLOAD DUP1 SWAP2 SUB SWAP1 REVERT JUMPDEST PUSH2 0x20B0 PUSH2 0x2CB1 JUMP JUMPDEST CALLER DUP2 PUSH1 0x0 ADD SWAP1 PUSH20 0xFFFFFFFFFFFFFFFFFFFFFFFFFFFFFFFFFFFFFFFF AND SWAP1 DUP2 PUSH20 0xFFFFFFFFFFFFFFFFFFFFFFFFFFFFFFFFFFFFFFFF AND DUP2 MSTORE POP POP DUP11 DUP2 PUSH1 0x20 ADD DUP2 SWAP1 MSTORE POP DUP10 DUP2 PUSH1 0x40 ADD SWAP1 PUSH20 0xFFFFFFFFFFFFFFFFFFFFFFFFFFFFFFFFFFFFFFFF AND SWAP1 DUP2 PUSH20 0xFFFFFFFFFFFFFFFFFFFFFFFFFFFFFFFFFFFFFFFF AND DUP2 MSTORE POP POP DUP9 DUP2 PUSH1 0x60 ADD SWAP1 PUSH20 0xFFFFFFFFFFFFFFFFFFFFFFFFFFFFFFFFFFFFFFFF AND SWAP1 DUP2 PUSH20 0xFFFFFFFFFFFFFFFFFFFFFFFFFFFFFFFFFFFFFFFF AND DUP2 MSTORE POP POP DUP8 DUP2 PUSH1 0x80 ADD DUP2 DUP2 MSTORE POP POP DUP7 DUP2 PUSH1 0xA0 ADD DUP2 DUP2 MSTORE POP POP DUP6 DUP2 PUSH1 0xC0 ADD DUP2 DUP2 MSTORE POP POP PUSH2 0x2192 DUP6 TIMESTAMP PUSH2 0x289F SWAP1 SWAP2 SWAP1 PUSH4 0xFFFFFFFF AND JUMP JUMPDEST DUP2 PUSH1 0xE0 ADD DUP2 DUP2 MSTORE POP POP DUP4 DUP2 PUSH2 0x100 ADD DUP2 DUP2 MSTORE POP POP PUSH1 0x0 PUSH1 0x35 DUP1 SLOAD SWAP1 POP SWAP1 POP PUSH1 0x35 DUP3 SWAP1 DUP1 PUSH1 0x1 DUP2 SLOAD ADD DUP1 DUP3 SSTORE DUP1 SWAP2 POP POP PUSH1 0x1 SWAP1 SUB SWAP1 PUSH1 0x0 MSTORE PUSH1 0x20 PUSH1 0x0 KECCAK256 SWAP1 PUSH1 0x9 MUL ADD PUSH1 0x0 SWAP1 SWAP2 SWAP1 SWAP2 SWAP1 SWAP2 POP PUSH1 0x0 DUP3 ADD MLOAD DUP2 PUSH1 0x0 ADD PUSH1 0x0 PUSH2 0x100 EXP DUP2 SLOAD DUP2 PUSH20 0xFFFFFFFFFFFFFFFFFFFFFFFFFFFFFFFFFFFFFFFF MUL NOT AND SWAP1 DUP4 PUSH20 0xFFFFFFFFFFFFFFFFFFFFFFFFFFFFFFFFFFFFFFFF AND MUL OR SWAP1 SSTORE POP PUSH1 0x20 DUP3 ADD MLOAD DUP2 PUSH1 0x1 ADD SWAP1 DUP1 MLOAD SWAP1 PUSH1 0x20 ADD SWAP1 PUSH2 0x223F SWAP3 SWAP2 SWAP1 PUSH2 0x2D3F JUMP JUMPDEST POP PUSH1 0x40 DUP3 ADD MLOAD DUP2 PUSH1 0x2 ADD PUSH1 0x0 PUSH2 0x100 EXP DUP2 SLOAD DUP2 PUSH20 0xFFFFFFFFFFFFFFFFFFFFFFFFFFFFFFFFFFFFFFFF MUL NOT AND SWAP1 DUP4 PUSH20 0xFFFFFFFFFFFFFFFFFFFFFFFFFFFFFFFFFFFFFFFF AND MUL OR SWAP1 SSTORE POP PUSH1 0x60 DUP3 ADD MLOAD DUP2 PUSH1 0x3 ADD PUSH1 0x0 PUSH2 0x100 EXP DUP2 SLOAD DUP2 PUSH20 0xFFFFFFFFFFFFFFFFFFFFFFFFFFFFFFFFFFFFFFFF MUL NOT AND SWAP1 DUP4 PUSH20 0xFFFFFFFFFFFFFFFFFFFFFFFFFFFFFFFFFFFFFFFF AND MUL OR SWAP1 SSTORE POP PUSH1 0x80 DUP3 ADD MLOAD DUP2 PUSH1 0x4 ADD SSTORE PUSH1 0xA0 DUP3 ADD MLOAD DUP2 PUSH1 0x5 ADD SSTORE PUSH1 0xC0 DUP3 ADD MLOAD DUP2 PUSH1 0x6 ADD SSTORE PUSH1 0xE0 DUP3 ADD MLOAD DUP2 PUSH1 0x7 ADD SSTORE PUSH2 0x100 DUP3 ADD MLOAD DUP2 PUSH1 0x8 ADD SSTORE POP POP PUSH1 0x35 DUP1 SLOAD SWAP1 POP PUSH1 0x36 PUSH1 0x0 CALLER PUSH20 0xFFFFFFFFFFFFFFFFFFFFFFFFFFFFFFFFFFFFFFFF AND PUSH20 0xFFFFFFFFFFFFFFFFFFFFFFFFFFFFFFFFFFFFFFFF AND DUP2 MSTORE PUSH1 0x20 ADD SWAP1 DUP2 MSTORE PUSH1 0x20 ADD PUSH1 0x0 KECCAK256 DUP2 SWAP1 SSTORE POP PUSH1 0x35 DUP1 SLOAD SWAP1 POP PUSH1 0x37 DUP14 PUSH1 0x40 MLOAD PUSH2 0x2362 SWAP2 SWAP1 PUSH2 0x3D09 JUMP JUMPDEST SWAP1 DUP2 MSTORE PUSH1 0x20 ADD PUSH1 0x40 MLOAD DUP1 SWAP2 SUB SWAP1 KECCAK256 DUP2 SWAP1 SSTORE POP PUSH1 0x0 DUP6 EQ ISZERO PUSH2 0x24CD JUMPI PUSH1 0x1 DUP9 EQ PUSH2 0x23C0 JUMPI PUSH1 0x40 MLOAD PUSH32 0x8C379A000000000000000000000000000000000000000000000000000000000 DUP2 MSTORE PUSH1 0x4 ADD PUSH2 0x23B7 SWAP1 PUSH2 0x4198 JUMP JUMPDEST PUSH1 0x40 MLOAD DUP1 SWAP2 SUB SWAP1 REVERT JUMPDEST DUP11 PUSH20 0xFFFFFFFFFFFFFFFFFFFFFFFFFFFFFFFFFFFFFFFF AND PUSH4 0x42842E0E CALLER ADDRESS DUP13 PUSH1 0x40 MLOAD DUP5 PUSH4 0xFFFFFFFF AND PUSH1 0xE0 SHL DUP2 MSTORE PUSH1 0x4 ADD PUSH2 0x23FD SWAP4 SWAP3 SWAP2 SWAP1 PUSH2 0x3D3B JUMP JUMPDEST PUSH1 0x0 PUSH1 0x40 MLOAD DUP1 DUP4 SUB DUP2 PUSH1 0x0 DUP8 DUP1 EXTCODESIZE ISZERO DUP1 ISZERO PUSH2 0x2417 JUMPI PUSH1 0x0 DUP1 REVERT JUMPDEST POP GAS CALL ISZERO DUP1 ISZERO PUSH2 0x242B JUMPI RETURNDATASIZE PUSH1 0x0 DUP1 RETURNDATACOPY RETURNDATASIZE PUSH1 0x0 REVERT JUMPDEST POP POP POP POP PUSH1 0x3E PUSH1 0x0 SWAP1 SLOAD SWAP1 PUSH2 0x100 EXP SWAP1 DIV PUSH20 0xFFFFFFFFFFFFFFFFFFFFFFFFFFFFFFFFFFFFFFFF AND PUSH20 0xFFFFFFFFFFFFFFFFFFFFFFFFFFFFFFFFFFFFFFFF AND PUSH4 0x4091214C DUP13 DUP12 PUSH1 0x1 PUSH1 0x35 DUP1 SLOAD SWAP1 POP SUB PUSH1 0x40 MLOAD DUP5 PUSH4 0xFFFFFFFF AND PUSH1 0xE0 SHL DUP2 MSTORE PUSH1 0x4 ADD PUSH2 0x2496 SWAP4 SWAP3 SWAP2 SWAP1 PUSH2 0x3F69 JUMP JUMPDEST PUSH1 0x0 PUSH1 0x40 MLOAD DUP1 DUP4 SUB DUP2 PUSH1 0x0 DUP8 DUP1 EXTCODESIZE ISZERO DUP1 ISZERO PUSH2 0x24B0 JUMPI PUSH1 0x0 DUP1 REVERT JUMPDEST POP GAS CALL ISZERO DUP1 ISZERO PUSH2 0x24C4 JUMPI RETURNDATASIZE PUSH1 0x0 DUP1 RETURNDATACOPY RETURNDATASIZE PUSH1 0x0 REVERT JUMPDEST POP POP POP POP PUSH2 0x2622 JUMP JUMPDEST PUSH1 0x0 DUP9 EQ ISZERO PUSH2 0x2511 JUMPI PUSH1 0x40 MLOAD PUSH32 0x8C379A000000000000000000000000000000000000000000000000000000000 DUP2 MSTORE PUSH1 0x4 ADD PUSH2 0x2508 SWAP1 PUSH2 0x4198 JUMP JUMPDEST PUSH1 0x40 MLOAD DUP1 SWAP2 SUB SWAP1 REVERT JUMPDEST DUP11 PUSH20 0xFFFFFFFFFFFFFFFFFFFFFFFFFFFFFFFFFFFFFFFF AND PUSH4 0xF242432A CALLER ADDRESS DUP13 DUP13 PUSH1 0x40 MLOAD DUP6 PUSH4 0xFFFFFFFF AND PUSH1 0xE0 SHL DUP2 MSTORE PUSH1 0x4 ADD PUSH2 0x2550 SWAP5 SWAP4 SWAP3 SWAP2 SWAP1 PUSH2 0x3D72 JUMP JUMPDEST PUSH1 0x0 PUSH1 0x40 MLOAD DUP1 DUP4 SUB DUP2 PUSH1 0x0 DUP8 DUP1 EXTCODESIZE ISZERO DUP1 ISZERO PUSH2 0x256A JUMPI PUSH1 0x0 DUP1 REVERT JUMPDEST POP GAS CALL ISZERO DUP1 ISZERO PUSH2 0x257E JUMPI RETURNDATASIZE PUSH1 0x0 DUP1 RETURNDATACOPY RETURNDATASIZE PUSH1 0x0 REVERT JUMPDEST POP POP POP POP PUSH1 0x3E PUSH1 0x0 SWAP1 SLOAD SWAP1 PUSH2 0x100 EXP SWAP1 DIV PUSH20 0xFFFFFFFFFFFFFFFFFFFFFFFFFFFFFFFFFFFFFFFF AND PUSH20 0xFFFFFFFFFFFFFFFFFFFFFFFFFFFFFFFFFFFFFFFF AND PUSH4 0xF5444C67 DUP13 DUP5 PUSH1 0x0 ADD MLOAD DUP13 PUSH1 0x1 PUSH1 0x35 DUP1 SLOAD SWAP1 POP SUB PUSH1 0x40 MLOAD DUP6 PUSH4 0xFFFFFFFF AND PUSH1 0xE0 SHL DUP2 MSTORE PUSH1 0x4 ADD PUSH2 0x25EF SWAP5 SWAP4 SWAP3 SWAP2 SWAP1 PUSH2 0x3E95 JUMP JUMPDEST PUSH1 0x0 PUSH1 0x40 MLOAD DUP1 DUP4 SUB DUP2 PUSH1 0x0 DUP8 DUP1 EXTCODESIZE ISZERO DUP1 ISZERO PUSH2 0x2609 JUMPI PUSH1 0x0 DUP1 REVERT JUMPDEST POP GAS CALL ISZERO DUP1 ISZERO PUSH2 0x261D JUMPI RETURNDATASIZE PUSH1 0x0 DUP1 RETURNDATACOPY RETURNDATASIZE PUSH1 0x0 REVERT JUMPDEST POP POP POP POP JUMPDEST DUP1 CALLER PUSH20 0xFFFFFFFFFFFFFFFFFFFFFFFFFFFFFFFFFFFFFFFF AND PUSH32 0x89E79B43DBF06920DD0E7FC08D9DFB54EB6EE8DAE358C231D80C8649929B767B DUP5 PUSH1 0x40 MLOAD PUSH2 0x2669 SWAP2 SWAP1 PUSH2 0x4318 JUMP JUMPDEST PUSH1 0x40 MLOAD DUP1 SWAP2 SUB SWAP1 LOG3 POP POP POP POP POP POP POP POP POP POP POP POP JUMP JUMPDEST DUP1 PUSH1 0x34 PUSH1 0x0 DUP5 DUP2 MSTORE PUSH1 0x20 ADD SWAP1 DUP2 MSTORE PUSH1 0x20 ADD PUSH1 0x0 KECCAK256 SLOAD EQ PUSH2 0x26B2 JUMPI DUP1 PUSH1 0x34 PUSH1 0x0 DUP5 DUP2 MSTORE PUSH1 0x20 ADD SWAP1 DUP2 MSTORE PUSH1 0x20 ADD PUSH1 0x0 KECCAK256 DUP2 SWAP1 SSTORE POP JUMPDEST POP POP JUMP JUMPDEST PUSH1 0x0 DUP3 PUSH20 0xFFFFFFFFFFFFFFFFFFFFFFFFFFFFFFFFFFFFFFFF AND PUSH1 0x35 DUP4 DUP2 SLOAD DUP2 LT PUSH2 0x26DC JUMPI INVALID JUMPDEST SWAP1 PUSH1 0x0 MSTORE PUSH1 0x20 PUSH1 0x0 KECCAK256 SWAP1 PUSH1 0x9 MUL ADD PUSH1 0x0 ADD PUSH1 0x0 SWAP1 SLOAD SWAP1 PUSH2 0x100 EXP SWAP1 DIV PUSH20 0xFFFFFFFFFFFFFFFFFFFFFFFFFFFFFFFFFFFFFFFF AND PUSH20 0xFFFFFFFFFFFFFFFFFFFFFFFFFFFFFFFFFFFFFFFF AND EQ ISZERO PUSH2 0x2733 JUMPI PUSH1 0x1 SWAP1 POP PUSH2 0x2738 JUMP JUMPDEST PUSH1 0x0 SWAP1 POP JUMPDEST SWAP3 SWAP2 POP POP JUMP JUMPDEST PUSH1 0x0 DUP3 DUP3 GT ISZERO PUSH2 0x2783 JUMPI PUSH1 0x40 MLOAD PUSH32 0x8C379A000000000000000000000000000000000000000000000000000000000 DUP2 MSTORE PUSH1 0x4 ADD PUSH2 0x277A SWAP1 PUSH2 0x4138 JUMP JUMPDEST PUSH1 0x40 MLOAD DUP1 SWAP2 SUB SWAP1 REVERT JUMPDEST DUP2 DUP4 SUB SWAP1 POP SWAP3 SWAP2 POP POP JUMP JUMPDEST PUSH1 0x0 PUSH20 0xFFFFFFFFFFFFFFFFFFFFFFFFFFFFFFFFFFFFFFFF AND DUP2 PUSH20 0xFFFFFFFFFFFFFFFFFFFFFFFFFFFFFFFFFFFFFFFF AND EQ ISZERO PUSH2 0x27C8 JUMPI PUSH1 0x0 DUP1 REVERT JUMPDEST DUP1 PUSH20 0xFFFFFFFFFFFFFFFFFFFFFFFFFFFFFFFFFFFFFFFF AND PUSH1 0x33 PUSH1 0x0 SWAP1 SLOAD SWAP1 PUSH2 0x100 EXP SWAP1 DIV PUSH20 0xFFFFFFFFFFFFFFFFFFFFFFFFFFFFFFFFFFFFFFFF AND PUSH20 0xFFFFFFFFFFFFFFFFFFFFFFFFFFFFFFFFFFFFFFFF AND PUSH32 0xC7C0C772ADD429241571AFB3805861FB3CFA2AF374534088B76CDB4325A87E9A PUSH1 0x40 MLOAD PUSH1 0x40 MLOAD DUP1 SWAP2 SUB SWAP1 LOG3 DUP1 PUSH1 0x33 PUSH1 0x0 PUSH2 0x100 EXP DUP2 SLOAD DUP2 PUSH20 0xFFFFFFFFFFFFFFFFFFFFFFFFFFFFFFFFFFFFFFFF MUL NOT AND SWAP1 DUP4 PUSH20 0xFFFFFFFFFFFFFFFFFFFFFFFFFFFFFFFFFFFFFFFF AND MUL OR SWAP1 SSTORE POP POP JUMP JUMPDEST PUSH1 0x0 DUP1 ADDRESS SWAP1 POP PUSH1 0x0 DUP2 EXTCODESIZE SWAP1 POP PUSH1 0x0 DUP2 EQ SWAP3 POP POP POP SWAP1 JUMP JUMPDEST PUSH1 0x0 DUP1 DUP3 DUP5 ADD SWAP1 POP DUP4 DUP2 LT ISZERO PUSH2 0x28EA JUMPI PUSH1 0x40 MLOAD PUSH32 0x8C379A000000000000000000000000000000000000000000000000000000000 DUP2 MSTORE PUSH1 0x4 ADD PUSH2 0x28E1 SWAP1 PUSH2 0x4078 JUMP JUMPDEST PUSH1 0x40 MLOAD DUP1 SWAP2 SUB SWAP1 REVERT JUMPDEST DUP1 SWAP2 POP POP SWAP3 SWAP2 POP POP JUMP JUMPDEST PUSH1 0x0 DUP1 DUP4 EQ ISZERO PUSH2 0x2907 JUMPI PUSH1 0x0 SWAP1 POP PUSH2 0x295E JUMP JUMPDEST PUSH1 0x0 DUP3 DUP5 MUL SWAP1 POP DUP3 DUP5 DUP3 DUP2 PUSH2 0x2918 JUMPI INVALID JUMPDEST DIV EQ PUSH2 0x2959 JUMPI PUSH1 0x40 MLOAD PUSH32 0x8C379A000000000000000000000000000000000000000000000000000000000 DUP2 MSTORE PUSH1 0x4 ADD PUSH2 0x2950 SWAP1 PUSH2 0x4218 JUMP JUMPDEST PUSH1 0x40 MLOAD DUP1 SWAP2 SUB SWAP1 REVERT JUMPDEST DUP1 SWAP2 POP POP JUMPDEST SWAP3 SWAP2 POP POP JUMP JUMPDEST PUSH1 0x0 DUP1 DUP3 GT PUSH2 0x29A8 JUMPI PUSH1 0x40 MLOAD PUSH32 0x8C379A000000000000000000000000000000000000000000000000000000000 DUP2 MSTORE PUSH1 0x4 ADD PUSH2 0x299F SWAP1 PUSH2 0x4178 JUMP JUMPDEST PUSH1 0x40 MLOAD DUP1 SWAP2 SUB SWAP1 REVERT JUMPDEST DUP2 DUP4 DUP2 PUSH2 0x29B1 JUMPI INVALID JUMPDEST DIV SWAP1 POP SWAP3 SWAP2 POP POP JUMP JUMPDEST PUSH2 0x2A3D DUP5 PUSH4 0x23B872DD PUSH1 0xE0 SHL DUP6 DUP6 DUP6 PUSH1 0x40 MLOAD PUSH1 0x24 ADD PUSH2 0x29DB SWAP4 SWAP3 SWAP2 SWAP1 PUSH2 0x3F32 JUMP JUMPDEST PUSH1 0x40 MLOAD PUSH1 0x20 DUP2 DUP4 SUB SUB DUP2 MSTORE SWAP1 PUSH1 0x40 MSTORE SWAP1 PUSH28 0xFFFFFFFFFFFFFFFFFFFFFFFFFFFFFFFFFFFFFFFFFFFFFFFFFFFFFFFF NOT AND PUSH1 0x20 DUP3 ADD DUP1 MLOAD PUSH28 0xFFFFFFFFFFFFFFFFFFFFFFFFFFFFFFFFFFFFFFFFFFFFFFFFFFFFFFFF DUP4 DUP2 DUP4 AND OR DUP4 MSTORE POP POP POP POP PUSH2 0x2A43 JUMP JUMPDEST POP POP POP POP JUMP JUMPDEST PUSH1 0x60 PUSH2 0x2AA5 DUP3 PUSH1 0x40 MLOAD DUP1 PUSH1 0x40 ADD PUSH1 0x40 MSTORE DUP1 PUSH1 0x20 DUP2 MSTORE PUSH1 0x20 ADD PUSH32 0x5361666545524332303A206C6F772D6C6576656C2063616C6C206661696C6564 DUP2 MSTORE POP DUP6 PUSH20 0xFFFFFFFFFFFFFFFFFFFFFFFFFFFFFFFFFFFFFFFF AND PUSH2 0x2B0A SWAP1 SWAP3 SWAP2 SWAP1 PUSH4 0xFFFFFFFF AND JUMP JUMPDEST SWAP1 POP PUSH1 0x0 DUP2 MLOAD GT ISZERO PUSH2 0x2B05 JUMPI DUP1 DUP1 PUSH1 0x20 ADD SWAP1 MLOAD DUP2 ADD SWAP1 PUSH2 0x2AC5 SWAP2 SWAP1 PUSH2 0x3009 JUMP JUMPDEST PUSH2 0x2B04 JUMPI PUSH1 0x40 MLOAD PUSH32 0x8C379A000000000000000000000000000000000000000000000000000000000 DUP2 MSTORE PUSH1 0x4 ADD PUSH2 0x2AFB SWAP1 PUSH2 0x42B8 JUMP JUMPDEST PUSH1 0x40 MLOAD DUP1 SWAP2 SUB SWAP1 REVERT JUMPDEST JUMPDEST POP POP POP JUMP JUMPDEST PUSH1 0x60 PUSH2 0x2B19 DUP5 DUP5 PUSH1 0x0 DUP6 PUSH2 0x2B22 JUMP JUMPDEST SWAP1 POP SWAP4 SWAP3 POP POP POP JUMP JUMPDEST PUSH1 0x60 DUP3 SELFBALANCE LT ISZERO PUSH2 0x2B67 JUMPI PUSH1 0x40 MLOAD PUSH32 0x8C379A000000000000000000000000000000000000000000000000000000000 DUP2 MSTORE PUSH1 0x4 ADD PUSH2 0x2B5E SWAP1 PUSH2 0x4158 JUMP JUMPDEST PUSH1 0x40 MLOAD DUP1 SWAP2 SUB SWAP1 REVERT JUMPDEST PUSH2 0x2B70 DUP6 PUSH2 0x2C37 JUMP JUMPDEST PUSH2 0x2BAF JUMPI PUSH1 0x40 MLOAD PUSH32 0x8C379A000000000000000000000000000000000000000000000000000000000 DUP2 MSTORE PUSH1 0x4 ADD PUSH2 0x2BA6 SWAP1 PUSH2 0x4258 JUMP JUMPDEST PUSH1 0x40 MLOAD DUP1 SWAP2 SUB SWAP1 REVERT JUMPDEST PUSH1 0x0 PUSH1 0x60 DUP7 PUSH20 0xFFFFFFFFFFFFFFFFFFFFFFFFFFFFFFFFFFFFFFFF AND DUP6 DUP8 PUSH1 0x40 MLOAD PUSH2 0x2BD9 SWAP2 SWAP1 PUSH2 0x3CF2 JUMP JUMPDEST PUSH1 0x0 PUSH1 0x40 MLOAD DUP1 DUP4 SUB DUP2 DUP6 DUP8 GAS CALL SWAP3 POP POP POP RETURNDATASIZE DUP1 PUSH1 0x0 DUP2 EQ PUSH2 0x2C16 JUMPI PUSH1 0x40 MLOAD SWAP2 POP PUSH1 0x1F NOT PUSH1 0x3F RETURNDATASIZE ADD AND DUP3 ADD PUSH1 0x40 MSTORE RETURNDATASIZE DUP3 MSTORE RETURNDATASIZE PUSH1 0x0 PUSH1 0x20 DUP5 ADD RETURNDATACOPY PUSH2 0x2C1B JUMP JUMPDEST PUSH1 0x60 SWAP2 POP JUMPDEST POP SWAP2 POP SWAP2 POP PUSH2 0x2C2B DUP3 DUP3 DUP7 PUSH2 0x2C4A JUMP JUMPDEST SWAP3 POP POP POP SWAP5 SWAP4 POP POP POP POP JUMP JUMPDEST PUSH1 0x0 DUP1 DUP3 EXTCODESIZE SWAP1 POP PUSH1 0x0 DUP2 GT SWAP2 POP POP SWAP2 SWAP1 POP JUMP JUMPDEST PUSH1 0x60 DUP4 ISZERO PUSH2 0x2C5A JUMPI DUP3 SWAP1 POP PUSH2 0x2CAA JUMP JUMPDEST PUSH1 0x0 DUP4 MLOAD GT ISZERO PUSH2 0x2C6D JUMPI DUP3 MLOAD DUP1 DUP5 PUSH1 0x20 ADD REVERT JUMPDEST DUP2 PUSH1 0x40 MLOAD PUSH32 0x8C379A000000000000000000000000000000000000000000000000000000000 DUP2 MSTORE PUSH1 0x4 ADD PUSH2 0x2CA1 SWAP2 SWAP1 PUSH2 0x3FD6 JUMP JUMPDEST PUSH1 0x40 MLOAD DUP1 SWAP2 SUB SWAP1 REVERT JUMPDEST SWAP4 SWAP3 POP POP POP JUMP JUMPDEST PUSH1 0x40 MLOAD DUP1 PUSH2 0x120 ADD PUSH1 0x40 MSTORE DUP1 PUSH1 0x0 PUSH20 0xFFFFFFFFFFFFFFFFFFFFFFFFFFFFFFFFFFFFFFFF AND DUP2 MSTORE PUSH1 0x20 ADD PUSH1 0x60 DUP2 MSTORE PUSH1 0x20 ADD PUSH1 0x0 PUSH20 0xFFFFFFFFFFFFFFFFFFFFFFFFFFFFFFFFFFFFFFFF AND DUP2 MSTORE PUSH1 0x20 ADD PUSH1 0x0 PUSH20 0xFFFFFFFFFFFFFFFFFFFFFFFFFFFFFFFFFFFFFFFF AND DUP2 MSTORE PUSH1 0x20 ADD PUSH1 0x0 DUP2 MSTORE PUSH1 0x20 ADD PUSH1 0x0 DUP2 MSTORE PUSH1 0x20 ADD PUSH1 0x0 DUP2 MSTORE PUSH1 0x20 ADD PUSH1 0x0 DUP2 MSTORE PUSH1 0x20 ADD PUSH1 0x0 DUP2 MSTORE POP SWAP1 JUMP JUMPDEST DUP3 DUP1 SLOAD PUSH1 0x1 DUP2 PUSH1 0x1 AND ISZERO PUSH2 0x100 MUL SUB AND PUSH1 0x2 SWAP1 DIV SWAP1 PUSH1 0x0 MSTORE PUSH1 0x20 PUSH1 0x0 KECCAK256 SWAP1 PUSH1 0x1F ADD PUSH1 0x20 SWAP1 DIV DUP2 ADD SWAP3 DUP3 PUSH1 0x1F LT PUSH2 0x2D80 JUMPI DUP1 MLOAD PUSH1 0xFF NOT AND DUP4 DUP1 ADD OR DUP6 SSTORE PUSH2 0x2DAE JUMP JUMPDEST DUP3 DUP1 ADD PUSH1 0x1 ADD DUP6 SSTORE DUP3 ISZERO PUSH2 0x2DAE JUMPI SWAP2 DUP3 ADD JUMPDEST DUP3 DUP2 GT ISZERO PUSH2 0x2DAD JUMPI DUP3 MLOAD DUP3 SSTORE SWAP2 PUSH1 0x20 ADD SWAP2 SWAP1 PUSH1 0x1 ADD SWAP1 PUSH2 0x2D92 JUMP JUMPDEST JUMPDEST POP SWAP1 POP PUSH2 0x2DBB SWAP2 SWAP1 PUSH2 0x2DBF JUMP JUMPDEST POP SWAP1 JUMP JUMPDEST JUMPDEST DUP1 DUP3 GT ISZERO PUSH2 0x2DD8 JUMPI PUSH1 0x0 DUP2 PUSH1 0x0 SWAP1 SSTORE POP PUSH1 0x1 ADD PUSH2 0x2DC0 JUMP JUMPDEST POP SWAP1 JUMP JUMPDEST PUSH1 0x0 DUP2 CALLDATALOAD SWAP1 POP PUSH2 0x2DEB DUP2 PUSH2 0x454F JUMP JUMPDEST SWAP3 SWAP2 POP POP JUMP JUMPDEST PUSH1 0x0 DUP2 MLOAD SWAP1 POP PUSH2 0x2E00 DUP2 PUSH2 0x4566 JUMP JUMPDEST SWAP3 SWAP2 POP POP JUMP JUMPDEST PUSH1 0x0 DUP2 CALLDATALOAD SWAP1 POP PUSH2 0x2E15 DUP2 PUSH2 0x457D JUMP JUMPDEST SWAP3 SWAP2 POP POP JUMP JUMPDEST PUSH1 0x0 DUP1 DUP4 PUSH1 0x1F DUP5 ADD SLT PUSH2 0x2E2D JUMPI PUSH1 0x0 DUP1 REVERT JUMPDEST DUP3 CALLDATALOAD SWAP1 POP PUSH8 0xFFFFFFFFFFFFFFFF DUP2 GT ISZERO PUSH2 0x2E46 JUMPI PUSH1 0x0 DUP1 REVERT JUMPDEST PUSH1 0x20 DUP4 ADD SWAP2 POP DUP4 PUSH1 0x1 DUP3 MUL DUP4 ADD GT ISZERO PUSH2 0x2E5E JUMPI PUSH1 0x0 DUP1 REVERT JUMPDEST SWAP3 POP SWAP3 SWAP1 POP JUMP JUMPDEST PUSH1 0x0 DUP3 PUSH1 0x1F DUP4 ADD SLT PUSH2 0x2E76 JUMPI PUSH1 0x0 DUP1 REVERT JUMPDEST DUP2 CALLDATALOAD PUSH2 0x2E89 PUSH2 0x2E84 DUP3 PUSH2 0x43AB JUMP JUMPDEST PUSH2 0x437E JUMP JUMPDEST SWAP2 POP DUP1 DUP3 MSTORE PUSH1 0x20 DUP4 ADD PUSH1 0x20 DUP4 ADD DUP6 DUP4 DUP4 ADD GT ISZERO PUSH2 0x2EA5 JUMPI PUSH1 0x0 DUP1 REVERT JUMPDEST PUSH2 0x2EB0 DUP4 DUP3 DUP5 PUSH2 0x44FC JUMP JUMPDEST POP POP POP SWAP3 SWAP2 POP POP JUMP JUMPDEST PUSH1 0x0 DUP2 CALLDATALOAD SWAP1 POP PUSH2 0x2EC8 DUP2 PUSH2 0x4594 JUMP JUMPDEST SWAP3 SWAP2 POP POP JUMP JUMPDEST PUSH1 0x0 PUSH1 0x20 DUP3 DUP5 SUB SLT ISZERO PUSH2 0x2EE0 JUMPI PUSH1 0x0 DUP1 REVERT JUMPDEST PUSH1 0x0 PUSH2 0x2EEE DUP5 DUP3 DUP6 ADD PUSH2 0x2DDC JUMP JUMPDEST SWAP2 POP POP SWAP3 SWAP2 POP POP JUMP JUMPDEST PUSH1 0x0 DUP1 PUSH1 0x0 DUP1 PUSH1 0x0 PUSH1 0x80 DUP7 DUP9 SUB SLT ISZERO PUSH2 0x2F0F JUMPI PUSH1 0x0 DUP1 REVERT JUMPDEST PUSH1 0x0 PUSH2 0x2F1D DUP9 DUP3 DUP10 ADD PUSH2 0x2DDC JUMP JUMPDEST SWAP6 POP POP PUSH1 0x20 PUSH2 0x2F2E DUP9 DUP3 DUP10 ADD PUSH2 0x2DDC JUMP JUMPDEST SWAP5 POP POP PUSH1 0x40 PUSH2 0x2F3F DUP9 DUP3 DUP10 ADD PUSH2 0x2EB9 JUMP JUMPDEST SWAP4 POP POP PUSH1 0x60 DUP7 ADD CALLDATALOAD PUSH8 0xFFFFFFFFFFFFFFFF DUP2 GT ISZERO PUSH2 0x2F5C JUMPI PUSH1 0x0 DUP1 REVERT JUMPDEST PUSH2 0x2F68 DUP9 DUP3 DUP10 ADD PUSH2 0x2E1B JUMP JUMPDEST SWAP3 POP SWAP3 POP POP SWAP3 SWAP6 POP SWAP3 SWAP6 SWAP1 SWAP4 POP JUMP JUMPDEST PUSH1 0x0 DUP1 PUSH1 0x0 DUP1 PUSH1 0x0 DUP1 PUSH1 0xA0 DUP8 DUP10 SUB SLT ISZERO PUSH2 0x2F90 JUMPI PUSH1 0x0 DUP1 REVERT JUMPDEST PUSH1 0x0 PUSH2 0x2F9E DUP10 DUP3 DUP11 ADD PUSH2 0x2DDC JUMP JUMPDEST SWAP7 POP POP PUSH1 0x20 PUSH2 0x2FAF DUP10 DUP3 DUP11 ADD PUSH2 0x2DDC JUMP JUMPDEST SWAP6 POP POP PUSH1 0x40 PUSH2 0x2FC0 DUP10 DUP3 DUP11 ADD PUSH2 0x2EB9 JUMP JUMPDEST SWAP5 POP POP PUSH1 0x60 PUSH2 0x2FD1 DUP10 DUP3 DUP11 ADD PUSH2 0x2EB9 JUMP JUMPDEST SWAP4 POP POP PUSH1 0x80 DUP8 ADD CALLDATALOAD PUSH8 0xFFFFFFFFFFFFFFFF DUP2 GT ISZERO PUSH2 0x2FEE JUMPI PUSH1 0x0 DUP1 REVERT JUMPDEST PUSH2 0x2FFA DUP10 DUP3 DUP11 ADD PUSH2 0x2E1B JUMP JUMPDEST SWAP3 POP SWAP3 POP POP SWAP3 SWAP6 POP SWAP3 SWAP6 POP SWAP3 SWAP6 JUMP JUMPDEST PUSH1 0x0 PUSH1 0x20 DUP3 DUP5 SUB SLT ISZERO PUSH2 0x301B JUMPI PUSH1 0x0 DUP1 REVERT JUMPDEST PUSH1 0x0 PUSH2 0x3029 DUP5 DUP3 DUP6 ADD PUSH2 0x2DF1 JUMP JUMPDEST SWAP2 POP POP SWAP3 SWAP2 POP POP JUMP JUMPDEST PUSH1 0x0 PUSH1 0x20 DUP3 DUP5 SUB SLT ISZERO PUSH2 0x3044 JUMPI PUSH1 0x0 DUP1 REVERT JUMPDEST PUSH1 0x0 PUSH2 0x3052 DUP5 DUP3 DUP6 ADD PUSH2 0x2E06 JUMP JUMPDEST SWAP2 POP POP SWAP3 SWAP2 POP POP JUMP JUMPDEST PUSH1 0x0 DUP1 PUSH1 0x40 DUP4 DUP6 SUB SLT ISZERO PUSH2 0x306E JUMPI PUSH1 0x0 DUP1 REVERT JUMPDEST PUSH1 0x0 PUSH2 0x307C DUP6 DUP3 DUP7 ADD PUSH2 0x2E06 JUMP JUMPDEST SWAP3 POP POP PUSH1 0x20 PUSH2 0x308D DUP6 DUP3 DUP7 ADD PUSH2 0x2DDC JUMP JUMPDEST SWAP2 POP POP SWAP3 POP SWAP3 SWAP1 POP JUMP JUMPDEST PUSH1 0x0 DUP1 PUSH1 0x0 PUSH1 0x60 DUP5 DUP7 SUB SLT ISZERO PUSH2 0x30AC JUMPI PUSH1 0x0 DUP1 REVERT JUMPDEST PUSH1 0x0 PUSH2 0x30BA DUP7 DUP3 DUP8 ADD PUSH2 0x2E06 JUMP JUMPDEST SWAP4 POP POP PUSH1 0x20 PUSH2 0x30CB DUP7 DUP3 DUP8 ADD PUSH2 0x2DDC JUMP JUMPDEST SWAP3 POP POP PUSH1 0x40 PUSH2 0x30DC DUP7 DUP3 DUP8 ADD PUSH2 0x2EB9 JUMP JUMPDEST SWAP2 POP POP SWAP3 POP SWAP3 POP SWAP3 JUMP JUMPDEST PUSH1 0x0 DUP1 PUSH1 0x40 DUP4 DUP6 SUB SLT ISZERO PUSH2 0x30F9 JUMPI PUSH1 0x0 DUP1 REVERT JUMPDEST PUSH1 0x0 PUSH2 0x3107 DUP6 DUP3 DUP7 ADD PUSH2 0x2E06 JUMP JUMPDEST SWAP3 POP POP PUSH1 0x20 PUSH2 0x3118 DUP6 DUP3 DUP7 ADD PUSH2 0x2EB9 JUMP JUMPDEST SWAP2 POP POP SWAP3 POP SWAP3 SWAP1 POP JUMP JUMPDEST PUSH1 0x0 DUP1 PUSH1 0x0 PUSH1 0x60 DUP5 DUP7 SUB SLT ISZERO PUSH2 0x3137 JUMPI PUSH1 0x0 DUP1 REVERT JUMPDEST PUSH1 0x0 PUSH2 0x3145 DUP7 DUP3 DUP8 ADD PUSH2 0x2E06 JUMP JUMPDEST SWAP4 POP POP PUSH1 0x20 PUSH2 0x3156 DUP7 DUP3 DUP8 ADD PUSH2 0x2EB9 JUMP JUMPDEST SWAP3 POP POP PUSH1 0x40 PUSH2 0x3167 DUP7 DUP3 DUP8 ADD PUSH2 0x2EB9 JUMP JUMPDEST SWAP2 POP POP SWAP3 POP SWAP3 POP SWAP3 JUMP JUMPDEST PUSH1 0x0 PUSH1 0x20 DUP3 DUP5 SUB SLT ISZERO PUSH2 0x3183 JUMPI PUSH1 0x0 DUP1 REVERT JUMPDEST PUSH1 0x0 DUP3 ADD CALLDATALOAD PUSH8 0xFFFFFFFFFFFFFFFF DUP2 GT ISZERO PUSH2 0x319D JUMPI PUSH1 0x0 DUP1 REVERT JUMPDEST PUSH2 0x31A9 DUP5 DUP3 DUP6 ADD PUSH2 0x2E65 JUMP JUMPDEST SWAP2 POP POP SWAP3 SWAP2 POP POP JUMP JUMPDEST PUSH1 0x0 DUP1 PUSH1 0x0 DUP1 PUSH1 0x0 DUP1 PUSH1 0xC0 DUP8 DUP10 SUB SLT ISZERO PUSH2 0x31CB JUMPI PUSH1 0x0 DUP1 REVERT JUMPDEST PUSH1 0x0 DUP8 ADD CALLDATALOAD PUSH8 0xFFFFFFFFFFFFFFFF DUP2 GT ISZERO PUSH2 0x31E5 JUMPI PUSH1 0x0 DUP1 REVERT JUMPDEST PUSH2 0x31F1 DUP10 DUP3 DUP11 ADD PUSH2 0x2E65 JUMP JUMPDEST SWAP7 POP POP PUSH1 0x20 PUSH2 0x3202 DUP10 DUP3 DUP11 ADD PUSH2 0x2DDC JUMP JUMPDEST SWAP6 POP POP PUSH1 0x40 PUSH2 0x3213 DUP10 DUP3 DUP11 ADD PUSH2 0x2DDC JUMP JUMPDEST SWAP5 POP POP PUSH1 0x60 PUSH2 0x3224 DUP10 DUP3 DUP11 ADD PUSH2 0x2EB9 JUMP JUMPDEST SWAP4 POP POP PUSH1 0x80 PUSH2 0x3235 DUP10 DUP3 DUP11 ADD PUSH2 0x2EB9 JUMP JUMPDEST SWAP3 POP POP PUSH1 0xA0 PUSH2 0x3246 DUP10 DUP3 DUP11 ADD PUSH2 0x2EB9 JUMP JUMPDEST SWAP2 POP POP SWAP3 SWAP6 POP SWAP3 SWAP6 POP SWAP3 SWAP6 JUMP JUMPDEST PUSH1 0x0 DUP1 PUSH1 0x0 DUP1 PUSH1 0x0 DUP1 PUSH1 0x0 PUSH1 0xE0 DUP9 DUP11 SUB SLT ISZERO PUSH2 0x326E JUMPI PUSH1 0x0 DUP1 REVERT JUMPDEST PUSH1 0x0 DUP9 ADD CALLDATALOAD PUSH8 0xFFFFFFFFFFFFFFFF DUP2 GT ISZERO PUSH2 0x3288 JUMPI PUSH1 0x0 DUP1 REVERT JUMPDEST PUSH2 0x3294 DUP11 DUP3 DUP12 ADD PUSH2 0x2E65 JUMP JUMPDEST SWAP8 POP POP PUSH1 0x20 PUSH2 0x32A5 DUP11 DUP3 DUP12 ADD PUSH2 0x2DDC JUMP JUMPDEST SWAP7 POP POP PUSH1 0x40 PUSH2 0x32B6 DUP11 DUP3 DUP12 ADD PUSH2 0x2DDC JUMP JUMPDEST SWAP6 POP POP PUSH1 0x60 PUSH2 0x32C7 DUP11 DUP3 DUP12 ADD PUSH2 0x2EB9 JUMP JUMPDEST SWAP5 POP POP PUSH1 0x80 PUSH2 0x32D8 DUP11 DUP3 DUP12 ADD PUSH2 0x2EB9 JUMP JUMPDEST SWAP4 POP POP PUSH1 0xA0 PUSH2 0x32E9 DUP11 DUP3 DUP12 ADD PUSH2 0x2EB9 JUMP JUMPDEST SWAP3 POP POP PUSH1 0xC0 PUSH2 0x32FA DUP11 DUP3 DUP12 ADD PUSH2 0x2EB9 JUMP JUMPDEST SWAP2 POP POP SWAP3 SWAP6 SWAP9 SWAP2 SWAP5 SWAP8 POP SWAP3 SWAP6 POP JUMP JUMPDEST PUSH1 0x0 PUSH1 0x20 DUP3 DUP5 SUB SLT ISZERO PUSH2 0x331B JUMPI PUSH1 0x0 DUP1 REVERT JUMPDEST PUSH1 0x0 PUSH2 0x3329 DUP5 DUP3 DUP6 ADD PUSH2 0x2EB9 JUMP JUMPDEST SWAP2 POP POP SWAP3 SWAP2 POP POP JUMP JUMPDEST PUSH1 0x0 DUP1 PUSH1 0x40 DUP4 DUP6 SUB SLT ISZERO PUSH2 0x3345 JUMPI PUSH1 0x0 DUP1 REVERT JUMPDEST PUSH1 0x0 PUSH2 0x3353 DUP6 DUP3 DUP7 ADD PUSH2 0x2EB9 JUMP JUMPDEST SWAP3 POP POP PUSH1 0x20 PUSH2 0x3364 DUP6 DUP3 DUP7 ADD PUSH2 0x2EB9 JUMP JUMPDEST SWAP2 POP POP SWAP3 POP SWAP3 SWAP1 POP JUMP JUMPDEST PUSH2 0x3377 DUP2 PUSH2 0x44C6 JUMP JUMPDEST DUP3 MSTORE POP POP JUMP JUMPDEST PUSH2 0x3386 DUP2 PUSH2 0x4448 JUMP JUMPDEST DUP3 MSTORE POP POP JUMP JUMPDEST PUSH2 0x3395 DUP2 PUSH2 0x4448 JUMP JUMPDEST DUP3 MSTORE POP POP JUMP JUMPDEST PUSH2 0x33A4 DUP2 PUSH2 0x4436 JUMP JUMPDEST DUP3 MSTORE POP POP JUMP JUMPDEST PUSH2 0x33B3 DUP2 PUSH2 0x4436 JUMP JUMPDEST DUP3 MSTORE POP POP JUMP JUMPDEST PUSH2 0x33C2 DUP2 PUSH2 0x445A JUMP JUMPDEST DUP3 MSTORE POP POP JUMP JUMPDEST PUSH2 0x33D1 DUP2 PUSH2 0x4470 JUMP JUMPDEST DUP3 MSTORE POP POP JUMP JUMPDEST PUSH1 0x0 PUSH2 0x33E2 DUP3 PUSH2 0x43D7 JUMP JUMPDEST PUSH2 0x33EC DUP2 DUP6 PUSH2 0x43FE JUMP JUMPDEST SWAP4 POP PUSH2 0x33FC DUP2 DUP6 PUSH1 0x20 DUP7 ADD PUSH2 0x450B JUMP JUMPDEST DUP1 DUP5 ADD SWAP2 POP POP SWAP3 SWAP2 POP POP JUMP JUMPDEST PUSH1 0x0 PUSH2 0x3413 DUP3 PUSH2 0x43E2 JUMP JUMPDEST PUSH2 0x341D DUP2 DUP6 PUSH2 0x4409 JUMP JUMPDEST SWAP4 POP PUSH2 0x342D DUP2 DUP6 PUSH1 0x20 DUP7 ADD PUSH2 0x450B JUMP JUMPDEST PUSH2 0x3436 DUP2 PUSH2 0x453E JUMP JUMPDEST DUP5 ADD SWAP2 POP POP SWAP3 SWAP2 POP POP JUMP JUMPDEST PUSH1 0x0 PUSH2 0x344C DUP3 PUSH2 0x43E2 JUMP JUMPDEST PUSH2 0x3456 DUP2 DUP6 PUSH2 0x441A JUMP JUMPDEST SWAP4 POP PUSH2 0x3466 DUP2 DUP6 PUSH1 0x20 DUP7 ADD PUSH2 0x450B JUMP JUMPDEST PUSH2 0x346F DUP2 PUSH2 0x453E JUMP JUMPDEST DUP5 ADD SWAP2 POP POP SWAP3 SWAP2 POP POP JUMP JUMPDEST PUSH1 0x0 PUSH2 0x3485 DUP3 PUSH2 0x43E2 JUMP JUMPDEST PUSH2 0x348F DUP2 DUP6 PUSH2 0x442B JUMP JUMPDEST SWAP4 POP PUSH2 0x349F DUP2 DUP6 PUSH1 0x20 DUP7 ADD PUSH2 0x450B JUMP JUMPDEST DUP1 DUP5 ADD SWAP2 POP POP SWAP3 SWAP2 POP POP JUMP JUMPDEST PUSH1 0x0 PUSH2 0x34B8 PUSH1 0x29 DUP4 PUSH2 0x441A JUMP JUMPDEST SWAP2 POP PUSH32 0x61206C69766520706F6F6C20686173206265656E206372656174656420627920 PUSH1 0x0 DUP4 ADD MSTORE PUSH32 0x74686973206E616D650000000000000000000000000000000000000000000000 PUSH1 0x20 DUP4 ADD MSTORE PUSH1 0x40 DUP3 ADD SWAP1 POP SWAP2 SWAP1 POP JUMP JUMPDEST PUSH1 0x0 PUSH2 0x351E PUSH1 0x10 DUP4 PUSH2 0x441A JUMP JUMPDEST SWAP2 POP PUSH32 0x696E76616C696420676F7665726E6F7200000000000000000000000000000000 PUSH1 0x0 DUP4 ADD MSTORE PUSH1 0x20 DUP3 ADD SWAP1 POP SWAP2 SWAP1 POP JUMP JUMPDEST PUSH1 0x0 PUSH2 0x355E PUSH1 0x1E DUP4 PUSH2 0x441A JUMP JUMPDEST SWAP2 POP PUSH32 0x7468652076616C7565206F66206475726174696F6E206973207A65726F2E0000 PUSH1 0x0 DUP4 ADD MSTORE PUSH1 0x20 DUP3 ADD SWAP1 POP SWAP2 SWAP1 POP JUMP JUMPDEST PUSH1 0x0 PUSH2 0x359E PUSH1 0xE DUP4 PUSH2 0x441A JUMP JUMPDEST SWAP2 POP PUSH32 0x696E76616C696420746F6B656E30000000000000000000000000000000000000 PUSH1 0x0 DUP4 ADD MSTORE PUSH1 0x20 DUP3 ADD SWAP1 POP SWAP2 SWAP1 POP JUMP JUMPDEST PUSH1 0x0 PUSH2 0x35DE PUSH1 0x1B DUP4 PUSH2 0x441A JUMP JUMPDEST SWAP2 POP PUSH32 0x536166654D6174683A206164646974696F6E206F766572666C6F770000000000 PUSH1 0x0 DUP4 ADD MSTORE PUSH1 0x20 DUP3 ADD SWAP1 POP SWAP2 SWAP1 POP JUMP JUMPDEST PUSH1 0x0 PUSH2 0x361E PUSH1 0x1A DUP4 PUSH2 0x441A JUMP JUMPDEST SWAP2 POP PUSH32 0x73656E646572206973206E6F7420706F6F6C2063726561746F72000000000000 PUSH1 0x0 DUP4 ADD MSTORE PUSH1 0x20 DUP3 ADD SWAP1 POP SWAP2 SWAP1 POP JUMP JUMPDEST PUSH1 0x0 PUSH2 0x365E PUSH1 0x22 DUP4 PUSH2 0x441A JUMP JUMPDEST SWAP2 POP PUSH32 0x7468652076616C7565206F6620616D6F756E74546F74616C31206973207A6572 PUSH1 0x0 DUP4 ADD MSTORE PUSH32 0x6F2E000000000000000000000000000000000000000000000000000000000000 PUSH1 0x20 DUP4 ADD MSTORE PUSH1 0x40 DUP3 ADD SWAP1 POP SWAP2 SWAP1 POP JUMP JUMPDEST PUSH1 0x0 PUSH2 0x36C4 PUSH1 0x22 DUP4 PUSH2 0x441A JUMP JUMPDEST SWAP2 POP PUSH32 0x6120706F6F6C2068617320637265617465642062792074686973206164647265 PUSH1 0x0 DUP4 ADD MSTORE PUSH32 0x7373000000000000000000000000000000000000000000000000000000000000 PUSH1 0x20 DUP4 ADD MSTORE PUSH1 0x40 DUP3 ADD SWAP1 POP SWAP2 SWAP1 POP JUMP JUMPDEST PUSH1 0x0 PUSH2 0x372A PUSH1 0x18 DUP4 PUSH2 0x441A JUMP JUMPDEST SWAP2 POP PUSH32 0x7468697320706F6F6C20646F6573206E6F742065786973740000000000000000 PUSH1 0x0 DUP4 ADD MSTORE PUSH1 0x20 DUP3 ADD SWAP1 POP SWAP2 SWAP1 POP JUMP JUMPDEST PUSH1 0x0 PUSH2 0x376A PUSH1 0x13 DUP4 PUSH2 0x441A JUMP JUMPDEST SWAP2 POP PUSH32 0x7468697320706F6F6C20697320636C6F73656400000000000000000000000000 PUSH1 0x0 DUP4 ADD MSTORE PUSH1 0x20 DUP3 ADD SWAP1 POP SWAP2 SWAP1 POP JUMP JUMPDEST PUSH1 0x0 PUSH2 0x37AA PUSH1 0x1E DUP4 PUSH2 0x441A JUMP JUMPDEST SWAP2 POP PUSH32 0x536166654D6174683A207375627472616374696F6E206F766572666C6F770000 PUSH1 0x0 DUP4 ADD MSTORE PUSH1 0x20 DUP3 ADD SWAP1 POP SWAP2 SWAP1 POP JUMP JUMPDEST PUSH1 0x0 PUSH2 0x37EA PUSH1 0x26 DUP4 PUSH2 0x441A JUMP JUMPDEST SWAP2 POP PUSH32 0x416464726573733A20696E73756666696369656E742062616C616E636520666F PUSH1 0x0 DUP4 ADD MSTORE PUSH32 0x722063616C6C0000000000000000000000000000000000000000000000000000 PUSH1 0x20 DUP4 ADD MSTORE PUSH1 0x40 DUP3 ADD SWAP1 POP SWAP2 SWAP1 POP JUMP JUMPDEST PUSH1 0x0 PUSH2 0x3850 PUSH1 0x1A DUP4 PUSH2 0x441A JUMP JUMPDEST SWAP2 POP PUSH32 0x536166654D6174683A206469766973696F6E206279207A65726F000000000000 PUSH1 0x0 DUP4 ADD MSTORE PUSH1 0x20 DUP3 ADD SWAP1 POP SWAP2 SWAP1 POP JUMP JUMPDEST PUSH1 0x0 PUSH2 0x3890 PUSH1 0x14 DUP4 PUSH2 0x441A JUMP JUMPDEST SWAP2 POP PUSH32 0x696E76616C696420616D6F756E74546F74616C30000000000000000000000000 PUSH1 0x0 DUP4 ADD MSTORE PUSH1 0x20 DUP3 ADD SWAP1 POP SWAP2 SWAP1 POP JUMP JUMPDEST PUSH1 0x0 PUSH2 0x38D0 PUSH1 0x1D DUP4 PUSH2 0x441A JUMP JUMPDEST SWAP2 POP PUSH32 0x63726561746F722068617320636C61696D6564207468697320706F6F6C000000 PUSH1 0x0 DUP4 ADD MSTORE PUSH1 0x20 DUP3 ADD SWAP1 POP SWAP2 SWAP1 POP JUMP JUMPDEST PUSH1 0x0 PUSH2 0x3910 PUSH1 0x14 DUP4 PUSH2 0x441A JUMP JUMPDEST SWAP2 POP PUSH32 0x7468697320706F6F6C2069732073776170706564000000000000000000000000 PUSH1 0x0 DUP4 ADD MSTORE PUSH1 0x20 DUP3 ADD SWAP1 POP SWAP2 SWAP1 POP JUMP JUMPDEST PUSH1 0x0 PUSH2 0x3950 PUSH1 0x1E DUP4 PUSH2 0x441A JUMP JUMPDEST SWAP2 POP PUSH32 0x746865206C656E677468206F66206E616D6520697320746F6F206C6F6E670000 PUSH1 0x0 DUP4 ADD MSTORE PUSH1 0x20 DUP3 ADD SWAP1 POP SWAP2 SWAP1 POP JUMP JUMPDEST PUSH1 0x0 PUSH2 0x3990 PUSH1 0x21 DUP4 PUSH2 0x441A JUMP JUMPDEST SWAP2 POP PUSH32 0x536166654D6174683A206D756C7469706C69636174696F6E206F766572666C6F PUSH1 0x0 DUP4 ADD MSTORE PUSH32 0x7700000000000000000000000000000000000000000000000000000000000000 PUSH1 0x20 DUP4 ADD MSTORE PUSH1 0x40 DUP3 ADD SWAP1 POP SWAP2 SWAP1 POP JUMP JUMPDEST PUSH1 0x0 PUSH2 0x39F6 PUSH1 0x2E DUP4 PUSH2 0x441A JUMP JUMPDEST SWAP2 POP PUSH32 0x436F6E747261637420696E7374616E63652068617320616C7265616479206265 PUSH1 0x0 DUP4 ADD MSTORE PUSH32 0x656E20696E697469616C697A6564000000000000000000000000000000000000 PUSH1 0x20 DUP4 ADD MSTORE PUSH1 0x40 DUP3 ADD SWAP1 POP SWAP2 SWAP1 POP JUMP JUMPDEST PUSH1 0x0 PUSH2 0x3A5C PUSH1 0x0 DUP4 PUSH2 0x43ED JUMP JUMPDEST SWAP2 POP PUSH1 0x0 DUP3 ADD SWAP1 POP SWAP2 SWAP1 POP JUMP JUMPDEST PUSH1 0x0 PUSH2 0x3A76 PUSH1 0x1D DUP4 PUSH2 0x441A JUMP JUMPDEST SWAP2 POP PUSH32 0x416464726573733A2063616C6C20746F206E6F6E2D636F6E7472616374000000 PUSH1 0x0 DUP4 ADD MSTORE PUSH1 0x20 DUP3 ADD SWAP1 POP SWAP2 SWAP1 POP JUMP JUMPDEST PUSH1 0x0 PUSH2 0x3AB6 PUSH1 0xF DUP4 PUSH2 0x441A JUMP JUMPDEST SWAP2 POP PUSH32 0x696E76616C696420616D6F756E74300000000000000000000000000000000000 PUSH1 0x0 DUP4 ADD MSTORE PUSH1 0x20 DUP3 ADD SWAP1 POP SWAP2 SWAP1 POP JUMP JUMPDEST PUSH1 0x0 PUSH2 0x3AF6 PUSH1 0x12 DUP4 PUSH2 0x441A JUMP JUMPDEST SWAP2 POP PUSH32 0x696E76616C69642045544820616D6F756E740000000000000000000000000000 PUSH1 0x0 DUP4 ADD MSTORE PUSH1 0x20 DUP3 ADD SWAP1 POP SWAP2 SWAP1 POP JUMP JUMPDEST PUSH1 0x0 PUSH2 0x3B36 PUSH1 0x2A DUP4 PUSH2 0x441A JUMP JUMPDEST SWAP2 POP PUSH32 0x5361666545524332303A204552433230206F7065726174696F6E20646964206E PUSH1 0x0 DUP4 ADD MSTORE PUSH32 0x6F74207375636365656400000000000000000000000000000000000000000000 PUSH1 0x20 DUP4 ADD MSTORE PUSH1 0x40 DUP3 ADD SWAP1 POP SWAP2 SWAP1 POP JUMP JUMPDEST PUSH1 0x0 PUSH2 0x3B9C PUSH1 0x17 DUP4 PUSH2 0x441A JUMP JUMPDEST SWAP2 POP PUSH32 0x7468697320706F6F6C206973206E6F7420636C6F736564000000000000000000 PUSH1 0x0 DUP4 ADD MSTORE PUSH1 0x20 DUP3 ADD SWAP1 POP SWAP2 SWAP1 POP JUMP JUMPDEST PUSH1 0x0 PUSH2 0x3BDC PUSH1 0x1E DUP4 PUSH2 0x441A JUMP JUMPDEST SWAP2 POP PUSH32 0x706F6F6C2066696C6C6564206F7220696E76616C696420616D6F756E74300000 PUSH1 0x0 DUP4 ADD MSTORE PUSH1 0x20 DUP3 ADD SWAP1 POP SWAP2 SWAP1 POP JUMP JUMPDEST PUSH1 0x0 PUSH2 0x120 DUP4 ADD PUSH1 0x0 DUP4 ADD MLOAD PUSH2 0x3C28 PUSH1 0x0 DUP7 ADD DUP3 PUSH2 0x337D JUMP JUMPDEST POP PUSH1 0x20 DUP4 ADD MLOAD DUP5 DUP3 SUB PUSH1 0x20 DUP7 ADD MSTORE PUSH2 0x3C40 DUP3 DUP3 PUSH2 0x3408 JUMP JUMPDEST SWAP2 POP POP PUSH1 0x40 DUP4 ADD MLOAD PUSH2 0x3C55 PUSH1 0x40 DUP7 ADD DUP3 PUSH2 0x339B JUMP JUMPDEST POP PUSH1 0x60 DUP4 ADD MLOAD PUSH2 0x3C68 PUSH1 0x60 DUP7 ADD DUP3 PUSH2 0x339B JUMP JUMPDEST POP PUSH1 0x80 DUP4 ADD MLOAD PUSH2 0x3C7B PUSH1 0x80 DUP7 ADD DUP3 PUSH2 0x3CD4 JUMP JUMPDEST POP PUSH1 0xA0 DUP4 ADD MLOAD PUSH2 0x3C8E PUSH1 0xA0 DUP7 ADD DUP3 PUSH2 0x3CD4 JUMP JUMPDEST POP PUSH1 0xC0 DUP4 ADD MLOAD PUSH2 0x3CA1 PUSH1 0xC0 DUP7 ADD DUP3 PUSH2 0x3CD4 JUMP JUMPDEST POP PUSH1 0xE0 DUP4 ADD MLOAD PUSH2 0x3CB4 PUSH1 0xE0 DUP7 ADD DUP3 PUSH2 0x3CD4 JUMP JUMPDEST POP PUSH2 0x100 DUP4 ADD MLOAD PUSH2 0x3CC9 PUSH2 0x100 DUP7 ADD DUP3 PUSH2 0x3CD4 JUMP JUMPDEST POP DUP1 SWAP2 POP POP SWAP3 SWAP2 POP POP JUMP JUMPDEST PUSH2 0x3CDD DUP2 PUSH2 0x44BC JUMP JUMPDEST DUP3 MSTORE POP POP JUMP JUMPDEST PUSH2 0x3CEC DUP2 PUSH2 0x44BC JUMP JUMPDEST DUP3 MSTORE POP POP JUMP JUMPDEST PUSH1 0x0 PUSH2 0x3CFE DUP3 DUP5 PUSH2 0x33D7 JUMP JUMPDEST SWAP2 POP DUP2 SWAP1 POP SWAP3 SWAP2 POP POP JUMP JUMPDEST PUSH1 0x0 PUSH2 0x3D15 DUP3 DUP5 PUSH2 0x347A JUMP JUMPDEST SWAP2 POP DUP2 SWAP1 POP SWAP3 SWAP2 POP POP JUMP JUMPDEST PUSH1 0x0 PUSH1 0x20 DUP3 ADD SWAP1 POP PUSH2 0x3D35 PUSH1 0x0 DUP4 ADD DUP5 PUSH2 0x33AA JUMP JUMPDEST SWAP3 SWAP2 POP POP JUMP JUMPDEST PUSH1 0x0 PUSH1 0x60 DUP3 ADD SWAP1 POP PUSH2 0x3D50 PUSH1 0x0 DUP4 ADD DUP7 PUSH2 0x336E JUMP JUMPDEST PUSH2 0x3D5D PUSH1 0x20 DUP4 ADD DUP6 PUSH2 0x33AA JUMP JUMPDEST PUSH2 0x3D6A PUSH1 0x40 DUP4 ADD DUP5 PUSH2 0x3CE3 JUMP JUMPDEST SWAP5 SWAP4 POP POP POP POP JUMP JUMPDEST PUSH1 0x0 PUSH1 0xA0 DUP3 ADD SWAP1 POP PUSH2 0x3D87 PUSH1 0x0 DUP4 ADD DUP8 PUSH2 0x336E JUMP JUMPDEST PUSH2 0x3D94 PUSH1 0x20 DUP4 ADD DUP7 PUSH2 0x33AA JUMP JUMPDEST PUSH2 0x3DA1 PUSH1 0x40 DUP4 ADD DUP6 PUSH2 0x3CE3 JUMP JUMPDEST PUSH2 0x3DAE PUSH1 0x60 DUP4 ADD DUP5 PUSH2 0x3CE3 JUMP JUMPDEST DUP2 DUP2 SUB PUSH1 0x80 DUP4 ADD MSTORE PUSH2 0x3DBF DUP2 PUSH2 0x3A4F JUMP JUMPDEST SWAP1 POP SWAP6 SWAP5 POP POP POP POP POP JUMP JUMPDEST PUSH1 0x0 PUSH2 0x120 DUP3 ADD SWAP1 POP PUSH2 0x3DE0 PUSH1 0x0 DUP4 ADD DUP13 PUSH2 0x338C JUMP JUMPDEST DUP2 DUP2 SUB PUSH1 0x20 DUP4 ADD MSTORE PUSH2 0x3DF2 DUP2 DUP12 PUSH2 0x3441 JUMP JUMPDEST SWAP1 POP PUSH2 0x3E01 PUSH1 0x40 DUP4 ADD DUP11 PUSH2 0x33AA JUMP JUMPDEST PUSH2 0x3E0E PUSH1 0x60 DUP4 ADD DUP10 PUSH2 0x33AA JUMP JUMPDEST PUSH2 0x3E1B PUSH1 0x80 DUP4 ADD DUP9 PUSH2 0x3CE3 JUMP JUMPDEST PUSH2 0x3E28 PUSH1 0xA0 DUP4 ADD DUP8 PUSH2 0x3CE3 JUMP JUMPDEST PUSH2 0x3E35 PUSH1 0xC0 DUP4 ADD DUP7 PUSH2 0x3CE3 JUMP JUMPDEST PUSH2 0x3E42 PUSH1 0xE0 DUP4 ADD DUP6 PUSH2 0x3CE3 JUMP JUMPDEST PUSH2 0x3E50 PUSH2 0x100 DUP4 ADD DUP5 PUSH2 0x3CE3 JUMP JUMPDEST SWAP11 SWAP10 POP POP POP POP POP POP POP POP POP POP JUMP JUMPDEST PUSH1 0x0 PUSH1 0x60 DUP3 ADD SWAP1 POP PUSH2 0x3E73 PUSH1 0x0 DUP4 ADD DUP7 PUSH2 0x33AA JUMP JUMPDEST PUSH2 0x3E80 PUSH1 0x20 DUP4 ADD DUP6 PUSH2 0x336E JUMP JUMPDEST PUSH2 0x3E8D PUSH1 0x40 DUP4 ADD DUP5 PUSH2 0x3CE3 JUMP JUMPDEST SWAP5 SWAP4 POP POP POP POP JUMP JUMPDEST PUSH1 0x0 PUSH1 0x80 DUP3 ADD SWAP1 POP PUSH2 0x3EAA PUSH1 0x0 DUP4 ADD DUP8 PUSH2 0x33AA JUMP JUMPDEST PUSH2 0x3EB7 PUSH1 0x20 DUP4 ADD DUP7 PUSH2 0x336E JUMP JUMPDEST PUSH2 0x3EC4 PUSH1 0x40 DUP4 ADD DUP6 PUSH2 0x3CE3 JUMP JUMPDEST PUSH2 0x3ED1 PUSH1 0x60 DUP4 ADD DUP5 PUSH2 0x3CE3 JUMP JUMPDEST SWAP6 SWAP5 POP POP POP POP POP JUMP JUMPDEST PUSH1 0x0 PUSH1 0xA0 DUP3 ADD SWAP1 POP PUSH2 0x3EEF PUSH1 0x0 DUP4 ADD DUP8 PUSH2 0x33AA JUMP JUMPDEST PUSH2 0x3EFC PUSH1 0x20 DUP4 ADD DUP7 PUSH2 0x336E JUMP JUMPDEST PUSH2 0x3F09 PUSH1 0x40 DUP4 ADD DUP6 PUSH2 0x3CE3 JUMP JUMPDEST PUSH2 0x3F16 PUSH1 0x60 DUP4 ADD DUP5 PUSH2 0x3CE3 JUMP JUMPDEST DUP2 DUP2 SUB PUSH1 0x80 DUP4 ADD MSTORE PUSH2 0x3F27 DUP2 PUSH2 0x3A4F JUMP JUMPDEST SWAP1 POP SWAP6 SWAP5 POP POP POP POP POP JUMP JUMPDEST PUSH1 0x0 PUSH1 0x60 DUP3 ADD SWAP1 POP PUSH2 0x3F47 PUSH1 0x0 DUP4 ADD DUP7 PUSH2 0x33AA JUMP JUMPDEST PUSH2 0x3F54 PUSH1 0x20 DUP4 ADD DUP6 PUSH2 0x33AA JUMP JUMPDEST PUSH2 0x3F61 PUSH1 0x40 DUP4 ADD DUP5 PUSH2 0x3CE3 JUMP JUMPDEST SWAP5 SWAP4 POP POP POP POP JUMP JUMPDEST PUSH1 0x0 PUSH1 0x60 DUP3 ADD SWAP1 POP PUSH2 0x3F7E PUSH1 0x0 DUP4 ADD DUP7 PUSH2 0x33AA JUMP JUMPDEST PUSH2 0x3F8B PUSH1 0x20 DUP4 ADD DUP6 PUSH2 0x3CE3 JUMP JUMPDEST PUSH2 0x3F98 PUSH1 0x40 DUP4 ADD DUP5 PUSH2 0x3CE3 JUMP JUMPDEST SWAP5 SWAP4 POP POP POP POP JUMP JUMPDEST PUSH1 0x0 PUSH1 0x20 DUP3 ADD SWAP1 POP PUSH2 0x3FB5 PUSH1 0x0 DUP4 ADD DUP5 PUSH2 0x33B9 JUMP JUMPDEST SWAP3 SWAP2 POP POP JUMP JUMPDEST PUSH1 0x0 PUSH1 0x20 DUP3 ADD SWAP1 POP PUSH2 0x3FD0 PUSH1 0x0 DUP4 ADD DUP5 PUSH2 0x33C8 JUMP JUMPDEST SWAP3 SWAP2 POP POP JUMP JUMPDEST PUSH1 0x0 PUSH1 0x20 DUP3 ADD SWAP1 POP DUP2 DUP2 SUB PUSH1 0x0 DUP4 ADD MSTORE PUSH2 0x3FF0 DUP2 DUP5 PUSH2 0x3441 JUMP JUMPDEST SWAP1 POP SWAP3 SWAP2 POP POP JUMP JUMPDEST PUSH1 0x0 PUSH1 0x20 DUP3 ADD SWAP1 POP DUP2 DUP2 SUB PUSH1 0x0 DUP4 ADD MSTORE PUSH2 0x4011 DUP2 PUSH2 0x34AB JUMP JUMPDEST SWAP1 POP SWAP2 SWAP1 POP JUMP JUMPDEST PUSH1 0x0 PUSH1 0x20 DUP3 ADD SWAP1 POP DUP2 DUP2 SUB PUSH1 0x0 DUP4 ADD MSTORE PUSH2 0x4031 DUP2 PUSH2 0x3511 JUMP JUMPDEST SWAP1 POP SWAP2 SWAP1 POP JUMP JUMPDEST PUSH1 0x0 PUSH1 0x20 DUP3 ADD SWAP1 POP DUP2 DUP2 SUB PUSH1 0x0 DUP4 ADD MSTORE PUSH2 0x4051 DUP2 PUSH2 0x3551 JUMP JUMPDEST SWAP1 POP SWAP2 SWAP1 POP JUMP JUMPDEST PUSH1 0x0 PUSH1 0x20 DUP3 ADD SWAP1 POP DUP2 DUP2 SUB PUSH1 0x0 DUP4 ADD MSTORE PUSH2 0x4071 DUP2 PUSH2 0x3591 JUMP JUMPDEST SWAP1 POP SWAP2 SWAP1 POP JUMP JUMPDEST PUSH1 0x0 PUSH1 0x20 DUP3 ADD SWAP1 POP DUP2 DUP2 SUB PUSH1 0x0 DUP4 ADD MSTORE PUSH2 0x4091 DUP2 PUSH2 0x35D1 JUMP JUMPDEST SWAP1 POP SWAP2 SWAP1 POP JUMP JUMPDEST PUSH1 0x0 PUSH1 0x20 DUP3 ADD SWAP1 POP DUP2 DUP2 SUB PUSH1 0x0 DUP4 ADD MSTORE PUSH2 0x40B1 DUP2 PUSH2 0x3611 JUMP JUMPDEST SWAP1 POP SWAP2 SWAP1 POP JUMP JUMPDEST PUSH1 0x0 PUSH1 0x20 DUP3 ADD SWAP1 POP DUP2 DUP2 SUB PUSH1 0x0 DUP4 ADD MSTORE PUSH2 0x40D1 DUP2 PUSH2 0x3651 JUMP JUMPDEST SWAP1 POP SWAP2 SWAP1 POP JUMP JUMPDEST PUSH1 0x0 PUSH1 0x20 DUP3 ADD SWAP1 POP DUP2 DUP2 SUB PUSH1 0x0 DUP4 ADD MSTORE PUSH2 0x40F1 DUP2 PUSH2 0x36B7 JUMP JUMPDEST SWAP1 POP SWAP2 SWAP1 POP JUMP JUMPDEST PUSH1 0x0 PUSH1 0x20 DUP3 ADD SWAP1 POP DUP2 DUP2 SUB PUSH1 0x0 DUP4 ADD MSTORE PUSH2 0x4111 DUP2 PUSH2 0x371D JUMP JUMPDEST SWAP1 POP SWAP2 SWAP1 POP JUMP JUMPDEST PUSH1 0x0 PUSH1 0x20 DUP3 ADD SWAP1 POP DUP2 DUP2 SUB PUSH1 0x0 DUP4 ADD MSTORE PUSH2 0x4131 DUP2 PUSH2 0x375D JUMP JUMPDEST SWAP1 POP SWAP2 SWAP1 POP JUMP JUMPDEST PUSH1 0x0 PUSH1 0x20 DUP3 ADD SWAP1 POP DUP2 DUP2 SUB PUSH1 0x0 DUP4 ADD MSTORE PUSH2 0x4151 DUP2 PUSH2 0x379D JUMP JUMPDEST SWAP1 POP SWAP2 SWAP1 POP JUMP JUMPDEST PUSH1 0x0 PUSH1 0x20 DUP3 ADD SWAP1 POP DUP2 DUP2 SUB PUSH1 0x0 DUP4 ADD MSTORE PUSH2 0x4171 DUP2 PUSH2 0x37DD JUMP JUMPDEST SWAP1 POP SWAP2 SWAP1 POP JUMP JUMPDEST PUSH1 0x0 PUSH1 0x20 DUP3 ADD SWAP1 POP DUP2 DUP2 SUB PUSH1 0x0 DUP4 ADD MSTORE PUSH2 0x4191 DUP2 PUSH2 0x3843 JUMP JUMPDEST SWAP1 POP SWAP2 SWAP1 POP JUMP JUMPDEST PUSH1 0x0 PUSH1 0x20 DUP3 ADD SWAP1 POP DUP2 DUP2 SUB PUSH1 0x0 DUP4 ADD MSTORE PUSH2 0x41B1 DUP2 PUSH2 0x3883 JUMP JUMPDEST SWAP1 POP SWAP2 SWAP1 POP JUMP JUMPDEST PUSH1 0x0 PUSH1 0x20 DUP3 ADD SWAP1 POP DUP2 DUP2 SUB PUSH1 0x0 DUP4 ADD MSTORE PUSH2 0x41D1 DUP2 PUSH2 0x38C3 JUMP JUMPDEST SWAP1 POP SWAP2 SWAP1 POP JUMP JUMPDEST PUSH1 0x0 PUSH1 0x20 DUP3 ADD SWAP1 POP DUP2 DUP2 SUB PUSH1 0x0 DUP4 ADD MSTORE PUSH2 0x41F1 DUP2 PUSH2 0x3903 JUMP JUMPDEST SWAP1 POP SWAP2 SWAP1 POP JUMP JUMPDEST PUSH1 0x0 PUSH1 0x20 DUP3 ADD SWAP1 POP DUP2 DUP2 SUB PUSH1 0x0 DUP4 ADD MSTORE PUSH2 0x4211 DUP2 PUSH2 0x3943 JUMP JUMPDEST SWAP1 POP SWAP2 SWAP1 POP JUMP JUMPDEST PUSH1 0x0 PUSH1 0x20 DUP3 ADD SWAP1 POP DUP2 DUP2 SUB PUSH1 0x0 DUP4 ADD MSTORE PUSH2 0x4231 DUP2 PUSH2 0x3983 JUMP JUMPDEST SWAP1 POP SWAP2 SWAP1 POP JUMP JUMPDEST PUSH1 0x0 PUSH1 0x20 DUP3 ADD SWAP1 POP DUP2 DUP2 SUB PUSH1 0x0 DUP4 ADD MSTORE PUSH2 0x4251 DUP2 PUSH2 0x39E9 JUMP JUMPDEST SWAP1 POP SWAP2 SWAP1 POP JUMP JUMPDEST PUSH1 0x0 PUSH1 0x20 DUP3 ADD SWAP1 POP DUP2 DUP2 SUB PUSH1 0x0 DUP4 ADD MSTORE PUSH2 0x4271 DUP2 PUSH2 0x3A69 JUMP JUMPDEST SWAP1 POP SWAP2 SWAP1 POP JUMP JUMPDEST PUSH1 0x0 PUSH1 0x20 DUP3 ADD SWAP1 POP DUP2 DUP2 SUB PUSH1 0x0 DUP4 ADD MSTORE PUSH2 0x4291 DUP2 PUSH2 0x3AA9 JUMP JUMPDEST SWAP1 POP SWAP2 SWAP1 POP JUMP JUMPDEST PUSH1 0x0 PUSH1 0x20 DUP3 ADD SWAP1 POP DUP2 DUP2 SUB PUSH1 0x0 DUP4 ADD MSTORE PUSH2 0x42B1 DUP2 PUSH2 0x3AE9 JUMP JUMPDEST SWAP1 POP SWAP2 SWAP1 POP JUMP JUMPDEST PUSH1 0x0 PUSH1 0x20 DUP3 ADD SWAP1 POP DUP2 DUP2 SUB PUSH1 0x0 DUP4 ADD MSTORE PUSH2 0x42D1 DUP2 PUSH2 0x3B29 JUMP JUMPDEST SWAP1 POP SWAP2 SWAP1 POP JUMP JUMPDEST PUSH1 0x0 PUSH1 0x20 DUP3 ADD SWAP1 POP DUP2 DUP2 SUB PUSH1 0x0 DUP4 ADD MSTORE PUSH2 0x42F1 DUP2 PUSH2 0x3B8F JUMP JUMPDEST SWAP1 POP SWAP2 SWAP1 POP JUMP JUMPDEST PUSH1 0x0 PUSH1 0x20 DUP3 ADD SWAP1 POP DUP2 DUP2 SUB PUSH1 0x0 DUP4 ADD MSTORE PUSH2 0x4311 DUP2 PUSH2 0x3BCF JUMP JUMPDEST SWAP1 POP SWAP2 SWAP1 POP JUMP JUMPDEST PUSH1 0x0 PUSH1 0x20 DUP3 ADD SWAP1 POP DUP2 DUP2 SUB PUSH1 0x0 DUP4 ADD MSTORE PUSH2 0x4332 DUP2 DUP5 PUSH2 0x3C0F JUMP JUMPDEST SWAP1 POP SWAP3 SWAP2 POP POP JUMP JUMPDEST PUSH1 0x0 PUSH1 0x20 DUP3 ADD SWAP1 POP PUSH2 0x434F PUSH1 0x0 DUP4 ADD DUP5 PUSH2 0x3CE3 JUMP JUMPDEST SWAP3 SWAP2 POP POP JUMP JUMPDEST PUSH1 0x0 PUSH1 0x40 DUP3 ADD SWAP1 POP PUSH2 0x436A PUSH1 0x0 DUP4 ADD DUP6 PUSH2 0x3CE3 JUMP JUMPDEST PUSH2 0x4377 PUSH1 0x20 DUP4 ADD DUP5 PUSH2 0x3CE3 JUMP JUMPDEST SWAP4 SWAP3 POP POP POP JUMP JUMPDEST PUSH1 0x0 PUSH1 0x40 MLOAD SWAP1 POP DUP2 DUP2 ADD DUP2 DUP2 LT PUSH8 0xFFFFFFFFFFFFFFFF DUP3 GT OR ISZERO PUSH2 0x43A1 JUMPI PUSH1 0x0 DUP1 REVERT JUMPDEST DUP1 PUSH1 0x40 MSTORE POP SWAP2 SWAP1 POP JUMP JUMPDEST PUSH1 0x0 PUSH8 0xFFFFFFFFFFFFFFFF DUP3 GT ISZERO PUSH2 0x43C2 JUMPI PUSH1 0x0 DUP1 REVERT JUMPDEST PUSH1 0x1F NOT PUSH1 0x1F DUP4 ADD AND SWAP1 POP PUSH1 0x20 DUP2 ADD SWAP1 POP SWAP2 SWAP1 POP JUMP JUMPDEST PUSH1 0x0 DUP2 MLOAD SWAP1 POP SWAP2 SWAP1 POP JUMP JUMPDEST PUSH1 0x0 DUP2 MLOAD SWAP1 POP SWAP2 SWAP1 POP JUMP JUMPDEST PUSH1 0x0 DUP3 DUP3 MSTORE PUSH1 0x20 DUP3 ADD SWAP1 POP SWAP3 SWAP2 POP POP JUMP JUMPDEST PUSH1 0x0 DUP2 SWAP1 POP SWAP3 SWAP2 POP POP JUMP JUMPDEST PUSH1 0x0 DUP3 DUP3 MSTORE PUSH1 0x20 DUP3 ADD SWAP1 POP SWAP3 SWAP2 POP POP JUMP JUMPDEST PUSH1 0x0 DUP3 DUP3 MSTORE PUSH1 0x20 DUP3 ADD SWAP1 POP SWAP3 SWAP2 POP POP JUMP JUMPDEST PUSH1 0x0 DUP2 SWAP1 POP SWAP3 SWAP2 POP POP JUMP JUMPDEST PUSH1 0x0 PUSH2 0x4441 DUP3 PUSH2 0x449C JUMP JUMPDEST SWAP1 POP SWAP2 SWAP1 POP JUMP JUMPDEST PUSH1 0x0 PUSH2 0x4453 DUP3 PUSH2 0x449C JUMP JUMPDEST SWAP1 POP SWAP2 SWAP1 POP JUMP JUMPDEST PUSH1 0x0 DUP2 ISZERO ISZERO SWAP1 POP SWAP2 SWAP1 POP JUMP JUMPDEST PUSH1 0x0 DUP2 SWAP1 POP SWAP2 SWAP1 POP JUMP JUMPDEST PUSH1 0x0 PUSH32 0xFFFFFFFF00000000000000000000000000000000000000000000000000000000 DUP3 AND SWAP1 POP SWAP2 SWAP1 POP JUMP JUMPDEST PUSH1 0x0 PUSH20 0xFFFFFFFFFFFFFFFFFFFFFFFFFFFFFFFFFFFFFFFF DUP3 AND SWAP1 POP SWAP2 SWAP1 POP JUMP JUMPDEST PUSH1 0x0 DUP2 SWAP1 POP SWAP2 SWAP1 POP JUMP JUMPDEST PUSH1 0x0 PUSH2 0x44D1 DUP3 PUSH2 0x44D8 JUMP JUMPDEST SWAP1 POP SWAP2 SWAP1 POP JUMP JUMPDEST PUSH1 0x0 PUSH2 0x44E3 DUP3 PUSH2 0x44EA JUMP JUMPDEST SWAP1 POP SWAP2 SWAP1 POP JUMP JUMPDEST PUSH1 0x0 PUSH2 0x44F5 DUP3 PUSH2 0x449C JUMP JUMPDEST SWAP1 POP SWAP2 SWAP1 POP JUMP JUMPDEST DUP3 DUP2 DUP4 CALLDATACOPY PUSH1 0x0 DUP4 DUP4 ADD MSTORE POP POP POP JUMP JUMPDEST PUSH1 0x0 JUMPDEST DUP4 DUP2 LT ISZERO PUSH2 0x4529 JUMPI DUP1 DUP3 ADD MLOAD DUP2 DUP5 ADD MSTORE PUSH1 0x20 DUP2 ADD SWAP1 POP PUSH2 0x450E JUMP JUMPDEST DUP4 DUP2 GT ISZERO PUSH2 0x4538 JUMPI PUSH1 0x0 DUP5 DUP5 ADD MSTORE JUMPDEST POP POP POP POP JUMP JUMPDEST PUSH1 0x0 PUSH1 0x1F NOT PUSH1 0x1F DUP4 ADD AND SWAP1 POP SWAP2 SWAP1 POP JUMP JUMPDEST PUSH2 0x4558 DUP2 PUSH2 0x4436 JUMP JUMPDEST DUP2 EQ PUSH2 0x4563 JUMPI PUSH1 0x0 DUP1 REVERT JUMPDEST POP JUMP JUMPDEST PUSH2 0x456F DUP2 PUSH2 0x445A JUMP JUMPDEST DUP2 EQ PUSH2 0x457A JUMPI PUSH1 0x0 DUP1 REVERT JUMPDEST POP JUMP JUMPDEST PUSH2 0x4586 DUP2 PUSH2 0x4466 JUMP JUMPDEST DUP2 EQ PUSH2 0x4591 JUMPI PUSH1 0x0 DUP1 REVERT JUMPDEST POP JUMP JUMPDEST PUSH2 0x459D DUP2 PUSH2 0x44BC JUMP JUMPDEST DUP2 EQ PUSH2 0x45A8 JUMPI PUSH1 0x0 DUP1 REVERT JUMPDEST POP JUMP INVALID LOG2 PUSH5 0x6970667358 0x22 SLT KECCAK256 RETURNDATASIZE 0xD1 EXP GASPRICE CALLCODE SWAP3 BALANCE MSIZE SGT 0x4D 0x2D 0xC ADDMOD CHAINID 0x4C PUSH21 0xB2A1E9BEB0AF255F4C1988B90B1E5F0B64736F6C63 NUMBER STOP MOD 0xC STOP CALLER "
        },
        "methodIdentifiers": {
          "checkToken0()": "2ca77bf8",
          "createErc1155(string,address,address,uint256,uint256,uint256,uint256)": "06350d71",
          "createErc721(string,address,address,uint256,uint256,uint256)": "73d9ced9",
          "creatorClaim(uint256)": "2ad540ed",
          "creatorClaimedP(uint256)": "e87ba7aa",
          "getConfig(bytes32)": "6dd5b69d",
          "getConfig(bytes32,address)": "52665f47",
          "getConfig(bytes32,uint256)": "8ec872e3",
          "getPoolCount()": "8eec5d70",
          "governor()": "0c340a24",
          "initialize(address)": "c4d66de8",
          "myCreatedP(address)": "bbe7180d",
          "myNameP(string)": "9d6ce84b",
          "onERC1155Received(address,address,uint256,uint256,bytes)": "f23a6e61",
          "onERC721Received(address,address,uint256,bytes)": "150b7a02",
          "pools(uint256)": "ac4afa38",
          "renounceGovernorship()": "81c0c263",
          "setConfig(bytes32,address,uint256)": "b21544f3",
          "setConfig(bytes32,uint256)": "15fe96dc",
          "setConfig(bytes32,uint256,uint256)": "ddf2be3f",
          "swap(uint256,uint256)": "d96073cf",
          "swappedAmount0P(uint256)": "6d17b1d8",
          "swappedAmount1P(uint256)": "cbe4b8eb",
          "swappedP(uint256)": "db06c05f",
          "token0List(address)": "29dbd098",
          "transferGovernor(address)": "b8cc9ce6",
          "transferGovernorship(address)": "b6aa515b"
        }
      }
    }
  }
}