{
  "_format": "hh-sol-artifact-1",
  "contractName": "FixedSwapNFT",
  "sourceName": "contracts/FixedSwapNFT.sol",
  "abi": [
    {
      "anonymous": false,
      "inputs": [
        {
          "indexed": true,
          "internalType": "address",
          "name": "sender",
          "type": "address"
        },
        {
          "indexed": true,
          "internalType": "uint256",
          "name": "index",
          "type": "uint256"
        },
        {
          "indexed": false,
          "internalType": "uint256",
          "name": "amount0",
          "type": "uint256"
        }
      ],
      "name": "Claimed",
      "type": "event"
    },
    {
      "anonymous": false,
      "inputs": [
        {
          "indexed": true,
          "internalType": "address",
          "name": "sender",
          "type": "address"
        },
        {
          "indexed": true,
          "internalType": "uint256",
          "name": "index",
          "type": "uint256"
        },
        {
          "components": [
            {
              "internalType": "address payable",
              "name": "creator",
              "type": "address"
            },
            {
              "internalType": "string",
              "name": "name",
              "type": "string"
            },
            {
              "internalType": "address",
              "name": "token0",
              "type": "address"
            },
            {
              "internalType": "address",
              "name": "token1",
              "type": "address"
            },
            {
              "internalType": "uint256",
              "name": "tokenId",
              "type": "uint256"
            },
            {
              "internalType": "uint256",
              "name": "amountTotal0",
              "type": "uint256"
            },
            {
              "internalType": "uint256",
              "name": "amountTotal1",
              "type": "uint256"
            },
            {
              "internalType": "uint256",
              "name": "closeAt",
              "type": "uint256"
            },
            {
              "internalType": "uint256",
              "name": "nftType",
              "type": "uint256"
            }
          ],
          "indexed": false,
          "internalType": "struct FixedSwapNFT.Pool",
          "name": "pool",
          "type": "tuple"
        }
      ],
      "name": "Created",
      "type": "event"
    },
    {
      "anonymous": false,
      "inputs": [
        {
          "indexed": true,
          "internalType": "address",
          "name": "previousGovernor",
          "type": "address"
        },
        {
          "indexed": true,
          "internalType": "address",
          "name": "newGovernor",
          "type": "address"
        }
      ],
      "name": "GovernorshipTransferred",
      "type": "event"
    },
    {
      "anonymous": false,
      "inputs": [
        {
          "indexed": true,
          "internalType": "address",
          "name": "sender",
          "type": "address"
        },
        {
          "indexed": true,
          "internalType": "uint256",
          "name": "index",
          "type": "uint256"
        },
        {
          "indexed": false,
          "internalType": "uint256",
          "name": "amount0",
          "type": "uint256"
        },
        {
          "indexed": false,
          "internalType": "uint256",
          "name": "amount1",
          "type": "uint256"
        }
      ],
      "name": "Swapped",
      "type": "event"
    },
    {
      "inputs": [],
      "name": "checkToken0",
      "outputs": [
        {
          "internalType": "bool",
          "name": "",
          "type": "bool"
        }
      ],
      "stateMutability": "view",
      "type": "function"
    },
    {
      "inputs": [
        {
          "internalType": "string",
          "name": "name",
          "type": "string"
        },
        {
          "internalType": "address",
          "name": "token0",
          "type": "address"
        },
        {
          "internalType": "address",
          "name": "token1",
          "type": "address"
        },
        {
          "internalType": "uint256",
          "name": "tokenId",
          "type": "uint256"
        },
        {
          "internalType": "uint256",
          "name": "amountTotal0",
          "type": "uint256"
        },
        {
          "internalType": "uint256",
          "name": "amountTotal1",
          "type": "uint256"
        },
        {
          "internalType": "uint256",
          "name": "duration",
          "type": "uint256"
        }
      ],
      "name": "createErc1155",
      "outputs": [],
      "stateMutability": "payable",
      "type": "function"
    },
    {
      "inputs": [
        {
          "internalType": "string",
          "name": "name",
          "type": "string"
        },
        {
          "internalType": "address",
          "name": "token0",
          "type": "address"
        },
        {
          "internalType": "address",
          "name": "token1",
          "type": "address"
        },
        {
          "internalType": "uint256",
          "name": "tokenId",
          "type": "uint256"
        },
        {
          "internalType": "uint256",
          "name": "amountTotal1",
          "type": "uint256"
        },
        {
          "internalType": "uint256",
          "name": "duration",
          "type": "uint256"
        }
      ],
      "name": "createErc721",
      "outputs": [],
      "stateMutability": "payable",
      "type": "function"
    },
    {
      "inputs": [
        {
          "internalType": "uint256",
          "name": "index",
          "type": "uint256"
        }
      ],
      "name": "creatorClaim",
      "outputs": [],
      "stateMutability": "nonpayable",
      "type": "function"
    },
    {
      "inputs": [
        {
          "internalType": "uint256",
          "name": "",
          "type": "uint256"
        }
      ],
      "name": "creatorClaimedP",
      "outputs": [
        {
          "internalType": "bool",
          "name": "",
          "type": "bool"
        }
      ],
      "stateMutability": "view",
      "type": "function"
    },
    {
      "inputs": [
        {
          "internalType": "bytes32",
          "name": "key",
          "type": "bytes32"
        },
        {
          "internalType": "address",
          "name": "addr",
          "type": "address"
        }
      ],
      "name": "getConfig",
      "outputs": [
        {
          "internalType": "uint256",
          "name": "",
          "type": "uint256"
        }
      ],
      "stateMutability": "view",
      "type": "function"
    },
    {
      "inputs": [
        {
          "internalType": "bytes32",
          "name": "key",
          "type": "bytes32"
        }
      ],
      "name": "getConfig",
      "outputs": [
        {
          "internalType": "uint256",
          "name": "",
          "type": "uint256"
        }
      ],
      "stateMutability": "view",
      "type": "function"
    },
    {
      "inputs": [
        {
          "internalType": "bytes32",
          "name": "key",
          "type": "bytes32"
        },
        {
          "internalType": "uint256",
          "name": "index",
          "type": "uint256"
        }
      ],
      "name": "getConfig",
      "outputs": [
        {
          "internalType": "uint256",
          "name": "",
          "type": "uint256"
        }
      ],
      "stateMutability": "view",
      "type": "function"
    },
    {
      "inputs": [],
      "name": "getPoolCount",
      "outputs": [
        {
          "internalType": "uint256",
          "name": "",
          "type": "uint256"
        }
      ],
      "stateMutability": "view",
      "type": "function"
    },
    {
      "inputs": [],
      "name": "governor",
      "outputs": [
        {
          "internalType": "address",
          "name": "",
          "type": "address"
        }
      ],
      "stateMutability": "view",
      "type": "function"
    },
    {
      "inputs": [
        {
          "internalType": "address",
          "name": "_governor",
          "type": "address"
        }
      ],
      "name": "initialize",
      "outputs": [],
      "stateMutability": "nonpayable",
      "type": "function"
    },
    {
      "inputs": [
        {
          "internalType": "address",
          "name": "",
          "type": "address"
        }
      ],
      "name": "myCreatedP",
      "outputs": [
        {
          "internalType": "uint256",
          "name": "",
          "type": "uint256"
        }
      ],
      "stateMutability": "view",
      "type": "function"
    },
    {
      "inputs": [
        {
          "internalType": "string",
          "name": "",
          "type": "string"
        }
      ],
      "name": "myNameP",
      "outputs": [
        {
          "internalType": "uint256",
          "name": "",
          "type": "uint256"
        }
      ],
      "stateMutability": "view",
      "type": "function"
    },
    {
      "inputs": [
        {
          "internalType": "address",
          "name": "",
          "type": "address"
        },
        {
          "internalType": "address",
          "name": "",
          "type": "address"
        },
        {
          "internalType": "uint256",
          "name": "",
          "type": "uint256"
        },
        {
          "internalType": "uint256",
          "name": "",
          "type": "uint256"
        },
        {
          "internalType": "bytes",
          "name": "",
          "type": "bytes"
        }
      ],
      "name": "onERC1155Received",
      "outputs": [
        {
          "internalType": "bytes4",
          "name": "",
          "type": "bytes4"
        }
      ],
      "stateMutability": "nonpayable",
      "type": "function"
    },
    {
      "inputs": [
        {
          "internalType": "address",
          "name": "",
          "type": "address"
        },
        {
          "internalType": "address",
          "name": "",
          "type": "address"
        },
        {
          "internalType": "uint256",
          "name": "",
          "type": "uint256"
        },
        {
          "internalType": "bytes",
          "name": "",
          "type": "bytes"
        }
      ],
      "name": "onERC721Received",
      "outputs": [
        {
          "internalType": "bytes4",
          "name": "",
          "type": "bytes4"
        }
      ],
      "stateMutability": "nonpayable",
      "type": "function"
    },
    {
      "inputs": [
        {
          "internalType": "uint256",
          "name": "",
          "type": "uint256"
        }
      ],
      "name": "pools",
      "outputs": [
        {
          "internalType": "address payable",
          "name": "creator",
          "type": "address"
        },
        {
          "internalType": "string",
          "name": "name",
          "type": "string"
        },
        {
          "internalType": "address",
          "name": "token0",
          "type": "address"
        },
        {
          "internalType": "address",
          "name": "token1",
          "type": "address"
        },
        {
          "internalType": "uint256",
          "name": "tokenId",
          "type": "uint256"
        },
        {
          "internalType": "uint256",
          "name": "amountTotal0",
          "type": "uint256"
        },
        {
          "internalType": "uint256",
          "name": "amountTotal1",
          "type": "uint256"
        },
        {
          "internalType": "uint256",
          "name": "closeAt",
          "type": "uint256"
        },
        {
          "internalType": "uint256",
          "name": "nftType",
          "type": "uint256"
        }
      ],
      "stateMutability": "view",
      "type": "function"
    },
    {
      "inputs": [],
      "name": "renounceGovernorship",
      "outputs": [],
      "stateMutability": "nonpayable",
      "type": "function"
    },
    {
      "inputs": [
        {
          "internalType": "bytes32",
          "name": "key",
          "type": "bytes32"
        },
        {
          "internalType": "uint256",
          "name": "value",
          "type": "uint256"
        }
      ],
      "name": "setConfig",
      "outputs": [],
      "stateMutability": "nonpayable",
      "type": "function"
    },
    {
      "inputs": [
        {
          "internalType": "bytes32",
          "name": "key",
          "type": "bytes32"
        },
        {
          "internalType": "address",
          "name": "addr",
          "type": "address"
        },
        {
          "internalType": "uint256",
          "name": "value",
          "type": "uint256"
        }
      ],
      "name": "setConfig",
      "outputs": [],
      "stateMutability": "nonpayable",
      "type": "function"
    },
    {
      "inputs": [
        {
          "internalType": "bytes32",
          "name": "key",
          "type": "bytes32"
        },
        {
          "internalType": "uint256",
          "name": "index",
          "type": "uint256"
        },
        {
          "internalType": "uint256",
          "name": "value",
          "type": "uint256"
        }
      ],
      "name": "setConfig",
      "outputs": [],
      "stateMutability": "nonpayable",
      "type": "function"
    },
    {
      "inputs": [
        {
          "internalType": "uint256",
          "name": "index",
          "type": "uint256"
        },
        {
          "internalType": "uint256",
          "name": "amount0",
          "type": "uint256"
        }
      ],
      "name": "swap",
      "outputs": [],
      "stateMutability": "payable",
      "type": "function"
    },
    {
      "inputs": [
        {
          "internalType": "uint256",
          "name": "",
          "type": "uint256"
        }
      ],
      "name": "swappedAmount0P",
      "outputs": [
        {
          "internalType": "uint256",
          "name": "",
          "type": "uint256"
        }
      ],
      "stateMutability": "view",
      "type": "function"
    },
    {
      "inputs": [
        {
          "internalType": "uint256",
          "name": "",
          "type": "uint256"
        }
      ],
      "name": "swappedAmount1P",
      "outputs": [
        {
          "internalType": "uint256",
          "name": "",
          "type": "uint256"
        }
      ],
      "stateMutability": "view",
      "type": "function"
    },
    {
      "inputs": [
        {
          "internalType": "uint256",
          "name": "",
          "type": "uint256"
        }
      ],
      "name": "swappedP",
      "outputs": [
        {
          "internalType": "bool",
          "name": "",
          "type": "bool"
        }
      ],
      "stateMutability": "view",
      "type": "function"
    },
    {
      "inputs": [
        {
          "internalType": "address",
          "name": "",
          "type": "address"
        }
      ],
      "name": "token0List",
      "outputs": [
        {
          "internalType": "bool",
          "name": "",
          "type": "bool"
        }
      ],
      "stateMutability": "view",
      "type": "function"
    },
    {
      "inputs": [
        {
          "internalType": "address",
          "name": "_governor",
          "type": "address"
        }
      ],
      "name": "transferGovernor",
      "outputs": [],
      "stateMutability": "nonpayable",
      "type": "function"
    },
    {
      "inputs": [
        {
          "internalType": "address",
          "name": "newGovernor",
          "type": "address"
        }
      ],
      "name": "transferGovernorship",
      "outputs": [],
      "stateMutability": "nonpayable",
      "type": "function"
    }
  ],
  "bytecode": "0x608060405234801561001057600080fd5b506145e1806100206000396000f3fe60806040526004361061019c5760003560e01c80638eec5d70116100ec578063c4d66de81161008a578063db06c05f11610064578063db06c05f146105ed578063ddf2be3f1461062a578063e87ba7aa14610653578063f23a6e61146106905761019c565b8063c4d66de81461056b578063cbe4b8eb14610594578063d96073cf146105d15761019c565b8063b21544f3116100c6578063b21544f3146104b3578063b6aa515b146104dc578063b8cc9ce614610505578063bbe7180d1461052e5761019c565b80638eec5d70146104065780639d6ce84b14610431578063ac4afa381461046e5761019c565b80632ca77bf8116101595780636dd5b69d116101335780636dd5b69d1461035957806373d9ced91461039657806381c0c263146103b25780638ec872e3146103c95761019c565b80632ca77bf8146102b457806352665f47146102df5780636d17b1d81461031c5761019c565b806306350d71146101a15780630c340a24146101bd578063150b7a02146101e857806315fe96dc1461022557806329dbd0981461024e5780632ad540ed1461028b575b600080fd5b6101bb60048036038101906101b69190613253565b6106cd565b005b3480156101c957600080fd5b506101d2610789565b6040516101df9190613d20565b60405180910390f35b3480156101f457600080fd5b5061020f600480360381019061020a9190612ef7565b6107af565b60405161021c9190613fbb565b60405180910390f35b34801561023157600080fd5b5061024c600480360381019061024791906130e6565b6107c4565b005b34801561025a57600080fd5b5061027560048036038101906102709190612ece565b61082c565b6040516102829190613fa0565b60405180910390f35b34801561029757600080fd5b506102b260048036038101906102ad9190613309565b61084c565b005b3480156102c057600080fd5b506102c9610e2c565b6040516102d69190613fa0565b60405180910390f35b3480156102eb57600080fd5b506103066004803603810190610301919061305b565b610e3f565b604051610313919061433a565b60405180910390f35b34801561032857600080fd5b50610343600480360381019061033e9190613309565b610e7b565b604051610350919061433a565b60405180910390f35b34801561036557600080fd5b50610380600480360381019061037b9190613032565b610e93565b60405161038d919061433a565b60405180910390f35b6103b060048036038101906103ab91906131b2565b610eb0565b005b3480156103be57600080fd5b506103c7610f72565b005b3480156103d557600080fd5b506103f060048036038101906103eb91906130e6565b61108d565b6040516103fd919061433a565b60405180910390f35b34801561041257600080fd5b5061041b6110b3565b604051610428919061433a565b60405180910390f35b34801561043d57600080fd5b5061045860048036038101906104539190613171565b6110c0565b604051610465919061433a565b60405180910390f35b34801561047a57600080fd5b5061049560048036038101906104909190613309565b6110ee565b6040516104aa99989796959493929190613dca565b60405180910390f35b3480156104bf57600080fd5b506104da60048036038101906104d59190613097565b611241565b005b3480156104e857600080fd5b5061050360048036038101906104fe9190612ece565b6112c8565b005b34801561051157600080fd5b5061052c60048036038101906105279190612ece565b61132e565b005b34801561053a57600080fd5b5061055560048036038101906105509190612ece565b61145b565b604051610562919061433a565b60405180910390f35b34801561057757600080fd5b50610592600480360381019061058d9190612ece565b611473565b005b3480156105a057600080fd5b506105bb60048036038101906105b69190613309565b611686565b6040516105c8919061433a565b60405180910390f35b6105eb60048036038101906105e69190613332565b61169e565b005b3480156105f957600080fd5b50610614600480360381019061060f9190613309565b611ca5565b6040516106219190613fa0565b60405180910390f35b34801561063657600080fd5b50610651600480360381019061064c9190613122565b611cc5565b005b34801561065f57600080fd5b5061067a60048036038101906106759190613309565b611d36565b6040516106879190613fa0565b60405180910390f35b34801561069c57600080fd5b506106b760048036038101906106b29190612f77565b611d56565b6040516106c49190613fbb565b60405180910390f35b603a60009054906101000a900460ff161561076f57603b60008773ffffffffffffffffffffffffffffffffffffffff1673ffffffffffffffffffffffffffffffffffffffff16815260200190815260200160002060009054906101000a900460ff1661076e576040517f08c379a000000000000000000000000000000000000000000000000000000000815260040161076590614058565b60405180910390fd5b5b610780878787878787876001611d6c565b50505050505050565b603360009054906101000a900473ffffffffffffffffffffffffffffffffffffffff1681565b600063150b7a0260e01b905095945050505050565b603360009054906101000a900473ffffffffffffffffffffffffffffffffffffffff1673ffffffffffffffffffffffffffffffffffffffff163373ffffffffffffffffffffffffffffffffffffffff161461081e57600080fd5b610828828261267f565b5050565b603b6020528060005260406000206000915054906101000a900460ff1681565b806035805490508110610894576040517f08c379a000000000000000000000000000000000000000000000000000000000815260040161088b906140f8565b60405180910390fd5b8142603582815481106108a357fe5b90600052602060002090600902016007015411156108f6576040517f08c379a00000000000000000000000000000000000000000000000000000000081526004016108ed906142d8565b60405180910390fd5b826039600082815260200190815260200160002060009054906101000a900460ff1615610958576040517f08c379a000000000000000000000000000000000000000000000000000000000815260040161094f906141d8565b60405180910390fd5b61096233856126b6565b6109a1576040517f08c379a000000000000000000000000000000000000000000000000000000000815260040161099890614098565b60405180910390fd5b6038600085815260200190815260200160002060009054906101000a900460ff1615610a02576040517f08c379a00000000000000000000000000000000000000000000000000000000081526004016109f9906141b8565b60405180910390fd5b60016038600086815260200190815260200160002060006101000a81548160ff021916908315150217905550603660003373ffffffffffffffffffffffffffffffffffffffff1673ffffffffffffffffffffffffffffffffffffffff16815260200190815260200160002060009055610a79612cb1565b60358581548110610a8657fe5b9060005260206000209060090201604051806101200160405290816000820160009054906101000a900473ffffffffffffffffffffffffffffffffffffffff1673ffffffffffffffffffffffffffffffffffffffff1673ffffffffffffffffffffffffffffffffffffffff168152602001600182018054600181600116156101000203166002900480601f016020809104026020016040519081016040528092919081815260200182805460018160011615610100020316600290048015610b8f5780601f10610b6457610100808354040283529160200191610b8f565b820191906000526020600020905b815481529060010190602001808311610b7257829003601f168201915b505050505081526020016002820160009054906101000a900473ffffffffffffffffffffffffffffffffffffffff1673ffffffffffffffffffffffffffffffffffffffff1673ffffffffffffffffffffffffffffffffffffffff1681526020016003820160009054906101000a900473ffffffffffffffffffffffffffffffffffffffff1673ffffffffffffffffffffffffffffffffffffffff1673ffffffffffffffffffffffffffffffffffffffff16815260200160048201548152602001600582015481526020016006820154815260200160078201548152602001600882015481525050905060008161010001511415610d0657806040015173ffffffffffffffffffffffffffffffffffffffff166342842e0e30836000015184608001516040518463ffffffff1660e01b8152600401610ccf93929190613e5e565b600060405180830381600087803b158015610ce957600080fd5b505af1158015610cfd573d6000803e3d6000fd5b50505050610dad565b806040015173ffffffffffffffffffffffffffffffffffffffff1663f242432a3083600001518460800151610d5b603c60008c8152602001908152602001600020548760a0015161273e90919063ffffffff16565b6040518563ffffffff1660e01b8152600401610d7a9493929190613eda565b600060405180830381600087803b158015610d9457600080fd5b505af1158015610da8573d6000803e3d6000fd5b505050505b843373ffffffffffffffffffffffffffffffffffffffff167f987d620f307ff6b94d58743cb7a7509f24071586a77759b77c2d4e29f75a2f9a610e10603c60008a8152602001908152602001600020548560a0015161273e90919063ffffffff16565b604051610e1d919061433a565b60405180910390a35050505050565b603a60009054906101000a900460ff1681565b6000603460008373ffffffffffffffffffffffffffffffffffffffff168560001c1860001b815260200190815260200160002054905092915050565b603c6020528060005260406000206000915090505481565b600060346000838152602001908152602001600020549050919050565b603a60009054906101000a900460ff1615610f5257603b60008673ffffffffffffffffffffffffffffffffffffffff1673ffffffffffffffffffffffffffffffffffffffff16815260200190815260200160002060009054906101000a900460ff16610f51576040517f08c379a0000000000000000000000000000000000000000000000000000000008152600401610f4890614058565b60405180910390fd5b5b600060019050610f69878787878588886000611d6c565b50505050505050565b603360009054906101000a900473ffffffffffffffffffffffffffffffffffffffff1673ffffffffffffffffffffffffffffffffffffffff163373ffffffffffffffffffffffffffffffffffffffff1614610fcc57600080fd5b600073ffffffffffffffffffffffffffffffffffffffff16603360009054906101000a900473ffffffffffffffffffffffffffffffffffffffff1673ffffffffffffffffffffffffffffffffffffffff167fc7c0c772add429241571afb3805861fb3cfa2af374534088b76cdb4325a87e9a60405160405180910390a36000603360006101000a81548173ffffffffffffffffffffffffffffffffffffffff021916908373ffffffffffffffffffffffffffffffffffffffff160217905550565b600060346000838560001c1860001b815260200190815260200160002054905092915050565b6000603580549050905090565b6037818051602081018201805184825260208301602085012081835280955050505050506000915090505481565b603581815481106110fb57fe5b90600052602060002090600902016000915090508060000160009054906101000a900473ffffffffffffffffffffffffffffffffffffffff1690806001018054600181600116156101000203166002900480601f0160208091040260200160405190810160405280929190818152602001828054600181600116156101000203166002900480156111cd5780601f106111a2576101008083540402835291602001916111cd565b820191906000526020600020905b8154815290600101906020018083116111b057829003601f168201915b5050505050908060020160009054906101000a900473ffffffffffffffffffffffffffffffffffffffff16908060030160009054906101000a900473ffffffffffffffffffffffffffffffffffffffff16908060040154908060050154908060060154908060070154908060080154905089565b603360009054906101000a900473ffffffffffffffffffffffffffffffffffffffff1673ffffffffffffffffffffffffffffffffffffffff163373ffffffffffffffffffffffffffffffffffffffff161461129b57600080fd5b6112c38273ffffffffffffffffffffffffffffffffffffffff168460001c1860001b8261267f565b505050565b603360009054906101000a900473ffffffffffffffffffffffffffffffffffffffff1673ffffffffffffffffffffffffffffffffffffffff163373ffffffffffffffffffffffffffffffffffffffff161461132257600080fd5b61132b8161278e565b50565b603360009054906101000a900473ffffffffffffffffffffffffffffffffffffffff1673ffffffffffffffffffffffffffffffffffffffff163373ffffffffffffffffffffffffffffffffffffffff1614806113d85750600073ffffffffffffffffffffffffffffffffffffffff16603360009054906101000a900473ffffffffffffffffffffffffffffffffffffffff1673ffffffffffffffffffffffffffffffffffffffff16145b611417576040517f08c379a000000000000000000000000000000000000000000000000000000000815260040161140e90614018565b60405180910390fd5b80603360006101000a81548173ffffffffffffffffffffffffffffffffffffffff021916908373ffffffffffffffffffffffffffffffffffffffff16021790555050565b60366020528060005260406000206000915090505481565b600060019054906101000a900460ff16806114925750611491612888565b5b806114a8575060008054906101000a900460ff16155b6114e7576040517f08c379a00000000000000000000000000000000000000000000000000000000081526004016114de90614238565b60405180910390fd5b60008060019054906101000a900460ff161590508015611537576001600060016101000a81548160ff02191690831515021790555060016000806101000a81548160ff0219169083151502179055505b603360009054906101000a900473ffffffffffffffffffffffffffffffffffffffff1673ffffffffffffffffffffffffffffffffffffffff163373ffffffffffffffffffffffffffffffffffffffff1614806115e15750600073ffffffffffffffffffffffffffffffffffffffff16603360009054906101000a900473ffffffffffffffffffffffffffffffffffffffff1673ffffffffffffffffffffffffffffffffffffffff16145b611620576040517f08c379a000000000000000000000000000000000000000000000000000000000815260040161161790614018565b60405180910390fd5b81603360006101000a81548173ffffffffffffffffffffffffffffffffffffffff021916908373ffffffffffffffffffffffffffffffffffffffff16021790555080156116825760008060016101000a81548160ff0219169083151502179055505b5050565b603d6020528060005260406000206000915090505481565b8160358054905081106116e6576040517f08c379a00000000000000000000000000000000000000000000000000000000081526004016116dd906140f8565b60405180910390fd5b8242603582815481106116f557fe5b90600052602060002090600902016007015411611747576040517f08c379a000000000000000000000000000000000000000000000000000000000815260040161173e90614118565b60405180910390fd5b836039600082815260200190815260200160002060009054906101000a900460ff16156117a9576040517f08c379a00000000000000000000000000000000000000000000000000000000081526004016117a0906141d8565b60405180910390fd5b6000603586815481106117b857fe5b90600052602060002090600902019050600185101580156117dd575080600501548511155b61181c576040517f08c379a000000000000000000000000000000000000000000000000000000000815260040161181390614278565b60405180910390fd5b806005015461184786603c60008a81526020019081526020016000205461289f90919063ffffffff16565b1115611888576040517f08c379a000000000000000000000000000000000000000000000000000000000815260040161187f906142f8565b60405180910390fd5b60006118b782600501546118a98460060154896128f490919063ffffffff16565b61296490919063ffffffff16565b90506118df86603c60008a81526020019081526020016000205461289f90919063ffffffff16565b603c60008981526020019081526020016000208190555061191c81603d60008a81526020019081526020016000205461289f90919063ffffffff16565b603d6000898152602001908152602001600020819055508160050154603c600089815260200190815260200160002054141561197f5760016039600089815260200190815260200160002060006101000a81548160ff0219169083151502179055505b600073ffffffffffffffffffffffffffffffffffffffff168260030160009054906101000a900473ffffffffffffffffffffffffffffffffffffffff1673ffffffffffffffffffffffffffffffffffffffff161415611a8e57348114611a1a576040517f08c379a0000000000000000000000000000000000000000000000000000000008152600401611a1190614298565b60405180910390fd5b8160000160009054906101000a900473ffffffffffffffffffffffffffffffffffffffff1673ffffffffffffffffffffffffffffffffffffffff166108fc83600601549081150290604051600060405180830381858888f19350505050158015611a88573d6000803e3d6000fd5b50611b04565b611b03338360000160009054906101000a900473ffffffffffffffffffffffffffffffffffffffff16838560030160009054906101000a900473ffffffffffffffffffffffffffffffffffffffff1673ffffffffffffffffffffffffffffffffffffffff166129ba909392919063ffffffff16565b5b600082600801541415611bad578160020160009054906101000a900473ffffffffffffffffffffffffffffffffffffffff1673ffffffffffffffffffffffffffffffffffffffff166342842e0e303385600401546040518463ffffffff1660e01b8152600401611b7693929190613e5e565b600060405180830381600087803b158015611b9057600080fd5b505af1158015611ba4573d6000803e3d6000fd5b50505050611c4b565b8160020160009054906101000a900473ffffffffffffffffffffffffffffffffffffffff1673ffffffffffffffffffffffffffffffffffffffff1663f242432a3033856004015486600501546040518563ffffffff1660e01b8152600401611c189493929190613eda565b600060405180830381600087803b158015611c3257600080fd5b505af1158015611c46573d6000803e3d6000fd5b505050505b863373ffffffffffffffffffffffffffffffffffffffff167f36a39cf3f9b8206db312650e7d954482535a2e33fb0b54e1030f149ed213823a8884604051611c94929190614355565b60405180910390a350505050505050565b60396020528060005260406000206000915054906101000a900460ff1681565b603360009054906101000a900473ffffffffffffffffffffffffffffffffffffffff1673ffffffffffffffffffffffffffffffffffffffff163373ffffffffffffffffffffffffffffffffffffffff1614611d1f57600080fd5b611d31828460001c1860001b8261267f565b505050565b60386020528060005260406000206000915054906101000a900460ff1681565b600063f23a6e6160e01b90509695505050505050565b336000603660008373ffffffffffffffffffffffffffffffffffffffff1673ffffffffffffffffffffffffffffffffffffffff168152602001908152602001600020541115611ea157603960006001603660008573ffffffffffffffffffffffffffffffffffffffff1673ffffffffffffffffffffffffffffffffffffffff1681526020019081526020016000205403815260200190815260200160002060009054906101000a900460ff1615611e6557603660008273ffffffffffffffffffffffffffffffffffffffff1673ffffffffffffffffffffffffffffffffffffffff16815260200190815260200160002060009055611ea0565b6040517f08c379a0000000000000000000000000000000000000000000000000000000008152600401611e97906140d8565b60405180910390fd5b5b886000603782604051611eb49190613d09565b9081526020016040518091039020541115611fdb5760006001603783604051611edd9190613d09565b90815260200160405180910390205403905060006036600060358481548110611f0257fe5b906000526020600020906009020160000160009054906101000a900473ffffffffffffffffffffffffffffffffffffffff1673ffffffffffffffffffffffffffffffffffffffff1673ffffffffffffffffffffffffffffffffffffffff16815260200190815260200160002054118015611f9957504260358281548110611f8557fe5b906000526020600020906009020160070154115b15611fd9576040517f08c379a0000000000000000000000000000000000000000000000000000000008152600401611fd090613ff8565b60405180910390fd5b505b600085141561201f576040517f08c379a0000000000000000000000000000000000000000000000000000000008152600401612016906140b8565b60405180910390fd5b6000841415612063576040517f08c379a000000000000000000000000000000000000000000000000000000000815260040161205a90614038565b60405180910390fd5b600f8a5111156120a8576040517f08c379a000000000000000000000000000000000000000000000000000000000815260040161209f906141f8565b60405180910390fd5b6120b0612cb1565b33816000019073ffffffffffffffffffffffffffffffffffffffff16908173ffffffffffffffffffffffffffffffffffffffff16815250508a816020018190525089816040019073ffffffffffffffffffffffffffffffffffffffff16908173ffffffffffffffffffffffffffffffffffffffff168152505088816060019073ffffffffffffffffffffffffffffffffffffffff16908173ffffffffffffffffffffffffffffffffffffffff168152505087816080018181525050868160a0018181525050858160c0018181525050612192854261289f90919063ffffffff16565b8160e0018181525050838161010001818152505060006035805490509050603582908060018154018082558091505060019003906000526020600020906009020160009091909190915060008201518160000160006101000a81548173ffffffffffffffffffffffffffffffffffffffff021916908373ffffffffffffffffffffffffffffffffffffffff160217905550602082015181600101908051906020019061223f929190612d3f565b5060408201518160020160006101000a81548173ffffffffffffffffffffffffffffffffffffffff021916908373ffffffffffffffffffffffffffffffffffffffff16021790555060608201518160030160006101000a81548173ffffffffffffffffffffffffffffffffffffffff021916908373ffffffffffffffffffffffffffffffffffffffff1602179055506080820151816004015560a0820151816005015560c0820151816006015560e0820151816007015561010082015181600801555050603580549050603660003373ffffffffffffffffffffffffffffffffffffffff1673ffffffffffffffffffffffffffffffffffffffff1681526020019081526020016000208190555060358054905060378d6040516123629190613d09565b90815260200160405180910390208190555060008514156124cd57600188146123c0576040517f08c379a00000000000000000000000000000000000000000000000000000000081526004016123b790614198565b60405180910390fd5b8a73ffffffffffffffffffffffffffffffffffffffff166342842e0e33308c6040518463ffffffff1660e01b81526004016123fd93929190613d3b565b600060405180830381600087803b15801561241757600080fd5b505af115801561242b573d6000803e3d6000fd5b50505050603e60009054906101000a900473ffffffffffffffffffffffffffffffffffffffff1673ffffffffffffffffffffffffffffffffffffffff16634091214c8c8b6001603580549050036040518463ffffffff1660e01b815260040161249693929190613f69565b600060405180830381600087803b1580156124b057600080fd5b505af11580156124c4573d6000803e3d6000fd5b50505050612622565b6000881415612511576040517f08c379a000000000000000000000000000000000000000000000000000000000815260040161250890614198565b60405180910390fd5b8a73ffffffffffffffffffffffffffffffffffffffff1663f242432a33308c8c6040518563ffffffff1660e01b81526004016125509493929190613d72565b600060405180830381600087803b15801561256a57600080fd5b505af115801561257e573d6000803e3d6000fd5b50505050603e60009054906101000a900473ffffffffffffffffffffffffffffffffffffffff1673ffffffffffffffffffffffffffffffffffffffff1663f5444c678c84600001518c6001603580549050036040518563ffffffff1660e01b81526004016125ef9493929190613e95565b600060405180830381600087803b15801561260957600080fd5b505af115801561261d573d6000803e3d6000fd5b505050505b803373ffffffffffffffffffffffffffffffffffffffff167f89e79b43dbf06920dd0e7fc08d9dfb54eb6ee8dae358c231d80c8649929b767b846040516126699190614318565b60405180910390a3505050505050505050505050565b806034600084815260200190815260200160002054146126b2578060346000848152602001908152602001600020819055505b5050565b60008273ffffffffffffffffffffffffffffffffffffffff16603583815481106126dc57fe5b906000526020600020906009020160000160009054906101000a900473ffffffffffffffffffffffffffffffffffffffff1673ffffffffffffffffffffffffffffffffffffffff1614156127335760019050612738565b600090505b92915050565b600082821115612783576040517f08c379a000000000000000000000000000000000000000000000000000000000815260040161277a90614138565b60405180910390fd5b818303905092915050565b600073ffffffffffffffffffffffffffffffffffffffff168173ffffffffffffffffffffffffffffffffffffffff1614156127c857600080fd5b8073ffffffffffffffffffffffffffffffffffffffff16603360009054906101000a900473ffffffffffffffffffffffffffffffffffffffff1673ffffffffffffffffffffffffffffffffffffffff167fc7c0c772add429241571afb3805861fb3cfa2af374534088b76cdb4325a87e9a60405160405180910390a380603360006101000a81548173ffffffffffffffffffffffffffffffffffffffff021916908373ffffffffffffffffffffffffffffffffffffffff16021790555050565b6000803090506000813b9050600081149250505090565b6000808284019050838110156128ea576040517f08c379a00000000000000000000000000000000000000000000000000000000081526004016128e190614078565b60405180910390fd5b8091505092915050565b600080831415612907576000905061295e565b600082840290508284828161291857fe5b0414612959576040517f08c379a000000000000000000000000000000000000000000000000000000000815260040161295090614218565b60405180910390fd5b809150505b92915050565b60008082116129a8576040517f08c379a000000000000000000000000000000000000000000000000000000000815260040161299f90614178565b60405180910390fd5b8183816129b157fe5b04905092915050565b612a3d846323b872dd60e01b8585856040516024016129db93929190613f32565b604051602081830303815290604052907bffffffffffffffffffffffffffffffffffffffffffffffffffffffff19166020820180517bffffffffffffffffffffffffffffffffffffffffffffffffffffffff8381831617835250505050612a43565b50505050565b6060612aa5826040518060400160405280602081526020017f5361666545524332303a206c6f772d6c6576656c2063616c6c206661696c65648152508573ffffffffffffffffffffffffffffffffffffffff16612b0a9092919063ffffffff16565b9050600081511115612b055780806020019051810190612ac59190613009565b612b04576040517f08c379a0000000000000000000000000000000000000000000000000000000008152600401612afb906142b8565b60405180910390fd5b5b505050565b6060612b198484600085612b22565b90509392505050565b606082471015612b67576040517f08c379a0000000000000000000000000000000000000000000000000000000008152600401612b5e90614158565b60405180910390fd5b612b7085612c37565b612baf576040517f08c379a0000000000000000000000000000000000000000000000000000000008152600401612ba690614258565b60405180910390fd5b600060608673ffffffffffffffffffffffffffffffffffffffff168587604051612bd99190613cf2565b60006040518083038185875af1925050503d8060008114612c16576040519150601f19603f3d011682016040523d82523d6000602084013e612c1b565b606091505b5091509150612c2b828286612c4a565b92505050949350505050565b600080823b905060008111915050919050565b60608315612c5a57829050612caa565b600083511115612c6d5782518084602001fd5b816040517f08c379a0000000000000000000000000000000000000000000000000000000008152600401612ca19190613fd6565b60405180910390fd5b9392505050565b604051806101200160405280600073ffffffffffffffffffffffffffffffffffffffff16815260200160608152602001600073ffffffffffffffffffffffffffffffffffffffff168152602001600073ffffffffffffffffffffffffffffffffffffffff16815260200160008152602001600081526020016000815260200160008152602001600081525090565b828054600181600116156101000203166002900490600052602060002090601f016020900481019282601f10612d8057805160ff1916838001178555612dae565b82800160010185558215612dae579182015b82811115612dad578251825591602001919060010190612d92565b5b509050612dbb9190612dbf565b5090565b5b80821115612dd8576000816000905550600101612dc0565b5090565b600081359050612deb8161454f565b92915050565b600081519050612e0081614566565b92915050565b600081359050612e158161457d565b92915050565b60008083601f840112612e2d57600080fd5b8235905067ffffffffffffffff811115612e4657600080fd5b602083019150836001820283011115612e5e57600080fd5b9250929050565b600082601f830112612e7657600080fd5b8135612e89612e84826143ab565b61437e565b91508082526020830160208301858383011115612ea557600080fd5b612eb08382846144fc565b50505092915050565b600081359050612ec881614594565b92915050565b600060208284031215612ee057600080fd5b6000612eee84828501612ddc565b91505092915050565b600080600080600060808688031215612f0f57600080fd5b6000612f1d88828901612ddc565b9550506020612f2e88828901612ddc565b9450506040612f3f88828901612eb9565b935050606086013567ffffffffffffffff811115612f5c57600080fd5b612f6888828901612e1b565b92509250509295509295909350565b60008060008060008060a08789031215612f9057600080fd5b6000612f9e89828a01612ddc565b9650506020612faf89828a01612ddc565b9550506040612fc089828a01612eb9565b9450506060612fd189828a01612eb9565b935050608087013567ffffffffffffffff811115612fee57600080fd5b612ffa89828a01612e1b565b92509250509295509295509295565b60006020828403121561301b57600080fd5b600061302984828501612df1565b91505092915050565b60006020828403121561304457600080fd5b600061305284828501612e06565b91505092915050565b6000806040838503121561306e57600080fd5b600061307c85828601612e06565b925050602061308d85828601612ddc565b9150509250929050565b6000806000606084860312156130ac57600080fd5b60006130ba86828701612e06565b93505060206130cb86828701612ddc565b92505060406130dc86828701612eb9565b9150509250925092565b600080604083850312156130f957600080fd5b600061310785828601612e06565b925050602061311885828601612eb9565b9150509250929050565b60008060006060848603121561313757600080fd5b600061314586828701612e06565b935050602061315686828701612eb9565b925050604061316786828701612eb9565b9150509250925092565b60006020828403121561318357600080fd5b600082013567ffffffffffffffff81111561319d57600080fd5b6131a984828501612e65565b91505092915050565b60008060008060008060c087890312156131cb57600080fd5b600087013567ffffffffffffffff8111156131e557600080fd5b6131f189828a01612e65565b965050602061320289828a01612ddc565b955050604061321389828a01612ddc565b945050606061322489828a01612eb9565b935050608061323589828a01612eb9565b92505060a061324689828a01612eb9565b9150509295509295509295565b600080600080600080600060e0888a03121561326e57600080fd5b600088013567ffffffffffffffff81111561328857600080fd5b6132948a828b01612e65565b97505060206132a58a828b01612ddc565b96505060406132b68a828b01612ddc565b95505060606132c78a828b01612eb9565b94505060806132d88a828b01612eb9565b93505060a06132e98a828b01612eb9565b92505060c06132fa8a828b01612eb9565b91505092959891949750929550565b60006020828403121561331b57600080fd5b600061332984828501612eb9565b91505092915050565b6000806040838503121561334557600080fd5b600061335385828601612eb9565b925050602061336485828601612eb9565b9150509250929050565b613377816144c6565b82525050565b61338681614448565b82525050565b61339581614448565b82525050565b6133a481614436565b82525050565b6133b381614436565b82525050565b6133c28161445a565b82525050565b6133d181614470565b82525050565b60006133e2826143d7565b6133ec81856143fe565b93506133fc81856020860161450b565b80840191505092915050565b6000613413826143e2565b61341d8185614409565b935061342d81856020860161450b565b6134368161453e565b840191505092915050565b600061344c826143e2565b613456818561441a565b935061346681856020860161450b565b61346f8161453e565b840191505092915050565b6000613485826143e2565b61348f818561442b565b935061349f81856020860161450b565b80840191505092915050565b60006134b860298361441a565b91507f61206c69766520706f6f6c20686173206265656e20637265617465642062792060008301527f74686973206e616d6500000000000000000000000000000000000000000000006020830152604082019050919050565b600061351e60108361441a565b91507f696e76616c696420676f7665726e6f72000000000000000000000000000000006000830152602082019050919050565b600061355e601e8361441a565b91507f7468652076616c7565206f66206475726174696f6e206973207a65726f2e00006000830152602082019050919050565b600061359e600e8361441a565b91507f696e76616c696420746f6b656e300000000000000000000000000000000000006000830152602082019050919050565b60006135de601b8361441a565b91507f536166654d6174683a206164646974696f6e206f766572666c6f7700000000006000830152602082019050919050565b600061361e601a8361441a565b91507f73656e646572206973206e6f7420706f6f6c2063726561746f720000000000006000830152602082019050919050565b600061365e60228361441a565b91507f7468652076616c7565206f6620616d6f756e74546f74616c31206973207a657260008301527f6f2e0000000000000000000000000000000000000000000000000000000000006020830152604082019050919050565b60006136c460228361441a565b91507f6120706f6f6c206861732063726561746564206279207468697320616464726560008301527f73730000000000000000000000000000000000000000000000000000000000006020830152604082019050919050565b600061372a60188361441a565b91507f7468697320706f6f6c20646f6573206e6f7420657869737400000000000000006000830152602082019050919050565b600061376a60138361441a565b91507f7468697320706f6f6c20697320636c6f736564000000000000000000000000006000830152602082019050919050565b60006137aa601e8361441a565b91507f536166654d6174683a207375627472616374696f6e206f766572666c6f7700006000830152602082019050919050565b60006137ea60268361441a565b91507f416464726573733a20696e73756666696369656e742062616c616e636520666f60008301527f722063616c6c00000000000000000000000000000000000000000000000000006020830152604082019050919050565b6000613850601a8361441a565b91507f536166654d6174683a206469766973696f6e206279207a65726f0000000000006000830152602082019050919050565b600061389060148361441a565b91507f696e76616c696420616d6f756e74546f74616c300000000000000000000000006000830152602082019050919050565b60006138d0601d8361441a565b91507f63726561746f722068617320636c61696d6564207468697320706f6f6c0000006000830152602082019050919050565b600061391060148361441a565b91507f7468697320706f6f6c20697320737761707065640000000000000000000000006000830152602082019050919050565b6000613950601e8361441a565b91507f746865206c656e677468206f66206e616d6520697320746f6f206c6f6e6700006000830152602082019050919050565b600061399060218361441a565b91507f536166654d6174683a206d756c7469706c69636174696f6e206f766572666c6f60008301527f77000000000000000000000000000000000000000000000000000000000000006020830152604082019050919050565b60006139f6602e8361441a565b91507f436f6e747261637420696e7374616e63652068617320616c726561647920626560008301527f656e20696e697469616c697a65640000000000000000000000000000000000006020830152604082019050919050565b6000613a5c6000836143ed565b9150600082019050919050565b6000613a76601d8361441a565b91507f416464726573733a2063616c6c20746f206e6f6e2d636f6e74726163740000006000830152602082019050919050565b6000613ab6600f8361441a565b91507f696e76616c696420616d6f756e743000000000000000000000000000000000006000830152602082019050919050565b6000613af660128361441a565b91507f696e76616c69642045544820616d6f756e7400000000000000000000000000006000830152602082019050919050565b6000613b36602a8361441a565b91507f5361666545524332303a204552433230206f7065726174696f6e20646964206e60008301527f6f742073756363656564000000000000000000000000000000000000000000006020830152604082019050919050565b6000613b9c60178361441a565b91507f7468697320706f6f6c206973206e6f7420636c6f7365640000000000000000006000830152602082019050919050565b6000613bdc601e8361441a565b91507f706f6f6c2066696c6c6564206f7220696e76616c696420616d6f756e743000006000830152602082019050919050565b600061012083016000830151613c28600086018261337d565b5060208301518482036020860152613c408282613408565b9150506040830151613c55604086018261339b565b506060830151613c68606086018261339b565b506080830151613c7b6080860182613cd4565b5060a0830151613c8e60a0860182613cd4565b5060c0830151613ca160c0860182613cd4565b5060e0830151613cb460e0860182613cd4565b50610100830151613cc9610100860182613cd4565b508091505092915050565b613cdd816144bc565b82525050565b613cec816144bc565b82525050565b6000613cfe82846133d7565b915081905092915050565b6000613d15828461347a565b915081905092915050565b6000602082019050613d3560008301846133aa565b92915050565b6000606082019050613d50600083018661336e565b613d5d60208301856133aa565b613d6a6040830184613ce3565b949350505050565b600060a082019050613d87600083018761336e565b613d9460208301866133aa565b613da16040830185613ce3565b613dae6060830184613ce3565b8181036080830152613dbf81613a4f565b905095945050505050565b600061012082019050613de0600083018c61338c565b8181036020830152613df2818b613441565b9050613e01604083018a6133aa565b613e0e60608301896133aa565b613e1b6080830188613ce3565b613e2860a0830187613ce3565b613e3560c0830186613ce3565b613e4260e0830185613ce3565b613e50610100830184613ce3565b9a9950505050505050505050565b6000606082019050613e7360008301866133aa565b613e80602083018561336e565b613e8d6040830184613ce3565b949350505050565b6000608082019050613eaa60008301876133aa565b613eb7602083018661336e565b613ec46040830185613ce3565b613ed16060830184613ce3565b95945050505050565b600060a082019050613eef60008301876133aa565b613efc602083018661336e565b613f096040830185613ce3565b613f166060830184613ce3565b8181036080830152613f2781613a4f565b905095945050505050565b6000606082019050613f4760008301866133aa565b613f5460208301856133aa565b613f616040830184613ce3565b949350505050565b6000606082019050613f7e60008301866133aa565b613f8b6020830185613ce3565b613f986040830184613ce3565b949350505050565b6000602082019050613fb560008301846133b9565b92915050565b6000602082019050613fd060008301846133c8565b92915050565b60006020820190508181036000830152613ff08184613441565b905092915050565b60006020820190508181036000830152614011816134ab565b9050919050565b6000602082019050818103600083015261403181613511565b9050919050565b6000602082019050818103600083015261405181613551565b9050919050565b6000602082019050818103600083015261407181613591565b9050919050565b60006020820190508181036000830152614091816135d1565b9050919050565b600060208201905081810360008301526140b181613611565b9050919050565b600060208201905081810360008301526140d181613651565b9050919050565b600060208201905081810360008301526140f1816136b7565b9050919050565b600060208201905081810360008301526141118161371d565b9050919050565b600060208201905081810360008301526141318161375d565b9050919050565b600060208201905081810360008301526141518161379d565b9050919050565b60006020820190508181036000830152614171816137dd565b9050919050565b6000602082019050818103600083015261419181613843565b9050919050565b600060208201905081810360008301526141b181613883565b9050919050565b600060208201905081810360008301526141d1816138c3565b9050919050565b600060208201905081810360008301526141f181613903565b9050919050565b6000602082019050818103600083015261421181613943565b9050919050565b6000602082019050818103600083015261423181613983565b9050919050565b60006020820190508181036000830152614251816139e9565b9050919050565b6000602082019050818103600083015261427181613a69565b9050919050565b6000602082019050818103600083015261429181613aa9565b9050919050565b600060208201905081810360008301526142b181613ae9565b9050919050565b600060208201905081810360008301526142d181613b29565b9050919050565b600060208201905081810360008301526142f181613b8f565b9050919050565b6000602082019050818103600083015261431181613bcf565b9050919050565b600060208201905081810360008301526143328184613c0f565b905092915050565b600060208201905061434f6000830184613ce3565b92915050565b600060408201905061436a6000830185613ce3565b6143776020830184613ce3565b9392505050565b6000604051905081810181811067ffffffffffffffff821117156143a157600080fd5b8060405250919050565b600067ffffffffffffffff8211156143c257600080fd5b601f19601f8301169050602081019050919050565b600081519050919050565b600081519050919050565b600082825260208201905092915050565b600081905092915050565b600082825260208201905092915050565b600082825260208201905092915050565b600081905092915050565b60006144418261449c565b9050919050565b60006144538261449c565b9050919050565b60008115159050919050565b6000819050919050565b60007fffffffff0000000000000000000000000000000000000000000000000000000082169050919050565b600073ffffffffffffffffffffffffffffffffffffffff82169050919050565b6000819050919050565b60006144d1826144d8565b9050919050565b60006144e3826144ea565b9050919050565b60006144f58261449c565b9050919050565b82818337600083830152505050565b60005b8381101561452957808201518184015260208101905061450e565b83811115614538576000848401525b50505050565b6000601f19601f8301169050919050565b61455881614436565b811461456357600080fd5b50565b61456f8161445a565b811461457a57600080fd5b50565b61458681614466565b811461459157600080fd5b50565b61459d816144bc565b81146145a857600080fd5b5056fea26469706673582212203dd10a3af2923159134d2d0c08464c74b2a1e9beb0af255f4c1988b90b1e5f0b64736f6c634300060c0033",
  "linkReferences": {},
  "deployedLinkReferences": {}
}