{
  "_format": "hh-sol-artifact-1",
  "contractName": "EnglishAuctionNFT",
  "sourceName": "contracts/EnglishAuctionNFT.sol",
  "abi": [
    {
      "anonymous": false,
      "inputs": [
        {
          "indexed": false,
          "internalType": "address",
          "name": "sender",
          "type": "address"
        },
        {
          "indexed": false,
          "internalType": "uint256",
          "name": "index",
          "type": "uint256"
        },
        {
          "indexed": false,
          "internalType": "uint256",
          "name": "amount1",
          "type": "uint256"
        }
      ],
      "name": "Bid",
      "type": "event"
    },
    {
      "anonymous": false,
      "inputs": [
        {
          "indexed": false,
          "internalType": "address",
          "name": "sender",
          "type": "address"
        },
        {
          "indexed": false,
          "internalType": "uint256",
          "name": "index",
          "type": "uint256"
        }
      ],
      "name": "Claimed",
      "type": "event"
    },
    {
      "anonymous": false,
      "inputs": [
        {
          "components": [
            {
              "internalType": "address payable",
              "name": "creator",
              "type": "address"
            },
            {
              "internalType": "string",
              "name": "name",
              "type": "string"
            },
            {
              "internalType": "address",
              "name": "token0",
              "type": "address"
            },
            {
              "internalType": "uint256",
              "name": "tokenId",
              "type": "uint256"
            },
            {
              "internalType": "uint256",
              "name": "tokenAmount0",
              "type": "uint256"
            },
            {
              "internalType": "uint256",
              "name": "amountMin1",
              "type": "uint256"
            },
            {
              "internalType": "uint256",
              "name": "amountMinIncr1",
              "type": "uint256"
            },
            {
              "internalType": "uint256",
              "name": "confirmTime",
              "type": "uint256"
            },
            {
              "internalType": "uint256",
              "name": "closeAt",
              "type": "uint256"
            },
            {
              "internalType": "uint256",
              "name": "nftType",
              "type": "uint256"
            }
          ],
          "indexed": false,
          "internalType": "struct EnglishAuctionNFT.Pool",
          "name": "pool",
          "type": "tuple"
        }
      ],
      "name": "Created",
      "type": "event"
    },
    {
      "anonymous": false,
      "inputs": [
        {
          "indexed": true,
          "internalType": "address",
          "name": "previousGovernor",
          "type": "address"
        },
        {
          "indexed": true,
          "internalType": "address",
          "name": "newGovernor",
          "type": "address"
        }
      ],
      "name": "GovernorshipTransferred",
      "type": "event"
    },
    {
      "inputs": [
        {
          "internalType": "uint256",
          "name": "index",
          "type": "uint256"
        },
        {
          "internalType": "uint256",
          "name": "amount1",
          "type": "uint256"
        }
      ],
      "name": "bid",
      "outputs": [],
      "stateMutability": "payable",
      "type": "function"
    },
    {
      "inputs": [
        {
          "internalType": "uint256",
          "name": "",
          "type": "uint256"
        }
      ],
      "name": "bidCountP",
      "outputs": [
        {
          "internalType": "uint256",
          "name": "",
          "type": "uint256"
        }
      ],
      "stateMutability": "view",
      "type": "function"
    },
    {
      "inputs": [
        {
          "internalType": "uint256",
          "name": "index",
          "type": "uint256"
        }
      ],
      "name": "bidderClaim",
      "outputs": [],
      "stateMutability": "nonpayable",
      "type": "function"
    },
    {
      "inputs": [],
      "name": "checkToken0",
      "outputs": [
        {
          "internalType": "bool",
          "name": "",
          "type": "bool"
        }
      ],
      "stateMutability": "view",
      "type": "function"
    },
    {
      "inputs": [
        {
          "internalType": "string",
          "name": "name",
          "type": "string"
        },
        {
          "internalType": "address",
          "name": "token0",
          "type": "address"
        },
        {
          "internalType": "address",
          "name": "token1",
          "type": "address"
        },
        {
          "internalType": "uint256",
          "name": "tokenId",
          "type": "uint256"
        },
        {
          "internalType": "uint256",
          "name": "tokenAmount0",
          "type": "uint256"
        },
        {
          "internalType": "uint256",
          "name": "amountMin1",
          "type": "uint256"
        },
        {
          "internalType": "uint256",
          "name": "amountMinIncr1",
          "type": "uint256"
        },
        {
          "internalType": "uint256",
          "name": "confirmTime",
          "type": "uint256"
        },
        {
          "internalType": "bool",
          "name": "addTime",
          "type": "bool"
        }
      ],
      "name": "createErc1155",
      "outputs": [],
      "stateMutability": "payable",
      "type": "function"
    },
    {
      "inputs": [
        {
          "internalType": "string",
          "name": "name",
          "type": "string"
        },
        {
          "internalType": "address",
          "name": "token0",
          "type": "address"
        },
        {
          "internalType": "address",
          "name": "token1",
          "type": "address"
        },
        {
          "internalType": "uint256",
          "name": "tokenId",
          "type": "uint256"
        },
        {
          "internalType": "uint256",
          "name": "amountMin1",
          "type": "uint256"
        },
        {
          "internalType": "uint256",
          "name": "amountMinIncr1",
          "type": "uint256"
        },
        {
          "internalType": "uint256",
          "name": "confirmTime",
          "type": "uint256"
        },
        {
          "internalType": "bool",
          "name": "addTime",
          "type": "bool"
        }
      ],
      "name": "createErc721",
      "outputs": [],
      "stateMutability": "payable",
      "type": "function"
    },
    {
      "inputs": [
        {
          "internalType": "uint256",
          "name": "index",
          "type": "uint256"
        }
      ],
      "name": "creatorClaim",
      "outputs": [],
      "stateMutability": "nonpayable",
      "type": "function"
    },
    {
      "inputs": [
        {
          "internalType": "uint256",
          "name": "",
          "type": "uint256"
        }
      ],
      "name": "creatorClaimedP",
      "outputs": [
        {
          "internalType": "bool",
          "name": "",
          "type": "bool"
        }
      ],
      "stateMutability": "view",
      "type": "function"
    },
    {
      "inputs": [
        {
          "internalType": "uint256",
          "name": "index",
          "type": "uint256"
        }
      ],
      "name": "currentBidderAmount",
      "outputs": [
        {
          "internalType": "uint256",
          "name": "",
          "type": "uint256"
        }
      ],
      "stateMutability": "view",
      "type": "function"
    },
    {
      "inputs": [
        {
          "internalType": "uint256",
          "name": "",
          "type": "uint256"
        }
      ],
      "name": "currentBidderAmount1P",
      "outputs": [
        {
          "internalType": "uint256",
          "name": "",
          "type": "uint256"
        }
      ],
      "stateMutability": "view",
      "type": "function"
    },
    {
      "inputs": [
        {
          "internalType": "uint256",
          "name": "",
          "type": "uint256"
        }
      ],
      "name": "currentBidderP",
      "outputs": [
        {
          "internalType": "address payable",
          "name": "",
          "type": "address"
        }
      ],
      "stateMutability": "view",
      "type": "function"
    },
    {
      "inputs": [
        {
          "internalType": "bytes32",
          "name": "key",
          "type": "bytes32"
        },
        {
          "internalType": "address",
          "name": "addr",
          "type": "address"
        }
      ],
      "name": "getConfig",
      "outputs": [
        {
          "internalType": "uint256",
          "name": "",
          "type": "uint256"
        }
      ],
      "stateMutability": "view",
      "type": "function"
    },
    {
      "inputs": [
        {
          "internalType": "bytes32",
          "name": "key",
          "type": "bytes32"
        }
      ],
      "name": "getConfig",
      "outputs": [
        {
          "internalType": "uint256",
          "name": "",
          "type": "uint256"
        }
      ],
      "stateMutability": "view",
      "type": "function"
    },
    {
      "inputs": [
        {
          "internalType": "bytes32",
          "name": "key",
          "type": "bytes32"
        },
        {
          "internalType": "uint256",
          "name": "index",
          "type": "uint256"
        }
      ],
      "name": "getConfig",
      "outputs": [
        {
          "internalType": "uint256",
          "name": "",
          "type": "uint256"
        }
      ],
      "stateMutability": "view",
      "type": "function"
    },
    {
      "inputs": [],
      "name": "getPoolCount",
      "outputs": [
        {
          "internalType": "uint256",
          "name": "",
          "type": "uint256"
        }
      ],
      "stateMutability": "view",
      "type": "function"
    },
    {
      "inputs": [],
      "name": "governor",
      "outputs": [
        {
          "internalType": "address",
          "name": "",
          "type": "address"
        }
      ],
      "stateMutability": "view",
      "type": "function"
    },
    {
      "inputs": [
        {
          "internalType": "address",
          "name": "_governor",
          "type": "address"
        }
      ],
      "name": "initialize",
      "outputs": [],
      "stateMutability": "nonpayable",
      "type": "function"
    },
    {
      "inputs": [
        {
          "internalType": "address",
          "name": "",
          "type": "address"
        },
        {
          "internalType": "uint256",
          "name": "",
          "type": "uint256"
        }
      ],
      "name": "myBidP",
      "outputs": [
        {
          "internalType": "uint256",
          "name": "",
          "type": "uint256"
        }
      ],
      "stateMutability": "view",
      "type": "function"
    },
    {
      "inputs": [
        {
          "internalType": "address",
          "name": "",
          "type": "address"
        },
        {
          "internalType": "uint256",
          "name": "",
          "type": "uint256"
        }
      ],
      "name": "myBidderAmount1P",
      "outputs": [
        {
          "internalType": "uint256",
          "name": "",
          "type": "uint256"
        }
      ],
      "stateMutability": "view",
      "type": "function"
    },
    {
      "inputs": [
        {
          "internalType": "address",
          "name": "",
          "type": "address"
        },
        {
          "internalType": "uint256",
          "name": "",
          "type": "uint256"
        }
      ],
      "name": "myClaimedP",
      "outputs": [
        {
          "internalType": "bool",
          "name": "",
          "type": "bool"
        }
      ],
      "stateMutability": "view",
      "type": "function"
    },
    {
      "inputs": [
        {
          "internalType": "string",
          "name": "",
          "type": "string"
        }
      ],
      "name": "myNameP",
      "outputs": [
        {
          "internalType": "uint256",
          "name": "",
          "type": "uint256"
        }
      ],
      "stateMutability": "view",
      "type": "function"
    },
    {
      "inputs": [
        {
          "internalType": "address",
          "name": "",
          "type": "address"
        },
        {
          "internalType": "address",
          "name": "",
          "type": "address"
        },
        {
          "internalType": "uint256",
          "name": "",
          "type": "uint256"
        },
        {
          "internalType": "uint256",
          "name": "",
          "type": "uint256"
        },
        {
          "internalType": "bytes",
          "name": "",
          "type": "bytes"
        }
      ],
      "name": "onERC1155Received",
      "outputs": [
        {
          "internalType": "bytes4",
          "name": "",
          "type": "bytes4"
        }
      ],
      "stateMutability": "nonpayable",
      "type": "function"
    },
    {
      "inputs": [
        {
          "internalType": "address",
          "name": "",
          "type": "address"
        },
        {
          "internalType": "address",
          "name": "",
          "type": "address"
        },
        {
          "internalType": "uint256",
          "name": "",
          "type": "uint256"
        },
        {
          "internalType": "bytes",
          "name": "",
          "type": "bytes"
        }
      ],
      "name": "onERC721Received",
      "outputs": [
        {
          "internalType": "bytes4",
          "name": "",
          "type": "bytes4"
        }
      ],
      "stateMutability": "nonpayable",
      "type": "function"
    },
    {
      "inputs": [
        {
          "internalType": "uint256",
          "name": "",
          "type": "uint256"
        }
      ],
      "name": "poolTime",
      "outputs": [
        {
          "internalType": "bool",
          "name": "",
          "type": "bool"
        }
      ],
      "stateMutability": "view",
      "type": "function"
    },
    {
      "inputs": [
        {
          "internalType": "uint256",
          "name": "",
          "type": "uint256"
        }
      ],
      "name": "pools",
      "outputs": [
        {
          "internalType": "address payable",
          "name": "creator",
          "type": "address"
        },
        {
          "internalType": "string",
          "name": "name",
          "type": "string"
        },
        {
          "internalType": "address",
          "name": "token0",
          "type": "address"
        },
        {
          "internalType": "uint256",
          "name": "tokenId",
          "type": "uint256"
        },
        {
          "internalType": "uint256",
          "name": "tokenAmount0",
          "type": "uint256"
        },
        {
          "internalType": "uint256",
          "name": "amountMin1",
          "type": "uint256"
        },
        {
          "internalType": "uint256",
          "name": "amountMinIncr1",
          "type": "uint256"
        },
        {
          "internalType": "uint256",
          "name": "confirmTime",
          "type": "uint256"
        },
        {
          "internalType": "uint256",
          "name": "closeAt",
          "type": "uint256"
        },
        {
          "internalType": "uint256",
          "name": "nftType",
          "type": "uint256"
        }
      ],
      "stateMutability": "view",
      "type": "function"
    },
    {
      "inputs": [],
      "name": "renounceGovernorship",
      "outputs": [],
      "stateMutability": "nonpayable",
      "type": "function"
    },
    {
      "inputs": [
        {
          "internalType": "bool",
          "name": "_checkToken0",
          "type": "bool"
        }
      ],
      "name": "setCheckToken0",
      "outputs": [
        {
          "internalType": "bool",
          "name": "",
          "type": "bool"
        }
      ],
      "stateMutability": "nonpayable",
      "type": "function"
    },
    {
      "inputs": [
        {
          "internalType": "bytes32",
          "name": "key",
          "type": "bytes32"
        },
        {
          "internalType": "uint256",
          "name": "value",
          "type": "uint256"
        }
      ],
      "name": "setConfig",
      "outputs": [],
      "stateMutability": "nonpayable",
      "type": "function"
    },
    {
      "inputs": [
        {
          "internalType": "bytes32",
          "name": "key",
          "type": "bytes32"
        },
        {
          "internalType": "address",
          "name": "addr",
          "type": "address"
        },
        {
          "internalType": "uint256",
          "name": "value",
          "type": "uint256"
        }
      ],
      "name": "setConfig",
      "outputs": [],
      "stateMutability": "nonpayable",
      "type": "function"
    },
    {
      "inputs": [
        {
          "internalType": "bytes32",
          "name": "key",
          "type": "bytes32"
        },
        {
          "internalType": "uint256",
          "name": "index",
          "type": "uint256"
        },
        {
          "internalType": "uint256",
          "name": "value",
          "type": "uint256"
        }
      ],
      "name": "setConfig",
      "outputs": [],
      "stateMutability": "nonpayable",
      "type": "function"
    },
    {
      "inputs": [
        {
          "internalType": "uint256",
          "name": "_fee",
          "type": "uint256"
        }
      ],
      "name": "setFee",
      "outputs": [
        {
          "internalType": "bool",
          "name": "",
          "type": "bool"
        }
      ],
      "stateMutability": "nonpayable",
      "type": "function"
    },
    {
      "inputs": [
        {
          "internalType": "uint256",
          "name": "_feeMax",
          "type": "uint256"
        }
      ],
      "name": "setFeeMax",
      "outputs": [
        {
          "internalType": "bool",
          "name": "",
          "type": "bool"
        }
      ],
      "stateMutability": "nonpayable",
      "type": "function"
    },
    {
      "inputs": [
        {
          "internalType": "address payable",
          "name": "_feeTo",
          "type": "address"
        }
      ],
      "name": "setFeeTo",
      "outputs": [
        {
          "internalType": "bool",
          "name": "",
          "type": "bool"
        }
      ],
      "stateMutability": "nonpayable",
      "type": "function"
    },
    {
      "inputs": [
        {
          "internalType": "address",
          "name": "_indexer",
          "type": "address"
        }
      ],
      "name": "setIndexer",
      "outputs": [
        {
          "internalType": "bool",
          "name": "",
          "type": "bool"
        }
      ],
      "stateMutability": "nonpayable",
      "type": "function"
    },
    {
      "inputs": [
        {
          "internalType": "uint256",
          "name": "index",
          "type": "uint256"
        },
        {
          "internalType": "bool",
          "name": "add",
          "type": "bool"
        }
      ],
      "name": "setPoolTime",
      "outputs": [
        {
          "internalType": "bool",
          "name": "",
          "type": "bool"
        }
      ],
      "stateMutability": "nonpayable",
      "type": "function"
    },
    {
      "inputs": [
        {
          "internalType": "address",
          "name": "_token0",
          "type": "address"
        },
        {
          "internalType": "bool",
          "name": "enable",
          "type": "bool"
        }
      ],
      "name": "setToken0List",
      "outputs": [
        {
          "internalType": "bool",
          "name": "",
          "type": "bool"
        }
      ],
      "stateMutability": "nonpayable",
      "type": "function"
    },
    {
      "inputs": [
        {
          "internalType": "address",
          "name": "",
          "type": "address"
        }
      ],
      "name": "token0List",
      "outputs": [
        {
          "internalType": "bool",
          "name": "",
          "type": "bool"
        }
      ],
      "stateMutability": "view",
      "type": "function"
    },
    {
      "inputs": [
        {
          "internalType": "uint256",
          "name": "",
          "type": "uint256"
        }
      ],
      "name": "token1P",
      "outputs": [
        {
          "internalType": "address",
          "name": "",
          "type": "address"
        }
      ],
      "stateMutability": "view",
      "type": "function"
    },
    {
      "inputs": [
        {
          "internalType": "address",
          "name": "newGovernor",
          "type": "address"
        }
      ],
      "name": "transferGovernorship",
      "outputs": [],
      "stateMutability": "nonpayable",
      "type": "function"
    }
  ],
  "bytecode": "0x608060405234801561001057600080fd5b5061617080620000216000396000f3fe6080604052600436106102305760003560e01c80636dd5b69d1161012e578063b6aa515b116100ab578063e87ba7aa1161006f578063e87ba7aa1461090d578063ef5135ed1461094a578063f23a6e6114610987578063f46901ed146109c4578063f5639ff514610a0157610230565b8063b6aa515b14610818578063b87b9ce414610841578063c4d66de81461087e578063d286bea5146108a7578063ddf2be3f146108e457610230565b80638ec872e3116100f25780638ec872e3146107045780638eec5d70146107415780639d6ce84b1461076c578063ac4afa38146107a9578063b21544f3146107ef57610230565b80636dd5b69d146105f95780637c013e9f1461063657806381c0c263146106735780638695f2d21461068a5780638d32b658146106c757610230565b80633345dc9c116101bc57806352665f471161018057806352665f47146104fd578063598647f81461053a57806360de1d611461055657806364cc79bd1461057f57806369fe0e2d146105bc57610230565b80633345dc9c146103ed5780633a5028491461042a5780633b431e921461046757806346e9aab1146104a4578063507a0a3d146104c057610230565b8063204e979d11610203578063204e979d1461030357806329a65f8f1461031f57806329dbd0981461035c5780632ad540ed146103995780632ca77bf8146103c257610230565b80630c340a2414610235578063107d64ea14610260578063150b7a021461029d57806315fe96dc146102da575b600080fd5b34801561024157600080fd5b5061024a610a3e565b6040516102579190615758565b60405180910390f35b34801561026c57600080fd5b5061028760048036038101906102829190614831565b610a64565b6040516102949190615b0c565b60405180910390f35b3480156102a957600080fd5b506102c460048036038101906102bf91906146a7565b610ae3565b6040516102d19190615b27565b60405180910390f35b3480156102e657600080fd5b5061030160048036038101906102fc9190614937565b610af8565b005b61031d60048036038101906103189190614acd565b610b60565b005b34801561032b57600080fd5b5061034660048036038101906103419190614bab565b610cd2565b6040516103539190615ee6565b60405180910390f35b34801561036857600080fd5b50610383600480360381019061037e9190614655565b610cea565b6040516103909190615b0c565b60405180910390f35b3480156103a557600080fd5b506103c060048036038101906103bb9190614bab565b610d0a565b005b3480156103ce57600080fd5b506103d7610f80565b6040516103e49190615b0c565b60405180910390f35b3480156103f957600080fd5b50610414600480360381019061040f9190614bfd565b610f93565b6040516104219190615b0c565b60405180910390f35b34801561043657600080fd5b50610451600480360381019061044c91906147b9565b611024565b60405161045e9190615b0c565b60405180910390f35b34801561047357600080fd5b5061048e60048036038101906104899190614655565b6110e1565b60405161049b9190615b0c565b60405180910390f35b6104be60048036038101906104b99190614a03565b611187565b005b3480156104cc57600080fd5b506104e760048036038101906104e291906147f5565b6112ff565b6040516104f49190615ee6565b60405180910390f35b34801561050957600080fd5b50610524600480360381019061051f91906148ac565b61132d565b6040516105319190615ee6565b60405180910390f35b610554600480360381019061054f9190614c39565b611369565b005b34801561056257600080fd5b5061057d60048036038101906105789190614bab565b611a53565b005b34801561058b57600080fd5b506105a660048036038101906105a19190614bab565b611c80565b6040516105b39190615ee6565b60405180910390f35b3480156105c857600080fd5b506105e360048036038101906105de9190614bab565b611c98565b6040516105f09190615b0c565b60405180910390f35b34801561060557600080fd5b50610620600480360381019061061b9190614883565b611d04565b60405161062d9190615ee6565b60405180910390f35b34801561064257600080fd5b5061065d60048036038101906106589190614bab565b611d21565b60405161066a9190615b0c565b60405180910390f35b34801561067f57600080fd5b50610688611d8d565b005b34801561069657600080fd5b506106b160048036038101906106ac9190614bab565b611ea8565b6040516106be9190615ee6565b60405180910390f35b3480156106d357600080fd5b506106ee60048036038101906106e991906147f5565b612130565b6040516106fb9190615ee6565b60405180910390f35b34801561071057600080fd5b5061072b60048036038101906107269190614937565b612155565b6040516107389190615ee6565b60405180910390f35b34801561074d57600080fd5b5061075661217b565b6040516107639190615ee6565b60405180910390f35b34801561077857600080fd5b50610793600480360381019061078e91906149c2565b612188565b6040516107a09190615ee6565b60405180910390f35b3480156107b557600080fd5b506107d060048036038101906107cb9190614bab565b6121b6565b6040516107e69a9998979695949392919061581d565b60405180910390f35b3480156107fb57600080fd5b50610816600480360381019061081191906148e8565b6122ef565b005b34801561082457600080fd5b5061083f600480360381019061083a9190614655565b612376565b005b34801561084d57600080fd5b5061086860048036038101906108639190614bab565b6123dc565b6040516108759190615b0c565b60405180910390f35b34801561088a57600080fd5b506108a560048036038101906108a09190614655565b6123fc565b005b3480156108b357600080fd5b506108ce60048036038101906108c991906147f5565b6124ee565b6040516108db9190615b0c565b60405180910390f35b3480156108f057600080fd5b5061090b60048036038101906109069190614973565b61251d565b005b34801561091957600080fd5b50610934600480360381019061092f9190614bab565b61258e565b6040516109419190615b0c565b60405180910390f35b34801561095657600080fd5b50610971600480360381019061096c9190614bab565b6125ae565b60405161097e9190615758565b60405180910390f35b34801561099357600080fd5b506109ae60048036038101906109a99190614727565b6125e1565b6040516109bb9190615b27565b60405180910390f35b3480156109d057600080fd5b506109eb60048036038101906109e6919061467e565b6125f7565b6040516109f89190615b0c565b60405180910390f35b348015610a0d57600080fd5b50610a286004803603810190610a239190614bab565b61269d565b604051610a359190615773565b60405180910390f35b603360009054906101000a900473ffffffffffffffffffffffffffffffffffffffff1681565b6000603360009054906101000a900473ffffffffffffffffffffffffffffffffffffffff1673ffffffffffffffffffffffffffffffffffffffff163373ffffffffffffffffffffffffffffffffffffffff1614610ac057600080fd5b81603f60006101000a81548160ff02191690831515021790555060019050919050565b600063150b7a0260e01b905095945050505050565b603360009054906101000a900473ffffffffffffffffffffffffffffffffffffffff1673ffffffffffffffffffffffffffffffffffffffff163373ffffffffffffffffffffffffffffffffffffffff1614610b5257600080fd5b610b5c82826126d0565b5050565b603f60009054906101000a900460ff1615610c0257604060008973ffffffffffffffffffffffffffffffffffffffff1673ffffffffffffffffffffffffffffffffffffffff16815260200190815260200160002060009054906101000a900460ff16610c01576040517f08c379a0000000000000000000000000000000000000000000000000000000008152600401610bf890615bc4565b60405180910390fd5b5b610c0a6143e6565b6040518060600160405280878152602001868152602001858152509050610c378a8a898487600188612707565b600073ffffffffffffffffffffffffffffffffffffffff168873ffffffffffffffffffffffffffffffffffffffff1614610cc65787603e6000600160358054905003815260200190815260200160002060006101000a81548173ffffffffffffffffffffffffffffffffffffffff021916908373ffffffffffffffffffffffffffffffffffffffff1602179055505b50505050505050505050565b603d6020528060005260406000206000915090505481565b60406020528060005260406000206000915054906101000a900460ff1681565b806035805490508110610d52576040517f08c379a0000000000000000000000000000000000000000000000000000000008152600401610d4990615c44565b60405180910390fd5b814260358281548110610d6157fe5b90600052602060002090600a0201600801541115610db4576040517f08c379a0000000000000000000000000000000000000000000000000000000008152600401610dab90615ea4565b60405180910390fd5b6000339050610dc38185612d5e565b610e02576040517f08c379a0000000000000000000000000000000000000000000000000000000008152600401610df990615c24565b60405180910390fd5b6036600085815260200190815260200160002060009054906101000a900460ff1615610e63576040517f08c379a0000000000000000000000000000000000000000000000000000000008152600401610e5a90615d04565b60405180910390fd5b610e6c84612de6565b600073ffffffffffffffffffffffffffffffffffffffff166037600086815260200190815260200160002060009054906101000a900473ffffffffffffffffffffffffffffffffffffffff1673ffffffffffffffffffffffffffffffffffffffff1614610f7a5760006037600086815260200190815260200160002060009054906101000a900473ffffffffffffffffffffffffffffffffffffffff169050603c60008273ffffffffffffffffffffffffffffffffffffffff1673ffffffffffffffffffffffffffffffffffffffff168152602001908152602001600020600086815260200190815260200160002060009054906101000a900460ff16610f7857610f7781866134fb565b5b505b50505050565b603f60009054906101000a900460ff1681565b6000603360009054906101000a900473ffffffffffffffffffffffffffffffffffffffff1673ffffffffffffffffffffffffffffffffffffffff163373ffffffffffffffffffffffffffffffffffffffff1614610fef57600080fd5b816044600085815260200190815260200160002060006101000a81548160ff0219169083151502179055506001905092915050565b6000603360009054906101000a900473ffffffffffffffffffffffffffffffffffffffff1673ffffffffffffffffffffffffffffffffffffffff163373ffffffffffffffffffffffffffffffffffffffff161461108057600080fd5b81604060008573ffffffffffffffffffffffffffffffffffffffff1673ffffffffffffffffffffffffffffffffffffffff16815260200190815260200160002060006101000a81548160ff0219169083151502179055506001905092915050565b6000603360009054906101000a900473ffffffffffffffffffffffffffffffffffffffff1673ffffffffffffffffffffffffffffffffffffffff163373ffffffffffffffffffffffffffffffffffffffff161461113d57600080fd5b81604560006101000a81548173ffffffffffffffffffffffffffffffffffffffff021916908373ffffffffffffffffffffffffffffffffffffffff16021790555060019050919050565b603f60009054906101000a900460ff161561122957604060008873ffffffffffffffffffffffffffffffffffffffff1673ffffffffffffffffffffffffffffffffffffffff16815260200190815260200160002060009054906101000a900460ff16611228576040517f08c379a000000000000000000000000000000000000000000000000000000000815260040161121f90615bc4565b60405180910390fd5b5b6000600190506112376143e6565b60405180606001604052808381526020018781526020018681525090506112648a8a898488600089612707565b600073ffffffffffffffffffffffffffffffffffffffff168873ffffffffffffffffffffffffffffffffffffffff16146112f35787603e6000600160358054905003815260200190815260200160002060006101000a81548173ffffffffffffffffffffffffffffffffffffffff021916908373ffffffffffffffffffffffffffffffffffffffff1602179055505b50505050505050505050565b603a602052816000526040600020818154811061131857fe5b90600052602060002001600091509150505481565b6000603460008373ffffffffffffffffffffffffffffffffffffffff168560001c1860001b815260200190815260200160002054905092915050565b8160358054905081106113b1576040517f08c379a00000000000000000000000000000000000000000000000000000000081526004016113a890615c44565b60405180910390fd5b8242603582815481106113c057fe5b90600052602060002090600a02016008015411611412576040517f08c379a000000000000000000000000000000000000000000000000000000000815260040161140990615c64565b60405180910390fd5b600033905060006035868154811061142657fe5b90600052602060002090600a020190508173ffffffffffffffffffffffffffffffffffffffff168160000160009054906101000a900473ffffffffffffffffffffffffffffffffffffffff1673ffffffffffffffffffffffffffffffffffffffff1614156114c9576040517f08c379a00000000000000000000000000000000000000000000000000000000081526004016114c090615d64565b60405180910390fd5b600085141561150d576040517f08c379a000000000000000000000000000000000000000000000000000000000815260040161150490615ba4565b60405180910390fd5b8060050154851015611554576040517f08c379a000000000000000000000000000000000000000000000000000000000815260040161154b90615da4565b60405180910390fd5b61155d86611ea8565b85101561159f576040517f08c379a000000000000000000000000000000000000000000000000000000000815260040161159690615e24565b60405180910390fd5b6000603e600088815260200190815260200160002060009054906101000a900473ffffffffffffffffffffffffffffffffffffffff169050600073ffffffffffffffffffffffffffffffffffffffff168173ffffffffffffffffffffffffffffffffffffffff1614156116535734861461164e576040517f08c379a000000000000000000000000000000000000000000000000000000000815260040161164590615e44565b60405180910390fd5b6116ad565b6116808330888473ffffffffffffffffffffffffffffffffffffffff16613ae8909392919063ffffffff16565b6116ac3060008373ffffffffffffffffffffffffffffffffffffffff16613b719092919063ffffffff16565b5b600073ffffffffffffffffffffffffffffffffffffffff166037600089815260200190815260200160002060009054906101000a900473ffffffffffffffffffffffffffffffffffffffff1673ffffffffffffffffffffffffffffffffffffffff1614158015611730575060006038600089815260200190815260200160002054115b1561186f57600073ffffffffffffffffffffffffffffffffffffffff168173ffffffffffffffffffffffffffffffffffffffff1614156117fc576037600088815260200190815260200160002060009054906101000a900473ffffffffffffffffffffffffffffffffffffffff1673ffffffffffffffffffffffffffffffffffffffff166108fc603860008a8152602001908152602001600020549081150290604051600060405180830381858888f193505050501580156117f6573d6000803e3d6000fd5b5061186e565b61186d6037600089815260200190815260200160002060009054906101000a900473ffffffffffffffffffffffffffffffffffffffff16603860008a8152602001908152602001600020548373ffffffffffffffffffffffffffffffffffffffff16613ccf9092919063ffffffff16565b5b5b600115156044600089815260200190815260200160002060009054906101000a900460ff16151514156118bc576118b3826007015442613d5590919063ffffffff16565b82600801819055505b826037600089815260200190815260200160002060006101000a81548173ffffffffffffffffffffffffffffffffffffffff021916908373ffffffffffffffffffffffffffffffffffffffff1602179055508560386000898152602001908152602001600020819055506001603d60008981526020019081526020016000205401603d600089815260200190815260200160002081905550603a60008473ffffffffffffffffffffffffffffffffffffffff1673ffffffffffffffffffffffffffffffffffffffff16815260200190815260200160002087908060018154018082558091505060019003906000526020600020016000909190919091505585603b60008573ffffffffffffffffffffffffffffffffffffffff1673ffffffffffffffffffffffffffffffffffffffff1681526020019081526020016000206000898152602001908152602001600020819055507f19421268847f42dd61705778018ddfc43bcdce8517e7a630acb12f122c709481838888604051611a42939291906158e9565b60405180910390a150505050505050565b806035805490508110611a9b576040517f08c379a0000000000000000000000000000000000000000000000000000000008152600401611a9290615c44565b60405180910390fd5b814260358281548110611aaa57fe5b90600052602060002090600a0201600801541115611afd576040517f08c379a0000000000000000000000000000000000000000000000000000000008152600401611af490615ea4565b60405180910390fd5b60003390508073ffffffffffffffffffffffffffffffffffffffff166037600086815260200190815260200160002060009054906101000a900473ffffffffffffffffffffffffffffffffffffffff1673ffffffffffffffffffffffffffffffffffffffff1614611ba3576040517f08c379a0000000000000000000000000000000000000000000000000000000008152600401611b9a90615de4565b60405180910390fd5b603c60008273ffffffffffffffffffffffffffffffffffffffff1673ffffffffffffffffffffffffffffffffffffffff168152602001908152602001600020600085815260200190815260200160002060009054906101000a900460ff1615611c41576040517f08c379a0000000000000000000000000000000000000000000000000000000008152600401611c3890615e04565b60405180910390fd5b611c4b81856134fb565b6036600085815260200190815260200160002060009054906101000a900460ff16611c7a57611c7984612de6565b5b50505050565b60386020528060005260406000206000915090505481565b6000603360009054906101000a900473ffffffffffffffffffffffffffffffffffffffff1673ffffffffffffffffffffffffffffffffffffffff163373ffffffffffffffffffffffffffffffffffffffff1614611cf457600080fd5b8160418190555060019050919050565b600060346000838152602001908152602001600020549050919050565b6000603360009054906101000a900473ffffffffffffffffffffffffffffffffffffffff1673ffffffffffffffffffffffffffffffffffffffff163373ffffffffffffffffffffffffffffffffffffffff1614611d7d57600080fd5b8160428190555060019050919050565b603360009054906101000a900473ffffffffffffffffffffffffffffffffffffffff1673ffffffffffffffffffffffffffffffffffffffff163373ffffffffffffffffffffffffffffffffffffffff1614611de757600080fd5b600073ffffffffffffffffffffffffffffffffffffffff16603360009054906101000a900473ffffffffffffffffffffffffffffffffffffffff1673ffffffffffffffffffffffffffffffffffffffff167fc7c0c772add429241571afb3805861fb3cfa2af374534088b76cdb4325a87e9a60405160405180910390a36000603360006101000a81548173ffffffffffffffffffffffffffffffffffffffff021916908373ffffffffffffffffffffffffffffffffffffffff160217905550565b6000611eb2614408565b60358381548110611ebf57fe5b90600052602060002090600a0201604051806101400160405290816000820160009054906101000a900473ffffffffffffffffffffffffffffffffffffffff1673ffffffffffffffffffffffffffffffffffffffff1673ffffffffffffffffffffffffffffffffffffffff168152602001600182018054600181600116156101000203166002900480601f016020809104026020016040519081016040528092919081815260200182805460018160011615610100020316600290048015611fc85780601f10611f9d57610100808354040283529160200191611fc8565b820191906000526020600020905b815481529060010190602001808311611fab57829003601f168201915b505050505081526020016002820160009054906101000a900473ffffffffffffffffffffffffffffffffffffffff1673ffffffffffffffffffffffffffffffffffffffff1673ffffffffffffffffffffffffffffffffffffffff168152602001600382015481526020016004820154815260200160058201548152602001600682015481526020016007820154815260200160088201548152602001600982015481525050905060008160a001519050600073ffffffffffffffffffffffffffffffffffffffff166037600086815260200190815260200160002060009054906101000a900473ffffffffffffffffffffffffffffffffffffffff1673ffffffffffffffffffffffffffffffffffffffff1614612110576121098260c001516038600087815260200190815260200160002054613d5590919063ffffffff16565b9050612126565b60008260a001511415612125578160c0015190505b5b8092505050919050565b603b602052816000526040600020602052806000526040600020600091509150505481565b600060346000838560001c1860001b815260200190815260200160002054905092915050565b6000603580549050905090565b6039818051602081018201805184825260208301602085012081835280955050505050506000915090505481565b603581815481106121c357fe5b90600052602060002090600a02016000915090508060000160009054906101000a900473ffffffffffffffffffffffffffffffffffffffff1690806001018054600181600116156101000203166002900480601f0160208091040260200160405190810160405280929190818152602001828054600181600116156101000203166002900480156122955780601f1061226a57610100808354040283529160200191612295565b820191906000526020600020905b81548152906001019060200180831161227857829003601f168201915b5050505050908060020160009054906101000a900473ffffffffffffffffffffffffffffffffffffffff1690806003015490806004015490806005015490806006015490806007015490806008015490806009015490508a565b603360009054906101000a900473ffffffffffffffffffffffffffffffffffffffff1673ffffffffffffffffffffffffffffffffffffffff163373ffffffffffffffffffffffffffffffffffffffff161461234957600080fd5b6123718273ffffffffffffffffffffffffffffffffffffffff168460001c1860001b826126d0565b505050565b603360009054906101000a900473ffffffffffffffffffffffffffffffffffffffff1673ffffffffffffffffffffffffffffffffffffffff163373ffffffffffffffffffffffffffffffffffffffff16146123d057600080fd5b6123d981613daa565b50565b60446020528060005260406000206000915054906101000a900460ff1681565b600060019054906101000a900460ff168061241b575061241a613ea4565b5b80612431575060008054906101000a900460ff16155b612470576040517f08c379a000000000000000000000000000000000000000000000000000000000815260040161246790615d84565b60405180910390fd5b60008060019054906101000a900460ff1615905080156124c0576001600060016101000a81548160ff02191690831515021790555060016000806101000a81548160ff0219169083151502179055505b6124c982613ebb565b80156124ea5760008060016101000a81548160ff0219169083151502179055505b5050565b603c6020528160005260406000206020528060005260406000206000915091509054906101000a900460ff1681565b603360009054906101000a900473ffffffffffffffffffffffffffffffffffffffff1673ffffffffffffffffffffffffffffffffffffffff163373ffffffffffffffffffffffffffffffffffffffff161461257757600080fd5b612589828460001c1860001b826126d0565b505050565b60366020528060005260406000206000915054906101000a900460ff1681565b603e6020528060005260406000206000915054906101000a900473ffffffffffffffffffffffffffffffffffffffff1681565b600063f23a6e6160e01b90509695505050505050565b6000603360009054906101000a900473ffffffffffffffffffffffffffffffffffffffff1673ffffffffffffffffffffffffffffffffffffffff163373ffffffffffffffffffffffffffffffffffffffff161461265357600080fd5b81604360006101000a81548173ffffffffffffffffffffffffffffffffffffffff021916908373ffffffffffffffffffffffffffffffffffffffff16021790555060019050919050565b60376020528060005260406000206000915054906101000a900473ffffffffffffffffffffffffffffffffffffffff1681565b80603460008481526020019081526020016000205414612703578060346000848152602001908152602001600020819055505b5050565b600033905060008560006003811061271b57fe5b60200201511415612761576040517f08c379a000000000000000000000000000000000000000000000000000000000815260040161275890615b64565b60405180910390fd5b60008560026003811061277057fe5b602002015114156127b6576040517f08c379a00000000000000000000000000000000000000000000000000000000081526004016127ad90615ce4565b60405180910390fd5b61012c8410156127fb576040517f08c379a00000000000000000000000000000000000000000000000000000000081526004016127f290615b84565b60405180910390fd5b62015180841115612841576040517f08c379a000000000000000000000000000000000000000000000000000000000815260040161283890615c04565b60405180910390fd5b600f88511115612886576040517f08c379a000000000000000000000000000000000000000000000000000000000815260040161287d90615d24565b60405180910390fd5b61288e614408565b81816000019073ffffffffffffffffffffffffffffffffffffffff16908173ffffffffffffffffffffffffffffffffffffffff168152505088816020018190525087816040019073ffffffffffffffffffffffffffffffffffffffff16908173ffffffffffffffffffffffffffffffffffffffff1681525050868160600181815250508560006003811061291e57fe5b60200201518160800181815250508560016003811061293957fe5b60200201518160a00181815250508560026003811061295457fe5b60200201518160c0018181525050848160e001818152505061297f8542613d5590919063ffffffff16565b81610100018181525050838161012001818152505060358190806001815401808255809150506001900390600052602060002090600a020160009091909190915060008201518160000160006101000a81548173ffffffffffffffffffffffffffffffffffffffff021916908373ffffffffffffffffffffffffffffffffffffffff1602179055506020820151816001019080519060200190612a23929190614487565b5060408201518160020160006101000a81548173ffffffffffffffffffffffffffffffffffffffff021916908373ffffffffffffffffffffffffffffffffffffffff160217905550606082015181600301556080820151816004015560a0820151816005015560c0820151816006015560e082015181600701556101008201518160080155610120820151816009015550508260446000600160358054905003815260200190815260200160002060006101000a81548160ff0219169083151502179055506000841415612bfe578773ffffffffffffffffffffffffffffffffffffffff166342842e0e83308a6040518463ffffffff1660e01b8152600401612b2e9392919061578e565b600060405180830381600087803b158015612b4857600080fd5b505af1158015612b5c573d6000803e3d6000fd5b50505050604560009054906101000a900473ffffffffffffffffffffffffffffffffffffffff1673ffffffffffffffffffffffffffffffffffffffff166389cf642b89896001603580549050036040518463ffffffff1660e01b8152600401612bc793929190615ad5565b600060405180830381600087803b158015612be157600080fd5b505af1158015612bf5573d6000803e3d6000fd5b50505050612d1c565b8773ffffffffffffffffffffffffffffffffffffffff1663f242432a83308a8a600060038110612c2a57fe5b60200201516040518563ffffffff1660e01b8152600401612c4e94939291906157c5565b600060405180830381600087803b158015612c6857600080fd5b505af1158015612c7c573d6000803e3d6000fd5b50505050604560009054906101000a900473ffffffffffffffffffffffffffffffffffffffff1673ffffffffffffffffffffffffffffffffffffffff16632bbbbc0089848a6001603580549050036040518563ffffffff1660e01b8152600401612ce99493929190615980565b600060405180830381600087803b158015612d0357600080fd5b505af1158015612d17573d6000803e3d6000fd5b505050505b7ff954cec4f23f2ce67e961171f19fdc38a0b45a2d9ef11bde7c552812060ee5ba81604051612d4b9190615ec4565b60405180910390a1505050505050505050565b60008273ffffffffffffffffffffffffffffffffffffffff1660358381548110612d8457fe5b90600052602060002090600a020160000160009054906101000a900473ffffffffffffffffffffffffffffffffffffffff1673ffffffffffffffffffffffffffffffffffffffff161415612ddb5760019050612de0565b600090505b92915050565b60016036600083815260200190815260200160002060006101000a81548160ff021916908315150217905550612e1a614408565b60358281548110612e2757fe5b90600052602060002090600a0201604051806101400160405290816000820160009054906101000a900473ffffffffffffffffffffffffffffffffffffffff1673ffffffffffffffffffffffffffffffffffffffff1673ffffffffffffffffffffffffffffffffffffffff168152602001600182018054600181600116156101000203166002900480601f016020809104026020016040519081016040528092919081815260200182805460018160011615610100020316600290048015612f305780601f10612f0557610100808354040283529160200191612f30565b820191906000526020600020905b815481529060010190602001808311612f1357829003601f168201915b505050505081526020016002820160009054906101000a900473ffffffffffffffffffffffffffffffffffffffff1673ffffffffffffffffffffffffffffffffffffffff1673ffffffffffffffffffffffffffffffffffffffff1681526020016003820154815260200160048201548152602001600582015481526020016006820154815260200160078201548152602001600882015481526020016009820154815250509050600073ffffffffffffffffffffffffffffffffffffffff166037600084815260200190815260200160002060009054906101000a900473ffffffffffffffffffffffffffffffffffffffff1673ffffffffffffffffffffffffffffffffffffffff16146133a95760006037600084815260200190815260200160002060009054906101000a900473ffffffffffffffffffffffffffffffffffffffff16905060006038600085815260200190815260200160002054905060008111156133a257600073ffffffffffffffffffffffffffffffffffffffff16603e600086815260200190815260200160002060009054906101000a900473ffffffffffffffffffffffffffffffffffffffff1673ffffffffffffffffffffffffffffffffffffffff16141561325e5760008073ffffffffffffffffffffffffffffffffffffffff16604360009054906101000a900473ffffffffffffffffffffffffffffffffffffffff1673ffffffffffffffffffffffffffffffffffffffff161415801561316157506000604154115b156131fb5761318f6042546131816041548561406290919063ffffffff16565b6140d290919063ffffffff16565b9050604360009054906101000a900473ffffffffffffffffffffffffffffffffffffffff1673ffffffffffffffffffffffffffffffffffffffff166108fc829081150290604051600060405180830381858888f193505050501580156131f9573d6000803e3d6000fd5b505b836000015173ffffffffffffffffffffffffffffffffffffffff166108fc61322c838561412890919063ffffffff16565b9081150290604051600060405180830381858888f19350505050158015613257573d6000803e3d6000fd5b50506132c1565b6132c0836000015182603e600088815260200190815260200160002060009054906101000a900473ffffffffffffffffffffffffffffffffffffffff1673ffffffffffffffffffffffffffffffffffffffff16613ccf9092919063ffffffff16565b5b826040015173ffffffffffffffffffffffffffffffffffffffff166342842e0e308486606001516040518463ffffffff1660e01b815260040161330693929190615949565b600060405180830381600087803b15801561332057600080fd5b505af1158015613334573d6000803e3d6000fd5b505050506001603c60008473ffffffffffffffffffffffffffffffffffffffff1673ffffffffffffffffffffffffffffffffffffffff168152602001908152602001600020600086815260200190815260200160002060006101000a81548160ff0219169083151502179055505b50506134ba565b6000816101200151141561343757806040015173ffffffffffffffffffffffffffffffffffffffff166342842e0e30836000015184606001516040518463ffffffff1660e01b815260040161340093929190615949565b600060405180830381600087803b15801561341a57600080fd5b505af115801561342e573d6000803e3d6000fd5b505050506134b9565b806040015173ffffffffffffffffffffffffffffffffffffffff1663f242432a308360000151846060015185608001516040518563ffffffff1660e01b815260040161348694939291906159c5565b600060405180830381600087803b1580156134a057600080fd5b505af11580156134b4573d6000803e3d6000fd5b505050505b5b7fd8138f8a3f377c5259ca548e70e4c2de94f129f5a11036a15b69513cba2b426a8160000151836040516134ef9291906158c0565b60405180910390a15050565b6001603c60008473ffffffffffffffffffffffffffffffffffffffff1673ffffffffffffffffffffffffffffffffffffffff168152602001908152602001600020600083815260200190815260200160002060006101000a81548160ff02191690831515021790555061356c614408565b6035828154811061357957fe5b90600052602060002090600a0201604051806101400160405290816000820160009054906101000a900473ffffffffffffffffffffffffffffffffffffffff1673ffffffffffffffffffffffffffffffffffffffff1673ffffffffffffffffffffffffffffffffffffffff168152602001600182018054600181600116156101000203166002900480601f0160208091040260200160405190810160405280929190818152602001828054600181600116156101000203166002900480156136825780601f1061365757610100808354040283529160200191613682565b820191906000526020600020905b81548152906001019060200180831161366557829003601f168201915b505050505081526020016002820160009054906101000a900473ffffffffffffffffffffffffffffffffffffffff1673ffffffffffffffffffffffffffffffffffffffff1673ffffffffffffffffffffffffffffffffffffffff168152602001600382015481526020016004820154815260200160058201548152602001600682015481526020016007820154815260200160088201548152602001600982015481525050905060006038600084815260200190815260200160002054905060008111156139a157600073ffffffffffffffffffffffffffffffffffffffff16603e600085815260200190815260200160002060009054906101000a900473ffffffffffffffffffffffffffffffffffffffff1673ffffffffffffffffffffffffffffffffffffffff1614156139115760008073ffffffffffffffffffffffffffffffffffffffff16604360009054906101000a900473ffffffffffffffffffffffffffffffffffffffff1673ffffffffffffffffffffffffffffffffffffffff161415801561381457506000604154115b156138ae576138426042546138346041548561406290919063ffffffff16565b6140d290919063ffffffff16565b9050604360009054906101000a900473ffffffffffffffffffffffffffffffffffffffff1673ffffffffffffffffffffffffffffffffffffffff166108fc829081150290604051600060405180830381858888f193505050501580156138ac573d6000803e3d6000fd5b505b826000015173ffffffffffffffffffffffffffffffffffffffff166108fc6138df838561412890919063ffffffff16565b9081150290604051600060405180830381858888f1935050505015801561390a573d6000803e3d6000fd5b5050613974565b613973826000015182603e600087815260200190815260200160002060009054906101000a900473ffffffffffffffffffffffffffffffffffffffff1673ffffffffffffffffffffffffffffffffffffffff16613ccf9092919063ffffffff16565b5b60016036600085815260200190815260200160002060006101000a81548160ff0219169083151502179055505b60008261012001511415613a2b57816040015173ffffffffffffffffffffffffffffffffffffffff166342842e0e308685606001516040518463ffffffff1660e01b81526004016139f493929190615a1d565b600060405180830381600087803b158015613a0e57600080fd5b505af1158015613a22573d6000803e3d6000fd5b50505050613aa9565b816040015173ffffffffffffffffffffffffffffffffffffffff1663f242432a3086856060015186608001516040518563ffffffff1660e01b8152600401613a769493929190615a54565b600060405180830381600087803b158015613a9057600080fd5b505af1158015613aa4573d6000803e3d6000fd5b505050505b7fd8138f8a3f377c5259ca548e70e4c2de94f129f5a11036a15b69513cba2b426a8484604051613ada929190615aac565b60405180910390a150505050565b613b6b846323b872dd60e01b858585604051602401613b0993929190615a1d565b604051602081830303815290604052907bffffffffffffffffffffffffffffffffffffffffffffffffffffffff19166020820180517bffffffffffffffffffffffffffffffffffffffffffffffffffffffff8381831617835250505050614178565b50505050565b6000811480613c0a575060008373ffffffffffffffffffffffffffffffffffffffff1663dd62ed3e30856040518363ffffffff1660e01b8152600401613bb8929190615920565b60206040518083038186803b158015613bd057600080fd5b505afa158015613be4573d6000803e3d6000fd5b505050506040513d601f19601f82011682018060405250810190613c089190614bd4565b145b613c49576040517f08c379a0000000000000000000000000000000000000000000000000000000008152600401613c4090615e84565b60405180910390fd5b613cca8363095ea7b360e01b8484604051602401613c68929190615aac565b604051602081830303815290604052907bffffffffffffffffffffffffffffffffffffffffffffffffffffffff19166020820180517bffffffffffffffffffffffffffffffffffffffffffffffffffffffff8381831617835250505050614178565b505050565b613d508363a9059cbb60e01b8484604051602401613cee929190615aac565b604051602081830303815290604052907bffffffffffffffffffffffffffffffffffffffffffffffffffffffff19166020820180517bffffffffffffffffffffffffffffffffffffffffffffffffffffffff8381831617835250505050614178565b505050565b600080828401905083811015613da0576040517f08c379a0000000000000000000000000000000000000000000000000000000008152600401613d9790615be4565b60405180910390fd5b8091505092915050565b600073ffffffffffffffffffffffffffffffffffffffff168173ffffffffffffffffffffffffffffffffffffffff161415613de457600080fd5b8073ffffffffffffffffffffffffffffffffffffffff16603360009054906101000a900473ffffffffffffffffffffffffffffffffffffffff1673ffffffffffffffffffffffffffffffffffffffff167fc7c0c772add429241571afb3805861fb3cfa2af374534088b76cdb4325a87e9a60405160405180910390a380603360006101000a81548173ffffffffffffffffffffffffffffffffffffffff021916908373ffffffffffffffffffffffffffffffffffffffff16021790555050565b6000803090506000813b9050600081149250505090565b600060019054906101000a900460ff1680613eda5750613ed9613ea4565b5b80613ef0575060008054906101000a900460ff16155b613f2f576040517f08c379a0000000000000000000000000000000000000000000000000000000008152600401613f2690615d84565b60405180910390fd5b60008060019054906101000a900460ff161590508015613f7f576001600060016101000a81548160ff02191690831515021790555060016000806101000a81548160ff0219169083151502179055505b81603360006101000a81548173ffffffffffffffffffffffffffffffffffffffff021916908373ffffffffffffffffffffffffffffffffffffffff160217905550603360009054906101000a900473ffffffffffffffffffffffffffffffffffffffff1673ffffffffffffffffffffffffffffffffffffffff16600073ffffffffffffffffffffffffffffffffffffffff167fc7c0c772add429241571afb3805861fb3cfa2af374534088b76cdb4325a87e9a60405160405180910390a3801561405e5760008060016101000a81548160ff0219169083151502179055505b5050565b60008083141561407557600090506140cc565b600082840290508284828161408657fe5b04146140c7576040517f08c379a00000000000000000000000000000000000000000000000000000000081526004016140be90615d44565b60405180910390fd5b809150505b92915050565b6000808211614116576040517f08c379a000000000000000000000000000000000000000000000000000000000815260040161410d90615cc4565b60405180910390fd5b81838161411f57fe5b04905092915050565b60008282111561416d576040517f08c379a000000000000000000000000000000000000000000000000000000000815260040161416490615c84565b60405180910390fd5b818303905092915050565b60606141da826040518060400160405280602081526020017f5361666545524332303a206c6f772d6c6576656c2063616c6c206661696c65648152508573ffffffffffffffffffffffffffffffffffffffff1661423f9092919063ffffffff16565b905060008151111561423a57808060200190518101906141fa919061485a565b614239576040517f08c379a000000000000000000000000000000000000000000000000000000000815260040161423090615e64565b60405180910390fd5b5b505050565b606061424e8484600085614257565b90509392505050565b60608247101561429c576040517f08c379a000000000000000000000000000000000000000000000000000000000815260040161429390615ca4565b60405180910390fd5b6142a58561436c565b6142e4576040517f08c379a00000000000000000000000000000000000000000000000000000000081526004016142db90615dc4565b60405180910390fd5b600060608673ffffffffffffffffffffffffffffffffffffffff16858760405161430e9190615741565b60006040518083038185875af1925050503d806000811461434b576040519150601f19603f3d011682016040523d82523d6000602084013e614350565b606091505b509150915061436082828661437f565b92505050949350505050565b600080823b905060008111915050919050565b6060831561438f578290506143df565b6000835111156143a25782518084602001fd5b816040517f08c379a00000000000000000000000000000000000000000000000000000000081526004016143d69190615b42565b60405180910390fd5b9392505050565b6040518060600160405280600390602082028036833780820191505090505090565b604051806101400160405280600073ffffffffffffffffffffffffffffffffffffffff16815260200160608152602001600073ffffffffffffffffffffffffffffffffffffffff168152602001600081526020016000815260200160008152602001600081526020016000815260200160008152602001600081525090565b828054600181600116156101000203166002900490600052602060002090601f016020900481019282601f106144c857805160ff19168380011785556144f6565b828001600101855582156144f6579182015b828111156144f55782518255916020019190600101906144da565b5b5090506145039190614507565b5090565b5b80821115614520576000816000905550600101614508565b5090565b600081359050614533816160c7565b92915050565b600081359050614548816160de565b92915050565b60008135905061455d816160f5565b92915050565b600081519050614572816160f5565b92915050565b6000813590506145878161610c565b92915050565b60008083601f84011261459f57600080fd5b8235905067ffffffffffffffff8111156145b857600080fd5b6020830191508360018202830111156145d057600080fd5b9250929050565b600082601f8301126145e857600080fd5b81356145fb6145f682615f2e565b615f01565b9150808252602083016020830185838301111561461757600080fd5b614622838284616074565b50505092915050565b60008135905061463a81616123565b92915050565b60008151905061464f81616123565b92915050565b60006020828403121561466757600080fd5b600061467584828501614524565b91505092915050565b60006020828403121561469057600080fd5b600061469e84828501614539565b91505092915050565b6000806000806000608086880312156146bf57600080fd5b60006146cd88828901614524565b95505060206146de88828901614524565b94505060406146ef8882890161462b565b935050606086013567ffffffffffffffff81111561470c57600080fd5b6147188882890161458d565b92509250509295509295909350565b60008060008060008060a0878903121561474057600080fd5b600061474e89828a01614524565b965050602061475f89828a01614524565b955050604061477089828a0161462b565b945050606061478189828a0161462b565b935050608087013567ffffffffffffffff81111561479e57600080fd5b6147aa89828a0161458d565b92509250509295509295509295565b600080604083850312156147cc57600080fd5b60006147da85828601614524565b92505060206147eb8582860161454e565b9150509250929050565b6000806040838503121561480857600080fd5b600061481685828601614524565b92505060206148278582860161462b565b9150509250929050565b60006020828403121561484357600080fd5b60006148518482850161454e565b91505092915050565b60006020828403121561486c57600080fd5b600061487a84828501614563565b91505092915050565b60006020828403121561489557600080fd5b60006148a384828501614578565b91505092915050565b600080604083850312156148bf57600080fd5b60006148cd85828601614578565b92505060206148de85828601614524565b9150509250929050565b6000806000606084860312156148fd57600080fd5b600061490b86828701614578565b935050602061491c86828701614524565b925050604061492d8682870161462b565b9150509250925092565b6000806040838503121561494a57600080fd5b600061495885828601614578565b92505060206149698582860161462b565b9150509250929050565b60008060006060848603121561498857600080fd5b600061499686828701614578565b93505060206149a78682870161462b565b92505060406149b88682870161462b565b9150509250925092565b6000602082840312156149d457600080fd5b600082013567ffffffffffffffff8111156149ee57600080fd5b6149fa848285016145d7565b91505092915050565b600080600080600080600080610100898b031215614a2057600080fd5b600089013567ffffffffffffffff811115614a3a57600080fd5b614a468b828c016145d7565b9850506020614a578b828c01614524565b9750506040614a688b828c01614524565b9650506060614a798b828c0161462b565b9550506080614a8a8b828c0161462b565b94505060a0614a9b8b828c0161462b565b93505060c0614aac8b828c0161462b565b92505060e0614abd8b828c0161454e565b9150509295985092959890939650565b60008060008060008060008060006101208a8c031215614aec57600080fd5b60008a013567ffffffffffffffff811115614b0657600080fd5b614b128c828d016145d7565b9950506020614b238c828d01614524565b9850506040614b348c828d01614524565b9750506060614b458c828d0161462b565b9650506080614b568c828d0161462b565b95505060a0614b678c828d0161462b565b94505060c0614b788c828d0161462b565b93505060e0614b898c828d0161462b565b925050610100614b9b8c828d0161454e565b9150509295985092959850929598565b600060208284031215614bbd57600080fd5b6000614bcb8482850161462b565b91505092915050565b600060208284031215614be657600080fd5b6000614bf484828501614640565b91505092915050565b60008060408385031215614c1057600080fd5b6000614c1e8582860161462b565b9250506020614c2f8582860161454e565b9150509250929050565b60008060408385031215614c4c57600080fd5b6000614c5a8582860161462b565b9250506020614c6b8582860161462b565b9150509250929050565b614c7e8161603e565b82525050565b614c8d81615fc0565b82525050565b614c9c81615fc0565b82525050565b614cab81615fae565b82525050565b614cba81615fae565b82525050565b614cc981615fd2565b82525050565b614cd881615fe8565b82525050565b6000614ce982615f5a565b614cf38185615f81565b9350614d03818560208601616083565b80840191505092915050565b6000614d1a82615f65565b614d248185615f8c565b9350614d34818560208601616083565b614d3d816160b6565b840191505092915050565b6000614d5382615f65565b614d5d8185615f9d565b9350614d6d818560208601616083565b614d76816160b6565b840191505092915050565b6000614d8e602183615f9d565b91507f7468652076616c7565206f6620746f6b656e416d6f756e7430206973207a657260008301527f6f000000000000000000000000000000000000000000000000000000000000006020830152604082019050919050565b6000614df4602c83615f9d565b91507f7468652076616c7565206f6620636f6e6669726d54696d65206c65737320746860008301527f616e2035206d696e7574657300000000000000000000000000000000000000006020830152604082019050919050565b6000614e5a601c83615f9d565b91507f7468652076616c7565206f6620616d6f756e7431206973207a65726f000000006000830152602082019050919050565b6000614e9a600e83615f9d565b91507f696e76616c696420746f6b656e300000000000000000000000000000000000006000830152602082019050919050565b6000614eda601b83615f9d565b91507f536166654d6174683a206164646974696f6e206f766572666c6f7700000000006000830152602082019050919050565b6000614f1a602a83615f9d565b91507f7468652076616c7565206f6620636f6e6669726d54696d65206973206578636560008301527f65646564203120646179000000000000000000000000000000000000000000006020830152604082019050919050565b6000614f80601a83615f9d565b91507f73656e646572206973206e6f7420706f6f6c2063726561746f720000000000006000830152602082019050919050565b6000614fc0601883615f9d565b91507f7468697320706f6f6c20646f6573206e6f7420657869737400000000000000006000830152602082019050919050565b6000615000601383615f9d565b91507f7468697320706f6f6c20697320636c6f736564000000000000000000000000006000830152602082019050919050565b6000615040601e83615f9d565b91507f536166654d6174683a207375627472616374696f6e206f766572666c6f7700006000830152602082019050919050565b6000615080602683615f9d565b91507f416464726573733a20696e73756666696369656e742062616c616e636520666f60008301527f722063616c6c00000000000000000000000000000000000000000000000000006020830152604082019050919050565b60006150e6601a83615f9d565b91507f536166654d6174683a206469766973696f6e206279207a65726f0000000000006000830152602082019050919050565b6000615126602383615f9d565b91507f7468652076616c7565206f6620616d6f756e744d696e496e637231206973207a60008301527f65726f00000000000000000000000000000000000000000000000000000000006020830152604082019050919050565b600061518c601d83615f9d565b91507f63726561746f722068617320636c61696d6564207468697320706f6f6c0000006000830152602082019050919050565b60006151cc601e83615f9d565b91507f746865206c656e677468206f66206e616d6520697320746f6f206c6f6e6700006000830152602082019050919050565b600061520c602183615f9d565b91507f536166654d6174683a206d756c7469706c69636174696f6e206f766572666c6f60008301527f77000000000000000000000000000000000000000000000000000000000000006020830152604082019050919050565b6000615272602a83615f9d565b91507f63726561746f722063616e2774206269642074686520706f6f6c20637265617460008301527f65642062792073656c66000000000000000000000000000000000000000000006020830152604082019050919050565b60006152d8602e83615f9d565b91507f436f6e747261637420696e7374616e63652068617320616c726561647920626560008301527f656e20696e697469616c697a65640000000000000000000000000000000000006020830152604082019050919050565b600061533e603283615f9d565b91507f7468652062696420616d6f756e74206973206c6f776572207468616e206d696e60008301527f696d756d2062696464657220616d6f756e7400000000000000000000000000006020830152604082019050919050565b60006153a4600083615f70565b9150600082019050919050565b60006153be601d83615f9d565b91507f416464726573733a2063616c6c20746f206e6f6e2d636f6e74726163740000006000830152602082019050919050565b60006153fe602583615f9d565b91507f73656e646572206973206e6f74207468652077696e6e6572206f66207468697360008301527f20706f6f6c0000000000000000000000000000000000000000000000000000006020830152604082019050919050565b6000615464601c83615f9d565b91507f73656e6465722068617320636c61696d6564207468697320706f6f6c000000006000830152602082019050919050565b60006154a4603683615f9d565b91507f7468652062696420616d6f756e74206973206c6f776572207468616e2074686560008301527f2063757272656e742062696464657220616d6f756e74000000000000000000006020830152604082019050919050565b600061550a601283615f9d565b91507f696e76616c69642045544820616d6f756e7400000000000000000000000000006000830152602082019050919050565b600061554a602a83615f9d565b91507f5361666545524332303a204552433230206f7065726174696f6e20646964206e60008301527f6f742073756363656564000000000000000000000000000000000000000000006020830152604082019050919050565b60006155b0603683615f9d565b91507f5361666545524332303a20617070726f76652066726f6d206e6f6e2d7a65726f60008301527f20746f206e6f6e2d7a65726f20616c6c6f77616e6365000000000000000000006020830152604082019050919050565b6000615616601783615f9d565b91507f7468697320706f6f6c206973206e6f7420636c6f7365640000000000000000006000830152602082019050919050565b6000610140830160008301516156626000860182614c84565b506020830151848203602086015261567a8282614d0f565b915050604083015161568f6040860182614ca2565b5060608301516156a26060860182615723565b5060808301516156b56080860182615723565b5060a08301516156c860a0860182615723565b5060c08301516156db60c0860182615723565b5060e08301516156ee60e0860182615723565b50610100830151615703610100860182615723565b50610120830151615718610120860182615723565b508091505092915050565b61572c81616034565b82525050565b61573b81616034565b82525050565b600061574d8284614cde565b915081905092915050565b600060208201905061576d6000830184614cb1565b92915050565b60006020820190506157886000830184614c93565b92915050565b60006060820190506157a36000830186614c75565b6157b06020830185614cb1565b6157bd6040830184615732565b949350505050565b600060a0820190506157da6000830187614c75565b6157e76020830186614cb1565b6157f46040830185615732565b6158016060830184615732565b818103608083015261581281615397565b905095945050505050565b600061014082019050615833600083018d614c93565b8181036020830152615845818c614d48565b9050615854604083018b614cb1565b615861606083018a615732565b61586e6080830189615732565b61587b60a0830188615732565b61588860c0830187615732565b61589560e0830186615732565b6158a3610100830185615732565b6158b1610120830184615732565b9b9a5050505050505050505050565b60006040820190506158d56000830185614c75565b6158e26020830184615732565b9392505050565b60006060820190506158fe6000830186614c75565b61590b6020830185615732565b6159186040830184615732565b949350505050565b60006040820190506159356000830185614cb1565b6159426020830184614cb1565b9392505050565b600060608201905061595e6000830186614cb1565b61596b6020830185614c75565b6159786040830184615732565b949350505050565b60006080820190506159956000830187614cb1565b6159a26020830186614c75565b6159af6040830185615732565b6159bc6060830184615732565b95945050505050565b600060a0820190506159da6000830187614cb1565b6159e76020830186614c75565b6159f46040830185615732565b615a016060830184615732565b8181036080830152615a1281615397565b905095945050505050565b6000606082019050615a326000830186614cb1565b615a3f6020830185614cb1565b615a4c6040830184615732565b949350505050565b600060a082019050615a696000830187614cb1565b615a766020830186614cb1565b615a836040830185615732565b615a906060830184615732565b8181036080830152615aa181615397565b905095945050505050565b6000604082019050615ac16000830185614cb1565b615ace6020830184615732565b9392505050565b6000606082019050615aea6000830186614cb1565b615af76020830185615732565b615b046040830184615732565b949350505050565b6000602082019050615b216000830184614cc0565b92915050565b6000602082019050615b3c6000830184614ccf565b92915050565b60006020820190508181036000830152615b5c8184614d48565b905092915050565b60006020820190508181036000830152615b7d81614d81565b9050919050565b60006020820190508181036000830152615b9d81614de7565b9050919050565b60006020820190508181036000830152615bbd81614e4d565b9050919050565b60006020820190508181036000830152615bdd81614e8d565b9050919050565b60006020820190508181036000830152615bfd81614ecd565b9050919050565b60006020820190508181036000830152615c1d81614f0d565b9050919050565b60006020820190508181036000830152615c3d81614f73565b9050919050565b60006020820190508181036000830152615c5d81614fb3565b9050919050565b60006020820190508181036000830152615c7d81614ff3565b9050919050565b60006020820190508181036000830152615c9d81615033565b9050919050565b60006020820190508181036000830152615cbd81615073565b9050919050565b60006020820190508181036000830152615cdd816150d9565b9050919050565b60006020820190508181036000830152615cfd81615119565b9050919050565b60006020820190508181036000830152615d1d8161517f565b9050919050565b60006020820190508181036000830152615d3d816151bf565b9050919050565b60006020820190508181036000830152615d5d816151ff565b9050919050565b60006020820190508181036000830152615d7d81615265565b9050919050565b60006020820190508181036000830152615d9d816152cb565b9050919050565b60006020820190508181036000830152615dbd81615331565b9050919050565b60006020820190508181036000830152615ddd816153b1565b9050919050565b60006020820190508181036000830152615dfd816153f1565b9050919050565b60006020820190508181036000830152615e1d81615457565b9050919050565b60006020820190508181036000830152615e3d81615497565b9050919050565b60006020820190508181036000830152615e5d816154fd565b9050919050565b60006020820190508181036000830152615e7d8161553d565b9050919050565b60006020820190508181036000830152615e9d816155a3565b9050919050565b60006020820190508181036000830152615ebd81615609565b9050919050565b60006020820190508181036000830152615ede8184615649565b905092915050565b6000602082019050615efb6000830184615732565b92915050565b6000604051905081810181811067ffffffffffffffff82111715615f2457600080fd5b8060405250919050565b600067ffffffffffffffff821115615f4557600080fd5b601f19601f8301169050602081019050919050565b600081519050919050565b600081519050919050565b600082825260208201905092915050565b600081905092915050565b600082825260208201905092915050565b600082825260208201905092915050565b6000615fb982616014565b9050919050565b6000615fcb82616014565b9050919050565b60008115159050919050565b6000819050919050565b60007fffffffff0000000000000000000000000000000000000000000000000000000082169050919050565b600073ffffffffffffffffffffffffffffffffffffffff82169050919050565b6000819050919050565b600061604982616050565b9050919050565b600061605b82616062565b9050919050565b600061606d82616014565b9050919050565b82818337600083830152505050565b60005b838110156160a1578082015181840152602081019050616086565b838111156160b0576000848401525b50505050565b6000601f19601f8301169050919050565b6160d081615fae565b81146160db57600080fd5b50565b6160e781615fc0565b81146160f257600080fd5b50565b6160fe81615fd2565b811461610957600080fd5b50565b61611581615fde565b811461612057600080fd5b50565b61612c81616034565b811461613757600080fd5b5056fea264697066735822122091c5e640abdefb33a9ad846f4088a8a8e1bfbba9ec3e137c691cc18e81bf994964736f6c634300060c0033",
  "linkReferences": {},
  "deployedLinkReferences": {}
}