{
  "fileName": "EnglishAuctionNFT.sol",
  "contractName": "EnglishAuctionNFT",
  "source": "// SPDX-License-Identifier: MIT\n\npragma solidity ^0.6.0;\npragma experimental ABIEncoderV2;\n\nimport \"@openzeppelin/contracts-ethereum-package/contracts/math/SafeMath.sol\";\nimport \"@openzeppelin/contracts-ethereum-package/contracts/token/ERC20/SafeERC20.sol\";\nimport \"@openzeppelin/contracts-ethereum-package/contracts/token/ERC20/IERC20.sol\";\nimport \"@openzeppelin/contracts-ethereum-package/contracts/token/ERC721/IERC721.sol\";\nimport \"@openzeppelin/contracts-ethereum-package/contracts/token/ERC721/IERC721Receiver.sol\";\nimport \"./Governable.sol\";\nimport \"./interfaces/IERC1155.sol\";\n\ncontract EnglishAuctionNFT is Configurable, IERC721Receiver {\n    using SafeMath for uint256;\n    using SafeERC20 for IERC20;\n\n    uint    internal constant TypeErc721                = 0;\n    uint    internal constant TypeErc1155               = 1;\n    address internal constant DeadAddress               = 0x000000000000000000000000000000000000dEaD;\n    address internal constant UniSwapContract           = 0x7a250d5630B4cF539739dF2C5dAcb4c659F2488D;\n\n    struct Pool {\n        // address of pool creator\n        address payable creator;\n        // pool name\n        string name;\n        // address of sell token\n        address token0;\n        // token id of token0\n        uint tokenId;\n        // amount of token id of token0\n        uint tokenAmount0;\n        // minimum amount of ETH that creator want to swap\n        uint amountMin1;\n        // minimum incremental amount of token1\n        uint amountMinIncr1;\n        // how many seconds the pool will be live since last bid\n        uint confirmTime;\n        // the timestamp in seconds the pool will be closed\n        uint closeAt;\n        // NFT token type\n        uint nftType;\n    }\n\n    Pool[] public pools;\n\n    // pool index => a flag that if creator is claimed the pool\n    mapping(uint => bool) public creatorClaimedP;\n    // pool index => the candidate of winner who bid the highest amount1 in current round\n    mapping(uint => address payable) public currentBidderP;\n    // pool index => the highest amount1 in current round\n    mapping(uint => uint) public currentBidderAmount1P;\n\n    // creator address => pool index + 1. if the result is 0, the account don't create any pool.\n    mapping(address => uint) public myCreatedP;\n    // name => pool index + 1\n    mapping(string => uint) public myNameP;\n\n    // account => array of pool index\n    mapping(address => uint[]) public myBidP;\n    // account => pool index => bid amount1\n    mapping(address => mapping(uint => uint)) public myBidderAmount1P;\n    // account => pool index => claim flag\n    mapping(address => mapping(uint => bool)) public myClaimedP;\n\n    // pool index => bid count; v1.15.0\n    mapping(uint => uint) public bidCountP;\n    // pool index => address of buy token; v1.16.0\n    mapping(uint => address) public token1P;\n\n    // check if token0 in whitelist\n    bool public checkToken0;\n    // token0 address => true or false\n    mapping(address => bool) public token0List;\n\n    event Created(Pool pool);\n    event Bid(address sender, uint index, uint amount1);\n    event Claimed(address sender, uint index);\n\n    function initialize(address _governor) public override initializer {\n        super.initialize(_governor);\n    }\n\n    function createErc721(\n        // name of the pool\n        string memory name,\n        // address of token0\n        address token0,\n        // address of token1\n        address token1,\n        // token id of token0\n        uint tokenId,\n        // minimum amount of token1\n        uint amountMin1,\n        // minimum incremental amount of token1\n        uint amountMinIncr1,\n        // confirmation time\n        uint confirmTime\n    ) external payable {\n        if (checkToken0) {\n            require(token0List[token0], \"invalid token0\");\n        }\n        uint tokenAmount0 = 1;\n        uint[3] memory amounts = [tokenAmount0, amountMin1, amountMinIncr1];\n        _create(name, token0, tokenId, amounts, confirmTime, TypeErc721);\n        if (token1 != address(0)) {\n            token1P[pools.length-1] = token1;\n        }\n    }\n\n    function createErc1155(\n        // name of the pool\n        string memory name,\n        // address of token0\n        address token0,\n        // address of token1\n        address token1,\n        // token id of token0\n        uint tokenId,\n        // amount of token id of token0\n        uint tokenAmount0,\n        // minimum amount of token1\n        uint amountMin1,\n        // minimum incremental amount of token1\n        uint amountMinIncr1,\n        // confirmation time\n        uint confirmTime\n    ) external payable {\n        if (checkToken0) {\n            require(token0List[token0], \"invalid token0\");\n        }\n        uint[3] memory amounts = [tokenAmount0, amountMin1, amountMinIncr1];\n        _create(name, token0, tokenId, amounts, confirmTime, TypeErc1155);\n        if (token1 != address(0)) {\n            token1P[pools.length-1] = token1;\n        }\n    }\n\n    function _create(\n        // name of the pool\n        string memory name,\n        // address of token0\n        address token0,\n        // token id of token0\n        uint tokenId,\n        // 0: uint tokenAmount0, amount of token id of token0\n        // 1: uint amountMin1, minimum amount of token1\n        // 2: uint amountMinIncr1, minimum incremental amount of token1\n        uint[3] memory amounts,\n        // confirmation time\n        uint confirmTime,\n        // NFT token type\n        uint nftType\n    ) private\n        isPoolNotCreate(msg.sender)\n        nameNotBeenToken(name)\n    {\n        address payable creator = msg.sender;\n\n        require(amounts[0] != 0, \"the value of tokenAmount0 is zero\");\n        require(amounts[2] != 0, \"the value of amountMinIncr1 is zero\");\n        require(confirmTime >= 5 minutes, \"the value of confirmTime less than 5 minutes\");\n        require(confirmTime <= 1 days, \"the value of confirmTime is exceeded 1 day\");\n        require(bytes(name).length <= 15, \"the length of name is too long\");\n\n        // transfer tokenId of token0 to this contract\n        if (nftType == TypeErc721) {\n            IERC721(token0).safeTransferFrom(creator, address(this), tokenId);\n        } else {\n            IERC1155(token0).safeTransferFrom(creator, address(this), tokenId, amounts[0], \"\");\n        }\n\n        // creator pool\n        Pool memory pool;\n        pool.creator = creator;\n        pool.name = name;\n        pool.token0 = token0;\n        pool.tokenId = tokenId;\n        pool.tokenAmount0 = amounts[0];\n        pool.amountMin1 = amounts[1];\n        pool.amountMinIncr1 = amounts[2];\n        pool.confirmTime = confirmTime;\n        pool.closeAt = now.add(confirmTime);\n        pool.nftType = nftType;\n\n        pools.push(pool);\n        myCreatedP[creator] = pools.length;\n        myNameP[name] = pools.length;\n\n        emit Created(pool);\n    }\n\n    function bid(\n        // pool index\n        uint index,\n        // amount of token1\n        uint amount1\n    ) external payable\n        isPoolExist(index)\n        isPoolNotClosed(index)\n    {\n        address payable sender = msg.sender;\n\n        Pool storage pool = pools[index];\n        require(pool.creator != sender, \"creator can't bid the pool created by self\");\n        require(amount1 != 0, \"the value of amount1 is zero\");\n        require(amount1 >= pool.amountMin1, \"the bid amount is lower than minimum bidder amount\");\n\n        require(amount1 >= currentBidderAmount(index), \"the bid amount is lower than the current bidder amount\");\n\n        address token1 = token1P[index];\n        if (token1 == address(0)) {\n            require(amount1 == msg.value, \"invalid ETH amount\");\n        } else {\n            IERC20(token1).safeTransferFrom(sender, address(this), amount1);\n            IERC20(token1).safeApprove(address(this), 0);\n        }\n\n        // update closeAt\n        pool.closeAt = now.add(pool.confirmTime);\n\n        // return ETH to previous bidder\n        if (currentBidderP[index] != address(0) && currentBidderAmount1P[index] > 0) {\n            if (token1 == address(0)) {\n                currentBidderP[index].transfer(currentBidderAmount1P[index]);\n            } else {\n                IERC20(token1).safeTransfer(currentBidderP[index], currentBidderAmount1P[index]);\n            }\n        }\n\n        // record new winner\n        currentBidderP[index] = sender;\n        currentBidderAmount1P[index] = amount1;\n        bidCountP[index] = bidCountP[index] + 1;\n\n        myBidP[sender].push(index);\n        myBidderAmount1P[sender][index] = amount1;\n\n        emit Bid(sender, index, amount1);\n    }\n\n    function creatorClaim(uint index) external\n        isPoolExist(index)\n        isPoolClosed(index)\n    {\n        address payable sender = msg.sender;\n        require(isCreator(sender, index), \"sender is not pool creator\");\n        require(!creatorClaimedP[index], \"creator has claimed this pool\");\n        creatorClaimedP[index] = true;\n\n        // remove ownership of this pool from creator\n        delete myCreatedP[sender];\n\n        Pool memory pool = pools[index];\n        if (currentBidderP[index] != address(0)) {\n            uint amount1 = currentBidderAmount1P[index];\n            if (amount1 > 0) {\n                if (token1P[index] == address(0)) {\n                    // transfer ETH to creator\n                    pool.creator.transfer(amount1);\n                } else {\n                    IERC20(token1P[index]).safeTransfer(pool.creator, amount1);\n                }\n            }\n        } else {\n            // transfer token0 back to creator\n            if (pool.nftType == TypeErc721) {\n                IERC721(pool.token0).safeTransferFrom(address(this), pool.creator, pool.tokenId);\n            } else {\n                IERC1155(pool.token0).safeTransferFrom(address(this), pool.creator, pool.tokenId, pool.tokenAmount0, \"\");\n            }\n        }\n\n        emit Claimed(sender, index);\n    }\n\n    function bidderClaim(uint index) external\n        isPoolExist(index)\n        isPoolClosed(index)\n    {\n        address payable sender = msg.sender;\n        require(currentBidderP[index] == sender, \"sender is not the winner of this pool\");\n        require(!myClaimedP[sender][index], \"sender has claimed this pool\");\n        myClaimedP[sender][index] = true;\n\n        // transfer token0 to bidder\n        Pool memory pool = pools[index];\n        if (pool.nftType == TypeErc721) {\n            IERC721(pool.token0).safeTransferFrom(address(this), sender, pool.tokenId);\n        } else {\n            IERC1155(pool.token0).safeTransferFrom(address(this), sender, pool.tokenId, pool.tokenAmount0, \"\");\n        }\n\n        emit Claimed(sender, index);\n    }\n\n    function onERC721Received(address, address, uint256, bytes calldata) external override returns (bytes4) {\n        return this.onERC721Received.selector;\n    }\n\n    function onERC1155Received(address, address, uint256, uint256, bytes calldata) external returns(bytes4) {\n        return this.onERC1155Received.selector;\n    }\n\n    function getPoolCount() external view returns (uint) {\n        return pools.length;\n    }\n\n    function currentBidderAmount(uint index) public view returns (uint) {\n        Pool memory pool = pools[index];\n        uint amount = pool.amountMin1;\n\n        if (currentBidderP[index] != address(0)) {\n            amount = currentBidderAmount1P[index].add(pool.amountMinIncr1);\n        } else if (pool.amountMin1 == 0) {\n            amount = pool.amountMinIncr1;\n        }\n\n        return amount;\n    }\n\n    function isCreator(address target, uint index) private view returns (bool) {\n        if (pools[index].creator == target) {\n            return true;\n        }\n        return false;\n    }\n\n    modifier isPoolClosed(uint index) {\n        require(pools[index].closeAt <= now, \"this pool is not closed\");\n        _;\n    }\n\n    modifier isPoolNotClosed(uint index) {\n        require(pools[index].closeAt > now, \"this pool is closed\");\n        _;\n    }\n\n    modifier isPoolNotCreate(address creator) {\n        if (myCreatedP[creator] > 0) {\n            revert(\"a pool has created by this address\");\n        }\n        _;\n    }\n\n    modifier isPoolExist(uint index) {\n        require(index < pools.length, \"this pool does not exist\");\n        _;\n    }\n\n    modifier nameNotBeenToken(string memory name) {\n        // check if someone has take this name\n        if (myNameP[name] > 0) {\n            uint index = myNameP[name] - 1;\n            if ((myCreatedP[pools[index].creator] > 0) && (pools[index].closeAt > now)) {\n                revert(\"a live pool has been created by this name\");\n            }\n        }\n        _;\n    }\n}\n",
  "sourcePath": "contracts/EnglishAuctionNFT.sol",
  "abi": [
    {
      "anonymous": false,
      "inputs": [
        {
          "indexed": false,
          "internalType": "address",
          "name": "sender",
          "type": "address"
        },
        {
          "indexed": false,
          "internalType": "uint256",
          "name": "index",
          "type": "uint256"
        },
        {
          "indexed": false,
          "internalType": "uint256",
          "name": "amount1",
          "type": "uint256"
        }
      ],
      "name": "Bid",
      "type": "event"
    },
    {
      "anonymous": false,
      "inputs": [
        {
          "indexed": false,
          "internalType": "address",
          "name": "sender",
          "type": "address"
        },
        {
          "indexed": false,
          "internalType": "uint256",
          "name": "index",
          "type": "uint256"
        }
      ],
      "name": "Claimed",
      "type": "event"
    },
    {
      "anonymous": false,
      "inputs": [
        {
          "components": [
            {
              "internalType": "address payable",
              "name": "creator",
              "type": "address"
            },
            {
              "internalType": "string",
              "name": "name",
              "type": "string"
            },
            {
              "internalType": "address",
              "name": "token0",
              "type": "address"
            },
            {
              "internalType": "uint256",
              "name": "tokenId",
              "type": "uint256"
            },
            {
              "internalType": "uint256",
              "name": "tokenAmount0",
              "type": "uint256"
            },
            {
              "internalType": "uint256",
              "name": "amountMin1",
              "type": "uint256"
            },
            {
              "internalType": "uint256",
              "name": "amountMinIncr1",
              "type": "uint256"
            },
            {
              "internalType": "uint256",
              "name": "confirmTime",
              "type": "uint256"
            },
            {
              "internalType": "uint256",
              "name": "closeAt",
              "type": "uint256"
            },
            {
              "internalType": "uint256",
              "name": "nftType",
              "type": "uint256"
            }
          ],
          "indexed": false,
          "internalType": "struct EnglishAuctionNFT.Pool",
          "name": "pool",
          "type": "tuple"
        }
      ],
      "name": "Created",
      "type": "event"
    },
    {
      "anonymous": false,
      "inputs": [
        {
          "indexed": true,
          "internalType": "address",
          "name": "previousGovernor",
          "type": "address"
        },
        {
          "indexed": true,
          "internalType": "address",
          "name": "newGovernor",
          "type": "address"
        }
      ],
      "name": "GovernorshipTransferred",
      "type": "event"
    },
    {
      "inputs": [
        {
          "internalType": "uint256",
          "name": "index",
          "type": "uint256"
        },
        {
          "internalType": "uint256",
          "name": "amount1",
          "type": "uint256"
        }
      ],
      "name": "bid",
      "outputs": [],
      "stateMutability": "payable",
      "type": "function"
    },
    {
      "inputs": [
        {
          "internalType": "uint256",
          "name": "",
          "type": "uint256"
        }
      ],
      "name": "bidCountP",
      "outputs": [
        {
          "internalType": "uint256",
          "name": "",
          "type": "uint256"
        }
      ],
      "stateMutability": "view",
      "type": "function"
    },
    {
      "inputs": [
        {
          "internalType": "uint256",
          "name": "index",
          "type": "uint256"
        }
      ],
      "name": "bidderClaim",
      "outputs": [],
      "stateMutability": "nonpayable",
      "type": "function"
    },
    {
      "inputs": [],
      "name": "checkToken0",
      "outputs": [
        {
          "internalType": "bool",
          "name": "",
          "type": "bool"
        }
      ],
      "stateMutability": "view",
      "type": "function"
    },
    {
      "inputs": [
        {
          "internalType": "string",
          "name": "name",
          "type": "string"
        },
        {
          "internalType": "address",
          "name": "token0",
          "type": "address"
        },
        {
          "internalType": "address",
          "name": "token1",
          "type": "address"
        },
        {
          "internalType": "uint256",
          "name": "tokenId",
          "type": "uint256"
        },
        {
          "internalType": "uint256",
          "name": "tokenAmount0",
          "type": "uint256"
        },
        {
          "internalType": "uint256",
          "name": "amountMin1",
          "type": "uint256"
        },
        {
          "internalType": "uint256",
          "name": "amountMinIncr1",
          "type": "uint256"
        },
        {
          "internalType": "uint256",
          "name": "confirmTime",
          "type": "uint256"
        }
      ],
      "name": "createErc1155",
      "outputs": [],
      "stateMutability": "payable",
      "type": "function"
    },
    {
      "inputs": [
        {
          "internalType": "string",
          "name": "name",
          "type": "string"
        },
        {
          "internalType": "address",
          "name": "token0",
          "type": "address"
        },
        {
          "internalType": "address",
          "name": "token1",
          "type": "address"
        },
        {
          "internalType": "uint256",
          "name": "tokenId",
          "type": "uint256"
        },
        {
          "internalType": "uint256",
          "name": "amountMin1",
          "type": "uint256"
        },
        {
          "internalType": "uint256",
          "name": "amountMinIncr1",
          "type": "uint256"
        },
        {
          "internalType": "uint256",
          "name": "confirmTime",
          "type": "uint256"
        }
      ],
      "name": "createErc721",
      "outputs": [],
      "stateMutability": "payable",
      "type": "function"
    },
    {
      "inputs": [
        {
          "internalType": "uint256",
          "name": "index",
          "type": "uint256"
        }
      ],
      "name": "creatorClaim",
      "outputs": [],
      "stateMutability": "nonpayable",
      "type": "function"
    },
    {
      "inputs": [
        {
          "internalType": "uint256",
          "name": "",
          "type": "uint256"
        }
      ],
      "name": "creatorClaimedP",
      "outputs": [
        {
          "internalType": "bool",
          "name": "",
          "type": "bool"
        }
      ],
      "stateMutability": "view",
      "type": "function"
    },
    {
      "inputs": [
        {
          "internalType": "uint256",
          "name": "index",
          "type": "uint256"
        }
      ],
      "name": "currentBidderAmount",
      "outputs": [
        {
          "internalType": "uint256",
          "name": "",
          "type": "uint256"
        }
      ],
      "stateMutability": "view",
      "type": "function"
    },
    {
      "inputs": [
        {
          "internalType": "uint256",
          "name": "",
          "type": "uint256"
        }
      ],
      "name": "currentBidderAmount1P",
      "outputs": [
        {
          "internalType": "uint256",
          "name": "",
          "type": "uint256"
        }
      ],
      "stateMutability": "view",
      "type": "function"
    },
    {
      "inputs": [
        {
          "internalType": "uint256",
          "name": "",
          "type": "uint256"
        }
      ],
      "name": "currentBidderP",
      "outputs": [
        {
          "internalType": "address payable",
          "name": "",
          "type": "address"
        }
      ],
      "stateMutability": "view",
      "type": "function"
    },
    {
      "inputs": [
        {
          "internalType": "bytes32",
          "name": "key",
          "type": "bytes32"
        },
        {
          "internalType": "address",
          "name": "addr",
          "type": "address"
        }
      ],
      "name": "getConfig",
      "outputs": [
        {
          "internalType": "uint256",
          "name": "",
          "type": "uint256"
        }
      ],
      "stateMutability": "view",
      "type": "function"
    },
    {
      "inputs": [
        {
          "internalType": "bytes32",
          "name": "key",
          "type": "bytes32"
        }
      ],
      "name": "getConfig",
      "outputs": [
        {
          "internalType": "uint256",
          "name": "",
          "type": "uint256"
        }
      ],
      "stateMutability": "view",
      "type": "function"
    },
    {
      "inputs": [
        {
          "internalType": "bytes32",
          "name": "key",
          "type": "bytes32"
        },
        {
          "internalType": "uint256",
          "name": "index",
          "type": "uint256"
        }
      ],
      "name": "getConfig",
      "outputs": [
        {
          "internalType": "uint256",
          "name": "",
          "type": "uint256"
        }
      ],
      "stateMutability": "view",
      "type": "function"
    },
    {
      "inputs": [],
      "name": "getPoolCount",
      "outputs": [
        {
          "internalType": "uint256",
          "name": "",
          "type": "uint256"
        }
      ],
      "stateMutability": "view",
      "type": "function"
    },
    {
      "inputs": [],
      "name": "governor",
      "outputs": [
        {
          "internalType": "address",
          "name": "",
          "type": "address"
        }
      ],
      "stateMutability": "view",
      "type": "function"
    },
    {
      "inputs": [
        {
          "internalType": "address",
          "name": "_governor",
          "type": "address"
        }
      ],
      "name": "initialize",
      "outputs": [],
      "stateMutability": "nonpayable",
      "type": "function"
    },
    {
      "inputs": [
        {
          "internalType": "address",
          "name": "",
          "type": "address"
        },
        {
          "internalType": "uint256",
          "name": "",
          "type": "uint256"
        }
      ],
      "name": "myBidP",
      "outputs": [
        {
          "internalType": "uint256",
          "name": "",
          "type": "uint256"
        }
      ],
      "stateMutability": "view",
      "type": "function"
    },
    {
      "inputs": [
        {
          "internalType": "address",
          "name": "",
          "type": "address"
        },
        {
          "internalType": "uint256",
          "name": "",
          "type": "uint256"
        }
      ],
      "name": "myBidderAmount1P",
      "outputs": [
        {
          "internalType": "uint256",
          "name": "",
          "type": "uint256"
        }
      ],
      "stateMutability": "view",
      "type": "function"
    },
    {
      "inputs": [
        {
          "internalType": "address",
          "name": "",
          "type": "address"
        },
        {
          "internalType": "uint256",
          "name": "",
          "type": "uint256"
        }
      ],
      "name": "myClaimedP",
      "outputs": [
        {
          "internalType": "bool",
          "name": "",
          "type": "bool"
        }
      ],
      "stateMutability": "view",
      "type": "function"
    },
    {
      "inputs": [
        {
          "internalType": "address",
          "name": "",
          "type": "address"
        }
      ],
      "name": "myCreatedP",
      "outputs": [
        {
          "internalType": "uint256",
          "name": "",
          "type": "uint256"
        }
      ],
      "stateMutability": "view",
      "type": "function"
    },
    {
      "inputs": [
        {
          "internalType": "string",
          "name": "",
          "type": "string"
        }
      ],
      "name": "myNameP",
      "outputs": [
        {
          "internalType": "uint256",
          "name": "",
          "type": "uint256"
        }
      ],
      "stateMutability": "view",
      "type": "function"
    },
    {
      "inputs": [
        {
          "internalType": "address",
          "name": "",
          "type": "address"
        },
        {
          "internalType": "address",
          "name": "",
          "type": "address"
        },
        {
          "internalType": "uint256",
          "name": "",
          "type": "uint256"
        },
        {
          "internalType": "uint256",
          "name": "",
          "type": "uint256"
        },
        {
          "internalType": "bytes",
          "name": "",
          "type": "bytes"
        }
      ],
      "name": "onERC1155Received",
      "outputs": [
        {
          "internalType": "bytes4",
          "name": "",
          "type": "bytes4"
        }
      ],
      "stateMutability": "nonpayable",
      "type": "function"
    },
    {
      "inputs": [
        {
          "internalType": "address",
          "name": "",
          "type": "address"
        },
        {
          "internalType": "address",
          "name": "",
          "type": "address"
        },
        {
          "internalType": "uint256",
          "name": "",
          "type": "uint256"
        },
        {
          "internalType": "bytes",
          "name": "",
          "type": "bytes"
        }
      ],
      "name": "onERC721Received",
      "outputs": [
        {
          "internalType": "bytes4",
          "name": "",
          "type": "bytes4"
        }
      ],
      "stateMutability": "nonpayable",
      "type": "function"
    },
    {
      "inputs": [
        {
          "internalType": "uint256",
          "name": "",
          "type": "uint256"
        }
      ],
      "name": "pools",
      "outputs": [
        {
          "internalType": "address payable",
          "name": "creator",
          "type": "address"
        },
        {
          "internalType": "string",
          "name": "name",
          "type": "string"
        },
        {
          "internalType": "address",
          "name": "token0",
          "type": "address"
        },
        {
          "internalType": "uint256",
          "name": "tokenId",
          "type": "uint256"
        },
        {
          "internalType": "uint256",
          "name": "tokenAmount0",
          "type": "uint256"
        },
        {
          "internalType": "uint256",
          "name": "amountMin1",
          "type": "uint256"
        },
        {
          "internalType": "uint256",
          "name": "amountMinIncr1",
          "type": "uint256"
        },
        {
          "internalType": "uint256",
          "name": "confirmTime",
          "type": "uint256"
        },
        {
          "internalType": "uint256",
          "name": "closeAt",
          "type": "uint256"
        },
        {
          "internalType": "uint256",
          "name": "nftType",
          "type": "uint256"
        }
      ],
      "stateMutability": "view",
      "type": "function"
    },
    {
      "inputs": [],
      "name": "renounceGovernorship",
      "outputs": [],
      "stateMutability": "nonpayable",
      "type": "function"
    },
    {
      "inputs": [
        {
          "internalType": "bytes32",
          "name": "key",
          "type": "bytes32"
        },
        {
          "internalType": "uint256",
          "name": "value",
          "type": "uint256"
        }
      ],
      "name": "setConfig",
      "outputs": [],
      "stateMutability": "nonpayable",
      "type": "function"
    },
    {
      "inputs": [
        {
          "internalType": "bytes32",
          "name": "key",
          "type": "bytes32"
        },
        {
          "internalType": "address",
          "name": "addr",
          "type": "address"
        },
        {
          "internalType": "uint256",
          "name": "value",
          "type": "uint256"
        }
      ],
      "name": "setConfig",
      "outputs": [],
      "stateMutability": "nonpayable",
      "type": "function"
    },
    {
      "inputs": [
        {
          "internalType": "bytes32",
          "name": "key",
          "type": "bytes32"
        },
        {
          "internalType": "uint256",
          "name": "index",
          "type": "uint256"
        },
        {
          "internalType": "uint256",
          "name": "value",
          "type": "uint256"
        }
      ],
      "name": "setConfig",
      "outputs": [],
      "stateMutability": "nonpayable",
      "type": "function"
    },
    {
      "inputs": [
        {
          "internalType": "address",
          "name": "",
          "type": "address"
        }
      ],
      "name": "token0List",
      "outputs": [
        {
          "internalType": "bool",
          "name": "",
          "type": "bool"
        }
      ],
      "stateMutability": "view",
      "type": "function"
    },
    {
      "inputs": [
        {
          "internalType": "uint256",
          "name": "",
          "type": "uint256"
        }
      ],
      "name": "token1P",
      "outputs": [
        {
          "internalType": "address",
          "name": "",
          "type": "address"
        }
      ],
      "stateMutability": "view",
      "type": "function"
    },
    {
      "inputs": [
        {
          "internalType": "address",
          "name": "newGovernor",
          "type": "address"
        }
      ],
      "name": "transferGovernorship",
      "outputs": [],
      "stateMutability": "nonpayable",
      "type": "function"
    }
  ],
  "bytecode": "0x608060405234801561001057600080fd5b50615260806100206000396000f3fe6080604052600436106101e35760003560e01c80638d32b65811610102578063c4d66de811610095578063e87ba7aa11610064578063e87ba7aa14610752578063ef5135ed1461078f578063f23a6e61146107cc578063f5639ff514610809576101e3565b8063c4d66de8146106a7578063c9ed5f41146106d0578063d286bea5146106ec578063ddf2be3f14610729576101e3565b8063ac4afa38116100d1578063ac4afa38146105d2578063b21544f314610618578063b6aa515b14610641578063bbe7180d1461066a576101e3565b80638d32b658146104f05780638ec872e31461052d5780638eec5d701461056a5780639d6ce84b14610595576101e3565b806352665f471161017a5780636dd5b69d116101495780636dd5b69d146104435780637852fbe01461048057806381c0c2631461049c5780638695f2d2146104b3576101e3565b806352665f4714610384578063598647f8146103c157806360de1d61146103dd57806364cc79bd14610406576101e3565b806329dbd098116101b657806329dbd098146102b65780632ad540ed146102f35780632ca77bf81461031c578063507a0a3d14610347576101e3565b80630c340a24146101e8578063150b7a021461021357806315fe96dc1461025057806329a65f8f14610279575b600080fd5b3480156101f457600080fd5b506101fd610846565b60405161020a919061496a565b60405180910390f35b34801561021f57600080fd5b5061023a6004803603810190610235919061397a565b61086c565b6040516102479190614c65565b60405180910390f35b34801561025c57600080fd5b5061027760048036038101906102729190613ba5565b610881565b005b34801561028557600080fd5b506102a0600480360381019061029b9190613df1565b6108e9565b6040516102ad9190614fe2565b60405180910390f35b3480156102c257600080fd5b506102dd60048036038101906102d89190613951565b610901565b6040516102ea9190614c4a565b60405180910390f35b3480156102ff57600080fd5b5061031a60048036038101906103159190613df1565b610921565b005b34801561032857600080fd5b50610331610fa9565b60405161033e9190614c4a565b60405180910390f35b34801561035357600080fd5b5061036e60048036038101906103699190613a8c565b610fbc565b60405161037b9190614fe2565b60405180910390f35b34801561039057600080fd5b506103ab60048036038101906103a69190613b1a565b610fea565b6040516103b89190614fe2565b60405180910390f35b6103db60048036038101906103d69190613e43565b611026565b005b3480156103e957600080fd5b5061040460048036038101906103ff9190613df1565b6116e2565b005b34801561041257600080fd5b5061042d60048036038101906104289190613df1565b611c46565b60405161043a9190614fe2565b60405180910390f35b34801561044f57600080fd5b5061046a60048036038101906104659190613af1565b611c5e565b6040516104779190614fe2565b60405180910390f35b61049a60048036038101906104959190613d27565b611c7b565b005b3480156104a857600080fd5b506104b1611deb565b005b3480156104bf57600080fd5b506104da60048036038101906104d59190613df1565b611f06565b6040516104e79190614fe2565b60405180910390f35b3480156104fc57600080fd5b5061051760048036038101906105129190613a8c565b61218e565b6040516105249190614fe2565b60405180910390f35b34801561053957600080fd5b50610554600480360381019061054f9190613ba5565b6121b3565b6040516105619190614fe2565b60405180910390f35b34801561057657600080fd5b5061057f6121d9565b60405161058c9190614fe2565b60405180910390f35b3480156105a157600080fd5b506105bc60048036038101906105b79190613c30565b6121e6565b6040516105c99190614fe2565b60405180910390f35b3480156105de57600080fd5b506105f960048036038101906105f49190613df1565b612214565b60405161060f9a99989796959493929190614a2f565b60405180910390f35b34801561062457600080fd5b5061063f600480360381019061063a9190613b56565b61234d565b005b34801561064d57600080fd5b5061066860048036038101906106639190613951565b6123d4565b005b34801561067657600080fd5b50610691600480360381019061068c9190613951565b61243a565b60405161069e9190614fe2565b60405180910390f35b3480156106b357600080fd5b506106ce60048036038101906106c99190613951565b612452565b005b6106ea60048036038101906106e59190613c71565b612544565b005b3480156106f857600080fd5b50610713600480360381019061070e9190613a8c565b6126ba565b6040516107209190614c4a565b60405180910390f35b34801561073557600080fd5b50610750600480360381019061074b9190613be1565b6126e9565b005b34801561075e57600080fd5b5061077960048036038101906107749190613df1565b61275a565b6040516107869190614c4a565b60405180910390f35b34801561079b57600080fd5b506107b660048036038101906107b19190613df1565b61277a565b6040516107c3919061496a565b60405180910390f35b3480156107d857600080fd5b506107f360048036038101906107ee91906139fa565b6127ad565b6040516108009190614c65565b60405180910390f35b34801561081557600080fd5b50610830600480360381019061082b9190613df1565b6127c3565b60405161083d9190614985565b60405180910390f35b603360009054906101000a900473ffffffffffffffffffffffffffffffffffffffff1681565b600063150b7a0260e01b905095945050505050565b603360009054906101000a900473ffffffffffffffffffffffffffffffffffffffff1673ffffffffffffffffffffffffffffffffffffffff163373ffffffffffffffffffffffffffffffffffffffff16146108db57600080fd5b6108e582826127f6565b5050565b603e6020528060005260406000206000915090505481565b60416020528060005260406000206000915054906101000a900460ff1681565b806035805490508110610969576040517f08c379a000000000000000000000000000000000000000000000000000000000815260040161096090614da0565b60405180910390fd5b81426035828154811061097857fe5b90600052602060002090600a02016008015411156109cb576040517f08c379a00000000000000000000000000000000000000000000000000000000081526004016109c290614fa0565b60405180910390fd5b60003390506109da818561282d565b610a19576040517f08c379a0000000000000000000000000000000000000000000000000000000008152600401610a1090614d60565b60405180910390fd5b6036600085815260200190815260200160002060009054906101000a900460ff1615610a7a576040517f08c379a0000000000000000000000000000000000000000000000000000000008152600401610a7190614e20565b60405180910390fd5b60016036600086815260200190815260200160002060006101000a81548160ff021916908315150217905550603960008273ffffffffffffffffffffffffffffffffffffffff1673ffffffffffffffffffffffffffffffffffffffff16815260200190815260200160002060009055610af161370c565b60358581548110610afe57fe5b90600052602060002090600a0201604051806101400160405290816000820160009054906101000a900473ffffffffffffffffffffffffffffffffffffffff1673ffffffffffffffffffffffffffffffffffffffff1673ffffffffffffffffffffffffffffffffffffffff168152602001600182018054600181600116156101000203166002900480601f016020809104026020016040519081016040528092919081815260200182805460018160011615610100020316600290048015610c075780601f10610bdc57610100808354040283529160200191610c07565b820191906000526020600020905b815481529060010190602001808311610bea57829003601f168201915b505050505081526020016002820160009054906101000a900473ffffffffffffffffffffffffffffffffffffffff1673ffffffffffffffffffffffffffffffffffffffff1673ffffffffffffffffffffffffffffffffffffffff1681526020016003820154815260200160048201548152602001600582015481526020016006820154815260200160078201548152602001600882015481526020016009820154815250509050600073ffffffffffffffffffffffffffffffffffffffff166037600087815260200190815260200160002060009054906101000a900473ffffffffffffffffffffffffffffffffffffffff1673ffffffffffffffffffffffffffffffffffffffff1614610e58576000603860008781526020019081526020016000205490506000811115610e5257600073ffffffffffffffffffffffffffffffffffffffff16603f600088815260200190815260200160002060009054906101000a900473ffffffffffffffffffffffffffffffffffffffff1673ffffffffffffffffffffffffffffffffffffffff161415610dee57816000015173ffffffffffffffffffffffffffffffffffffffff166108fc829081150290604051600060405180830381858888f19350505050158015610de8573d6000803e3d6000fd5b50610e51565b610e50826000015182603f60008a815260200190815260200160002060009054906101000a900473ffffffffffffffffffffffffffffffffffffffff1673ffffffffffffffffffffffffffffffffffffffff166128b59092919063ffffffff16565b5b5b50610f69565b60008161012001511415610ee657806040015173ffffffffffffffffffffffffffffffffffffffff166342842e0e30836000015184606001516040518463ffffffff1660e01b8152600401610eaf93929190614b5b565b600060405180830381600087803b158015610ec957600080fd5b505af1158015610edd573d6000803e3d6000fd5b50505050610f68565b806040015173ffffffffffffffffffffffffffffffffffffffff1663f242432a308360000151846060015185608001516040518563ffffffff1660e01b8152600401610f359493929190614b92565b600060405180830381600087803b158015610f4f57600080fd5b505af1158015610f63573d6000803e3d6000fd5b505050505b5b7fd8138f8a3f377c5259ca548e70e4c2de94f129f5a11036a15b69513cba2b426a8286604051610f9a929190614ad2565b60405180910390a15050505050565b604060009054906101000a900460ff1681565b603b6020528160005260406000208181548110610fd557fe5b90600052602060002001600091509150505481565b6000603460008373ffffffffffffffffffffffffffffffffffffffff168560001c1860001b815260200190815260200160002054905092915050565b81603580549050811061106e576040517f08c379a000000000000000000000000000000000000000000000000000000000815260040161106590614da0565b60405180910390fd5b82426035828154811061107d57fe5b90600052602060002090600a020160080154116110cf576040517f08c379a00000000000000000000000000000000000000000000000000000000081526004016110c690614de0565b60405180910390fd5b60003390506000603586815481106110e357fe5b90600052602060002090600a020190508173ffffffffffffffffffffffffffffffffffffffff168160000160009054906101000a900473ffffffffffffffffffffffffffffffffffffffff1673ffffffffffffffffffffffffffffffffffffffff161415611186576040517f08c379a000000000000000000000000000000000000000000000000000000000815260040161117d90614e60565b60405180910390fd5b60008514156111ca576040517f08c379a00000000000000000000000000000000000000000000000000000000081526004016111c190614ce0565b60405180910390fd5b8060050154851015611211576040517f08c379a000000000000000000000000000000000000000000000000000000000815260040161120890614ea0565b60405180910390fd5b61121a86611f06565b85101561125c576040517f08c379a000000000000000000000000000000000000000000000000000000000815260040161125390614f00565b60405180910390fd5b6000603f600088815260200190815260200160002060009054906101000a900473ffffffffffffffffffffffffffffffffffffffff169050600073ffffffffffffffffffffffffffffffffffffffff168173ffffffffffffffffffffffffffffffffffffffff1614156113105734861461130b576040517f08c379a000000000000000000000000000000000000000000000000000000000815260040161130290614f20565b60405180910390fd5b61136a565b61133d8330888473ffffffffffffffffffffffffffffffffffffffff1661293b909392919063ffffffff16565b6113693060008373ffffffffffffffffffffffffffffffffffffffff166129c49092919063ffffffff16565b5b611381826007015442612b2290919063ffffffff16565b8260080181905550600073ffffffffffffffffffffffffffffffffffffffff166037600089815260200190815260200160002060009054906101000a900473ffffffffffffffffffffffffffffffffffffffff1673ffffffffffffffffffffffffffffffffffffffff161415801561140c575060006038600089815260200190815260200160002054115b1561154b57600073ffffffffffffffffffffffffffffffffffffffff168173ffffffffffffffffffffffffffffffffffffffff1614156114d8576037600088815260200190815260200160002060009054906101000a900473ffffffffffffffffffffffffffffffffffffffff1673ffffffffffffffffffffffffffffffffffffffff166108fc603860008a8152602001908152602001600020549081150290604051600060405180830381858888f193505050501580156114d2573d6000803e3d6000fd5b5061154a565b6115496037600089815260200190815260200160002060009054906101000a900473ffffffffffffffffffffffffffffffffffffffff16603860008a8152602001908152602001600020548373ffffffffffffffffffffffffffffffffffffffff166128b59092919063ffffffff16565b5b5b826037600089815260200190815260200160002060006101000a81548173ffffffffffffffffffffffffffffffffffffffff021916908373ffffffffffffffffffffffffffffffffffffffff1602179055508560386000898152602001908152602001600020819055506001603e60008981526020019081526020016000205401603e600089815260200190815260200160002081905550603b60008473ffffffffffffffffffffffffffffffffffffffff1673ffffffffffffffffffffffffffffffffffffffff16815260200190815260200160002087908060018154018082558091505060019003906000526020600020016000909190919091505585603c60008573ffffffffffffffffffffffffffffffffffffffff1673ffffffffffffffffffffffffffffffffffffffff1681526020019081526020016000206000898152602001908152602001600020819055507f19421268847f42dd61705778018ddfc43bcdce8517e7a630acb12f122c7094818388886040516116d193929190614afb565b60405180910390a150505050505050565b80603580549050811061172a576040517f08c379a000000000000000000000000000000000000000000000000000000000815260040161172190614da0565b60405180910390fd5b81426035828154811061173957fe5b90600052602060002090600a020160080154111561178c576040517f08c379a000000000000000000000000000000000000000000000000000000000815260040161178390614fa0565b60405180910390fd5b60003390508073ffffffffffffffffffffffffffffffffffffffff166037600086815260200190815260200160002060009054906101000a900473ffffffffffffffffffffffffffffffffffffffff1673ffffffffffffffffffffffffffffffffffffffff1614611832576040517f08c379a000000000000000000000000000000000000000000000000000000000815260040161182990614ec0565b60405180910390fd5b603d60008273ffffffffffffffffffffffffffffffffffffffff1673ffffffffffffffffffffffffffffffffffffffff168152602001908152602001600020600085815260200190815260200160002060009054906101000a900460ff16156118d0576040517f08c379a00000000000000000000000000000000000000000000000000000000081526004016118c790614ee0565b60405180910390fd5b6001603d60008373ffffffffffffffffffffffffffffffffffffffff1673ffffffffffffffffffffffffffffffffffffffff168152602001908152602001600020600086815260200190815260200160002060006101000a81548160ff02191690831515021790555061194161370c565b6035858154811061194e57fe5b90600052602060002090600a0201604051806101400160405290816000820160009054906101000a900473ffffffffffffffffffffffffffffffffffffffff1673ffffffffffffffffffffffffffffffffffffffff1673ffffffffffffffffffffffffffffffffffffffff168152602001600182018054600181600116156101000203166002900480601f016020809104026020016040519081016040528092919081815260200182805460018160011615610100020316600290048015611a575780601f10611a2c57610100808354040283529160200191611a57565b820191906000526020600020905b815481529060010190602001808311611a3a57829003601f168201915b505050505081526020016002820160009054906101000a900473ffffffffffffffffffffffffffffffffffffffff1673ffffffffffffffffffffffffffffffffffffffff1673ffffffffffffffffffffffffffffffffffffffff168152602001600382015481526020016004820154815260200160058201548152602001600682015481526020016007820154815260200160088201548152602001600982015481525050905060008161012001511415611b8857806040015173ffffffffffffffffffffffffffffffffffffffff166342842e0e308484606001516040518463ffffffff1660e01b8152600401611b5193929190614b5b565b600060405180830381600087803b158015611b6b57600080fd5b505af1158015611b7f573d6000803e3d6000fd5b50505050611c06565b806040015173ffffffffffffffffffffffffffffffffffffffff1663f242432a3084846060015185608001516040518563ffffffff1660e01b8152600401611bd39493929190614b92565b600060405180830381600087803b158015611bed57600080fd5b505af1158015611c01573d6000803e3d6000fd5b505050505b7fd8138f8a3f377c5259ca548e70e4c2de94f129f5a11036a15b69513cba2b426a8286604051611c37929190614ad2565b60405180910390a15050505050565b60386020528060005260406000206000915090505481565b600060346000838152602001908152602001600020549050919050565b604060009054906101000a900460ff1615611d1d57604160008873ffffffffffffffffffffffffffffffffffffffff1673ffffffffffffffffffffffffffffffffffffffff16815260200190815260200160002060009054906101000a900460ff16611d1c576040517f08c379a0000000000000000000000000000000000000000000000000000000008152600401611d1390614d00565b60405180910390fd5b5b611d2561378b565b6040518060600160405280868152602001858152602001848152509050611d5189898884866001612b77565b600073ffffffffffffffffffffffffffffffffffffffff168773ffffffffffffffffffffffffffffffffffffffff1614611de05786603f6000600160358054905003815260200190815260200160002060006101000a81548173ffffffffffffffffffffffffffffffffffffffff021916908373ffffffffffffffffffffffffffffffffffffffff1602179055505b505050505050505050565b603360009054906101000a900473ffffffffffffffffffffffffffffffffffffffff1673ffffffffffffffffffffffffffffffffffffffff163373ffffffffffffffffffffffffffffffffffffffff1614611e4557600080fd5b600073ffffffffffffffffffffffffffffffffffffffff16603360009054906101000a900473ffffffffffffffffffffffffffffffffffffffff1673ffffffffffffffffffffffffffffffffffffffff167fc7c0c772add429241571afb3805861fb3cfa2af374534088b76cdb4325a87e9a60405160405180910390a36000603360006101000a81548173ffffffffffffffffffffffffffffffffffffffff021916908373ffffffffffffffffffffffffffffffffffffffff160217905550565b6000611f1061370c565b60358381548110611f1d57fe5b90600052602060002090600a0201604051806101400160405290816000820160009054906101000a900473ffffffffffffffffffffffffffffffffffffffff1673ffffffffffffffffffffffffffffffffffffffff1673ffffffffffffffffffffffffffffffffffffffff168152602001600182018054600181600116156101000203166002900480601f0160208091040260200160405190810160405280929190818152602001828054600181600116156101000203166002900480156120265780601f10611ffb57610100808354040283529160200191612026565b820191906000526020600020905b81548152906001019060200180831161200957829003601f168201915b505050505081526020016002820160009054906101000a900473ffffffffffffffffffffffffffffffffffffffff1673ffffffffffffffffffffffffffffffffffffffff1673ffffffffffffffffffffffffffffffffffffffff168152602001600382015481526020016004820154815260200160058201548152602001600682015481526020016007820154815260200160088201548152602001600982015481525050905060008160a001519050600073ffffffffffffffffffffffffffffffffffffffff166037600086815260200190815260200160002060009054906101000a900473ffffffffffffffffffffffffffffffffffffffff1673ffffffffffffffffffffffffffffffffffffffff161461216e576121678260c001516038600087815260200190815260200160002054612b2290919063ffffffff16565b9050612184565b60008260a001511415612183578160c0015190505b5b8092505050919050565b603c602052816000526040600020602052806000526040600020600091509150505481565b600060346000838560001c1860001b815260200190815260200160002054905092915050565b6000603580549050905090565b603a818051602081018201805184825260208301602085012081835280955050505050506000915090505481565b6035818154811061222157fe5b90600052602060002090600a02016000915090508060000160009054906101000a900473ffffffffffffffffffffffffffffffffffffffff1690806001018054600181600116156101000203166002900480601f0160208091040260200160405190810160405280929190818152602001828054600181600116156101000203166002900480156122f35780601f106122c8576101008083540402835291602001916122f3565b820191906000526020600020905b8154815290600101906020018083116122d657829003601f168201915b5050505050908060020160009054906101000a900473ffffffffffffffffffffffffffffffffffffffff1690806003015490806004015490806005015490806006015490806007015490806008015490806009015490508a565b603360009054906101000a900473ffffffffffffffffffffffffffffffffffffffff1673ffffffffffffffffffffffffffffffffffffffff163373ffffffffffffffffffffffffffffffffffffffff16146123a757600080fd5b6123cf8273ffffffffffffffffffffffffffffffffffffffff168460001c1860001b826127f6565b505050565b603360009054906101000a900473ffffffffffffffffffffffffffffffffffffffff1673ffffffffffffffffffffffffffffffffffffffff163373ffffffffffffffffffffffffffffffffffffffff161461242e57600080fd5b61243781613297565b50565b60396020528060005260406000206000915090505481565b600060019054906101000a900460ff16806124715750612470613391565b5b80612487575060008054906101000a900460ff16155b6124c6576040517f08c379a00000000000000000000000000000000000000000000000000000000081526004016124bd90614e80565b60405180910390fd5b60008060019054906101000a900460ff161590508015612516576001600060016101000a81548160ff02191690831515021790555060016000806101000a81548160ff0219169083151502179055505b61251f826133a8565b80156125405760008060016101000a81548160ff0219169083151502179055505b5050565b604060009054906101000a900460ff16156125e657604160008773ffffffffffffffffffffffffffffffffffffffff1673ffffffffffffffffffffffffffffffffffffffff16815260200190815260200160002060009054906101000a900460ff166125e5576040517f08c379a00000000000000000000000000000000000000000000000000000000081526004016125dc90614d00565b60405180910390fd5b5b6000600190506125f461378b565b604051806060016040528083815260200186815260200185815250905061262089898884876000612b77565b600073ffffffffffffffffffffffffffffffffffffffff168773ffffffffffffffffffffffffffffffffffffffff16146126af5786603f6000600160358054905003815260200190815260200160002060006101000a81548173ffffffffffffffffffffffffffffffffffffffff021916908373ffffffffffffffffffffffffffffffffffffffff1602179055505b505050505050505050565b603d6020528160005260406000206020528060005260406000206000915091509054906101000a900460ff1681565b603360009054906101000a900473ffffffffffffffffffffffffffffffffffffffff1673ffffffffffffffffffffffffffffffffffffffff163373ffffffffffffffffffffffffffffffffffffffff161461274357600080fd5b612755828460001c1860001b826127f6565b505050565b60366020528060005260406000206000915054906101000a900460ff1681565b603f6020528060005260406000206000915054906101000a900473ffffffffffffffffffffffffffffffffffffffff1681565b600063f23a6e6160e01b90509695505050505050565b60376020528060005260406000206000915054906101000a900473ffffffffffffffffffffffffffffffffffffffff1681565b80603460008481526020019081526020016000205414612829578060346000848152602001908152602001600020819055505b5050565b60008273ffffffffffffffffffffffffffffffffffffffff166035838154811061285357fe5b90600052602060002090600a020160000160009054906101000a900473ffffffffffffffffffffffffffffffffffffffff1673ffffffffffffffffffffffffffffffffffffffff1614156128aa57600190506128af565b600090505b92915050565b6129368363a9059cbb60e01b84846040516024016128d4929190614c21565b604051602081830303815290604052907bffffffffffffffffffffffffffffffffffffffffffffffffffffffff19166020820180517bffffffffffffffffffffffffffffffffffffffffffffffffffffffff838183161783525050505061354f565b505050565b6129be846323b872dd60e01b85858560405160240161295c93929190614bea565b604051602081830303815290604052907bffffffffffffffffffffffffffffffffffffffffffffffffffffffff19166020820180517bffffffffffffffffffffffffffffffffffffffffffffffffffffffff838183161783525050505061354f565b50505050565b6000811480612a5d575060008373ffffffffffffffffffffffffffffffffffffffff1663dd62ed3e30856040518363ffffffff1660e01b8152600401612a0b929190614b32565b60206040518083038186803b158015612a2357600080fd5b505afa158015612a37573d6000803e3d6000fd5b505050506040513d601f19601f82011682018060405250810190612a5b9190613e1a565b145b612a9c576040517f08c379a0000000000000000000000000000000000000000000000000000000008152600401612a9390614f60565b60405180910390fd5b612b1d8363095ea7b360e01b8484604051602401612abb929190614c21565b604051602081830303815290604052907bffffffffffffffffffffffffffffffffffffffffffffffffffffffff19166020820180517bffffffffffffffffffffffffffffffffffffffffffffffffffffffff838183161783525050505061354f565b505050565b600080828401905083811015612b6d576040517f08c379a0000000000000000000000000000000000000000000000000000000008152600401612b6490614d20565b60405180910390fd5b8091505092915050565b336000603960008373ffffffffffffffffffffffffffffffffffffffff1673ffffffffffffffffffffffffffffffffffffffff168152602001908152602001600020541115612bfb576040517f08c379a0000000000000000000000000000000000000000000000000000000008152600401612bf290614d80565b60405180910390fd5b866000603a82604051612c0e9190614953565b9081526020016040518091039020541115612d355760006001603a83604051612c379190614953565b90815260200160405180910390205403905060006039600060358481548110612c5c57fe5b90600052602060002090600a020160000160009054906101000a900473ffffffffffffffffffffffffffffffffffffffff1673ffffffffffffffffffffffffffffffffffffffff1673ffffffffffffffffffffffffffffffffffffffff16815260200190815260200160002054118015612cf357504260358281548110612cdf57fe5b90600052602060002090600a020160080154115b15612d33576040517f08c379a0000000000000000000000000000000000000000000000000000000008152600401612d2a90614cc0565b60405180910390fd5b505b6000339050600086600060038110612d4957fe5b60200201511415612d8f576040517f08c379a0000000000000000000000000000000000000000000000000000000008152600401612d8690614c80565b60405180910390fd5b600086600260038110612d9e57fe5b60200201511415612de4576040517f08c379a0000000000000000000000000000000000000000000000000000000008152600401612ddb90614e00565b60405180910390fd5b61012c851015612e29576040517f08c379a0000000000000000000000000000000000000000000000000000000008152600401612e2090614ca0565b60405180910390fd5b62015180851115612e6f576040517f08c379a0000000000000000000000000000000000000000000000000000000008152600401612e6690614d40565b60405180910390fd5b600f89511115612eb4576040517f08c379a0000000000000000000000000000000000000000000000000000000008152600401612eab90614e40565b60405180910390fd5b6000841415612f31578773ffffffffffffffffffffffffffffffffffffffff166342842e0e82308a6040518463ffffffff1660e01b8152600401612efa939291906149a0565b600060405180830381600087803b158015612f1457600080fd5b505af1158015612f28573d6000803e3d6000fd5b50505050612fb4565b8773ffffffffffffffffffffffffffffffffffffffff1663f242432a82308a8a600060038110612f5d57fe5b60200201516040518563ffffffff1660e01b8152600401612f8194939291906149d7565b600060405180830381600087803b158015612f9b57600080fd5b505af1158015612faf573d6000803e3d6000fd5b505050505b612fbc61370c565b81816000019073ffffffffffffffffffffffffffffffffffffffff16908173ffffffffffffffffffffffffffffffffffffffff168152505089816020018190525088816040019073ffffffffffffffffffffffffffffffffffffffff16908173ffffffffffffffffffffffffffffffffffffffff1681525050878160600181815250508660006003811061304c57fe5b60200201518160800181815250508660016003811061306757fe5b60200201518160a00181815250508660026003811061308257fe5b60200201518160c0018181525050858160e00181815250506130ad8642612b2290919063ffffffff16565b81610100018181525050848161012001818152505060358190806001815401808255809150506001900390600052602060002090600a020160009091909190915060008201518160000160006101000a81548173ffffffffffffffffffffffffffffffffffffffff021916908373ffffffffffffffffffffffffffffffffffffffff16021790555060208201518160010190805190602001906131519291906137ad565b5060408201518160020160006101000a81548173ffffffffffffffffffffffffffffffffffffffff021916908373ffffffffffffffffffffffffffffffffffffffff160217905550606082015181600301556080820151816004015560a0820151816005015560c0820151816006015560e08201518160070155610100820151816008015561012082015181600901555050603580549050603960008473ffffffffffffffffffffffffffffffffffffffff1673ffffffffffffffffffffffffffffffffffffffff16815260200190815260200160002081905550603580549050603a8b6040516132429190614953565b9081526020016040518091039020819055507ff954cec4f23f2ce67e961171f19fdc38a0b45a2d9ef11bde7c552812060ee5ba816040516132839190614fc0565b60405180910390a150505050505050505050565b600073ffffffffffffffffffffffffffffffffffffffff168173ffffffffffffffffffffffffffffffffffffffff1614156132d157600080fd5b8073ffffffffffffffffffffffffffffffffffffffff16603360009054906101000a900473ffffffffffffffffffffffffffffffffffffffff1673ffffffffffffffffffffffffffffffffffffffff167fc7c0c772add429241571afb3805861fb3cfa2af374534088b76cdb4325a87e9a60405160405180910390a380603360006101000a81548173ffffffffffffffffffffffffffffffffffffffff021916908373ffffffffffffffffffffffffffffffffffffffff16021790555050565b6000803090506000813b9050600081149250505090565b600060019054906101000a900460ff16806133c757506133c6613391565b5b806133dd575060008054906101000a900460ff16155b61341c576040517f08c379a000000000000000000000000000000000000000000000000000000000815260040161341390614e80565b60405180910390fd5b60008060019054906101000a900460ff16159050801561346c576001600060016101000a81548160ff02191690831515021790555060016000806101000a81548160ff0219169083151502179055505b81603360006101000a81548173ffffffffffffffffffffffffffffffffffffffff021916908373ffffffffffffffffffffffffffffffffffffffff160217905550603360009054906101000a900473ffffffffffffffffffffffffffffffffffffffff1673ffffffffffffffffffffffffffffffffffffffff16600073ffffffffffffffffffffffffffffffffffffffff167fc7c0c772add429241571afb3805861fb3cfa2af374534088b76cdb4325a87e9a60405160405180910390a3801561354b5760008060016101000a81548160ff0219169083151502179055505b5050565b61356e8273ffffffffffffffffffffffffffffffffffffffff166136c1565b6135ad576040517f08c379a00000000000000000000000000000000000000000000000000000000081526004016135a490614f80565b60405180910390fd5b600060608373ffffffffffffffffffffffffffffffffffffffff16836040516135d6919061493c565b6000604051808303816000865af19150503d8060008114613613576040519150601f19603f3d011682016040523d82523d6000602084013e613618565b606091505b50915091508161365d576040517f08c379a000000000000000000000000000000000000000000000000000000000815260040161365490614dc0565b60405180910390fd5b6000815111156136bb578080602001905181019061367b9190613ac8565b6136ba576040517f08c379a00000000000000000000000000000000000000000000000000000000081526004016136b190614f40565b60405180910390fd5b5b50505050565b60008060007fc5d2460186f7233c927e7db2dcc703c0e500b653ca82273b7bfad8045d85a47060001b9050833f915080821415801561370357506000801b8214155b92505050919050565b604051806101400160405280600073ffffffffffffffffffffffffffffffffffffffff16815260200160608152602001600073ffffffffffffffffffffffffffffffffffffffff168152602001600081526020016000815260200160008152602001600081526020016000815260200160008152602001600081525090565b6040518060600160405280600390602082028036833780820191505090505090565b828054600181600116156101000203166002900490600052602060002090601f016020900481019282601f106137ee57805160ff191683800117855561381c565b8280016001018555821561381c579182015b8281111561381b578251825591602001919060010190613800565b5b509050613829919061382d565b5090565b5b8082111561384657600081600090555060010161382e565b5090565b600081359050613859816151ce565b92915050565b60008151905061386e816151e5565b92915050565b600081359050613883816151fc565b92915050565b60008083601f84011261389b57600080fd5b8235905067ffffffffffffffff8111156138b457600080fd5b6020830191508360018202830111156138cc57600080fd5b9250929050565b600082601f8301126138e457600080fd5b81356138f76138f28261502a565b614ffd565b9150808252602083016020830185838301111561391357600080fd5b61391e83828461517b565b50505092915050565b60008135905061393681615213565b92915050565b60008151905061394b81615213565b92915050565b60006020828403121561396357600080fd5b60006139718482850161384a565b91505092915050565b60008060008060006080868803121561399257600080fd5b60006139a08882890161384a565b95505060206139b18882890161384a565b94505060406139c288828901613927565b935050606086013567ffffffffffffffff8111156139df57600080fd5b6139eb88828901613889565b92509250509295509295909350565b60008060008060008060a08789031215613a1357600080fd5b6000613a2189828a0161384a565b9650506020613a3289828a0161384a565b9550506040613a4389828a01613927565b9450506060613a5489828a01613927565b935050608087013567ffffffffffffffff811115613a7157600080fd5b613a7d89828a01613889565b92509250509295509295509295565b60008060408385031215613a9f57600080fd5b6000613aad8582860161384a565b9250506020613abe85828601613927565b9150509250929050565b600060208284031215613ada57600080fd5b6000613ae88482850161385f565b91505092915050565b600060208284031215613b0357600080fd5b6000613b1184828501613874565b91505092915050565b60008060408385031215613b2d57600080fd5b6000613b3b85828601613874565b9250506020613b4c8582860161384a565b9150509250929050565b600080600060608486031215613b6b57600080fd5b6000613b7986828701613874565b9350506020613b8a8682870161384a565b9250506040613b9b86828701613927565b9150509250925092565b60008060408385031215613bb857600080fd5b6000613bc685828601613874565b9250506020613bd785828601613927565b9150509250929050565b600080600060608486031215613bf657600080fd5b6000613c0486828701613874565b9350506020613c1586828701613927565b9250506040613c2686828701613927565b9150509250925092565b600060208284031215613c4257600080fd5b600082013567ffffffffffffffff811115613c5c57600080fd5b613c68848285016138d3565b91505092915050565b600080600080600080600060e0888a031215613c8c57600080fd5b600088013567ffffffffffffffff811115613ca657600080fd5b613cb28a828b016138d3565b9750506020613cc38a828b0161384a565b9650506040613cd48a828b0161384a565b9550506060613ce58a828b01613927565b9450506080613cf68a828b01613927565b93505060a0613d078a828b01613927565b92505060c0613d188a828b01613927565b91505092959891949750929550565b600080600080600080600080610100898b031215613d4457600080fd5b600089013567ffffffffffffffff811115613d5e57600080fd5b613d6a8b828c016138d3565b9850506020613d7b8b828c0161384a565b9750506040613d8c8b828c0161384a565b9650506060613d9d8b828c01613927565b9550506080613dae8b828c01613927565b94505060a0613dbf8b828c01613927565b93505060c0613dd08b828c01613927565b92505060e0613de18b828c01613927565b9150509295985092959890939650565b600060208284031215613e0357600080fd5b6000613e1184828501613927565b91505092915050565b600060208284031215613e2c57600080fd5b6000613e3a8482850161393c565b91505092915050565b60008060408385031215613e5657600080fd5b6000613e6485828601613927565b9250506020613e7585828601613927565b9150509250929050565b613e8881615145565b82525050565b613e97816150c7565b82525050565b613ea6816150c7565b82525050565b613eb5816150b5565b82525050565b613ec4816150b5565b82525050565b613ed3816150d9565b82525050565b613ee2816150ef565b82525050565b6000613ef382615056565b613efd818561507d565b9350613f0d81856020860161518a565b80840191505092915050565b6000613f2482615061565b613f2e8185615088565b9350613f3e81856020860161518a565b613f47816151bd565b840191505092915050565b6000613f5d82615061565b613f678185615099565b9350613f7781856020860161518a565b613f80816151bd565b840191505092915050565b6000613f9682615061565b613fa081856150aa565b9350613fb081856020860161518a565b80840191505092915050565b6000613fc9602183615099565b91507f7468652076616c7565206f6620746f6b656e416d6f756e7430206973207a657260008301527f6f000000000000000000000000000000000000000000000000000000000000006020830152604082019050919050565b600061402f602c83615099565b91507f7468652076616c7565206f6620636f6e6669726d54696d65206c65737320746860008301527f616e2035206d696e7574657300000000000000000000000000000000000000006020830152604082019050919050565b6000614095602983615099565b91507f61206c69766520706f6f6c20686173206265656e20637265617465642062792060008301527f74686973206e616d6500000000000000000000000000000000000000000000006020830152604082019050919050565b60006140fb601c83615099565b91507f7468652076616c7565206f6620616d6f756e7431206973207a65726f000000006000830152602082019050919050565b600061413b600e83615099565b91507f696e76616c696420746f6b656e300000000000000000000000000000000000006000830152602082019050919050565b600061417b601b83615099565b91507f536166654d6174683a206164646974696f6e206f766572666c6f7700000000006000830152602082019050919050565b60006141bb602a83615099565b91507f7468652076616c7565206f6620636f6e6669726d54696d65206973206578636560008301527f65646564203120646179000000000000000000000000000000000000000000006020830152604082019050919050565b6000614221601a83615099565b91507f73656e646572206973206e6f7420706f6f6c2063726561746f720000000000006000830152602082019050919050565b6000614261602283615099565b91507f6120706f6f6c206861732063726561746564206279207468697320616464726560008301527f73730000000000000000000000000000000000000000000000000000000000006020830152604082019050919050565b60006142c7601883615099565b91507f7468697320706f6f6c20646f6573206e6f7420657869737400000000000000006000830152602082019050919050565b6000614307602083615099565b91507f5361666545524332303a206c6f772d6c6576656c2063616c6c206661696c65646000830152602082019050919050565b6000614347601383615099565b91507f7468697320706f6f6c20697320636c6f736564000000000000000000000000006000830152602082019050919050565b6000614387602383615099565b91507f7468652076616c7565206f6620616d6f756e744d696e496e637231206973207a60008301527f65726f00000000000000000000000000000000000000000000000000000000006020830152604082019050919050565b60006143ed601d83615099565b91507f63726561746f722068617320636c61696d6564207468697320706f6f6c0000006000830152602082019050919050565b600061442d601e83615099565b91507f746865206c656e677468206f66206e616d6520697320746f6f206c6f6e6700006000830152602082019050919050565b600061446d602a83615099565b91507f63726561746f722063616e2774206269642074686520706f6f6c20637265617460008301527f65642062792073656c66000000000000000000000000000000000000000000006020830152604082019050919050565b60006144d3602e83615099565b91507f436f6e747261637420696e7374616e63652068617320616c726561647920626560008301527f656e20696e697469616c697a65640000000000000000000000000000000000006020830152604082019050919050565b6000614539603283615099565b91507f7468652062696420616d6f756e74206973206c6f776572207468616e206d696e60008301527f696d756d2062696464657220616d6f756e7400000000000000000000000000006020830152604082019050919050565b600061459f60008361506c565b9150600082019050919050565b60006145b9602583615099565b91507f73656e646572206973206e6f74207468652077696e6e6572206f66207468697360008301527f20706f6f6c0000000000000000000000000000000000000000000000000000006020830152604082019050919050565b600061461f601c83615099565b91507f73656e6465722068617320636c61696d6564207468697320706f6f6c000000006000830152602082019050919050565b600061465f603683615099565b91507f7468652062696420616d6f756e74206973206c6f776572207468616e2074686560008301527f2063757272656e742062696464657220616d6f756e74000000000000000000006020830152604082019050919050565b60006146c5601283615099565b91507f696e76616c69642045544820616d6f756e7400000000000000000000000000006000830152602082019050919050565b6000614705602a83615099565b91507f5361666545524332303a204552433230206f7065726174696f6e20646964206e60008301527f6f742073756363656564000000000000000000000000000000000000000000006020830152604082019050919050565b600061476b603683615099565b91507f5361666545524332303a20617070726f76652066726f6d206e6f6e2d7a65726f60008301527f20746f206e6f6e2d7a65726f20616c6c6f77616e6365000000000000000000006020830152604082019050919050565b60006147d1601f83615099565b91507f5361666545524332303a2063616c6c20746f206e6f6e2d636f6e7472616374006000830152602082019050919050565b6000614811601783615099565b91507f7468697320706f6f6c206973206e6f7420636c6f7365640000000000000000006000830152602082019050919050565b60006101408301600083015161485d6000860182613e8e565b50602083015184820360208601526148758282613f19565b915050604083015161488a6040860182613eac565b50606083015161489d606086018261491e565b5060808301516148b0608086018261491e565b5060a08301516148c360a086018261491e565b5060c08301516148d660c086018261491e565b5060e08301516148e960e086018261491e565b506101008301516148fe61010086018261491e565b5061012083015161491361012086018261491e565b508091505092915050565b6149278161513b565b82525050565b6149368161513b565b82525050565b60006149488284613ee8565b915081905092915050565b600061495f8284613f8b565b915081905092915050565b600060208201905061497f6000830184613ebb565b92915050565b600060208201905061499a6000830184613e9d565b92915050565b60006060820190506149b56000830186613e7f565b6149c26020830185613ebb565b6149cf604083018461492d565b949350505050565b600060a0820190506149ec6000830187613e7f565b6149f96020830186613ebb565b614a06604083018561492d565b614a13606083018461492d565b8181036080830152614a2481614592565b905095945050505050565b600061014082019050614a45600083018d613e9d565b8181036020830152614a57818c613f52565b9050614a66604083018b613ebb565b614a73606083018a61492d565b614a80608083018961492d565b614a8d60a083018861492d565b614a9a60c083018761492d565b614aa760e083018661492d565b614ab561010083018561492d565b614ac361012083018461492d565b9b9a5050505050505050505050565b6000604082019050614ae76000830185613e7f565b614af4602083018461492d565b9392505050565b6000606082019050614b106000830186613e7f565b614b1d602083018561492d565b614b2a604083018461492d565b949350505050565b6000604082019050614b476000830185613ebb565b614b546020830184613ebb565b9392505050565b6000606082019050614b706000830186613ebb565b614b7d6020830185613e7f565b614b8a604083018461492d565b949350505050565b600060a082019050614ba76000830187613ebb565b614bb46020830186613e7f565b614bc1604083018561492d565b614bce606083018461492d565b8181036080830152614bdf81614592565b905095945050505050565b6000606082019050614bff6000830186613ebb565b614c0c6020830185613ebb565b614c19604083018461492d565b949350505050565b6000604082019050614c366000830185613ebb565b614c43602083018461492d565b9392505050565b6000602082019050614c5f6000830184613eca565b92915050565b6000602082019050614c7a6000830184613ed9565b92915050565b60006020820190508181036000830152614c9981613fbc565b9050919050565b60006020820190508181036000830152614cb981614022565b9050919050565b60006020820190508181036000830152614cd981614088565b9050919050565b60006020820190508181036000830152614cf9816140ee565b9050919050565b60006020820190508181036000830152614d198161412e565b9050919050565b60006020820190508181036000830152614d398161416e565b9050919050565b60006020820190508181036000830152614d59816141ae565b9050919050565b60006020820190508181036000830152614d7981614214565b9050919050565b60006020820190508181036000830152614d9981614254565b9050919050565b60006020820190508181036000830152614db9816142ba565b9050919050565b60006020820190508181036000830152614dd9816142fa565b9050919050565b60006020820190508181036000830152614df98161433a565b9050919050565b60006020820190508181036000830152614e198161437a565b9050919050565b60006020820190508181036000830152614e39816143e0565b9050919050565b60006020820190508181036000830152614e5981614420565b9050919050565b60006020820190508181036000830152614e7981614460565b9050919050565b60006020820190508181036000830152614e99816144c6565b9050919050565b60006020820190508181036000830152614eb98161452c565b9050919050565b60006020820190508181036000830152614ed9816145ac565b9050919050565b60006020820190508181036000830152614ef981614612565b9050919050565b60006020820190508181036000830152614f1981614652565b9050919050565b60006020820190508181036000830152614f39816146b8565b9050919050565b60006020820190508181036000830152614f59816146f8565b9050919050565b60006020820190508181036000830152614f798161475e565b9050919050565b60006020820190508181036000830152614f99816147c4565b9050919050565b60006020820190508181036000830152614fb981614804565b9050919050565b60006020820190508181036000830152614fda8184614844565b905092915050565b6000602082019050614ff7600083018461492d565b92915050565b6000604051905081810181811067ffffffffffffffff8211171561502057600080fd5b8060405250919050565b600067ffffffffffffffff82111561504157600080fd5b601f19601f8301169050602081019050919050565b600081519050919050565b600081519050919050565b600082825260208201905092915050565b600081905092915050565b600082825260208201905092915050565b600082825260208201905092915050565b600081905092915050565b60006150c08261511b565b9050919050565b60006150d28261511b565b9050919050565b60008115159050919050565b6000819050919050565b60007fffffffff0000000000000000000000000000000000000000000000000000000082169050919050565b600073ffffffffffffffffffffffffffffffffffffffff82169050919050565b6000819050919050565b600061515082615157565b9050919050565b600061516282615169565b9050919050565b60006151748261511b565b9050919050565b82818337600083830152505050565b60005b838110156151a857808201518184015260208101905061518d565b838111156151b7576000848401525b50505050565b6000601f19601f8301169050919050565b6151d7816150b5565b81146151e257600080fd5b50565b6151ee816150d9565b81146151f957600080fd5b50565b615205816150e5565b811461521057600080fd5b50565b61521c8161513b565b811461522757600080fd5b5056fea2646970667358221220dd25ebdf19371f614b966ee95604edf8cd99e6027ae7e96c13c124521448379164736f6c634300060c0033",
  "compiler": {
    "name": "solc",
    "version": "0.6.12+commit.27d51765.Emscripten.clang",
    "optimizer": {
      "enabled": false,
      "runs": 200
    },
    "evmVersion": "petersburg"
  }
}