{
  "fileName": "EnglishAuctionNFT.sol",
  "contractName": "EnglishAuctionNFT",
  "source": "// SPDX-License-Identifier: MIT\n\npragma solidity ^0.6.0;\npragma experimental ABIEncoderV2;\n\nimport \"@openzeppelin/contracts-ethereum-package/contracts/math/SafeMath.sol\";\nimport \"@openzeppelin/contracts-ethereum-package/contracts/token/ERC20/SafeERC20.sol\";\nimport \"@openzeppelin/contracts-ethereum-package/contracts/token/ERC20/IERC20.sol\";\nimport \"@openzeppelin/contracts-ethereum-package/contracts/token/ERC721/IERC721.sol\";\nimport \"@openzeppelin/contracts-ethereum-package/contracts/token/ERC721/IERC721Receiver.sol\";\nimport \"./Governable.sol\";\nimport \"./interfaces/IERC1155.sol\";\n\ncontract EnglishAuctionNFT is Configurable, IERC721Receiver {\n    using SafeMath for uint256;\n    using SafeERC20 for IERC20;\n\n    uint    internal constant TypeErc721                = 0;\n    uint    internal constant TypeErc1155               = 1;\n    address internal constant DeadAddress               = 0x000000000000000000000000000000000000dEaD;\n    address internal constant UniSwapContract           = 0x7a250d5630B4cF539739dF2C5dAcb4c659F2488D;\n\n    struct Pool {\n        // address of pool creator\n        address payable creator;\n        // pool name\n        string name;\n        // address of sell token\n        address token0;\n        // token id of token0\n        uint tokenId;\n        // amount of token id of token0\n        uint tokenAmount0;\n        // minimum amount of ETH that creator want to swap\n        uint amountMin1;\n        // minimum incremental amount of token1\n        uint amountMinIncr1;\n        // how many seconds the pool will be live since last bid\n        uint confirmTime;\n        // the timestamp in seconds the pool will be closed\n        uint closeAt;\n        // NFT token type\n        uint nftType;\n    }\n\n    Pool[] public pools;\n\n    // pool index => a flag that if creator is claimed the pool\n    mapping(uint => bool) public creatorClaimedP;\n    // pool index => the candidate of winner who bid the highest amount1 in current round\n    mapping(uint => address payable) public currentBidderP;\n    // pool index => the highest amount1 in current round\n    mapping(uint => uint) public currentBidderAmount1P;\n\n    // creator address => pool index + 1. if the result is 0, the account don't create any pool.\n    mapping(address => uint) public myCreatedP;\n    // name => pool index + 1\n    mapping(string => uint) public myNameP;\n\n    // account => array of pool index\n    mapping(address => uint[]) public myBidP;\n    // account => pool index => bid amount1\n    mapping(address => mapping(uint => uint)) public myBidderAmount1P;\n    // account => pool index => claim flag\n    mapping(address => mapping(uint => bool)) public myClaimedP;\n\n    // pool index => bid count; v1.15.0\n    mapping(uint => uint) public bidCountP;\n    // pool index => address of buy token; v1.16.0\n    mapping(uint => address) public token1P;\n\n    // check if token0 in whitelist\n    bool public checkToken0;\n    // token0 address => true or false\n    mapping(address => bool) public token0List;\n\n    event Created(Pool pool);\n    event Bid(address sender, uint index, uint amount1);\n    event Claimed(address sender, uint index);\n\n    function initialize(address _governor) public override initializer {\n        super.initialize(_governor);\n    }\n\n    function createErc721(\n        // name of the pool\n        string memory name,\n        // address of token0\n        address token0,\n        // address of token1\n        address token1,\n        // token id of token0\n        uint tokenId,\n        // minimum amount of token1\n        uint amountMin1,\n        // minimum incremental amount of token1\n        uint amountMinIncr1,\n        // confirmation time\n        uint confirmTime\n    ) external payable {\n        if (checkToken0) {\n            require(token0List[token0], \"invalid token0\");\n        }\n        uint tokenAmount0 = 1;\n        uint[3] memory amounts = [tokenAmount0, amountMin1, amountMinIncr1];\n        _create(name, token0, tokenId, amounts, confirmTime, TypeErc721);\n        if (token1 != address(0)) {\n            token1P[pools.length-1] = token1;\n        }\n    }\n\n    function createErc1155(\n        // name of the pool\n        string memory name,\n        // address of token0\n        address token0,\n        // address of token1\n        address token1,\n        // token id of token0\n        uint tokenId,\n        // amount of token id of token0\n        uint tokenAmount0,\n        // minimum amount of token1\n        uint amountMin1,\n        // minimum incremental amount of token1\n        uint amountMinIncr1,\n        // confirmation time\n        uint confirmTime\n    ) external payable {\n        if (checkToken0) {\n            require(token0List[token0], \"invalid token0\");\n        }\n        uint[3] memory amounts = [tokenAmount0, amountMin1, amountMinIncr1];\n        _create(name, token0, tokenId, amounts, confirmTime, TypeErc1155);\n        if (token1 != address(0)) {\n            token1P[pools.length-1] = token1;\n        }\n    }\n\n    function _create(\n        // name of the pool\n        string memory name,\n        // address of token0\n        address token0,\n        // token id of token0\n        uint tokenId,\n        // 0: uint tokenAmount0, amount of token id of token0\n        // 1: uint amountMin1, minimum amount of token1\n        // 2: uint amountMinIncr1, minimum incremental amount of token1\n        uint[3] memory amounts,\n        // confirmation time\n        uint confirmTime,\n        // NFT token type\n        uint nftType\n    ) private\n        isPoolNotCreate(msg.sender)\n        nameNotBeenToken(name)\n    {\n        address payable creator = msg.sender;\n\n        require(amounts[0] != 0, \"the value of tokenAmount0 is zero\");\n        require(amounts[2] != 0, \"the value of amountMinIncr1 is zero\");\n        require(confirmTime >= 5 minutes, \"the value of confirmTime less than 5 minutes\");\n        require(confirmTime <= 1 days, \"the value of confirmTime is exceeded 1 day\");\n        require(bytes(name).length <= 15, \"the length of name is too long\");\n\n        // transfer tokenId of token0 to this contract\n        if (nftType == TypeErc721) {\n            IERC721(token0).safeTransferFrom(creator, address(this), tokenId);\n        } else {\n            IERC1155(token0).safeTransferFrom(creator, address(this), tokenId, amounts[0], \"\");\n        }\n\n        // creator pool\n        Pool memory pool;\n        pool.creator = creator;\n        pool.name = name;\n        pool.token0 = token0;\n        pool.tokenId = tokenId;\n        pool.tokenAmount0 = amounts[0];\n        pool.amountMin1 = amounts[1];\n        pool.amountMinIncr1 = amounts[2];\n        pool.confirmTime = confirmTime;\n        pool.closeAt = now.add(confirmTime);\n        pool.nftType = nftType;\n\n        pools.push(pool);\n        myCreatedP[creator] = pools.length;\n        myNameP[name] = pools.length;\n\n        emit Created(pool);\n    }\n\n    function bid(\n        // pool index\n        uint index,\n        // amount of token1\n        uint amount1\n    ) external payable\n        isPoolExist(index)\n        isPoolNotClosed(index)\n    {\n        address payable sender = msg.sender;\n\n        Pool storage pool = pools[index];\n        require(pool.creator != sender, \"creator can't bid the pool created by self\");\n        require(amount1 != 0, \"the value of amount1 is zero\");\n        require(amount1 >= pool.amountMin1, \"the bid amount is lower than minimum bidder amount\");\n\n        require(amount1 >= currentBidderAmount(index), \"the bid amount is lower than the current bidder amount\");\n\n        address token1 = token1P[index];\n        if (token1 == address(0)) {\n            require(amount1 == msg.value, \"invalid ETH amount\");\n        } else {\n            IERC20(token1).safeTransferFrom(sender, address(this), amount1);\n            IERC20(token1).safeApprove(address(this), 0);\n        }\n\n        // update closeAt\n        pool.closeAt = now.add(pool.confirmTime);\n\n        // return ETH to previous bidder\n        if (currentBidderP[index] != address(0) && currentBidderAmount1P[index] > 0) {\n            if (token1 == address(0)) {\n                currentBidderP[index].transfer(currentBidderAmount1P[index]);\n            } else {\n                IERC20(token1).safeTransfer(currentBidderP[index], currentBidderAmount1P[index]);\n            }\n        }\n\n        // record new winner\n        currentBidderP[index] = sender;\n        currentBidderAmount1P[index] = amount1;\n        bidCountP[index] = bidCountP[index] + 1;\n\n        myBidP[sender].push(index);\n        myBidderAmount1P[sender][index] = amount1;\n\n        emit Bid(sender, index, amount1);\n    }\n\n    function creatorClaim(uint index) external\n        isPoolExist(index)\n        isPoolClosed(index)\n    {\n        address payable sender = msg.sender;\n        require(isCreator(sender, index), \"sender is not pool creator\");\n        require(!creatorClaimedP[index], \"creator has claimed this pool\");\n\n        _creatorClaim(index);\n\n        if (currentBidderP[index] != address(0)) {\n            address bidder = currentBidderP[index];\n            if (!myClaimedP[bidder][index]) {\n                _bidderClaim(bidder, index);\n            }\n        }\n    }\n\n    function bidderClaim(uint index) external\n        isPoolExist(index)\n        isPoolClosed(index)\n    {\n        address payable sender = msg.sender;\n        require(currentBidderP[index] == sender, \"sender is not the winner of this pool\");\n        require(!myClaimedP[sender][index], \"sender has claimed this pool\");\n\n        _bidderClaim(sender, index);\n\n        if (!creatorClaimedP[index]) {\n            _creatorClaim(index);\n        }\n    }\n\n    function _creatorClaim(uint index) internal {\n        creatorClaimedP[index] = true;\n        Pool memory pool = pools[index];\n\n        // remove ownership of this pool from creator\n        delete myCreatedP[pool.creator];\n\n        if (currentBidderP[index] != address(0)) {\n            uint amount1 = currentBidderAmount1P[index];\n            if (amount1 > 0) {\n                if (token1P[index] == address(0)) {\n                    // transfer ETH to creator\n                    pool.creator.transfer(amount1);\n                } else {\n                    IERC20(token1P[index]).safeTransfer(pool.creator, amount1);\n                }\n            }\n        } else {\n            // transfer token0 back to creator\n            if (pool.nftType == TypeErc721) {\n                IERC721(pool.token0).safeTransferFrom(address(this), pool.creator, pool.tokenId);\n            } else {\n                IERC1155(pool.token0).safeTransferFrom(address(this), pool.creator, pool.tokenId, pool.tokenAmount0, \"\");\n            }\n        }\n\n        emit Claimed(pool.creator, index);\n    }\n\n    function _bidderClaim(address sender, uint index) internal {\n        myClaimedP[sender][index] = true;\n\n        // transfer token0 to bidder\n        Pool memory pool = pools[index];\n        if (pool.nftType == TypeErc721) {\n            IERC721(pool.token0).safeTransferFrom(address(this), sender, pool.tokenId);\n        } else {\n            IERC1155(pool.token0).safeTransferFrom(address(this), sender, pool.tokenId, pool.tokenAmount0, \"\");\n        }\n\n        emit Claimed(sender, index);\n    }\n\n    function onERC721Received(address, address, uint256, bytes calldata) external override returns (bytes4) {\n        return this.onERC721Received.selector;\n    }\n\n    function onERC1155Received(address, address, uint256, uint256, bytes calldata) external returns(bytes4) {\n        return this.onERC1155Received.selector;\n    }\n\n    function getPoolCount() external view returns (uint) {\n        return pools.length;\n    }\n\n    function currentBidderAmount(uint index) public view returns (uint) {\n        Pool memory pool = pools[index];\n        uint amount = pool.amountMin1;\n\n        if (currentBidderP[index] != address(0)) {\n            amount = currentBidderAmount1P[index].add(pool.amountMinIncr1);\n        } else if (pool.amountMin1 == 0) {\n            amount = pool.amountMinIncr1;\n        }\n\n        return amount;\n    }\n\n    function isCreator(address target, uint index) private view returns (bool) {\n        if (pools[index].creator == target) {\n            return true;\n        }\n        return false;\n    }\n\n    modifier isPoolClosed(uint index) {\n        require(pools[index].closeAt <= now, \"this pool is not closed\");\n        _;\n    }\n\n    modifier isPoolNotClosed(uint index) {\n        require(pools[index].closeAt > now, \"this pool is closed\");\n        _;\n    }\n\n    modifier isPoolNotCreate(address creator) {\n        if (myCreatedP[creator] > 0) {\n            revert(\"a pool has created by this address\");\n        }\n        _;\n    }\n\n    modifier isPoolExist(uint index) {\n        require(index < pools.length, \"this pool does not exist\");\n        _;\n    }\n\n    modifier nameNotBeenToken(string memory name) {\n        // check if someone has take this name\n        if (myNameP[name] > 0) {\n            uint index = myNameP[name] - 1;\n            if ((myCreatedP[pools[index].creator] > 0) && (pools[index].closeAt > now)) {\n                revert(\"a live pool has been created by this name\");\n            }\n        }\n        _;\n    }\n}\n",
  "sourcePath": "contracts/EnglishAuctionNFT.sol",
  "abi": [
    {
      "anonymous": false,
      "inputs": [
        {
          "indexed": false,
          "internalType": "address",
          "name": "sender",
          "type": "address"
        },
        {
          "indexed": false,
          "internalType": "uint256",
          "name": "index",
          "type": "uint256"
        },
        {
          "indexed": false,
          "internalType": "uint256",
          "name": "amount1",
          "type": "uint256"
        }
      ],
      "name": "Bid",
      "type": "event"
    },
    {
      "anonymous": false,
      "inputs": [
        {
          "indexed": false,
          "internalType": "address",
          "name": "sender",
          "type": "address"
        },
        {
          "indexed": false,
          "internalType": "uint256",
          "name": "index",
          "type": "uint256"
        }
      ],
      "name": "Claimed",
      "type": "event"
    },
    {
      "anonymous": false,
      "inputs": [
        {
          "components": [
            {
              "internalType": "address payable",
              "name": "creator",
              "type": "address"
            },
            {
              "internalType": "string",
              "name": "name",
              "type": "string"
            },
            {
              "internalType": "address",
              "name": "token0",
              "type": "address"
            },
            {
              "internalType": "uint256",
              "name": "tokenId",
              "type": "uint256"
            },
            {
              "internalType": "uint256",
              "name": "tokenAmount0",
              "type": "uint256"
            },
            {
              "internalType": "uint256",
              "name": "amountMin1",
              "type": "uint256"
            },
            {
              "internalType": "uint256",
              "name": "amountMinIncr1",
              "type": "uint256"
            },
            {
              "internalType": "uint256",
              "name": "confirmTime",
              "type": "uint256"
            },
            {
              "internalType": "uint256",
              "name": "closeAt",
              "type": "uint256"
            },
            {
              "internalType": "uint256",
              "name": "nftType",
              "type": "uint256"
            }
          ],
          "indexed": false,
          "internalType": "struct EnglishAuctionNFT.Pool",
          "name": "pool",
          "type": "tuple"
        }
      ],
      "name": "Created",
      "type": "event"
    },
    {
      "anonymous": false,
      "inputs": [
        {
          "indexed": true,
          "internalType": "address",
          "name": "previousGovernor",
          "type": "address"
        },
        {
          "indexed": true,
          "internalType": "address",
          "name": "newGovernor",
          "type": "address"
        }
      ],
      "name": "GovernorshipTransferred",
      "type": "event"
    },
    {
      "inputs": [
        {
          "internalType": "uint256",
          "name": "index",
          "type": "uint256"
        },
        {
          "internalType": "uint256",
          "name": "amount1",
          "type": "uint256"
        }
      ],
      "name": "bid",
      "outputs": [],
      "stateMutability": "payable",
      "type": "function"
    },
    {
      "inputs": [
        {
          "internalType": "uint256",
          "name": "",
          "type": "uint256"
        }
      ],
      "name": "bidCountP",
      "outputs": [
        {
          "internalType": "uint256",
          "name": "",
          "type": "uint256"
        }
      ],
      "stateMutability": "view",
      "type": "function"
    },
    {
      "inputs": [
        {
          "internalType": "uint256",
          "name": "index",
          "type": "uint256"
        }
      ],
      "name": "bidderClaim",
      "outputs": [],
      "stateMutability": "nonpayable",
      "type": "function"
    },
    {
      "inputs": [],
      "name": "checkToken0",
      "outputs": [
        {
          "internalType": "bool",
          "name": "",
          "type": "bool"
        }
      ],
      "stateMutability": "view",
      "type": "function"
    },
    {
      "inputs": [
        {
          "internalType": "string",
          "name": "name",
          "type": "string"
        },
        {
          "internalType": "address",
          "name": "token0",
          "type": "address"
        },
        {
          "internalType": "address",
          "name": "token1",
          "type": "address"
        },
        {
          "internalType": "uint256",
          "name": "tokenId",
          "type": "uint256"
        },
        {
          "internalType": "uint256",
          "name": "tokenAmount0",
          "type": "uint256"
        },
        {
          "internalType": "uint256",
          "name": "amountMin1",
          "type": "uint256"
        },
        {
          "internalType": "uint256",
          "name": "amountMinIncr1",
          "type": "uint256"
        },
        {
          "internalType": "uint256",
          "name": "confirmTime",
          "type": "uint256"
        }
      ],
      "name": "createErc1155",
      "outputs": [],
      "stateMutability": "payable",
      "type": "function"
    },
    {
      "inputs": [
        {
          "internalType": "string",
          "name": "name",
          "type": "string"
        },
        {
          "internalType": "address",
          "name": "token0",
          "type": "address"
        },
        {
          "internalType": "address",
          "name": "token1",
          "type": "address"
        },
        {
          "internalType": "uint256",
          "name": "tokenId",
          "type": "uint256"
        },
        {
          "internalType": "uint256",
          "name": "amountMin1",
          "type": "uint256"
        },
        {
          "internalType": "uint256",
          "name": "amountMinIncr1",
          "type": "uint256"
        },
        {
          "internalType": "uint256",
          "name": "confirmTime",
          "type": "uint256"
        }
      ],
      "name": "createErc721",
      "outputs": [],
      "stateMutability": "payable",
      "type": "function"
    },
    {
      "inputs": [
        {
          "internalType": "uint256",
          "name": "index",
          "type": "uint256"
        }
      ],
      "name": "creatorClaim",
      "outputs": [],
      "stateMutability": "nonpayable",
      "type": "function"
    },
    {
      "inputs": [
        {
          "internalType": "uint256",
          "name": "",
          "type": "uint256"
        }
      ],
      "name": "creatorClaimedP",
      "outputs": [
        {
          "internalType": "bool",
          "name": "",
          "type": "bool"
        }
      ],
      "stateMutability": "view",
      "type": "function"
    },
    {
      "inputs": [
        {
          "internalType": "uint256",
          "name": "index",
          "type": "uint256"
        }
      ],
      "name": "currentBidderAmount",
      "outputs": [
        {
          "internalType": "uint256",
          "name": "",
          "type": "uint256"
        }
      ],
      "stateMutability": "view",
      "type": "function"
    },
    {
      "inputs": [
        {
          "internalType": "uint256",
          "name": "",
          "type": "uint256"
        }
      ],
      "name": "currentBidderAmount1P",
      "outputs": [
        {
          "internalType": "uint256",
          "name": "",
          "type": "uint256"
        }
      ],
      "stateMutability": "view",
      "type": "function"
    },
    {
      "inputs": [
        {
          "internalType": "uint256",
          "name": "",
          "type": "uint256"
        }
      ],
      "name": "currentBidderP",
      "outputs": [
        {
          "internalType": "address payable",
          "name": "",
          "type": "address"
        }
      ],
      "stateMutability": "view",
      "type": "function"
    },
    {
      "inputs": [
        {
          "internalType": "bytes32",
          "name": "key",
          "type": "bytes32"
        },
        {
          "internalType": "address",
          "name": "addr",
          "type": "address"
        }
      ],
      "name": "getConfig",
      "outputs": [
        {
          "internalType": "uint256",
          "name": "",
          "type": "uint256"
        }
      ],
      "stateMutability": "view",
      "type": "function"
    },
    {
      "inputs": [
        {
          "internalType": "bytes32",
          "name": "key",
          "type": "bytes32"
        }
      ],
      "name": "getConfig",
      "outputs": [
        {
          "internalType": "uint256",
          "name": "",
          "type": "uint256"
        }
      ],
      "stateMutability": "view",
      "type": "function"
    },
    {
      "inputs": [
        {
          "internalType": "bytes32",
          "name": "key",
          "type": "bytes32"
        },
        {
          "internalType": "uint256",
          "name": "index",
          "type": "uint256"
        }
      ],
      "name": "getConfig",
      "outputs": [
        {
          "internalType": "uint256",
          "name": "",
          "type": "uint256"
        }
      ],
      "stateMutability": "view",
      "type": "function"
    },
    {
      "inputs": [],
      "name": "getPoolCount",
      "outputs": [
        {
          "internalType": "uint256",
          "name": "",
          "type": "uint256"
        }
      ],
      "stateMutability": "view",
      "type": "function"
    },
    {
      "inputs": [],
      "name": "governor",
      "outputs": [
        {
          "internalType": "address",
          "name": "",
          "type": "address"
        }
      ],
      "stateMutability": "view",
      "type": "function"
    },
    {
      "inputs": [
        {
          "internalType": "address",
          "name": "_governor",
          "type": "address"
        }
      ],
      "name": "initialize",
      "outputs": [],
      "stateMutability": "nonpayable",
      "type": "function"
    },
    {
      "inputs": [
        {
          "internalType": "address",
          "name": "",
          "type": "address"
        },
        {
          "internalType": "uint256",
          "name": "",
          "type": "uint256"
        }
      ],
      "name": "myBidP",
      "outputs": [
        {
          "internalType": "uint256",
          "name": "",
          "type": "uint256"
        }
      ],
      "stateMutability": "view",
      "type": "function"
    },
    {
      "inputs": [
        {
          "internalType": "address",
          "name": "",
          "type": "address"
        },
        {
          "internalType": "uint256",
          "name": "",
          "type": "uint256"
        }
      ],
      "name": "myBidderAmount1P",
      "outputs": [
        {
          "internalType": "uint256",
          "name": "",
          "type": "uint256"
        }
      ],
      "stateMutability": "view",
      "type": "function"
    },
    {
      "inputs": [
        {
          "internalType": "address",
          "name": "",
          "type": "address"
        },
        {
          "internalType": "uint256",
          "name": "",
          "type": "uint256"
        }
      ],
      "name": "myClaimedP",
      "outputs": [
        {
          "internalType": "bool",
          "name": "",
          "type": "bool"
        }
      ],
      "stateMutability": "view",
      "type": "function"
    },
    {
      "inputs": [
        {
          "internalType": "address",
          "name": "",
          "type": "address"
        }
      ],
      "name": "myCreatedP",
      "outputs": [
        {
          "internalType": "uint256",
          "name": "",
          "type": "uint256"
        }
      ],
      "stateMutability": "view",
      "type": "function"
    },
    {
      "inputs": [
        {
          "internalType": "string",
          "name": "",
          "type": "string"
        }
      ],
      "name": "myNameP",
      "outputs": [
        {
          "internalType": "uint256",
          "name": "",
          "type": "uint256"
        }
      ],
      "stateMutability": "view",
      "type": "function"
    },
    {
      "inputs": [
        {
          "internalType": "address",
          "name": "",
          "type": "address"
        },
        {
          "internalType": "address",
          "name": "",
          "type": "address"
        },
        {
          "internalType": "uint256",
          "name": "",
          "type": "uint256"
        },
        {
          "internalType": "uint256",
          "name": "",
          "type": "uint256"
        },
        {
          "internalType": "bytes",
          "name": "",
          "type": "bytes"
        }
      ],
      "name": "onERC1155Received",
      "outputs": [
        {
          "internalType": "bytes4",
          "name": "",
          "type": "bytes4"
        }
      ],
      "stateMutability": "nonpayable",
      "type": "function"
    },
    {
      "inputs": [
        {
          "internalType": "address",
          "name": "",
          "type": "address"
        },
        {
          "internalType": "address",
          "name": "",
          "type": "address"
        },
        {
          "internalType": "uint256",
          "name": "",
          "type": "uint256"
        },
        {
          "internalType": "bytes",
          "name": "",
          "type": "bytes"
        }
      ],
      "name": "onERC721Received",
      "outputs": [
        {
          "internalType": "bytes4",
          "name": "",
          "type": "bytes4"
        }
      ],
      "stateMutability": "nonpayable",
      "type": "function"
    },
    {
      "inputs": [
        {
          "internalType": "uint256",
          "name": "",
          "type": "uint256"
        }
      ],
      "name": "pools",
      "outputs": [
        {
          "internalType": "address payable",
          "name": "creator",
          "type": "address"
        },
        {
          "internalType": "string",
          "name": "name",
          "type": "string"
        },
        {
          "internalType": "address",
          "name": "token0",
          "type": "address"
        },
        {
          "internalType": "uint256",
          "name": "tokenId",
          "type": "uint256"
        },
        {
          "internalType": "uint256",
          "name": "tokenAmount0",
          "type": "uint256"
        },
        {
          "internalType": "uint256",
          "name": "amountMin1",
          "type": "uint256"
        },
        {
          "internalType": "uint256",
          "name": "amountMinIncr1",
          "type": "uint256"
        },
        {
          "internalType": "uint256",
          "name": "confirmTime",
          "type": "uint256"
        },
        {
          "internalType": "uint256",
          "name": "closeAt",
          "type": "uint256"
        },
        {
          "internalType": "uint256",
          "name": "nftType",
          "type": "uint256"
        }
      ],
      "stateMutability": "view",
      "type": "function"
    },
    {
      "inputs": [],
      "name": "renounceGovernorship",
      "outputs": [],
      "stateMutability": "nonpayable",
      "type": "function"
    },
    {
      "inputs": [
        {
          "internalType": "bytes32",
          "name": "key",
          "type": "bytes32"
        },
        {
          "internalType": "uint256",
          "name": "value",
          "type": "uint256"
        }
      ],
      "name": "setConfig",
      "outputs": [],
      "stateMutability": "nonpayable",
      "type": "function"
    },
    {
      "inputs": [
        {
          "internalType": "bytes32",
          "name": "key",
          "type": "bytes32"
        },
        {
          "internalType": "address",
          "name": "addr",
          "type": "address"
        },
        {
          "internalType": "uint256",
          "name": "value",
          "type": "uint256"
        }
      ],
      "name": "setConfig",
      "outputs": [],
      "stateMutability": "nonpayable",
      "type": "function"
    },
    {
      "inputs": [
        {
          "internalType": "bytes32",
          "name": "key",
          "type": "bytes32"
        },
        {
          "internalType": "uint256",
          "name": "index",
          "type": "uint256"
        },
        {
          "internalType": "uint256",
          "name": "value",
          "type": "uint256"
        }
      ],
      "name": "setConfig",
      "outputs": [],
      "stateMutability": "nonpayable",
      "type": "function"
    },
    {
      "inputs": [
        {
          "internalType": "address",
          "name": "",
          "type": "address"
        }
      ],
      "name": "token0List",
      "outputs": [
        {
          "internalType": "bool",
          "name": "",
          "type": "bool"
        }
      ],
      "stateMutability": "view",
      "type": "function"
    },
    {
      "inputs": [
        {
          "internalType": "uint256",
          "name": "",
          "type": "uint256"
        }
      ],
      "name": "token1P",
      "outputs": [
        {
          "internalType": "address",
          "name": "",
          "type": "address"
        }
      ],
      "stateMutability": "view",
      "type": "function"
    },
    {
      "inputs": [
        {
          "internalType": "address",
          "name": "newGovernor",
          "type": "address"
        }
      ],
      "name": "transferGovernorship",
      "outputs": [],
      "stateMutability": "nonpayable",
      "type": "function"
    }
  ],
  "bytecode": "0x608060405234801561001057600080fd5b50615417806100206000396000f3fe6080604052600436106101e35760003560e01c80638d32b65811610102578063c4d66de811610095578063e87ba7aa11610064578063e87ba7aa14610752578063ef5135ed1461078f578063f23a6e61146107cc578063f5639ff514610809576101e3565b8063c4d66de8146106a7578063c9ed5f41146106d0578063d286bea5146106ec578063ddf2be3f14610729576101e3565b8063ac4afa38116100d1578063ac4afa38146105d2578063b21544f314610618578063b6aa515b14610641578063bbe7180d1461066a576101e3565b80638d32b658146104f05780638ec872e31461052d5780638eec5d701461056a5780639d6ce84b14610595576101e3565b806352665f471161017a5780636dd5b69d116101495780636dd5b69d146104435780637852fbe01461048057806381c0c2631461049c5780638695f2d2146104b3576101e3565b806352665f4714610384578063598647f8146103c157806360de1d61146103dd57806364cc79bd14610406576101e3565b806329dbd098116101b657806329dbd098146102b65780632ad540ed146102f35780632ca77bf81461031c578063507a0a3d14610347576101e3565b80630c340a24146101e8578063150b7a021461021357806315fe96dc1461025057806329a65f8f14610279575b600080fd5b3480156101f457600080fd5b506101fd610846565b60405161020a9190614ac9565b60405180910390f35b34801561021f57600080fd5b5061023a60048036038101906102359190613ad9565b61086c565b6040516102479190614e1c565b60405180910390f35b34801561025c57600080fd5b5061027760048036038101906102729190613d04565b610881565b005b34801561028557600080fd5b506102a0600480360381019061029b9190613f50565b6108e9565b6040516102ad9190615199565b60405180910390f35b3480156102c257600080fd5b506102dd60048036038101906102d89190613ab0565b610901565b6040516102ea9190614e01565b60405180910390f35b3480156102ff57600080fd5b5061031a60048036038101906103159190613f50565b610921565b005b34801561032857600080fd5b50610331610b97565b60405161033e9190614e01565b60405180910390f35b34801561035357600080fd5b5061036e60048036038101906103699190613beb565b610baa565b60405161037b9190615199565b60405180910390f35b34801561039057600080fd5b506103ab60048036038101906103a69190613c79565b610bd8565b6040516103b89190615199565b60405180910390f35b6103db60048036038101906103d69190613fa2565b610c14565b005b3480156103e957600080fd5b5061040460048036038101906103ff9190613f50565b6112d0565b005b34801561041257600080fd5b5061042d60048036038101906104289190613f50565b6114fd565b60405161043a9190615199565b60405180910390f35b34801561044f57600080fd5b5061046a60048036038101906104659190613c50565b611515565b6040516104779190615199565b60405180910390f35b61049a60048036038101906104959190613e86565b611532565b005b3480156104a857600080fd5b506104b16116a2565b005b3480156104bf57600080fd5b506104da60048036038101906104d59190613f50565b6117bd565b6040516104e79190615199565b60405180910390f35b3480156104fc57600080fd5b5061051760048036038101906105129190613beb565b611a45565b6040516105249190615199565b60405180910390f35b34801561053957600080fd5b50610554600480360381019061054f9190613d04565b611a6a565b6040516105619190615199565b60405180910390f35b34801561057657600080fd5b5061057f611a90565b60405161058c9190615199565b60405180910390f35b3480156105a157600080fd5b506105bc60048036038101906105b79190613d8f565b611a9d565b6040516105c99190615199565b60405180910390f35b3480156105de57600080fd5b506105f960048036038101906105f49190613f50565b611acb565b60405161060f9a99989796959493929190614b8e565b60405180910390f35b34801561062457600080fd5b5061063f600480360381019061063a9190613cb5565b611c04565b005b34801561064d57600080fd5b5061066860048036038101906106639190613ab0565b611c8b565b005b34801561067657600080fd5b50610691600480360381019061068c9190613ab0565b611cf1565b60405161069e9190615199565b60405180910390f35b3480156106b357600080fd5b506106ce60048036038101906106c99190613ab0565b611d09565b005b6106ea60048036038101906106e59190613dd0565b611dfb565b005b3480156106f857600080fd5b50610713600480360381019061070e9190613beb565b611f71565b6040516107209190614e01565b60405180910390f35b34801561073557600080fd5b50610750600480360381019061074b9190613d40565b611fa0565b005b34801561075e57600080fd5b5061077960048036038101906107749190613f50565b612011565b6040516107869190614e01565b60405180910390f35b34801561079b57600080fd5b506107b660048036038101906107b19190613f50565b612031565b6040516107c39190614ac9565b60405180910390f35b3480156107d857600080fd5b506107f360048036038101906107ee9190613b59565b612064565b6040516108009190614e1c565b60405180910390f35b34801561081557600080fd5b50610830600480360381019061082b9190613f50565b61207a565b60405161083d9190614ae4565b60405180910390f35b603360009054906101000a900473ffffffffffffffffffffffffffffffffffffffff1681565b600063150b7a0260e01b905095945050505050565b603360009054906101000a900473ffffffffffffffffffffffffffffffffffffffff1673ffffffffffffffffffffffffffffffffffffffff163373ffffffffffffffffffffffffffffffffffffffff16146108db57600080fd5b6108e582826120ad565b5050565b603e6020528060005260406000206000915090505481565b60416020528060005260406000206000915054906101000a900460ff1681565b806035805490508110610969576040517f08c379a000000000000000000000000000000000000000000000000000000000815260040161096090614f57565b60405180910390fd5b81426035828154811061097857fe5b90600052602060002090600a02016008015411156109cb576040517f08c379a00000000000000000000000000000000000000000000000000000000081526004016109c290615157565b60405180910390fd5b60003390506109da81856120e4565b610a19576040517f08c379a0000000000000000000000000000000000000000000000000000000008152600401610a1090614f17565b60405180910390fd5b6036600085815260200190815260200160002060009054906101000a900460ff1615610a7a576040517f08c379a0000000000000000000000000000000000000000000000000000000008152600401610a7190614fd7565b60405180910390fd5b610a838461216c565b600073ffffffffffffffffffffffffffffffffffffffff166037600086815260200190815260200160002060009054906101000a900473ffffffffffffffffffffffffffffffffffffffff1673ffffffffffffffffffffffffffffffffffffffff1614610b915760006037600086815260200190815260200160002060009054906101000a900473ffffffffffffffffffffffffffffffffffffffff169050603d60008273ffffffffffffffffffffffffffffffffffffffff1673ffffffffffffffffffffffffffffffffffffffff168152602001908152602001600020600086815260200190815260200160002060009054906101000a900460ff16610b8f57610b8e81866126a0565b5b505b50505050565b604060009054906101000a900460ff1681565b603b6020528160005260406000208181548110610bc357fe5b90600052602060002001600091509150505481565b6000603460008373ffffffffffffffffffffffffffffffffffffffff168560001c1860001b815260200190815260200160002054905092915050565b816035805490508110610c5c576040517f08c379a0000000000000000000000000000000000000000000000000000000008152600401610c5390614f57565b60405180910390fd5b824260358281548110610c6b57fe5b90600052602060002090600a02016008015411610cbd576040517f08c379a0000000000000000000000000000000000000000000000000000000008152600401610cb490614f97565b60405180910390fd5b6000339050600060358681548110610cd157fe5b90600052602060002090600a020190508173ffffffffffffffffffffffffffffffffffffffff168160000160009054906101000a900473ffffffffffffffffffffffffffffffffffffffff1673ffffffffffffffffffffffffffffffffffffffff161415610d74576040517f08c379a0000000000000000000000000000000000000000000000000000000008152600401610d6b90615017565b60405180910390fd5b6000851415610db8576040517f08c379a0000000000000000000000000000000000000000000000000000000008152600401610daf90614e97565b60405180910390fd5b8060050154851015610dff576040517f08c379a0000000000000000000000000000000000000000000000000000000008152600401610df690615057565b60405180910390fd5b610e08866117bd565b851015610e4a576040517f08c379a0000000000000000000000000000000000000000000000000000000008152600401610e41906150b7565b60405180910390fd5b6000603f600088815260200190815260200160002060009054906101000a900473ffffffffffffffffffffffffffffffffffffffff169050600073ffffffffffffffffffffffffffffffffffffffff168173ffffffffffffffffffffffffffffffffffffffff161415610efe57348614610ef9576040517f08c379a0000000000000000000000000000000000000000000000000000000008152600401610ef0906150d7565b60405180910390fd5b610f58565b610f2b8330888473ffffffffffffffffffffffffffffffffffffffff16612a14909392919063ffffffff16565b610f573060008373ffffffffffffffffffffffffffffffffffffffff16612a9d9092919063ffffffff16565b5b610f6f826007015442612bfb90919063ffffffff16565b8260080181905550600073ffffffffffffffffffffffffffffffffffffffff166037600089815260200190815260200160002060009054906101000a900473ffffffffffffffffffffffffffffffffffffffff1673ffffffffffffffffffffffffffffffffffffffff1614158015610ffa575060006038600089815260200190815260200160002054115b1561113957600073ffffffffffffffffffffffffffffffffffffffff168173ffffffffffffffffffffffffffffffffffffffff1614156110c6576037600088815260200190815260200160002060009054906101000a900473ffffffffffffffffffffffffffffffffffffffff1673ffffffffffffffffffffffffffffffffffffffff166108fc603860008a8152602001908152602001600020549081150290604051600060405180830381858888f193505050501580156110c0573d6000803e3d6000fd5b50611138565b6111376037600089815260200190815260200160002060009054906101000a900473ffffffffffffffffffffffffffffffffffffffff16603860008a8152602001908152602001600020548373ffffffffffffffffffffffffffffffffffffffff16612c509092919063ffffffff16565b5b5b826037600089815260200190815260200160002060006101000a81548173ffffffffffffffffffffffffffffffffffffffff021916908373ffffffffffffffffffffffffffffffffffffffff1602179055508560386000898152602001908152602001600020819055506001603e60008981526020019081526020016000205401603e600089815260200190815260200160002081905550603b60008473ffffffffffffffffffffffffffffffffffffffff1673ffffffffffffffffffffffffffffffffffffffff16815260200190815260200160002087908060018154018082558091505060019003906000526020600020016000909190919091505585603c60008573ffffffffffffffffffffffffffffffffffffffff1673ffffffffffffffffffffffffffffffffffffffff1681526020019081526020016000206000898152602001908152602001600020819055507f19421268847f42dd61705778018ddfc43bcdce8517e7a630acb12f122c7094818388886040516112bf93929190614c5a565b60405180910390a150505050505050565b806035805490508110611318576040517f08c379a000000000000000000000000000000000000000000000000000000000815260040161130f90614f57565b60405180910390fd5b81426035828154811061132757fe5b90600052602060002090600a020160080154111561137a576040517f08c379a000000000000000000000000000000000000000000000000000000000815260040161137190615157565b60405180910390fd5b60003390508073ffffffffffffffffffffffffffffffffffffffff166037600086815260200190815260200160002060009054906101000a900473ffffffffffffffffffffffffffffffffffffffff1673ffffffffffffffffffffffffffffffffffffffff1614611420576040517f08c379a000000000000000000000000000000000000000000000000000000000815260040161141790615077565b60405180910390fd5b603d60008273ffffffffffffffffffffffffffffffffffffffff1673ffffffffffffffffffffffffffffffffffffffff168152602001908152602001600020600085815260200190815260200160002060009054906101000a900460ff16156114be576040517f08c379a00000000000000000000000000000000000000000000000000000000081526004016114b590615097565b60405180910390fd5b6114c881856126a0565b6036600085815260200190815260200160002060009054906101000a900460ff166114f7576114f68461216c565b5b50505050565b60386020528060005260406000206000915090505481565b600060346000838152602001908152602001600020549050919050565b604060009054906101000a900460ff16156115d457604160008873ffffffffffffffffffffffffffffffffffffffff1673ffffffffffffffffffffffffffffffffffffffff16815260200190815260200160002060009054906101000a900460ff166115d3576040517f08c379a00000000000000000000000000000000000000000000000000000000081526004016115ca90614eb7565b60405180910390fd5b5b6115dc61386b565b604051806060016040528086815260200185815260200184815250905061160889898884866001612cd6565b600073ffffffffffffffffffffffffffffffffffffffff168773ffffffffffffffffffffffffffffffffffffffff16146116975786603f6000600160358054905003815260200190815260200160002060006101000a81548173ffffffffffffffffffffffffffffffffffffffff021916908373ffffffffffffffffffffffffffffffffffffffff1602179055505b505050505050505050565b603360009054906101000a900473ffffffffffffffffffffffffffffffffffffffff1673ffffffffffffffffffffffffffffffffffffffff163373ffffffffffffffffffffffffffffffffffffffff16146116fc57600080fd5b600073ffffffffffffffffffffffffffffffffffffffff16603360009054906101000a900473ffffffffffffffffffffffffffffffffffffffff1673ffffffffffffffffffffffffffffffffffffffff167fc7c0c772add429241571afb3805861fb3cfa2af374534088b76cdb4325a87e9a60405160405180910390a36000603360006101000a81548173ffffffffffffffffffffffffffffffffffffffff021916908373ffffffffffffffffffffffffffffffffffffffff160217905550565b60006117c761388d565b603583815481106117d457fe5b90600052602060002090600a0201604051806101400160405290816000820160009054906101000a900473ffffffffffffffffffffffffffffffffffffffff1673ffffffffffffffffffffffffffffffffffffffff1673ffffffffffffffffffffffffffffffffffffffff168152602001600182018054600181600116156101000203166002900480601f0160208091040260200160405190810160405280929190818152602001828054600181600116156101000203166002900480156118dd5780601f106118b2576101008083540402835291602001916118dd565b820191906000526020600020905b8154815290600101906020018083116118c057829003601f168201915b505050505081526020016002820160009054906101000a900473ffffffffffffffffffffffffffffffffffffffff1673ffffffffffffffffffffffffffffffffffffffff1673ffffffffffffffffffffffffffffffffffffffff168152602001600382015481526020016004820154815260200160058201548152602001600682015481526020016007820154815260200160088201548152602001600982015481525050905060008160a001519050600073ffffffffffffffffffffffffffffffffffffffff166037600086815260200190815260200160002060009054906101000a900473ffffffffffffffffffffffffffffffffffffffff1673ffffffffffffffffffffffffffffffffffffffff1614611a2557611a1e8260c001516038600087815260200190815260200160002054612bfb90919063ffffffff16565b9050611a3b565b60008260a001511415611a3a578160c0015190505b5b8092505050919050565b603c602052816000526040600020602052806000526040600020600091509150505481565b600060346000838560001c1860001b815260200190815260200160002054905092915050565b6000603580549050905090565b603a818051602081018201805184825260208301602085012081835280955050505050506000915090505481565b60358181548110611ad857fe5b90600052602060002090600a02016000915090508060000160009054906101000a900473ffffffffffffffffffffffffffffffffffffffff1690806001018054600181600116156101000203166002900480601f016020809104026020016040519081016040528092919081815260200182805460018160011615610100020316600290048015611baa5780601f10611b7f57610100808354040283529160200191611baa565b820191906000526020600020905b815481529060010190602001808311611b8d57829003601f168201915b5050505050908060020160009054906101000a900473ffffffffffffffffffffffffffffffffffffffff1690806003015490806004015490806005015490806006015490806007015490806008015490806009015490508a565b603360009054906101000a900473ffffffffffffffffffffffffffffffffffffffff1673ffffffffffffffffffffffffffffffffffffffff163373ffffffffffffffffffffffffffffffffffffffff1614611c5e57600080fd5b611c868273ffffffffffffffffffffffffffffffffffffffff168460001c1860001b826120ad565b505050565b603360009054906101000a900473ffffffffffffffffffffffffffffffffffffffff1673ffffffffffffffffffffffffffffffffffffffff163373ffffffffffffffffffffffffffffffffffffffff1614611ce557600080fd5b611cee816133f6565b50565b60396020528060005260406000206000915090505481565b600060019054906101000a900460ff1680611d285750611d276134f0565b5b80611d3e575060008054906101000a900460ff16155b611d7d576040517f08c379a0000000000000000000000000000000000000000000000000000000008152600401611d7490615037565b60405180910390fd5b60008060019054906101000a900460ff161590508015611dcd576001600060016101000a81548160ff02191690831515021790555060016000806101000a81548160ff0219169083151502179055505b611dd682613507565b8015611df75760008060016101000a81548160ff0219169083151502179055505b5050565b604060009054906101000a900460ff1615611e9d57604160008773ffffffffffffffffffffffffffffffffffffffff1673ffffffffffffffffffffffffffffffffffffffff16815260200190815260200160002060009054906101000a900460ff16611e9c576040517f08c379a0000000000000000000000000000000000000000000000000000000008152600401611e9390614eb7565b60405180910390fd5b5b600060019050611eab61386b565b6040518060600160405280838152602001868152602001858152509050611ed789898884876000612cd6565b600073ffffffffffffffffffffffffffffffffffffffff168773ffffffffffffffffffffffffffffffffffffffff1614611f665786603f6000600160358054905003815260200190815260200160002060006101000a81548173ffffffffffffffffffffffffffffffffffffffff021916908373ffffffffffffffffffffffffffffffffffffffff1602179055505b505050505050505050565b603d6020528160005260406000206020528060005260406000206000915091509054906101000a900460ff1681565b603360009054906101000a900473ffffffffffffffffffffffffffffffffffffffff1673ffffffffffffffffffffffffffffffffffffffff163373ffffffffffffffffffffffffffffffffffffffff1614611ffa57600080fd5b61200c828460001c1860001b826120ad565b505050565b60366020528060005260406000206000915054906101000a900460ff1681565b603f6020528060005260406000206000915054906101000a900473ffffffffffffffffffffffffffffffffffffffff1681565b600063f23a6e6160e01b90509695505050505050565b60376020528060005260406000206000915054906101000a900473ffffffffffffffffffffffffffffffffffffffff1681565b806034600084815260200190815260200160002054146120e0578060346000848152602001908152602001600020819055505b5050565b60008273ffffffffffffffffffffffffffffffffffffffff166035838154811061210a57fe5b90600052602060002090600a020160000160009054906101000a900473ffffffffffffffffffffffffffffffffffffffff1673ffffffffffffffffffffffffffffffffffffffff1614156121615760019050612166565b600090505b92915050565b60016036600083815260200190815260200160002060006101000a81548160ff0219169083151502179055506121a061388d565b603582815481106121ad57fe5b90600052602060002090600a0201604051806101400160405290816000820160009054906101000a900473ffffffffffffffffffffffffffffffffffffffff1673ffffffffffffffffffffffffffffffffffffffff1673ffffffffffffffffffffffffffffffffffffffff168152602001600182018054600181600116156101000203166002900480601f0160208091040260200160405190810160405280929190818152602001828054600181600116156101000203166002900480156122b65780601f1061228b576101008083540402835291602001916122b6565b820191906000526020600020905b81548152906001019060200180831161229957829003601f168201915b505050505081526020016002820160009054906101000a900473ffffffffffffffffffffffffffffffffffffffff1673ffffffffffffffffffffffffffffffffffffffff1673ffffffffffffffffffffffffffffffffffffffff168152602001600382015481526020016004820154815260200160058201548152602001600682015481526020016007820154815260200160088201548152602001600982015481525050905060396000826000015173ffffffffffffffffffffffffffffffffffffffff1673ffffffffffffffffffffffffffffffffffffffff16815260200190815260200160002060009055600073ffffffffffffffffffffffffffffffffffffffff166037600084815260200190815260200160002060009054906101000a900473ffffffffffffffffffffffffffffffffffffffff1673ffffffffffffffffffffffffffffffffffffffff161461254e57600060386000848152602001908152602001600020549050600081111561254857600073ffffffffffffffffffffffffffffffffffffffff16603f600085815260200190815260200160002060009054906101000a900473ffffffffffffffffffffffffffffffffffffffff1673ffffffffffffffffffffffffffffffffffffffff1614156124e457816000015173ffffffffffffffffffffffffffffffffffffffff166108fc829081150290604051600060405180830381858888f193505050501580156124de573d6000803e3d6000fd5b50612547565b612546826000015182603f600087815260200190815260200160002060009054906101000a900473ffffffffffffffffffffffffffffffffffffffff1673ffffffffffffffffffffffffffffffffffffffff16612c509092919063ffffffff16565b5b5b5061265f565b600081610120015114156125dc57806040015173ffffffffffffffffffffffffffffffffffffffff166342842e0e30836000015184606001516040518463ffffffff1660e01b81526004016125a593929190614cba565b600060405180830381600087803b1580156125bf57600080fd5b505af11580156125d3573d6000803e3d6000fd5b5050505061265e565b806040015173ffffffffffffffffffffffffffffffffffffffff1663f242432a308360000151846060015185608001516040518563ffffffff1660e01b815260040161262b9493929190614cf1565b600060405180830381600087803b15801561264557600080fd5b505af1158015612659573d6000803e3d6000fd5b505050505b5b7fd8138f8a3f377c5259ca548e70e4c2de94f129f5a11036a15b69513cba2b426a816000015183604051612694929190614c31565b60405180910390a15050565b6001603d60008473ffffffffffffffffffffffffffffffffffffffff1673ffffffffffffffffffffffffffffffffffffffff168152602001908152602001600020600083815260200190815260200160002060006101000a81548160ff02191690831515021790555061271161388d565b6035828154811061271e57fe5b90600052602060002090600a0201604051806101400160405290816000820160009054906101000a900473ffffffffffffffffffffffffffffffffffffffff1673ffffffffffffffffffffffffffffffffffffffff1673ffffffffffffffffffffffffffffffffffffffff168152602001600182018054600181600116156101000203166002900480601f0160208091040260200160405190810160405280929190818152602001828054600181600116156101000203166002900480156128275780601f106127fc57610100808354040283529160200191612827565b820191906000526020600020905b81548152906001019060200180831161280a57829003601f168201915b505050505081526020016002820160009054906101000a900473ffffffffffffffffffffffffffffffffffffffff1673ffffffffffffffffffffffffffffffffffffffff1673ffffffffffffffffffffffffffffffffffffffff16815260200160038201548152602001600482015481526020016005820154815260200160068201548152602001600782015481526020016008820154815260200160098201548152505090506000816101200151141561295857806040015173ffffffffffffffffffffffffffffffffffffffff166342842e0e308584606001516040518463ffffffff1660e01b815260040161292193929190614d49565b600060405180830381600087803b15801561293b57600080fd5b505af115801561294f573d6000803e3d6000fd5b505050506129d6565b806040015173ffffffffffffffffffffffffffffffffffffffff1663f242432a3085846060015185608001516040518563ffffffff1660e01b81526004016129a39493929190614d80565b600060405180830381600087803b1580156129bd57600080fd5b505af11580156129d1573d6000803e3d6000fd5b505050505b7fd8138f8a3f377c5259ca548e70e4c2de94f129f5a11036a15b69513cba2b426a8383604051612a07929190614dd8565b60405180910390a1505050565b612a97846323b872dd60e01b858585604051602401612a3593929190614d49565b604051602081830303815290604052907bffffffffffffffffffffffffffffffffffffffffffffffffffffffff19166020820180517bffffffffffffffffffffffffffffffffffffffffffffffffffffffff83818316178352505050506136ae565b50505050565b6000811480612b36575060008373ffffffffffffffffffffffffffffffffffffffff1663dd62ed3e30856040518363ffffffff1660e01b8152600401612ae4929190614c91565b60206040518083038186803b158015612afc57600080fd5b505afa158015612b10573d6000803e3d6000fd5b505050506040513d601f19601f82011682018060405250810190612b349190613f79565b145b612b75576040517f08c379a0000000000000000000000000000000000000000000000000000000008152600401612b6c90615117565b60405180910390fd5b612bf68363095ea7b360e01b8484604051602401612b94929190614dd8565b604051602081830303815290604052907bffffffffffffffffffffffffffffffffffffffffffffffffffffffff19166020820180517bffffffffffffffffffffffffffffffffffffffffffffffffffffffff83818316178352505050506136ae565b505050565b600080828401905083811015612c46576040517f08c379a0000000000000000000000000000000000000000000000000000000008152600401612c3d90614ed7565b60405180910390fd5b8091505092915050565b612cd18363a9059cbb60e01b8484604051602401612c6f929190614dd8565b604051602081830303815290604052907bffffffffffffffffffffffffffffffffffffffffffffffffffffffff19166020820180517bffffffffffffffffffffffffffffffffffffffffffffffffffffffff83818316178352505050506136ae565b505050565b336000603960008373ffffffffffffffffffffffffffffffffffffffff1673ffffffffffffffffffffffffffffffffffffffff168152602001908152602001600020541115612d5a576040517f08c379a0000000000000000000000000000000000000000000000000000000008152600401612d5190614f37565b60405180910390fd5b866000603a82604051612d6d9190614ab2565b9081526020016040518091039020541115612e945760006001603a83604051612d969190614ab2565b90815260200160405180910390205403905060006039600060358481548110612dbb57fe5b90600052602060002090600a020160000160009054906101000a900473ffffffffffffffffffffffffffffffffffffffff1673ffffffffffffffffffffffffffffffffffffffff1673ffffffffffffffffffffffffffffffffffffffff16815260200190815260200160002054118015612e5257504260358281548110612e3e57fe5b90600052602060002090600a020160080154115b15612e92576040517f08c379a0000000000000000000000000000000000000000000000000000000008152600401612e8990614e77565b60405180910390fd5b505b6000339050600086600060038110612ea857fe5b60200201511415612eee576040517f08c379a0000000000000000000000000000000000000000000000000000000008152600401612ee590614e37565b60405180910390fd5b600086600260038110612efd57fe5b60200201511415612f43576040517f08c379a0000000000000000000000000000000000000000000000000000000008152600401612f3a90614fb7565b60405180910390fd5b61012c851015612f88576040517f08c379a0000000000000000000000000000000000000000000000000000000008152600401612f7f90614e57565b60405180910390fd5b62015180851115612fce576040517f08c379a0000000000000000000000000000000000000000000000000000000008152600401612fc590614ef7565b60405180910390fd5b600f89511115613013576040517f08c379a000000000000000000000000000000000000000000000000000000000815260040161300a90614ff7565b60405180910390fd5b6000841415613090578773ffffffffffffffffffffffffffffffffffffffff166342842e0e82308a6040518463ffffffff1660e01b815260040161305993929190614aff565b600060405180830381600087803b15801561307357600080fd5b505af1158015613087573d6000803e3d6000fd5b50505050613113565b8773ffffffffffffffffffffffffffffffffffffffff1663f242432a82308a8a6000600381106130bc57fe5b60200201516040518563ffffffff1660e01b81526004016130e09493929190614b36565b600060405180830381600087803b1580156130fa57600080fd5b505af115801561310e573d6000803e3d6000fd5b505050505b61311b61388d565b81816000019073ffffffffffffffffffffffffffffffffffffffff16908173ffffffffffffffffffffffffffffffffffffffff168152505089816020018190525088816040019073ffffffffffffffffffffffffffffffffffffffff16908173ffffffffffffffffffffffffffffffffffffffff168152505087816060018181525050866000600381106131ab57fe5b6020020151816080018181525050866001600381106131c657fe5b60200201518160a0018181525050866002600381106131e157fe5b60200201518160c0018181525050858160e001818152505061320c8642612bfb90919063ffffffff16565b81610100018181525050848161012001818152505060358190806001815401808255809150506001900390600052602060002090600a020160009091909190915060008201518160000160006101000a81548173ffffffffffffffffffffffffffffffffffffffff021916908373ffffffffffffffffffffffffffffffffffffffff16021790555060208201518160010190805190602001906132b092919061390c565b5060408201518160020160006101000a81548173ffffffffffffffffffffffffffffffffffffffff021916908373ffffffffffffffffffffffffffffffffffffffff160217905550606082015181600301556080820151816004015560a0820151816005015560c0820151816006015560e08201518160070155610100820151816008015561012082015181600901555050603580549050603960008473ffffffffffffffffffffffffffffffffffffffff1673ffffffffffffffffffffffffffffffffffffffff16815260200190815260200160002081905550603580549050603a8b6040516133a19190614ab2565b9081526020016040518091039020819055507ff954cec4f23f2ce67e961171f19fdc38a0b45a2d9ef11bde7c552812060ee5ba816040516133e29190615177565b60405180910390a150505050505050505050565b600073ffffffffffffffffffffffffffffffffffffffff168173ffffffffffffffffffffffffffffffffffffffff16141561343057600080fd5b8073ffffffffffffffffffffffffffffffffffffffff16603360009054906101000a900473ffffffffffffffffffffffffffffffffffffffff1673ffffffffffffffffffffffffffffffffffffffff167fc7c0c772add429241571afb3805861fb3cfa2af374534088b76cdb4325a87e9a60405160405180910390a380603360006101000a81548173ffffffffffffffffffffffffffffffffffffffff021916908373ffffffffffffffffffffffffffffffffffffffff16021790555050565b6000803090506000813b9050600081149250505090565b600060019054906101000a900460ff168061352657506135256134f0565b5b8061353c575060008054906101000a900460ff16155b61357b576040517f08c379a000000000000000000000000000000000000000000000000000000000815260040161357290615037565b60405180910390fd5b60008060019054906101000a900460ff1615905080156135cb576001600060016101000a81548160ff02191690831515021790555060016000806101000a81548160ff0219169083151502179055505b81603360006101000a81548173ffffffffffffffffffffffffffffffffffffffff021916908373ffffffffffffffffffffffffffffffffffffffff160217905550603360009054906101000a900473ffffffffffffffffffffffffffffffffffffffff1673ffffffffffffffffffffffffffffffffffffffff16600073ffffffffffffffffffffffffffffffffffffffff167fc7c0c772add429241571afb3805861fb3cfa2af374534088b76cdb4325a87e9a60405160405180910390a380156136aa5760008060016101000a81548160ff0219169083151502179055505b5050565b6136cd8273ffffffffffffffffffffffffffffffffffffffff16613820565b61370c576040517f08c379a000000000000000000000000000000000000000000000000000000000815260040161370390615137565b60405180910390fd5b600060608373ffffffffffffffffffffffffffffffffffffffff16836040516137359190614a9b565b6000604051808303816000865af19150503d8060008114613772576040519150601f19603f3d011682016040523d82523d6000602084013e613777565b606091505b5091509150816137bc576040517f08c379a00000000000000000000000000000000000000000000000000000000081526004016137b390614f77565b60405180910390fd5b60008151111561381a57808060200190518101906137da9190613c27565b613819576040517f08c379a0000000000000000000000000000000000000000000000000000000008152600401613810906150f7565b60405180910390fd5b5b50505050565b60008060007fc5d2460186f7233c927e7db2dcc703c0e500b653ca82273b7bfad8045d85a47060001b9050833f915080821415801561386257506000801b8214155b92505050919050565b6040518060600160405280600390602082028036833780820191505090505090565b604051806101400160405280600073ffffffffffffffffffffffffffffffffffffffff16815260200160608152602001600073ffffffffffffffffffffffffffffffffffffffff168152602001600081526020016000815260200160008152602001600081526020016000815260200160008152602001600081525090565b828054600181600116156101000203166002900490600052602060002090601f016020900481019282601f1061394d57805160ff191683800117855561397b565b8280016001018555821561397b579182015b8281111561397a57825182559160200191906001019061395f565b5b509050613988919061398c565b5090565b5b808211156139a557600081600090555060010161398d565b5090565b6000813590506139b881615385565b92915050565b6000815190506139cd8161539c565b92915050565b6000813590506139e2816153b3565b92915050565b60008083601f8401126139fa57600080fd5b8235905067ffffffffffffffff811115613a1357600080fd5b602083019150836001820283011115613a2b57600080fd5b9250929050565b600082601f830112613a4357600080fd5b8135613a56613a51826151e1565b6151b4565b91508082526020830160208301858383011115613a7257600080fd5b613a7d838284615332565b50505092915050565b600081359050613a95816153ca565b92915050565b600081519050613aaa816153ca565b92915050565b600060208284031215613ac257600080fd5b6000613ad0848285016139a9565b91505092915050565b600080600080600060808688031215613af157600080fd5b6000613aff888289016139a9565b9550506020613b10888289016139a9565b9450506040613b2188828901613a86565b935050606086013567ffffffffffffffff811115613b3e57600080fd5b613b4a888289016139e8565b92509250509295509295909350565b60008060008060008060a08789031215613b7257600080fd5b6000613b8089828a016139a9565b9650506020613b9189828a016139a9565b9550506040613ba289828a01613a86565b9450506060613bb389828a01613a86565b935050608087013567ffffffffffffffff811115613bd057600080fd5b613bdc89828a016139e8565b92509250509295509295509295565b60008060408385031215613bfe57600080fd5b6000613c0c858286016139a9565b9250506020613c1d85828601613a86565b9150509250929050565b600060208284031215613c3957600080fd5b6000613c47848285016139be565b91505092915050565b600060208284031215613c6257600080fd5b6000613c70848285016139d3565b91505092915050565b60008060408385031215613c8c57600080fd5b6000613c9a858286016139d3565b9250506020613cab858286016139a9565b9150509250929050565b600080600060608486031215613cca57600080fd5b6000613cd8868287016139d3565b9350506020613ce9868287016139a9565b9250506040613cfa86828701613a86565b9150509250925092565b60008060408385031215613d1757600080fd5b6000613d25858286016139d3565b9250506020613d3685828601613a86565b9150509250929050565b600080600060608486031215613d5557600080fd5b6000613d63868287016139d3565b9350506020613d7486828701613a86565b9250506040613d8586828701613a86565b9150509250925092565b600060208284031215613da157600080fd5b600082013567ffffffffffffffff811115613dbb57600080fd5b613dc784828501613a32565b91505092915050565b600080600080600080600060e0888a031215613deb57600080fd5b600088013567ffffffffffffffff811115613e0557600080fd5b613e118a828b01613a32565b9750506020613e228a828b016139a9565b9650506040613e338a828b016139a9565b9550506060613e448a828b01613a86565b9450506080613e558a828b01613a86565b93505060a0613e668a828b01613a86565b92505060c0613e778a828b01613a86565b91505092959891949750929550565b600080600080600080600080610100898b031215613ea357600080fd5b600089013567ffffffffffffffff811115613ebd57600080fd5b613ec98b828c01613a32565b9850506020613eda8b828c016139a9565b9750506040613eeb8b828c016139a9565b9650506060613efc8b828c01613a86565b9550506080613f0d8b828c01613a86565b94505060a0613f1e8b828c01613a86565b93505060c0613f2f8b828c01613a86565b92505060e0613f408b828c01613a86565b9150509295985092959890939650565b600060208284031215613f6257600080fd5b6000613f7084828501613a86565b91505092915050565b600060208284031215613f8b57600080fd5b6000613f9984828501613a9b565b91505092915050565b60008060408385031215613fb557600080fd5b6000613fc385828601613a86565b9250506020613fd485828601613a86565b9150509250929050565b613fe7816152fc565b82525050565b613ff68161527e565b82525050565b6140058161527e565b82525050565b6140148161526c565b82525050565b6140238161526c565b82525050565b61403281615290565b82525050565b614041816152a6565b82525050565b60006140528261520d565b61405c8185615234565b935061406c818560208601615341565b80840191505092915050565b600061408382615218565b61408d818561523f565b935061409d818560208601615341565b6140a681615374565b840191505092915050565b60006140bc82615218565b6140c68185615250565b93506140d6818560208601615341565b6140df81615374565b840191505092915050565b60006140f582615218565b6140ff8185615261565b935061410f818560208601615341565b80840191505092915050565b6000614128602183615250565b91507f7468652076616c7565206f6620746f6b656e416d6f756e7430206973207a657260008301527f6f000000000000000000000000000000000000000000000000000000000000006020830152604082019050919050565b600061418e602c83615250565b91507f7468652076616c7565206f6620636f6e6669726d54696d65206c65737320746860008301527f616e2035206d696e7574657300000000000000000000000000000000000000006020830152604082019050919050565b60006141f4602983615250565b91507f61206c69766520706f6f6c20686173206265656e20637265617465642062792060008301527f74686973206e616d6500000000000000000000000000000000000000000000006020830152604082019050919050565b600061425a601c83615250565b91507f7468652076616c7565206f6620616d6f756e7431206973207a65726f000000006000830152602082019050919050565b600061429a600e83615250565b91507f696e76616c696420746f6b656e300000000000000000000000000000000000006000830152602082019050919050565b60006142da601b83615250565b91507f536166654d6174683a206164646974696f6e206f766572666c6f7700000000006000830152602082019050919050565b600061431a602a83615250565b91507f7468652076616c7565206f6620636f6e6669726d54696d65206973206578636560008301527f65646564203120646179000000000000000000000000000000000000000000006020830152604082019050919050565b6000614380601a83615250565b91507f73656e646572206973206e6f7420706f6f6c2063726561746f720000000000006000830152602082019050919050565b60006143c0602283615250565b91507f6120706f6f6c206861732063726561746564206279207468697320616464726560008301527f73730000000000000000000000000000000000000000000000000000000000006020830152604082019050919050565b6000614426601883615250565b91507f7468697320706f6f6c20646f6573206e6f7420657869737400000000000000006000830152602082019050919050565b6000614466602083615250565b91507f5361666545524332303a206c6f772d6c6576656c2063616c6c206661696c65646000830152602082019050919050565b60006144a6601383615250565b91507f7468697320706f6f6c20697320636c6f736564000000000000000000000000006000830152602082019050919050565b60006144e6602383615250565b91507f7468652076616c7565206f6620616d6f756e744d696e496e637231206973207a60008301527f65726f00000000000000000000000000000000000000000000000000000000006020830152604082019050919050565b600061454c601d83615250565b91507f63726561746f722068617320636c61696d6564207468697320706f6f6c0000006000830152602082019050919050565b600061458c601e83615250565b91507f746865206c656e677468206f66206e616d6520697320746f6f206c6f6e6700006000830152602082019050919050565b60006145cc602a83615250565b91507f63726561746f722063616e2774206269642074686520706f6f6c20637265617460008301527f65642062792073656c66000000000000000000000000000000000000000000006020830152604082019050919050565b6000614632602e83615250565b91507f436f6e747261637420696e7374616e63652068617320616c726561647920626560008301527f656e20696e697469616c697a65640000000000000000000000000000000000006020830152604082019050919050565b6000614698603283615250565b91507f7468652062696420616d6f756e74206973206c6f776572207468616e206d696e60008301527f696d756d2062696464657220616d6f756e7400000000000000000000000000006020830152604082019050919050565b60006146fe600083615223565b9150600082019050919050565b6000614718602583615250565b91507f73656e646572206973206e6f74207468652077696e6e6572206f66207468697360008301527f20706f6f6c0000000000000000000000000000000000000000000000000000006020830152604082019050919050565b600061477e601c83615250565b91507f73656e6465722068617320636c61696d6564207468697320706f6f6c000000006000830152602082019050919050565b60006147be603683615250565b91507f7468652062696420616d6f756e74206973206c6f776572207468616e2074686560008301527f2063757272656e742062696464657220616d6f756e74000000000000000000006020830152604082019050919050565b6000614824601283615250565b91507f696e76616c69642045544820616d6f756e7400000000000000000000000000006000830152602082019050919050565b6000614864602a83615250565b91507f5361666545524332303a204552433230206f7065726174696f6e20646964206e60008301527f6f742073756363656564000000000000000000000000000000000000000000006020830152604082019050919050565b60006148ca603683615250565b91507f5361666545524332303a20617070726f76652066726f6d206e6f6e2d7a65726f60008301527f20746f206e6f6e2d7a65726f20616c6c6f77616e6365000000000000000000006020830152604082019050919050565b6000614930601f83615250565b91507f5361666545524332303a2063616c6c20746f206e6f6e2d636f6e7472616374006000830152602082019050919050565b6000614970601783615250565b91507f7468697320706f6f6c206973206e6f7420636c6f7365640000000000000000006000830152602082019050919050565b6000610140830160008301516149bc6000860182613fed565b50602083015184820360208601526149d48282614078565b91505060408301516149e9604086018261400b565b5060608301516149fc6060860182614a7d565b506080830151614a0f6080860182614a7d565b5060a0830151614a2260a0860182614a7d565b5060c0830151614a3560c0860182614a7d565b5060e0830151614a4860e0860182614a7d565b50610100830151614a5d610100860182614a7d565b50610120830151614a72610120860182614a7d565b508091505092915050565b614a86816152f2565b82525050565b614a95816152f2565b82525050565b6000614aa78284614047565b915081905092915050565b6000614abe82846140ea565b915081905092915050565b6000602082019050614ade600083018461401a565b92915050565b6000602082019050614af96000830184613ffc565b92915050565b6000606082019050614b146000830186613fde565b614b21602083018561401a565b614b2e6040830184614a8c565b949350505050565b600060a082019050614b4b6000830187613fde565b614b58602083018661401a565b614b656040830185614a8c565b614b726060830184614a8c565b8181036080830152614b83816146f1565b905095945050505050565b600061014082019050614ba4600083018d613ffc565b8181036020830152614bb6818c6140b1565b9050614bc5604083018b61401a565b614bd2606083018a614a8c565b614bdf6080830189614a8c565b614bec60a0830188614a8c565b614bf960c0830187614a8c565b614c0660e0830186614a8c565b614c14610100830185614a8c565b614c22610120830184614a8c565b9b9a5050505050505050505050565b6000604082019050614c466000830185613fde565b614c536020830184614a8c565b9392505050565b6000606082019050614c6f6000830186613fde565b614c7c6020830185614a8c565b614c896040830184614a8c565b949350505050565b6000604082019050614ca6600083018561401a565b614cb3602083018461401a565b9392505050565b6000606082019050614ccf600083018661401a565b614cdc6020830185613fde565b614ce96040830184614a8c565b949350505050565b600060a082019050614d06600083018761401a565b614d136020830186613fde565b614d206040830185614a8c565b614d2d6060830184614a8c565b8181036080830152614d3e816146f1565b905095945050505050565b6000606082019050614d5e600083018661401a565b614d6b602083018561401a565b614d786040830184614a8c565b949350505050565b600060a082019050614d95600083018761401a565b614da2602083018661401a565b614daf6040830185614a8c565b614dbc6060830184614a8c565b8181036080830152614dcd816146f1565b905095945050505050565b6000604082019050614ded600083018561401a565b614dfa6020830184614a8c565b9392505050565b6000602082019050614e166000830184614029565b92915050565b6000602082019050614e316000830184614038565b92915050565b60006020820190508181036000830152614e508161411b565b9050919050565b60006020820190508181036000830152614e7081614181565b9050919050565b60006020820190508181036000830152614e90816141e7565b9050919050565b60006020820190508181036000830152614eb08161424d565b9050919050565b60006020820190508181036000830152614ed08161428d565b9050919050565b60006020820190508181036000830152614ef0816142cd565b9050919050565b60006020820190508181036000830152614f108161430d565b9050919050565b60006020820190508181036000830152614f3081614373565b9050919050565b60006020820190508181036000830152614f50816143b3565b9050919050565b60006020820190508181036000830152614f7081614419565b9050919050565b60006020820190508181036000830152614f9081614459565b9050919050565b60006020820190508181036000830152614fb081614499565b9050919050565b60006020820190508181036000830152614fd0816144d9565b9050919050565b60006020820190508181036000830152614ff08161453f565b9050919050565b600060208201905081810360008301526150108161457f565b9050919050565b60006020820190508181036000830152615030816145bf565b9050919050565b6000602082019050818103600083015261505081614625565b9050919050565b600060208201905081810360008301526150708161468b565b9050919050565b600060208201905081810360008301526150908161470b565b9050919050565b600060208201905081810360008301526150b081614771565b9050919050565b600060208201905081810360008301526150d0816147b1565b9050919050565b600060208201905081810360008301526150f081614817565b9050919050565b6000602082019050818103600083015261511081614857565b9050919050565b60006020820190508181036000830152615130816148bd565b9050919050565b6000602082019050818103600083015261515081614923565b9050919050565b6000602082019050818103600083015261517081614963565b9050919050565b6000602082019050818103600083015261519181846149a3565b905092915050565b60006020820190506151ae6000830184614a8c565b92915050565b6000604051905081810181811067ffffffffffffffff821117156151d757600080fd5b8060405250919050565b600067ffffffffffffffff8211156151f857600080fd5b601f19601f8301169050602081019050919050565b600081519050919050565b600081519050919050565b600082825260208201905092915050565b600081905092915050565b600082825260208201905092915050565b600082825260208201905092915050565b600081905092915050565b6000615277826152d2565b9050919050565b6000615289826152d2565b9050919050565b60008115159050919050565b6000819050919050565b60007fffffffff0000000000000000000000000000000000000000000000000000000082169050919050565b600073ffffffffffffffffffffffffffffffffffffffff82169050919050565b6000819050919050565b60006153078261530e565b9050919050565b600061531982615320565b9050919050565b600061532b826152d2565b9050919050565b82818337600083830152505050565b60005b8381101561535f578082015181840152602081019050615344565b8381111561536e576000848401525b50505050565b6000601f19601f8301169050919050565b61538e8161526c565b811461539957600080fd5b50565b6153a581615290565b81146153b057600080fd5b50565b6153bc8161529c565b81146153c757600080fd5b50565b6153d3816152f2565b81146153de57600080fd5b5056fea26469706673582212201c97a3289e2686b8357a1bb71156ec00c205ee1f2d8175402157974750d21bd564736f6c634300060c0033",
  "compiler": {
    "name": "solc",
    "version": "0.6.12+commit.27d51765.Emscripten.clang",
    "optimizer": {
      "enabled": false,
      "runs": 200
    },
    "evmVersion": "petersburg"
  }
}