{
  "fileName": "FixedSwapNFT.sol",
  "contractName": "FixedSwapNFT",
  "source": "// SPDX-License-Identifier: MIT\n\npragma solidity ^0.6.0;\npragma experimental ABIEncoderV2;\n\nimport \"@openzeppelin/contracts-ethereum-package/contracts/math/SafeMath.sol\";\nimport \"@openzeppelin/contracts-ethereum-package/contracts/token/ERC20/SafeERC20.sol\";\nimport \"@openzeppelin/contracts-ethereum-package/contracts/token/ERC20/IERC20.sol\";\nimport \"@openzeppelin/contracts-ethereum-package/contracts/token/ERC721/IERC721.sol\";\nimport \"@openzeppelin/contracts-ethereum-package/contracts/token/ERC721/IERC721Receiver.sol\";\nimport \"./Governable.sol\";\nimport \"./interfaces/IERC1155.sol\";\n\ncontract FixedSwapNFT is Configurable, IERC721Receiver {\n    using SafeMath for uint;\n    using SafeERC20 for IERC20;\n\n    uint    internal constant TypeErc721            = 0;\n    uint    internal constant TypeErc1155           = 1;\n\n    struct Pool {\n        // address of pool creator\n        address payable creator;\n        // pool name\n        string name;\n        // address of sell token\n        address token0;\n        // address of buy token\n        address token1;\n        // token id of token0\n        uint tokenId;\n        // total amount of token0\n        uint amountTotal0;\n        // total amount of token1\n        uint amountTotal1;\n        // the timestamp in seconds the pool will be closed\n        uint closeAt;\n        // NFT token type\n        uint nftType;\n    }\n\n    Pool[] public pools;\n\n    // creator address => pool index + 1. if the result is 0, the account don't create any pool.\n    mapping(address => uint) public myCreatedP;\n    // name => pool index + 1\n    mapping(string => uint) public myNameP;\n\n    // pool index => a flag that if creator is claimed the pool\n    mapping(uint => bool) public creatorClaimedP;\n    mapping(uint => bool) public swappedP;\n\n    // check if token0 in whitelist\n    bool public checkToken0;\n    // token0 address => true or false\n    mapping(address => bool) public token0List;\n\n    // pool index => swapped amount of token0\n    mapping(uint => uint) public swappedAmount0P;\n    // pool index => swapped amount of token1\n    mapping(uint => uint) public swappedAmount1P;\n\n    event Created(address indexed sender, uint indexed index, Pool pool);\n    event Swapped(address indexed sender, uint indexed index, uint amount0, uint amount1);\n    event Claimed(address indexed sender, uint indexed index, uint amount0);\n\n    function initialize(address _governor) public override initializer {\n        require(msg.sender == governor || governor == address(0), \"invalid governor\");\n        governor = _governor;\n    }\n\n    function createErc721(\n        // name of the pool\n        string memory name,\n        // address of token0\n        address token0,\n        // address of token1\n        address token1,\n        // token id of token0\n        uint tokenId,\n        // total amount of token1\n        uint amountTotal1,\n        // duration time\n        uint duration\n    ) external payable {\n        if (checkToken0) {\n            require(token0List[token0], \"invalid token0\");\n        }\n        uint amountTotal0 = 1;\n        _create(\n            name, token0, token1, tokenId, amountTotal0, amountTotal1,\n            duration, TypeErc721\n        );\n    }\n\n    function createErc1155(\n        // name of the pool\n        string memory name,\n        // address of token0\n        address token0,\n        // address of token1\n        address token1,\n        // token id of token0\n        uint tokenId,\n        // total amount of token0\n        uint amountTotal0,\n        // total amount of token1\n        uint amountTotal1,\n        // duration time\n        uint duration\n    ) external payable {\n        if (checkToken0) {\n            require(token0List[token0], \"invalid token0\");\n        }\n        _create(\n            name, token0, token1, tokenId, amountTotal0, amountTotal1,\n            duration, TypeErc1155\n        );\n    }\n\n    function _create(\n        string memory name,\n        address token0,\n        address token1,\n        uint tokenId,\n        uint amountTotal0,\n        uint amountTotal1,\n        uint duration,\n        uint nftType\n    ) private\n        isPoolNotCreate(msg.sender)\n        nameNotBeenToken(name)\n    {\n        require(amountTotal1 != 0, \"the value of amountTotal1 is zero.\");\n        require(duration != 0, \"the value of duration is zero.\");\n        require(bytes(name).length <= 15, \"the length of name is too long\");\n\n        // transfer tokenId of token0 to this contract\n        if (nftType == TypeErc721) {\n            require(amountTotal0 == 1, \"invalid amountTotal0\");\n            IERC721(token0).safeTransferFrom(msg.sender, address(this), tokenId);\n        } else {\n            require(amountTotal0 != 0, \"invalid amountTotal0\");\n            IERC1155(token0).safeTransferFrom(msg.sender, address(this), tokenId, amountTotal0, \"\");\n        }\n\n        // creator pool\n        Pool memory pool;\n        pool.creator = msg.sender;\n        pool.name = name;\n        pool.token0 = token0;\n        pool.token1 = token1;\n        pool.tokenId = tokenId;\n        pool.amountTotal0 = amountTotal0;\n        pool.amountTotal1 = amountTotal1;\n        pool.closeAt = now.add(duration);\n        pool.nftType = nftType;\n\n        uint index = pools.length;\n\n        pools.push(pool);\n        myCreatedP[msg.sender] = pools.length;\n        myNameP[name] = pools.length;\n\n        emit Created(msg.sender, index, pool);\n    }\n\n    function swap(uint index, uint amount0) external payable\n        isPoolExist(index)\n        isPoolNotClosed(index)\n        isPoolNotSwap(index)\n    {\n        Pool storage pool = pools[index];\n        require(amount0 >= 1 && amount0 <= pool.amountTotal0, \"invalid amount0\");\n        require(swappedAmount0P[index].add(amount0) <= pool.amountTotal0, \"pool filled or invalid amount0\");\n\n        uint amount1 = amount0.mul(pool.amountTotal1).div(pool.amountTotal0);\n        swappedAmount0P[index] = swappedAmount0P[index].add(amount0);\n        swappedAmount1P[index] = swappedAmount1P[index].add(amount1);\n        if (swappedAmount0P[index] == pool.amountTotal0) {\n            // mark pool is swapped\n            swappedP[index] = true;\n        }\n\n        // transfer amount of token1 to creator\n        if (pool.token1 == address(0)) {\n            require(amount1 == msg.value, \"invalid ETH amount\");\n            // transfer ETH to creator\n            pool.creator.transfer(pool.amountTotal1);\n        } else {\n            IERC20(pool.token1).safeTransferFrom(msg.sender, pool.creator, amount1);\n        }\n\n        // transfer tokenId of token0 to sender\n        if (pool.nftType == TypeErc721) {\n            IERC721(pool.token0).safeTransferFrom(address(this), msg.sender, pool.tokenId);\n        } else {\n            IERC1155(pool.token0).safeTransferFrom(address(this), msg.sender, pool.tokenId, pool.amountTotal0, \"\");\n        }\n\n        emit Swapped(msg.sender, index, amount0, amount1);\n    }\n\n    function creatorClaim(uint index) external\n        isPoolExist(index)\n        isPoolClosed(index)\n        isPoolNotSwap(index)\n    {\n        require(isCreator(msg.sender, index), \"sender is not pool creator\");\n        require(!creatorClaimedP[index], \"creator has claimed this pool\");\n        creatorClaimedP[index] = true;\n\n        // remove ownership of this pool from creator\n        delete myCreatedP[msg.sender];\n\n        Pool memory pool = pools[index];\n        if (pool.nftType == TypeErc721) {\n            IERC721(pool.token0).safeTransferFrom(address(this), pool.creator, pool.tokenId);\n        } else {\n            IERC1155(pool.token0).safeTransferFrom(address(this), pool.creator, pool.tokenId, pool.amountTotal0.sub(swappedAmount0P[index]), \"\");\n        }\n\n        emit Claimed(msg.sender, index, pool.amountTotal0.sub(swappedAmount0P[index]));\n    }\n\n    function transferGovernor(address _governor) external {\n        require(msg.sender == governor || governor == address(0), \"invalid governor\");\n        governor = _governor;\n    }\n\n    function isCreator(address target, uint index) internal view returns (bool) {\n        if (pools[index].creator == target) {\n            return true;\n        }\n        return false;\n    }\n\n    function getPoolCount() external view returns (uint) {\n        return pools.length;\n    }\n\n    function onERC721Received(address, address, uint, bytes calldata) external override returns (bytes4) {\n        return this.onERC721Received.selector;\n    }\n\n    function onERC1155Received(address, address, uint, uint, bytes calldata) external returns(bytes4) {\n        return this.onERC1155Received.selector;\n    }\n\n    modifier isPoolClosed(uint index) {\n        require(pools[index].closeAt <= now, \"this pool is not closed\");\n        _;\n    }\n\n    modifier isPoolNotClosed(uint index) {\n        require(pools[index].closeAt > now, \"this pool is closed\");\n        _;\n    }\n\n    modifier isPoolNotSwap(uint index) {\n        require(!swappedP[index], \"this pool is swapped\");\n        _;\n    }\n\n    modifier isPoolNotCreate(address creator) {\n        if (myCreatedP[creator] > 0) {\n            if (swappedP[myCreatedP[creator]-1]) {\n                delete myCreatedP[creator];\n            } else {\n                revert(\"a pool has created by this address\");\n            }\n        }\n        _;\n    }\n\n    modifier isPoolExist(uint index) {\n        require(index < pools.length, \"this pool does not exist\");\n        _;\n    }\n\n    modifier nameNotBeenToken(string memory name) {\n        // check if someone has take this name\n        if (myNameP[name] > 0) {\n            uint index = myNameP[name] - 1;\n            if ((myCreatedP[pools[index].creator] > 0) && (pools[index].closeAt > now)) {\n                revert(\"a live pool has been created by this name\");\n            }\n        }\n        _;\n    }\n}\n",
  "sourcePath": "contracts/FixedSwapNFT.sol",
  "abi": [
    {
      "anonymous": false,
      "inputs": [
        {
          "indexed": true,
          "internalType": "address",
          "name": "sender",
          "type": "address"
        },
        {
          "indexed": true,
          "internalType": "uint256",
          "name": "index",
          "type": "uint256"
        },
        {
          "indexed": false,
          "internalType": "uint256",
          "name": "amount0",
          "type": "uint256"
        }
      ],
      "name": "Claimed",
      "type": "event"
    },
    {
      "anonymous": false,
      "inputs": [
        {
          "indexed": true,
          "internalType": "address",
          "name": "sender",
          "type": "address"
        },
        {
          "indexed": true,
          "internalType": "uint256",
          "name": "index",
          "type": "uint256"
        },
        {
          "components": [
            {
              "internalType": "address payable",
              "name": "creator",
              "type": "address"
            },
            {
              "internalType": "string",
              "name": "name",
              "type": "string"
            },
            {
              "internalType": "address",
              "name": "token0",
              "type": "address"
            },
            {
              "internalType": "address",
              "name": "token1",
              "type": "address"
            },
            {
              "internalType": "uint256",
              "name": "tokenId",
              "type": "uint256"
            },
            {
              "internalType": "uint256",
              "name": "amountTotal0",
              "type": "uint256"
            },
            {
              "internalType": "uint256",
              "name": "amountTotal1",
              "type": "uint256"
            },
            {
              "internalType": "uint256",
              "name": "closeAt",
              "type": "uint256"
            },
            {
              "internalType": "uint256",
              "name": "nftType",
              "type": "uint256"
            }
          ],
          "indexed": false,
          "internalType": "struct FixedSwapNFT.Pool",
          "name": "pool",
          "type": "tuple"
        }
      ],
      "name": "Created",
      "type": "event"
    },
    {
      "anonymous": false,
      "inputs": [
        {
          "indexed": true,
          "internalType": "address",
          "name": "previousGovernor",
          "type": "address"
        },
        {
          "indexed": true,
          "internalType": "address",
          "name": "newGovernor",
          "type": "address"
        }
      ],
      "name": "GovernorshipTransferred",
      "type": "event"
    },
    {
      "anonymous": false,
      "inputs": [
        {
          "indexed": true,
          "internalType": "address",
          "name": "sender",
          "type": "address"
        },
        {
          "indexed": true,
          "internalType": "uint256",
          "name": "index",
          "type": "uint256"
        },
        {
          "indexed": false,
          "internalType": "uint256",
          "name": "amount0",
          "type": "uint256"
        },
        {
          "indexed": false,
          "internalType": "uint256",
          "name": "amount1",
          "type": "uint256"
        }
      ],
      "name": "Swapped",
      "type": "event"
    },
    {
      "inputs": [],
      "name": "checkToken0",
      "outputs": [
        {
          "internalType": "bool",
          "name": "",
          "type": "bool"
        }
      ],
      "stateMutability": "view",
      "type": "function"
    },
    {
      "inputs": [
        {
          "internalType": "string",
          "name": "name",
          "type": "string"
        },
        {
          "internalType": "address",
          "name": "token0",
          "type": "address"
        },
        {
          "internalType": "address",
          "name": "token1",
          "type": "address"
        },
        {
          "internalType": "uint256",
          "name": "tokenId",
          "type": "uint256"
        },
        {
          "internalType": "uint256",
          "name": "amountTotal0",
          "type": "uint256"
        },
        {
          "internalType": "uint256",
          "name": "amountTotal1",
          "type": "uint256"
        },
        {
          "internalType": "uint256",
          "name": "duration",
          "type": "uint256"
        }
      ],
      "name": "createErc1155",
      "outputs": [],
      "stateMutability": "payable",
      "type": "function"
    },
    {
      "inputs": [
        {
          "internalType": "string",
          "name": "name",
          "type": "string"
        },
        {
          "internalType": "address",
          "name": "token0",
          "type": "address"
        },
        {
          "internalType": "address",
          "name": "token1",
          "type": "address"
        },
        {
          "internalType": "uint256",
          "name": "tokenId",
          "type": "uint256"
        },
        {
          "internalType": "uint256",
          "name": "amountTotal1",
          "type": "uint256"
        },
        {
          "internalType": "uint256",
          "name": "duration",
          "type": "uint256"
        }
      ],
      "name": "createErc721",
      "outputs": [],
      "stateMutability": "payable",
      "type": "function"
    },
    {
      "inputs": [
        {
          "internalType": "uint256",
          "name": "index",
          "type": "uint256"
        }
      ],
      "name": "creatorClaim",
      "outputs": [],
      "stateMutability": "nonpayable",
      "type": "function"
    },
    {
      "inputs": [
        {
          "internalType": "uint256",
          "name": "",
          "type": "uint256"
        }
      ],
      "name": "creatorClaimedP",
      "outputs": [
        {
          "internalType": "bool",
          "name": "",
          "type": "bool"
        }
      ],
      "stateMutability": "view",
      "type": "function"
    },
    {
      "inputs": [
        {
          "internalType": "bytes32",
          "name": "key",
          "type": "bytes32"
        },
        {
          "internalType": "address",
          "name": "addr",
          "type": "address"
        }
      ],
      "name": "getConfig",
      "outputs": [
        {
          "internalType": "uint256",
          "name": "",
          "type": "uint256"
        }
      ],
      "stateMutability": "view",
      "type": "function"
    },
    {
      "inputs": [
        {
          "internalType": "bytes32",
          "name": "key",
          "type": "bytes32"
        }
      ],
      "name": "getConfig",
      "outputs": [
        {
          "internalType": "uint256",
          "name": "",
          "type": "uint256"
        }
      ],
      "stateMutability": "view",
      "type": "function"
    },
    {
      "inputs": [
        {
          "internalType": "bytes32",
          "name": "key",
          "type": "bytes32"
        },
        {
          "internalType": "uint256",
          "name": "index",
          "type": "uint256"
        }
      ],
      "name": "getConfig",
      "outputs": [
        {
          "internalType": "uint256",
          "name": "",
          "type": "uint256"
        }
      ],
      "stateMutability": "view",
      "type": "function"
    },
    {
      "inputs": [],
      "name": "getPoolCount",
      "outputs": [
        {
          "internalType": "uint256",
          "name": "",
          "type": "uint256"
        }
      ],
      "stateMutability": "view",
      "type": "function"
    },
    {
      "inputs": [],
      "name": "governor",
      "outputs": [
        {
          "internalType": "address",
          "name": "",
          "type": "address"
        }
      ],
      "stateMutability": "view",
      "type": "function"
    },
    {
      "inputs": [
        {
          "internalType": "address",
          "name": "_governor",
          "type": "address"
        }
      ],
      "name": "initialize",
      "outputs": [],
      "stateMutability": "nonpayable",
      "type": "function"
    },
    {
      "inputs": [
        {
          "internalType": "address",
          "name": "",
          "type": "address"
        }
      ],
      "name": "myCreatedP",
      "outputs": [
        {
          "internalType": "uint256",
          "name": "",
          "type": "uint256"
        }
      ],
      "stateMutability": "view",
      "type": "function"
    },
    {
      "inputs": [
        {
          "internalType": "string",
          "name": "",
          "type": "string"
        }
      ],
      "name": "myNameP",
      "outputs": [
        {
          "internalType": "uint256",
          "name": "",
          "type": "uint256"
        }
      ],
      "stateMutability": "view",
      "type": "function"
    },
    {
      "inputs": [
        {
          "internalType": "address",
          "name": "",
          "type": "address"
        },
        {
          "internalType": "address",
          "name": "",
          "type": "address"
        },
        {
          "internalType": "uint256",
          "name": "",
          "type": "uint256"
        },
        {
          "internalType": "uint256",
          "name": "",
          "type": "uint256"
        },
        {
          "internalType": "bytes",
          "name": "",
          "type": "bytes"
        }
      ],
      "name": "onERC1155Received",
      "outputs": [
        {
          "internalType": "bytes4",
          "name": "",
          "type": "bytes4"
        }
      ],
      "stateMutability": "nonpayable",
      "type": "function"
    },
    {
      "inputs": [
        {
          "internalType": "address",
          "name": "",
          "type": "address"
        },
        {
          "internalType": "address",
          "name": "",
          "type": "address"
        },
        {
          "internalType": "uint256",
          "name": "",
          "type": "uint256"
        },
        {
          "internalType": "bytes",
          "name": "",
          "type": "bytes"
        }
      ],
      "name": "onERC721Received",
      "outputs": [
        {
          "internalType": "bytes4",
          "name": "",
          "type": "bytes4"
        }
      ],
      "stateMutability": "nonpayable",
      "type": "function"
    },
    {
      "inputs": [
        {
          "internalType": "uint256",
          "name": "",
          "type": "uint256"
        }
      ],
      "name": "pools",
      "outputs": [
        {
          "internalType": "address payable",
          "name": "creator",
          "type": "address"
        },
        {
          "internalType": "string",
          "name": "name",
          "type": "string"
        },
        {
          "internalType": "address",
          "name": "token0",
          "type": "address"
        },
        {
          "internalType": "address",
          "name": "token1",
          "type": "address"
        },
        {
          "internalType": "uint256",
          "name": "tokenId",
          "type": "uint256"
        },
        {
          "internalType": "uint256",
          "name": "amountTotal0",
          "type": "uint256"
        },
        {
          "internalType": "uint256",
          "name": "amountTotal1",
          "type": "uint256"
        },
        {
          "internalType": "uint256",
          "name": "closeAt",
          "type": "uint256"
        },
        {
          "internalType": "uint256",
          "name": "nftType",
          "type": "uint256"
        }
      ],
      "stateMutability": "view",
      "type": "function"
    },
    {
      "inputs": [],
      "name": "renounceGovernorship",
      "outputs": [],
      "stateMutability": "nonpayable",
      "type": "function"
    },
    {
      "inputs": [
        {
          "internalType": "bytes32",
          "name": "key",
          "type": "bytes32"
        },
        {
          "internalType": "uint256",
          "name": "value",
          "type": "uint256"
        }
      ],
      "name": "setConfig",
      "outputs": [],
      "stateMutability": "nonpayable",
      "type": "function"
    },
    {
      "inputs": [
        {
          "internalType": "bytes32",
          "name": "key",
          "type": "bytes32"
        },
        {
          "internalType": "address",
          "name": "addr",
          "type": "address"
        },
        {
          "internalType": "uint256",
          "name": "value",
          "type": "uint256"
        }
      ],
      "name": "setConfig",
      "outputs": [],
      "stateMutability": "nonpayable",
      "type": "function"
    },
    {
      "inputs": [
        {
          "internalType": "bytes32",
          "name": "key",
          "type": "bytes32"
        },
        {
          "internalType": "uint256",
          "name": "index",
          "type": "uint256"
        },
        {
          "internalType": "uint256",
          "name": "value",
          "type": "uint256"
        }
      ],
      "name": "setConfig",
      "outputs": [],
      "stateMutability": "nonpayable",
      "type": "function"
    },
    {
      "inputs": [
        {
          "internalType": "uint256",
          "name": "index",
          "type": "uint256"
        },
        {
          "internalType": "uint256",
          "name": "amount0",
          "type": "uint256"
        }
      ],
      "name": "swap",
      "outputs": [],
      "stateMutability": "payable",
      "type": "function"
    },
    {
      "inputs": [
        {
          "internalType": "uint256",
          "name": "",
          "type": "uint256"
        }
      ],
      "name": "swappedAmount0P",
      "outputs": [
        {
          "internalType": "uint256",
          "name": "",
          "type": "uint256"
        }
      ],
      "stateMutability": "view",
      "type": "function"
    },
    {
      "inputs": [
        {
          "internalType": "uint256",
          "name": "",
          "type": "uint256"
        }
      ],
      "name": "swappedAmount1P",
      "outputs": [
        {
          "internalType": "uint256",
          "name": "",
          "type": "uint256"
        }
      ],
      "stateMutability": "view",
      "type": "function"
    },
    {
      "inputs": [
        {
          "internalType": "uint256",
          "name": "",
          "type": "uint256"
        }
      ],
      "name": "swappedP",
      "outputs": [
        {
          "internalType": "bool",
          "name": "",
          "type": "bool"
        }
      ],
      "stateMutability": "view",
      "type": "function"
    },
    {
      "inputs": [
        {
          "internalType": "address",
          "name": "",
          "type": "address"
        }
      ],
      "name": "token0List",
      "outputs": [
        {
          "internalType": "bool",
          "name": "",
          "type": "bool"
        }
      ],
      "stateMutability": "view",
      "type": "function"
    },
    {
      "inputs": [
        {
          "internalType": "address",
          "name": "_governor",
          "type": "address"
        }
      ],
      "name": "transferGovernor",
      "outputs": [],
      "stateMutability": "nonpayable",
      "type": "function"
    },
    {
      "inputs": [
        {
          "internalType": "address",
          "name": "newGovernor",
          "type": "address"
        }
      ],
      "name": "transferGovernorship",
      "outputs": [],
      "stateMutability": "nonpayable",
      "type": "function"
    }
  ],
  "bytecode": "0x608060405234801561001057600080fd5b50614340806100206000396000f3fe60806040526004361061019c5760003560e01c80638eec5d70116100ec578063c4d66de81161008a578063db06c05f11610064578063db06c05f146105ed578063ddf2be3f1461062a578063e87ba7aa14610653578063f23a6e61146106905761019c565b8063c4d66de81461056b578063cbe4b8eb14610594578063d96073cf146105d15761019c565b8063b21544f3116100c6578063b21544f3146104b3578063b6aa515b146104dc578063b8cc9ce614610505578063bbe7180d1461052e5761019c565b80638eec5d70146104065780639d6ce84b14610431578063ac4afa381461046e5761019c565b80632ca77bf8116101595780636dd5b69d116101335780636dd5b69d1461035957806373d9ced91461039657806381c0c263146103b25780638ec872e3146103c95761019c565b80632ca77bf8146102b457806352665f47146102df5780636d17b1d81461031c5761019c565b806306350d71146101a15780630c340a24146101bd578063150b7a02146101e857806315fe96dc1461022557806329dbd0981461024e5780632ad540ed1461028b575b600080fd5b6101bb60048036038101906101b69190613114565b6106cd565b005b3480156101c957600080fd5b506101d2610789565b6040516101df9190613b3b565b60405180910390f35b3480156101f457600080fd5b5061020f600480360381019061020a9190612db8565b6107af565b60405161021c9190613d5a565b60405180910390f35b34801561023157600080fd5b5061024c60048036038101906102479190612fa7565b6107c4565b005b34801561025a57600080fd5b5061027560048036038101906102709190612d8f565b61082c565b6040516102829190613d3f565b60405180910390f35b34801561029757600080fd5b506102b260048036038101906102ad91906131ca565b61084c565b005b3480156102c057600080fd5b506102c9610e2c565b6040516102d69190613d3f565b60405180910390f35b3480156102eb57600080fd5b5061030660048036038101906103019190612f1c565b610e3f565b6040516103139190614099565b60405180910390f35b34801561032857600080fd5b50610343600480360381019061033e91906131ca565b610e7b565b6040516103509190614099565b60405180910390f35b34801561036557600080fd5b50610380600480360381019061037b9190612ef3565b610e93565b60405161038d9190614099565b60405180910390f35b6103b060048036038101906103ab9190613073565b610eb0565b005b3480156103be57600080fd5b506103c7610f72565b005b3480156103d557600080fd5b506103f060048036038101906103eb9190612fa7565b61108d565b6040516103fd9190614099565b60405180910390f35b34801561041257600080fd5b5061041b6110b3565b6040516104289190614099565b60405180910390f35b34801561043d57600080fd5b5061045860048036038101906104539190613032565b6110c0565b6040516104659190614099565b60405180910390f35b34801561047a57600080fd5b50610495600480360381019061049091906131ca565b6110ee565b6040516104aa99989796959493929190613be5565b60405180910390f35b3480156104bf57600080fd5b506104da60048036038101906104d59190612f58565b611241565b005b3480156104e857600080fd5b5061050360048036038101906104fe9190612d8f565b6112c8565b005b34801561051157600080fd5b5061052c60048036038101906105279190612d8f565b61132e565b005b34801561053a57600080fd5b5061055560048036038101906105509190612d8f565b61145b565b6040516105629190614099565b60405180910390f35b34801561057757600080fd5b50610592600480360381019061058d9190612d8f565b611473565b005b3480156105a057600080fd5b506105bb60048036038101906105b691906131ca565b611686565b6040516105c89190614099565b60405180910390f35b6105eb60048036038101906105e691906131f3565b61169e565b005b3480156105f957600080fd5b50610614600480360381019061060f91906131ca565b611ca5565b6040516106219190613d3f565b60405180910390f35b34801561063657600080fd5b50610651600480360381019061064c9190612fe3565b611cc5565b005b34801561065f57600080fd5b5061067a600480360381019061067591906131ca565b611d36565b6040516106879190613d3f565b60405180910390f35b34801561069c57600080fd5b506106b760048036038101906106b29190612e38565b611d56565b6040516106c49190613d5a565b60405180910390f35b603a60009054906101000a900460ff161561076f57603b60008773ffffffffffffffffffffffffffffffffffffffff1673ffffffffffffffffffffffffffffffffffffffff16815260200190815260200160002060009054906101000a900460ff1661076e576040517f08c379a000000000000000000000000000000000000000000000000000000000815260040161076590613df7565b60405180910390fd5b5b610780878787878787876001611d6c565b50505050505050565b603360009054906101000a900473ffffffffffffffffffffffffffffffffffffffff1681565b600063150b7a0260e01b905095945050505050565b603360009054906101000a900473ffffffffffffffffffffffffffffffffffffffff1673ffffffffffffffffffffffffffffffffffffffff163373ffffffffffffffffffffffffffffffffffffffff161461081e57600080fd5b6108288282612547565b5050565b603b6020528060005260406000206000915054906101000a900460ff1681565b806035805490508110610894576040517f08c379a000000000000000000000000000000000000000000000000000000000815260040161088b90613e97565b60405180910390fd5b8142603582815481106108a357fe5b90600052602060002090600902016007015411156108f6576040517f08c379a00000000000000000000000000000000000000000000000000000000081526004016108ed90614037565b60405180910390fd5b826039600082815260200190815260200160002060009054906101000a900460ff1615610958576040517f08c379a000000000000000000000000000000000000000000000000000000000815260040161094f90613f37565b60405180910390fd5b610962338561257e565b6109a1576040517f08c379a000000000000000000000000000000000000000000000000000000000815260040161099890613e37565b60405180910390fd5b6038600085815260200190815260200160002060009054906101000a900460ff1615610a02576040517f08c379a00000000000000000000000000000000000000000000000000000000081526004016109f990613f17565b60405180910390fd5b60016038600086815260200190815260200160002060006101000a81548160ff021916908315150217905550603660003373ffffffffffffffffffffffffffffffffffffffff1673ffffffffffffffffffffffffffffffffffffffff16815260200190815260200160002060009055610a79612b72565b60358581548110610a8657fe5b9060005260206000209060090201604051806101200160405290816000820160009054906101000a900473ffffffffffffffffffffffffffffffffffffffff1673ffffffffffffffffffffffffffffffffffffffff1673ffffffffffffffffffffffffffffffffffffffff168152602001600182018054600181600116156101000203166002900480601f016020809104026020016040519081016040528092919081815260200182805460018160011615610100020316600290048015610b8f5780601f10610b6457610100808354040283529160200191610b8f565b820191906000526020600020905b815481529060010190602001808311610b7257829003601f168201915b505050505081526020016002820160009054906101000a900473ffffffffffffffffffffffffffffffffffffffff1673ffffffffffffffffffffffffffffffffffffffff1673ffffffffffffffffffffffffffffffffffffffff1681526020016003820160009054906101000a900473ffffffffffffffffffffffffffffffffffffffff1673ffffffffffffffffffffffffffffffffffffffff1673ffffffffffffffffffffffffffffffffffffffff16815260200160048201548152602001600582015481526020016006820154815260200160078201548152602001600882015481525050905060008161010001511415610d0657806040015173ffffffffffffffffffffffffffffffffffffffff166342842e0e30836000015184608001516040518463ffffffff1660e01b8152600401610ccf93929190613c79565b600060405180830381600087803b158015610ce957600080fd5b505af1158015610cfd573d6000803e3d6000fd5b50505050610dad565b806040015173ffffffffffffffffffffffffffffffffffffffff1663f242432a3083600001518460800151610d5b603c60008c8152602001908152602001600020548760a0015161260690919063ffffffff16565b6040518563ffffffff1660e01b8152600401610d7a9493929190613cb0565b600060405180830381600087803b158015610d9457600080fd5b505af1158015610da8573d6000803e3d6000fd5b505050505b843373ffffffffffffffffffffffffffffffffffffffff167f987d620f307ff6b94d58743cb7a7509f24071586a77759b77c2d4e29f75a2f9a610e10603c60008a8152602001908152602001600020548560a0015161260690919063ffffffff16565b604051610e1d9190614099565b60405180910390a35050505050565b603a60009054906101000a900460ff1681565b6000603460008373ffffffffffffffffffffffffffffffffffffffff168560001c1860001b815260200190815260200160002054905092915050565b603c6020528060005260406000206000915090505481565b600060346000838152602001908152602001600020549050919050565b603a60009054906101000a900460ff1615610f5257603b60008673ffffffffffffffffffffffffffffffffffffffff1673ffffffffffffffffffffffffffffffffffffffff16815260200190815260200160002060009054906101000a900460ff16610f51576040517f08c379a0000000000000000000000000000000000000000000000000000000008152600401610f4890613df7565b60405180910390fd5b5b600060019050610f69878787878588886000611d6c565b50505050505050565b603360009054906101000a900473ffffffffffffffffffffffffffffffffffffffff1673ffffffffffffffffffffffffffffffffffffffff163373ffffffffffffffffffffffffffffffffffffffff1614610fcc57600080fd5b600073ffffffffffffffffffffffffffffffffffffffff16603360009054906101000a900473ffffffffffffffffffffffffffffffffffffffff1673ffffffffffffffffffffffffffffffffffffffff167fc7c0c772add429241571afb3805861fb3cfa2af374534088b76cdb4325a87e9a60405160405180910390a36000603360006101000a81548173ffffffffffffffffffffffffffffffffffffffff021916908373ffffffffffffffffffffffffffffffffffffffff160217905550565b600060346000838560001c1860001b815260200190815260200160002054905092915050565b6000603580549050905090565b6037818051602081018201805184825260208301602085012081835280955050505050506000915090505481565b603581815481106110fb57fe5b90600052602060002090600902016000915090508060000160009054906101000a900473ffffffffffffffffffffffffffffffffffffffff1690806001018054600181600116156101000203166002900480601f0160208091040260200160405190810160405280929190818152602001828054600181600116156101000203166002900480156111cd5780601f106111a2576101008083540402835291602001916111cd565b820191906000526020600020905b8154815290600101906020018083116111b057829003601f168201915b5050505050908060020160009054906101000a900473ffffffffffffffffffffffffffffffffffffffff16908060030160009054906101000a900473ffffffffffffffffffffffffffffffffffffffff16908060040154908060050154908060060154908060070154908060080154905089565b603360009054906101000a900473ffffffffffffffffffffffffffffffffffffffff1673ffffffffffffffffffffffffffffffffffffffff163373ffffffffffffffffffffffffffffffffffffffff161461129b57600080fd5b6112c38273ffffffffffffffffffffffffffffffffffffffff168460001c1860001b82612547565b505050565b603360009054906101000a900473ffffffffffffffffffffffffffffffffffffffff1673ffffffffffffffffffffffffffffffffffffffff163373ffffffffffffffffffffffffffffffffffffffff161461132257600080fd5b61132b81612650565b50565b603360009054906101000a900473ffffffffffffffffffffffffffffffffffffffff1673ffffffffffffffffffffffffffffffffffffffff163373ffffffffffffffffffffffffffffffffffffffff1614806113d85750600073ffffffffffffffffffffffffffffffffffffffff16603360009054906101000a900473ffffffffffffffffffffffffffffffffffffffff1673ffffffffffffffffffffffffffffffffffffffff16145b611417576040517f08c379a000000000000000000000000000000000000000000000000000000000815260040161140e90613db7565b60405180910390fd5b80603360006101000a81548173ffffffffffffffffffffffffffffffffffffffff021916908373ffffffffffffffffffffffffffffffffffffffff16021790555050565b60366020528060005260406000206000915090505481565b600060019054906101000a900460ff1680611492575061149161274a565b5b806114a8575060008054906101000a900460ff16155b6114e7576040517f08c379a00000000000000000000000000000000000000000000000000000000081526004016114de90613f97565b60405180910390fd5b60008060019054906101000a900460ff161590508015611537576001600060016101000a81548160ff02191690831515021790555060016000806101000a81548160ff0219169083151502179055505b603360009054906101000a900473ffffffffffffffffffffffffffffffffffffffff1673ffffffffffffffffffffffffffffffffffffffff163373ffffffffffffffffffffffffffffffffffffffff1614806115e15750600073ffffffffffffffffffffffffffffffffffffffff16603360009054906101000a900473ffffffffffffffffffffffffffffffffffffffff1673ffffffffffffffffffffffffffffffffffffffff16145b611620576040517f08c379a000000000000000000000000000000000000000000000000000000000815260040161161790613db7565b60405180910390fd5b81603360006101000a81548173ffffffffffffffffffffffffffffffffffffffff021916908373ffffffffffffffffffffffffffffffffffffffff16021790555080156116825760008060016101000a81548160ff0219169083151502179055505b5050565b603d6020528060005260406000206000915090505481565b8160358054905081106116e6576040517f08c379a00000000000000000000000000000000000000000000000000000000081526004016116dd90613e97565b60405180910390fd5b8242603582815481106116f557fe5b90600052602060002090600902016007015411611747576040517f08c379a000000000000000000000000000000000000000000000000000000000815260040161173e90613ed7565b60405180910390fd5b836039600082815260200190815260200160002060009054906101000a900460ff16156117a9576040517f08c379a00000000000000000000000000000000000000000000000000000000081526004016117a090613f37565b60405180910390fd5b6000603586815481106117b857fe5b90600052602060002090600902019050600185101580156117dd575080600501548511155b61181c576040517f08c379a000000000000000000000000000000000000000000000000000000000815260040161181390613fb7565b60405180910390fd5b806005015461184786603c60008a81526020019081526020016000205461276190919063ffffffff16565b1115611888576040517f08c379a000000000000000000000000000000000000000000000000000000000815260040161187f90614057565b60405180910390fd5b60006118b782600501546118a98460060154896127b690919063ffffffff16565b61282690919063ffffffff16565b90506118df86603c60008a81526020019081526020016000205461276190919063ffffffff16565b603c60008981526020019081526020016000208190555061191c81603d60008a81526020019081526020016000205461276190919063ffffffff16565b603d6000898152602001908152602001600020819055508160050154603c600089815260200190815260200160002054141561197f5760016039600089815260200190815260200160002060006101000a81548160ff0219169083151502179055505b600073ffffffffffffffffffffffffffffffffffffffff168260030160009054906101000a900473ffffffffffffffffffffffffffffffffffffffff1673ffffffffffffffffffffffffffffffffffffffff161415611a8e57348114611a1a576040517f08c379a0000000000000000000000000000000000000000000000000000000008152600401611a1190613fd7565b60405180910390fd5b8160000160009054906101000a900473ffffffffffffffffffffffffffffffffffffffff1673ffffffffffffffffffffffffffffffffffffffff166108fc83600601549081150290604051600060405180830381858888f19350505050158015611a88573d6000803e3d6000fd5b50611b04565b611b03338360000160009054906101000a900473ffffffffffffffffffffffffffffffffffffffff16838560030160009054906101000a900473ffffffffffffffffffffffffffffffffffffffff1673ffffffffffffffffffffffffffffffffffffffff16612870909392919063ffffffff16565b5b600082600801541415611bad578160020160009054906101000a900473ffffffffffffffffffffffffffffffffffffffff1673ffffffffffffffffffffffffffffffffffffffff166342842e0e303385600401546040518463ffffffff1660e01b8152600401611b7693929190613c79565b600060405180830381600087803b158015611b9057600080fd5b505af1158015611ba4573d6000803e3d6000fd5b50505050611c4b565b8160020160009054906101000a900473ffffffffffffffffffffffffffffffffffffffff1673ffffffffffffffffffffffffffffffffffffffff1663f242432a3033856004015486600501546040518563ffffffff1660e01b8152600401611c189493929190613cb0565b600060405180830381600087803b158015611c3257600080fd5b505af1158015611c46573d6000803e3d6000fd5b505050505b863373ffffffffffffffffffffffffffffffffffffffff167f36a39cf3f9b8206db312650e7d954482535a2e33fb0b54e1030f149ed213823a8884604051611c949291906140b4565b60405180910390a350505050505050565b60396020528060005260406000206000915054906101000a900460ff1681565b603360009054906101000a900473ffffffffffffffffffffffffffffffffffffffff1673ffffffffffffffffffffffffffffffffffffffff163373ffffffffffffffffffffffffffffffffffffffff1614611d1f57600080fd5b611d31828460001c1860001b82612547565b505050565b60386020528060005260406000206000915054906101000a900460ff1681565b600063f23a6e6160e01b90509695505050505050565b336000603660008373ffffffffffffffffffffffffffffffffffffffff1673ffffffffffffffffffffffffffffffffffffffff168152602001908152602001600020541115611ea157603960006001603660008573ffffffffffffffffffffffffffffffffffffffff1673ffffffffffffffffffffffffffffffffffffffff1681526020019081526020016000205403815260200190815260200160002060009054906101000a900460ff1615611e6557603660008273ffffffffffffffffffffffffffffffffffffffff1673ffffffffffffffffffffffffffffffffffffffff16815260200190815260200160002060009055611ea0565b6040517f08c379a0000000000000000000000000000000000000000000000000000000008152600401611e9790613e77565b60405180910390fd5b5b886000603782604051611eb49190613b24565b9081526020016040518091039020541115611fdb5760006001603783604051611edd9190613b24565b90815260200160405180910390205403905060006036600060358481548110611f0257fe5b906000526020600020906009020160000160009054906101000a900473ffffffffffffffffffffffffffffffffffffffff1673ffffffffffffffffffffffffffffffffffffffff1673ffffffffffffffffffffffffffffffffffffffff16815260200190815260200160002054118015611f9957504260358281548110611f8557fe5b906000526020600020906009020160070154115b15611fd9576040517f08c379a0000000000000000000000000000000000000000000000000000000008152600401611fd090613d97565b60405180910390fd5b505b600085141561201f576040517f08c379a000000000000000000000000000000000000000000000000000000000815260040161201690613e57565b60405180910390fd5b6000841415612063576040517f08c379a000000000000000000000000000000000000000000000000000000000815260040161205a90613dd7565b60405180910390fd5b600f8a5111156120a8576040517f08c379a000000000000000000000000000000000000000000000000000000000815260040161209f90613f57565b60405180910390fd5b600083141561216857600186146120f4576040517f08c379a00000000000000000000000000000000000000000000000000000000081526004016120eb90613ef7565b60405180910390fd5b8873ffffffffffffffffffffffffffffffffffffffff166342842e0e33308a6040518463ffffffff1660e01b815260040161213193929190613b56565b600060405180830381600087803b15801561214b57600080fd5b505af115801561215f573d6000803e3d6000fd5b5050505061221e565b60008614156121ac576040517f08c379a00000000000000000000000000000000000000000000000000000000081526004016121a390613ef7565b60405180910390fd5b8873ffffffffffffffffffffffffffffffffffffffff1663f242432a33308a8a6040518563ffffffff1660e01b81526004016121eb9493929190613b8d565b600060405180830381600087803b15801561220557600080fd5b505af1158015612219573d6000803e3d6000fd5b505050505b612226612b72565b33816000019073ffffffffffffffffffffffffffffffffffffffff16908173ffffffffffffffffffffffffffffffffffffffff16815250508a816020018190525089816040019073ffffffffffffffffffffffffffffffffffffffff16908173ffffffffffffffffffffffffffffffffffffffff168152505088816060019073ffffffffffffffffffffffffffffffffffffffff16908173ffffffffffffffffffffffffffffffffffffffff168152505087816080018181525050868160a0018181525050858160c0018181525050612308854261276190919063ffffffff16565b8160e0018181525050838161010001818152505060006035805490509050603582908060018154018082558091505060019003906000526020600020906009020160009091909190915060008201518160000160006101000a81548173ffffffffffffffffffffffffffffffffffffffff021916908373ffffffffffffffffffffffffffffffffffffffff16021790555060208201518160010190805190602001906123b5929190612c00565b5060408201518160020160006101000a81548173ffffffffffffffffffffffffffffffffffffffff021916908373ffffffffffffffffffffffffffffffffffffffff16021790555060608201518160030160006101000a81548173ffffffffffffffffffffffffffffffffffffffff021916908373ffffffffffffffffffffffffffffffffffffffff1602179055506080820151816004015560a0820151816005015560c0820151816006015560e0820151816007015561010082015181600801555050603580549050603660003373ffffffffffffffffffffffffffffffffffffffff1673ffffffffffffffffffffffffffffffffffffffff1681526020019081526020016000208190555060358054905060378d6040516124d89190613b24565b908152602001604051809103902081905550803373ffffffffffffffffffffffffffffffffffffffff167f89e79b43dbf06920dd0e7fc08d9dfb54eb6ee8dae358c231d80c8649929b767b846040516125319190614077565b60405180910390a3505050505050505050505050565b8060346000848152602001908152602001600020541461257a578060346000848152602001908152602001600020819055505b5050565b60008273ffffffffffffffffffffffffffffffffffffffff16603583815481106125a457fe5b906000526020600020906009020160000160009054906101000a900473ffffffffffffffffffffffffffffffffffffffff1673ffffffffffffffffffffffffffffffffffffffff1614156125fb5760019050612600565b600090505b92915050565b600061264883836040518060400160405280601e81526020017f536166654d6174683a207375627472616374696f6e206f766572666c6f7700008152506128f9565b905092915050565b600073ffffffffffffffffffffffffffffffffffffffff168173ffffffffffffffffffffffffffffffffffffffff16141561268a57600080fd5b8073ffffffffffffffffffffffffffffffffffffffff16603360009054906101000a900473ffffffffffffffffffffffffffffffffffffffff1673ffffffffffffffffffffffffffffffffffffffff167fc7c0c772add429241571afb3805861fb3cfa2af374534088b76cdb4325a87e9a60405160405180910390a380603360006101000a81548173ffffffffffffffffffffffffffffffffffffffff021916908373ffffffffffffffffffffffffffffffffffffffff16021790555050565b6000803090506000813b9050600081149250505090565b6000808284019050838110156127ac576040517f08c379a00000000000000000000000000000000000000000000000000000000081526004016127a390613e17565b60405180910390fd5b8091505092915050565b6000808314156127c95760009050612820565b60008284029050828482816127da57fe5b041461281b576040517f08c379a000000000000000000000000000000000000000000000000000000000815260040161281290613f77565b60405180910390fd5b809150505b92915050565b600061286883836040518060400160405280601a81526020017f536166654d6174683a206469766973696f6e206279207a65726f000000000000815250612954565b905092915050565b6128f3846323b872dd60e01b85858560405160240161289193929190613d08565b604051602081830303815290604052907bffffffffffffffffffffffffffffffffffffffffffffffffffffffff19166020820180517bffffffffffffffffffffffffffffffffffffffffffffffffffffffff83818316178352505050506129b5565b50505050565b6000838311158290612941576040517f08c379a00000000000000000000000000000000000000000000000000000000081526004016129389190613d75565b60405180910390fd5b5060008385039050809150509392505050565b6000808311829061299b576040517f08c379a00000000000000000000000000000000000000000000000000000000081526004016129929190613d75565b60405180910390fd5b5060008385816129a757fe5b049050809150509392505050565b6129d48273ffffffffffffffffffffffffffffffffffffffff16612b27565b612a13576040517f08c379a0000000000000000000000000000000000000000000000000000000008152600401612a0a90614017565b60405180910390fd5b600060608373ffffffffffffffffffffffffffffffffffffffff1683604051612a3c9190613b0d565b6000604051808303816000865af19150503d8060008114612a79576040519150601f19603f3d011682016040523d82523d6000602084013e612a7e565b606091505b509150915081612ac3576040517f08c379a0000000000000000000000000000000000000000000000000000000008152600401612aba90613eb7565b60405180910390fd5b600081511115612b215780806020019051810190612ae19190612eca565b612b20576040517f08c379a0000000000000000000000000000000000000000000000000000000008152600401612b1790613ff7565b60405180910390fd5b5b50505050565b60008060007fc5d2460186f7233c927e7db2dcc703c0e500b653ca82273b7bfad8045d85a47060001b9050833f9150808214158015612b6957506000801b8214155b92505050919050565b604051806101200160405280600073ffffffffffffffffffffffffffffffffffffffff16815260200160608152602001600073ffffffffffffffffffffffffffffffffffffffff168152602001600073ffffffffffffffffffffffffffffffffffffffff16815260200160008152602001600081526020016000815260200160008152602001600081525090565b828054600181600116156101000203166002900490600052602060002090601f016020900481019282601f10612c4157805160ff1916838001178555612c6f565b82800160010185558215612c6f579182015b82811115612c6e578251825591602001919060010190612c53565b5b509050612c7c9190612c80565b5090565b5b80821115612c99576000816000905550600101612c81565b5090565b600081359050612cac816142ae565b92915050565b600081519050612cc1816142c5565b92915050565b600081359050612cd6816142dc565b92915050565b60008083601f840112612cee57600080fd5b8235905067ffffffffffffffff811115612d0757600080fd5b602083019150836001820283011115612d1f57600080fd5b9250929050565b600082601f830112612d3757600080fd5b8135612d4a612d458261410a565b6140dd565b91508082526020830160208301858383011115612d6657600080fd5b612d7183828461425b565b50505092915050565b600081359050612d89816142f3565b92915050565b600060208284031215612da157600080fd5b6000612daf84828501612c9d565b91505092915050565b600080600080600060808688031215612dd057600080fd5b6000612dde88828901612c9d565b9550506020612def88828901612c9d565b9450506040612e0088828901612d7a565b935050606086013567ffffffffffffffff811115612e1d57600080fd5b612e2988828901612cdc565b92509250509295509295909350565b60008060008060008060a08789031215612e5157600080fd5b6000612e5f89828a01612c9d565b9650506020612e7089828a01612c9d565b9550506040612e8189828a01612d7a565b9450506060612e9289828a01612d7a565b935050608087013567ffffffffffffffff811115612eaf57600080fd5b612ebb89828a01612cdc565b92509250509295509295509295565b600060208284031215612edc57600080fd5b6000612eea84828501612cb2565b91505092915050565b600060208284031215612f0557600080fd5b6000612f1384828501612cc7565b91505092915050565b60008060408385031215612f2f57600080fd5b6000612f3d85828601612cc7565b9250506020612f4e85828601612c9d565b9150509250929050565b600080600060608486031215612f6d57600080fd5b6000612f7b86828701612cc7565b9350506020612f8c86828701612c9d565b9250506040612f9d86828701612d7a565b9150509250925092565b60008060408385031215612fba57600080fd5b6000612fc885828601612cc7565b9250506020612fd985828601612d7a565b9150509250929050565b600080600060608486031215612ff857600080fd5b600061300686828701612cc7565b935050602061301786828701612d7a565b925050604061302886828701612d7a565b9150509250925092565b60006020828403121561304457600080fd5b600082013567ffffffffffffffff81111561305e57600080fd5b61306a84828501612d26565b91505092915050565b60008060008060008060c0878903121561308c57600080fd5b600087013567ffffffffffffffff8111156130a657600080fd5b6130b289828a01612d26565b96505060206130c389828a01612c9d565b95505060406130d489828a01612c9d565b94505060606130e589828a01612d7a565b93505060806130f689828a01612d7a565b92505060a061310789828a01612d7a565b9150509295509295509295565b600080600080600080600060e0888a03121561312f57600080fd5b600088013567ffffffffffffffff81111561314957600080fd5b6131558a828b01612d26565b97505060206131668a828b01612c9d565b96505060406131778a828b01612c9d565b95505060606131888a828b01612d7a565b94505060806131998a828b01612d7a565b93505060a06131aa8a828b01612d7a565b92505060c06131bb8a828b01612d7a565b91505092959891949750929550565b6000602082840312156131dc57600080fd5b60006131ea84828501612d7a565b91505092915050565b6000806040838503121561320657600080fd5b600061321485828601612d7a565b925050602061322585828601612d7a565b9150509250929050565b61323881614225565b82525050565b613247816141a7565b82525050565b613256816141a7565b82525050565b61326581614195565b82525050565b61327481614195565b82525050565b613283816141b9565b82525050565b613292816141cf565b82525050565b60006132a382614136565b6132ad818561415d565b93506132bd81856020860161426a565b80840191505092915050565b60006132d482614141565b6132de8185614168565b93506132ee81856020860161426a565b6132f78161429d565b840191505092915050565b600061330d82614141565b6133178185614179565b935061332781856020860161426a565b6133308161429d565b840191505092915050565b600061334682614141565b613350818561418a565b935061336081856020860161426a565b80840191505092915050565b6000613379602983614179565b91507f61206c69766520706f6f6c20686173206265656e20637265617465642062792060008301527f74686973206e616d6500000000000000000000000000000000000000000000006020830152604082019050919050565b60006133df601083614179565b91507f696e76616c696420676f7665726e6f72000000000000000000000000000000006000830152602082019050919050565b600061341f601e83614179565b91507f7468652076616c7565206f66206475726174696f6e206973207a65726f2e00006000830152602082019050919050565b600061345f600e83614179565b91507f696e76616c696420746f6b656e300000000000000000000000000000000000006000830152602082019050919050565b600061349f601b83614179565b91507f536166654d6174683a206164646974696f6e206f766572666c6f7700000000006000830152602082019050919050565b60006134df601a83614179565b91507f73656e646572206973206e6f7420706f6f6c2063726561746f720000000000006000830152602082019050919050565b600061351f602283614179565b91507f7468652076616c7565206f6620616d6f756e74546f74616c31206973207a657260008301527f6f2e0000000000000000000000000000000000000000000000000000000000006020830152604082019050919050565b6000613585602283614179565b91507f6120706f6f6c206861732063726561746564206279207468697320616464726560008301527f73730000000000000000000000000000000000000000000000000000000000006020830152604082019050919050565b60006135eb601883614179565b91507f7468697320706f6f6c20646f6573206e6f7420657869737400000000000000006000830152602082019050919050565b600061362b602083614179565b91507f5361666545524332303a206c6f772d6c6576656c2063616c6c206661696c65646000830152602082019050919050565b600061366b601383614179565b91507f7468697320706f6f6c20697320636c6f736564000000000000000000000000006000830152602082019050919050565b60006136ab601483614179565b91507f696e76616c696420616d6f756e74546f74616c300000000000000000000000006000830152602082019050919050565b60006136eb601d83614179565b91507f63726561746f722068617320636c61696d6564207468697320706f6f6c0000006000830152602082019050919050565b600061372b601483614179565b91507f7468697320706f6f6c20697320737761707065640000000000000000000000006000830152602082019050919050565b600061376b601e83614179565b91507f746865206c656e677468206f66206e616d6520697320746f6f206c6f6e6700006000830152602082019050919050565b60006137ab602183614179565b91507f536166654d6174683a206d756c7469706c69636174696f6e206f766572666c6f60008301527f77000000000000000000000000000000000000000000000000000000000000006020830152604082019050919050565b6000613811602e83614179565b91507f436f6e747261637420696e7374616e63652068617320616c726561647920626560008301527f656e20696e697469616c697a65640000000000000000000000000000000000006020830152604082019050919050565b600061387760008361414c565b9150600082019050919050565b6000613891600f83614179565b91507f696e76616c696420616d6f756e743000000000000000000000000000000000006000830152602082019050919050565b60006138d1601283614179565b91507f696e76616c69642045544820616d6f756e7400000000000000000000000000006000830152602082019050919050565b6000613911602a83614179565b91507f5361666545524332303a204552433230206f7065726174696f6e20646964206e60008301527f6f742073756363656564000000000000000000000000000000000000000000006020830152604082019050919050565b6000613977601f83614179565b91507f5361666545524332303a2063616c6c20746f206e6f6e2d636f6e7472616374006000830152602082019050919050565b60006139b7601783614179565b91507f7468697320706f6f6c206973206e6f7420636c6f7365640000000000000000006000830152602082019050919050565b60006139f7601e83614179565b91507f706f6f6c2066696c6c6564206f7220696e76616c696420616d6f756e743000006000830152602082019050919050565b600061012083016000830151613a43600086018261323e565b5060208301518482036020860152613a5b82826132c9565b9150506040830151613a70604086018261325c565b506060830151613a83606086018261325c565b506080830151613a966080860182613aef565b5060a0830151613aa960a0860182613aef565b5060c0830151613abc60c0860182613aef565b5060e0830151613acf60e0860182613aef565b50610100830151613ae4610100860182613aef565b508091505092915050565b613af88161421b565b82525050565b613b078161421b565b82525050565b6000613b198284613298565b915081905092915050565b6000613b30828461333b565b915081905092915050565b6000602082019050613b50600083018461326b565b92915050565b6000606082019050613b6b600083018661322f565b613b78602083018561326b565b613b856040830184613afe565b949350505050565b600060a082019050613ba2600083018761322f565b613baf602083018661326b565b613bbc6040830185613afe565b613bc96060830184613afe565b8181036080830152613bda8161386a565b905095945050505050565b600061012082019050613bfb600083018c61324d565b8181036020830152613c0d818b613302565b9050613c1c604083018a61326b565b613c29606083018961326b565b613c366080830188613afe565b613c4360a0830187613afe565b613c5060c0830186613afe565b613c5d60e0830185613afe565b613c6b610100830184613afe565b9a9950505050505050505050565b6000606082019050613c8e600083018661326b565b613c9b602083018561322f565b613ca86040830184613afe565b949350505050565b600060a082019050613cc5600083018761326b565b613cd2602083018661322f565b613cdf6040830185613afe565b613cec6060830184613afe565b8181036080830152613cfd8161386a565b905095945050505050565b6000606082019050613d1d600083018661326b565b613d2a602083018561326b565b613d376040830184613afe565b949350505050565b6000602082019050613d54600083018461327a565b92915050565b6000602082019050613d6f6000830184613289565b92915050565b60006020820190508181036000830152613d8f8184613302565b905092915050565b60006020820190508181036000830152613db08161336c565b9050919050565b60006020820190508181036000830152613dd0816133d2565b9050919050565b60006020820190508181036000830152613df081613412565b9050919050565b60006020820190508181036000830152613e1081613452565b9050919050565b60006020820190508181036000830152613e3081613492565b9050919050565b60006020820190508181036000830152613e50816134d2565b9050919050565b60006020820190508181036000830152613e7081613512565b9050919050565b60006020820190508181036000830152613e9081613578565b9050919050565b60006020820190508181036000830152613eb0816135de565b9050919050565b60006020820190508181036000830152613ed08161361e565b9050919050565b60006020820190508181036000830152613ef08161365e565b9050919050565b60006020820190508181036000830152613f108161369e565b9050919050565b60006020820190508181036000830152613f30816136de565b9050919050565b60006020820190508181036000830152613f508161371e565b9050919050565b60006020820190508181036000830152613f708161375e565b9050919050565b60006020820190508181036000830152613f908161379e565b9050919050565b60006020820190508181036000830152613fb081613804565b9050919050565b60006020820190508181036000830152613fd081613884565b9050919050565b60006020820190508181036000830152613ff0816138c4565b9050919050565b6000602082019050818103600083015261401081613904565b9050919050565b600060208201905081810360008301526140308161396a565b9050919050565b60006020820190508181036000830152614050816139aa565b9050919050565b60006020820190508181036000830152614070816139ea565b9050919050565b600060208201905081810360008301526140918184613a2a565b905092915050565b60006020820190506140ae6000830184613afe565b92915050565b60006040820190506140c96000830185613afe565b6140d66020830184613afe565b9392505050565b6000604051905081810181811067ffffffffffffffff8211171561410057600080fd5b8060405250919050565b600067ffffffffffffffff82111561412157600080fd5b601f19601f8301169050602081019050919050565b600081519050919050565b600081519050919050565b600082825260208201905092915050565b600081905092915050565b600082825260208201905092915050565b600082825260208201905092915050565b600081905092915050565b60006141a0826141fb565b9050919050565b60006141b2826141fb565b9050919050565b60008115159050919050565b6000819050919050565b60007fffffffff0000000000000000000000000000000000000000000000000000000082169050919050565b600073ffffffffffffffffffffffffffffffffffffffff82169050919050565b6000819050919050565b600061423082614237565b9050919050565b600061424282614249565b9050919050565b6000614254826141fb565b9050919050565b82818337600083830152505050565b60005b8381101561428857808201518184015260208101905061426d565b83811115614297576000848401525b50505050565b6000601f19601f8301169050919050565b6142b781614195565b81146142c257600080fd5b50565b6142ce816141b9565b81146142d957600080fd5b50565b6142e5816141c5565b81146142f057600080fd5b50565b6142fc8161421b565b811461430757600080fd5b5056fea264697066735822122013751f0f8cc0da86ab84e1602e8ed19759de35a11cfe4b2ecee01ed67390f7b264736f6c634300060c0033",
  "compiler": {
    "name": "solc",
    "version": "0.6.12+commit.27d51765.Emscripten.clang",
    "optimizer": {
      "enabled": false,
      "runs": 200
    },
    "evmVersion": "petersburg"
  }
}