{
  "fileName": "FixedSwapNFT.sol",
  "contractName": "FixedSwapNFT",
  "source": "// SPDX-License-Identifier: MIT\n\npragma solidity ^0.6.0;\npragma experimental ABIEncoderV2;\n\nimport \"@openzeppelin/contracts-ethereum-package/contracts/math/SafeMath.sol\";\nimport \"@openzeppelin/contracts-ethereum-package/contracts/token/ERC20/SafeERC20.sol\";\nimport \"@openzeppelin/contracts-ethereum-package/contracts/token/ERC20/IERC20.sol\";\nimport \"@openzeppelin/contracts-ethereum-package/contracts/token/ERC721/IERC721.sol\";\nimport \"@openzeppelin/contracts-ethereum-package/contracts/token/ERC721/IERC721Receiver.sol\";\nimport \"./Governable.sol\";\nimport \"./interfaces/IERC1155.sol\";\n\ncontract FixedSwapNFT is Configurable, IERC721Receiver {\n    using SafeMath for uint;\n    using SafeERC20 for IERC20;\n\n    uint    internal constant TypeErc721            = 0;\n    uint    internal constant TypeErc1155           = 1;\n\n    struct Pool {\n        // address of pool creator\n        address payable creator;\n        // pool name\n        string name;\n        // address of sell token\n        address token0;\n        // address of buy token\n        address token1;\n        // token id of token0\n        uint tokenId;\n        // total amount of token0\n        uint amountTotal0;\n        // total amount of token1\n        uint amountTotal1;\n        // the timestamp in seconds the pool will be closed\n        uint closeAt;\n        // NFT token type\n        uint nftType;\n    }\n\n    Pool[] public pools;\n\n    // creator address => pool index + 1. if the result is 0, the account don't create any pool.\n    mapping(address => uint) public myCreatedP;\n    // name => pool index + 1\n    mapping(string => uint) public myNameP;\n\n    // pool index => a flag that if creator is claimed the pool\n    mapping(uint => bool) public creatorClaimedP;\n    mapping(uint => bool) public swappedP;\n\n    // check if token0 in whitelist\n    bool public checkToken0;\n    // token0 address => true or false\n    mapping(address => bool) public token0List;\n\n    event Created(Pool pool, uint index);\n    event Swapped(address sender, uint index);\n    event Claimed(address sender, uint index);\n\n    function initialize(address _governor) public override initializer {\n        require(msg.sender == governor || governor == address(0), \"invalid governor\");\n        governor = _governor;\n    }\n\n    function createErc721(\n        // name of the pool\n        string memory name,\n        // address of token0\n        address token0,\n        // address of token1\n        address token1,\n        // token id of token0\n        uint tokenId,\n        // total amount of token1\n        uint amountTotal1,\n        // duration time\n        uint duration\n    ) external payable {\n        if (checkToken0) {\n            require(token0List[token0], \"invalid token0\");\n        }\n        uint amountTotal0 = 1;\n        _create(\n            name, token0, token1, tokenId, amountTotal0, amountTotal1,\n            duration, TypeErc721\n        );\n    }\n\n    function createErc1155(\n        // name of the pool\n        string memory name,\n        // address of token0\n        address token0,\n        // address of token1\n        address token1,\n        // token id of token0\n        uint tokenId,\n        // total amount of token0\n        uint amountTotal0,\n        // total amount of token1\n        uint amountTotal1,\n        // duration time\n        uint duration\n    ) external payable {\n        if (checkToken0) {\n            require(token0List[token0], \"invalid token0\");\n        }\n        _create(\n            name, token0, token1, tokenId, amountTotal0, amountTotal1,\n            duration, TypeErc1155\n        );\n    }\n\n    function _create(\n        string memory name,\n        address token0,\n        address token1,\n        uint tokenId,\n        uint amountTotal0,\n        uint amountTotal1,\n        uint duration,\n        uint nftType\n    ) private\n        isPoolNotCreate(msg.sender)\n        nameNotBeenToken(name)\n    {\n        require(amountTotal1 != 0, \"the value of amountTotal1 is zero.\");\n        require(duration != 0, \"the value of duration is zero.\");\n        require(bytes(name).length <= 15, \"the length of name is too long\");\n\n        // transfer tokenId of token0 to this contract\n        if (nftType == TypeErc721) {\n            require(amountTotal0 == 1, \"invalid amountTotal0\");\n            IERC721(token0).safeTransferFrom(msg.sender, address(this), tokenId);\n        } else {\n            require(amountTotal0 != 0, \"invalid amountTotal0\");\n            IERC1155(token0).safeTransferFrom(msg.sender, address(this), tokenId, amountTotal0, \"\");\n        }\n\n        // creator pool\n        Pool memory pool;\n        pool.creator = msg.sender;\n        pool.name = name;\n        pool.token0 = token0;\n        pool.token1 = token1;\n        pool.tokenId = tokenId;\n        pool.amountTotal0 = amountTotal0;\n        pool.amountTotal1 = amountTotal1;\n        pool.closeAt = now.add(duration);\n        pool.nftType = nftType;\n\n        uint index = pools.length;\n\n        pools.push(pool);\n        myCreatedP[msg.sender] = pools.length;\n        myNameP[name] = pools.length;\n\n        emit Created(pool, index);\n    }\n\n    function swap(uint index) external payable\n        isPoolExist(index)\n        isPoolNotClosed(index)\n        isPoolNotSwap(index)\n    {\n        Pool storage pool = pools[index];\n        // mark pool is swapped\n        swappedP[index] = true;\n\n        // transfer amount of token1 to creator\n        if (pool.token1 == address(0)) {\n            require(pool.amountTotal1 == msg.value, \"invalid ETH amount\");\n            // transfer ETH to creator\n            pool.creator.transfer(pool.amountTotal1);\n        } else {\n            IERC20(pool.token1).safeTransferFrom(msg.sender, address(this), pool.amountTotal1);\n            IERC20(pool.token1).safeApprove(address(this), 0);\n            // transfer token1 to creator\n            IERC20(pool.token1).safeTransfer(pool.creator, pool.amountTotal1);\n        }\n\n        // transfer tokenId of token0 to sender\n        if (pool.nftType == TypeErc721) {\n            IERC721(pool.token0).safeTransferFrom(address(this), msg.sender, pool.tokenId);\n        } else {\n            IERC1155(pool.token0).safeTransferFrom(address(this), msg.sender, pool.tokenId, pool.amountTotal0, \"\");\n        }\n\n        emit Swapped(msg.sender, index);\n    }\n\n    function creatorClaim(uint index) external\n        isPoolExist(index)\n        isPoolClosed(index)\n        isPoolNotSwap(index)\n    {\n        require(isCreator(msg.sender, index), \"sender is not pool creator\");\n        require(!creatorClaimedP[index], \"creator has claimed this pool\");\n        creatorClaimedP[index] = true;\n\n        // remove ownership of this pool from creator\n        delete myCreatedP[msg.sender];\n\n        Pool memory pool = pools[index];\n        if (pool.nftType == TypeErc721) {\n            IERC721(pool.token0).safeTransferFrom(address(this), pool.creator, pool.tokenId);\n        } else {\n            IERC1155(pool.token0).safeTransferFrom(address(this), pool.creator, pool.tokenId, pool.amountTotal0, \"\");\n        }\n\n        emit Claimed(msg.sender, index);\n    }\n\n    function transferGovernor(address _governor) external {\n        require(msg.sender == governor || governor == address(0), \"invalid governor\");\n        governor = _governor;\n    }\n\n    function isCreator(address target, uint index) internal view returns (bool) {\n        if (pools[index].creator == target) {\n            return true;\n        }\n        return false;\n    }\n\n    function getPoolCount() external view returns (uint) {\n        return pools.length;\n    }\n\n    function onERC721Received(address, address, uint, bytes calldata) external override returns (bytes4) {\n        return this.onERC721Received.selector;\n    }\n\n    function onERC1155Received(address, address, uint, uint, bytes calldata) external returns(bytes4) {\n        return this.onERC1155Received.selector;\n    }\n\n    modifier isPoolClosed(uint index) {\n        require(pools[index].closeAt <= now, \"this pool is not closed\");\n        _;\n    }\n\n    modifier isPoolNotClosed(uint index) {\n        require(pools[index].closeAt > now, \"this pool is closed\");\n        _;\n    }\n\n    modifier isPoolNotSwap(uint index) {\n        require(!swappedP[index], \"this pool is swapped\");\n        _;\n    }\n\n    modifier isPoolNotCreate(address creator) {\n        if (myCreatedP[creator] > 0) {\n            if (swappedP[myCreatedP[creator]-1]) {\n                delete myCreatedP[creator];\n            } else {\n                revert(\"a pool has created by this address\");\n            }\n        }\n        _;\n    }\n\n    modifier isPoolExist(uint index) {\n        require(index < pools.length, \"this pool does not exist\");\n        _;\n    }\n\n    modifier nameNotBeenToken(string memory name) {\n        // check if someone has take this name\n        if (myNameP[name] > 0) {\n            uint index = myNameP[name] - 1;\n            if ((myCreatedP[pools[index].creator] > 0) && (pools[index].closeAt > now)) {\n                revert(\"a live pool has been created by this name\");\n            }\n        }\n        _;\n    }\n}\n",
  "sourcePath": "contracts/FixedSwapNFT.sol",
  "abi": [
    {
      "anonymous": false,
      "inputs": [
        {
          "indexed": false,
          "internalType": "address",
          "name": "sender",
          "type": "address"
        },
        {
          "indexed": false,
          "internalType": "uint256",
          "name": "index",
          "type": "uint256"
        }
      ],
      "name": "Claimed",
      "type": "event"
    },
    {
      "anonymous": false,
      "inputs": [
        {
          "components": [
            {
              "internalType": "address payable",
              "name": "creator",
              "type": "address"
            },
            {
              "internalType": "string",
              "name": "name",
              "type": "string"
            },
            {
              "internalType": "address",
              "name": "token0",
              "type": "address"
            },
            {
              "internalType": "address",
              "name": "token1",
              "type": "address"
            },
            {
              "internalType": "uint256",
              "name": "tokenId",
              "type": "uint256"
            },
            {
              "internalType": "uint256",
              "name": "amountTotal0",
              "type": "uint256"
            },
            {
              "internalType": "uint256",
              "name": "amountTotal1",
              "type": "uint256"
            },
            {
              "internalType": "uint256",
              "name": "closeAt",
              "type": "uint256"
            },
            {
              "internalType": "uint256",
              "name": "nftType",
              "type": "uint256"
            }
          ],
          "indexed": false,
          "internalType": "struct FixedSwapNFT.Pool",
          "name": "pool",
          "type": "tuple"
        },
        {
          "indexed": false,
          "internalType": "uint256",
          "name": "index",
          "type": "uint256"
        }
      ],
      "name": "Created",
      "type": "event"
    },
    {
      "anonymous": false,
      "inputs": [
        {
          "indexed": true,
          "internalType": "address",
          "name": "previousGovernor",
          "type": "address"
        },
        {
          "indexed": true,
          "internalType": "address",
          "name": "newGovernor",
          "type": "address"
        }
      ],
      "name": "GovernorshipTransferred",
      "type": "event"
    },
    {
      "anonymous": false,
      "inputs": [
        {
          "indexed": false,
          "internalType": "address",
          "name": "sender",
          "type": "address"
        },
        {
          "indexed": false,
          "internalType": "uint256",
          "name": "index",
          "type": "uint256"
        }
      ],
      "name": "Swapped",
      "type": "event"
    },
    {
      "inputs": [],
      "name": "checkToken0",
      "outputs": [
        {
          "internalType": "bool",
          "name": "",
          "type": "bool"
        }
      ],
      "stateMutability": "view",
      "type": "function"
    },
    {
      "inputs": [
        {
          "internalType": "string",
          "name": "name",
          "type": "string"
        },
        {
          "internalType": "address",
          "name": "token0",
          "type": "address"
        },
        {
          "internalType": "address",
          "name": "token1",
          "type": "address"
        },
        {
          "internalType": "uint256",
          "name": "tokenId",
          "type": "uint256"
        },
        {
          "internalType": "uint256",
          "name": "amountTotal0",
          "type": "uint256"
        },
        {
          "internalType": "uint256",
          "name": "amountTotal1",
          "type": "uint256"
        },
        {
          "internalType": "uint256",
          "name": "duration",
          "type": "uint256"
        }
      ],
      "name": "createErc1155",
      "outputs": [],
      "stateMutability": "payable",
      "type": "function"
    },
    {
      "inputs": [
        {
          "internalType": "string",
          "name": "name",
          "type": "string"
        },
        {
          "internalType": "address",
          "name": "token0",
          "type": "address"
        },
        {
          "internalType": "address",
          "name": "token1",
          "type": "address"
        },
        {
          "internalType": "uint256",
          "name": "tokenId",
          "type": "uint256"
        },
        {
          "internalType": "uint256",
          "name": "amountTotal1",
          "type": "uint256"
        },
        {
          "internalType": "uint256",
          "name": "duration",
          "type": "uint256"
        }
      ],
      "name": "createErc721",
      "outputs": [],
      "stateMutability": "payable",
      "type": "function"
    },
    {
      "inputs": [
        {
          "internalType": "uint256",
          "name": "index",
          "type": "uint256"
        }
      ],
      "name": "creatorClaim",
      "outputs": [],
      "stateMutability": "nonpayable",
      "type": "function"
    },
    {
      "inputs": [
        {
          "internalType": "uint256",
          "name": "",
          "type": "uint256"
        }
      ],
      "name": "creatorClaimedP",
      "outputs": [
        {
          "internalType": "bool",
          "name": "",
          "type": "bool"
        }
      ],
      "stateMutability": "view",
      "type": "function"
    },
    {
      "inputs": [
        {
          "internalType": "bytes32",
          "name": "key",
          "type": "bytes32"
        },
        {
          "internalType": "address",
          "name": "addr",
          "type": "address"
        }
      ],
      "name": "getConfig",
      "outputs": [
        {
          "internalType": "uint256",
          "name": "",
          "type": "uint256"
        }
      ],
      "stateMutability": "view",
      "type": "function"
    },
    {
      "inputs": [
        {
          "internalType": "bytes32",
          "name": "key",
          "type": "bytes32"
        }
      ],
      "name": "getConfig",
      "outputs": [
        {
          "internalType": "uint256",
          "name": "",
          "type": "uint256"
        }
      ],
      "stateMutability": "view",
      "type": "function"
    },
    {
      "inputs": [
        {
          "internalType": "bytes32",
          "name": "key",
          "type": "bytes32"
        },
        {
          "internalType": "uint256",
          "name": "index",
          "type": "uint256"
        }
      ],
      "name": "getConfig",
      "outputs": [
        {
          "internalType": "uint256",
          "name": "",
          "type": "uint256"
        }
      ],
      "stateMutability": "view",
      "type": "function"
    },
    {
      "inputs": [],
      "name": "getPoolCount",
      "outputs": [
        {
          "internalType": "uint256",
          "name": "",
          "type": "uint256"
        }
      ],
      "stateMutability": "view",
      "type": "function"
    },
    {
      "inputs": [],
      "name": "governor",
      "outputs": [
        {
          "internalType": "address",
          "name": "",
          "type": "address"
        }
      ],
      "stateMutability": "view",
      "type": "function"
    },
    {
      "inputs": [
        {
          "internalType": "address",
          "name": "_governor",
          "type": "address"
        }
      ],
      "name": "initialize",
      "outputs": [],
      "stateMutability": "nonpayable",
      "type": "function"
    },
    {
      "inputs": [
        {
          "internalType": "address",
          "name": "",
          "type": "address"
        }
      ],
      "name": "myCreatedP",
      "outputs": [
        {
          "internalType": "uint256",
          "name": "",
          "type": "uint256"
        }
      ],
      "stateMutability": "view",
      "type": "function"
    },
    {
      "inputs": [
        {
          "internalType": "string",
          "name": "",
          "type": "string"
        }
      ],
      "name": "myNameP",
      "outputs": [
        {
          "internalType": "uint256",
          "name": "",
          "type": "uint256"
        }
      ],
      "stateMutability": "view",
      "type": "function"
    },
    {
      "inputs": [
        {
          "internalType": "address",
          "name": "",
          "type": "address"
        },
        {
          "internalType": "address",
          "name": "",
          "type": "address"
        },
        {
          "internalType": "uint256",
          "name": "",
          "type": "uint256"
        },
        {
          "internalType": "uint256",
          "name": "",
          "type": "uint256"
        },
        {
          "internalType": "bytes",
          "name": "",
          "type": "bytes"
        }
      ],
      "name": "onERC1155Received",
      "outputs": [
        {
          "internalType": "bytes4",
          "name": "",
          "type": "bytes4"
        }
      ],
      "stateMutability": "nonpayable",
      "type": "function"
    },
    {
      "inputs": [
        {
          "internalType": "address",
          "name": "",
          "type": "address"
        },
        {
          "internalType": "address",
          "name": "",
          "type": "address"
        },
        {
          "internalType": "uint256",
          "name": "",
          "type": "uint256"
        },
        {
          "internalType": "bytes",
          "name": "",
          "type": "bytes"
        }
      ],
      "name": "onERC721Received",
      "outputs": [
        {
          "internalType": "bytes4",
          "name": "",
          "type": "bytes4"
        }
      ],
      "stateMutability": "nonpayable",
      "type": "function"
    },
    {
      "inputs": [
        {
          "internalType": "uint256",
          "name": "",
          "type": "uint256"
        }
      ],
      "name": "pools",
      "outputs": [
        {
          "internalType": "address payable",
          "name": "creator",
          "type": "address"
        },
        {
          "internalType": "string",
          "name": "name",
          "type": "string"
        },
        {
          "internalType": "address",
          "name": "token0",
          "type": "address"
        },
        {
          "internalType": "address",
          "name": "token1",
          "type": "address"
        },
        {
          "internalType": "uint256",
          "name": "tokenId",
          "type": "uint256"
        },
        {
          "internalType": "uint256",
          "name": "amountTotal0",
          "type": "uint256"
        },
        {
          "internalType": "uint256",
          "name": "amountTotal1",
          "type": "uint256"
        },
        {
          "internalType": "uint256",
          "name": "closeAt",
          "type": "uint256"
        },
        {
          "internalType": "uint256",
          "name": "nftType",
          "type": "uint256"
        }
      ],
      "stateMutability": "view",
      "type": "function"
    },
    {
      "inputs": [],
      "name": "renounceGovernorship",
      "outputs": [],
      "stateMutability": "nonpayable",
      "type": "function"
    },
    {
      "inputs": [
        {
          "internalType": "bytes32",
          "name": "key",
          "type": "bytes32"
        },
        {
          "internalType": "uint256",
          "name": "value",
          "type": "uint256"
        }
      ],
      "name": "setConfig",
      "outputs": [],
      "stateMutability": "nonpayable",
      "type": "function"
    },
    {
      "inputs": [
        {
          "internalType": "bytes32",
          "name": "key",
          "type": "bytes32"
        },
        {
          "internalType": "address",
          "name": "addr",
          "type": "address"
        },
        {
          "internalType": "uint256",
          "name": "value",
          "type": "uint256"
        }
      ],
      "name": "setConfig",
      "outputs": [],
      "stateMutability": "nonpayable",
      "type": "function"
    },
    {
      "inputs": [
        {
          "internalType": "bytes32",
          "name": "key",
          "type": "bytes32"
        },
        {
          "internalType": "uint256",
          "name": "index",
          "type": "uint256"
        },
        {
          "internalType": "uint256",
          "name": "value",
          "type": "uint256"
        }
      ],
      "name": "setConfig",
      "outputs": [],
      "stateMutability": "nonpayable",
      "type": "function"
    },
    {
      "inputs": [
        {
          "internalType": "uint256",
          "name": "index",
          "type": "uint256"
        }
      ],
      "name": "swap",
      "outputs": [],
      "stateMutability": "payable",
      "type": "function"
    },
    {
      "inputs": [
        {
          "internalType": "uint256",
          "name": "",
          "type": "uint256"
        }
      ],
      "name": "swappedP",
      "outputs": [
        {
          "internalType": "bool",
          "name": "",
          "type": "bool"
        }
      ],
      "stateMutability": "view",
      "type": "function"
    },
    {
      "inputs": [
        {
          "internalType": "address",
          "name": "",
          "type": "address"
        }
      ],
      "name": "token0List",
      "outputs": [
        {
          "internalType": "bool",
          "name": "",
          "type": "bool"
        }
      ],
      "stateMutability": "view",
      "type": "function"
    },
    {
      "inputs": [
        {
          "internalType": "address",
          "name": "_governor",
          "type": "address"
        }
      ],
      "name": "transferGovernor",
      "outputs": [],
      "stateMutability": "nonpayable",
      "type": "function"
    },
    {
      "inputs": [
        {
          "internalType": "address",
          "name": "newGovernor",
          "type": "address"
        }
      ],
      "name": "transferGovernorship",
      "outputs": [],
      "stateMutability": "nonpayable",
      "type": "function"
    }
  ],
  "bytecode": "0x608060405234801561001057600080fd5b50614090806100206000396000f3fe6080604052600436106101665760003560e01c80638eec5d70116100d1578063b8cc9ce61161008a578063db06c05f11610064578063db06c05f1461053d578063ddf2be3f1461057a578063e87ba7aa146105a3578063f23a6e61146105e057610166565b8063b8cc9ce6146104ae578063bbe7180d146104d7578063c4d66de81461051457610166565b80638eec5d701461039357806394b918de146103be5780639d6ce84b146103da578063ac4afa3814610417578063b21544f31461045c578063b6aa515b1461048557610166565b80632ca77bf8116101235780632ca77bf81461027e57806352665f47146102a95780636dd5b69d146102e657806373d9ced91461032357806381c0c2631461033f5780638ec872e31461035657610166565b806306350d711461016b5780630c340a2414610187578063150b7a02146101b257806315fe96dc146101ef57806329dbd098146102185780632ad540ed14610255575b600080fd5b61018560048036038101906101809190612ef9565b61061d565b005b34801561019357600080fd5b5061019c6106d9565b6040516101a9919061388d565b60405180910390f35b3480156101be57600080fd5b506101d960048036038101906101d49190612b9d565b6106ff565b6040516101e69190613b27565b60405180910390f35b3480156101fb57600080fd5b5061021660048036038101906102119190612d8c565b610714565b005b34801561022457600080fd5b5061023f600480360381019061023a9190612b74565b61077c565b60405161024c9190613b0c565b60405180910390f35b34801561026157600080fd5b5061027c60048036038101906102779190612faf565b61079c565b005b34801561028a57600080fd5b50610293610d18565b6040516102a09190613b0c565b60405180910390f35b3480156102b557600080fd5b506102d060048036038101906102cb9190612d01565b610d2b565b6040516102dd9190613e12565b60405180910390f35b3480156102f257600080fd5b5061030d60048036038101906103089190612cd8565b610d67565b60405161031a9190613e12565b60405180910390f35b61033d60048036038101906103389190612e58565b610d84565b005b34801561034b57600080fd5b50610354610e46565b005b34801561036257600080fd5b5061037d60048036038101906103789190612d8c565b610f61565b60405161038a9190613e12565b60405180910390f35b34801561039f57600080fd5b506103a8610f87565b6040516103b59190613e12565b60405180910390f35b6103d860048036038101906103d39190612faf565b610f94565b005b3480156103e657600080fd5b5061040160048036038101906103fc9190612e17565b6114a1565b60405161040e9190613e12565b60405180910390f35b34801561042357600080fd5b5061043e60048036038101906104399190612faf565b6114cf565b60405161045399989796959493929190613937565b60405180910390f35b34801561046857600080fd5b50610483600480360381019061047e9190612d3d565b611622565b005b34801561049157600080fd5b506104ac60048036038101906104a79190612b74565b6116a9565b005b3480156104ba57600080fd5b506104d560048036038101906104d09190612b74565b61170f565b005b3480156104e357600080fd5b506104fe60048036038101906104f99190612b74565b61183c565b60405161050b9190613e12565b60405180910390f35b34801561052057600080fd5b5061053b60048036038101906105369190612b74565b611854565b005b34801561054957600080fd5b50610564600480360381019061055f9190612faf565b611a67565b6040516105719190613b0c565b60405180910390f35b34801561058657600080fd5b506105a1600480360381019061059c9190612dc8565b611a87565b005b3480156105af57600080fd5b506105ca60048036038101906105c59190612faf565b611af8565b6040516105d79190613b0c565b60405180910390f35b3480156105ec57600080fd5b5061060760048036038101906106029190612c1d565b611b18565b6040516106149190613b27565b60405180910390f35b603a60009054906101000a900460ff16156106bf57603b60008773ffffffffffffffffffffffffffffffffffffffff1673ffffffffffffffffffffffffffffffffffffffff16815260200190815260200160002060009054906101000a900460ff166106be576040517f08c379a00000000000000000000000000000000000000000000000000000000081526004016106b590613ba2565b60405180910390fd5b5b6106d0878787878787876001611b2e565b50505050505050565b603360009054906101000a900473ffffffffffffffffffffffffffffffffffffffff1681565b600063150b7a0260e01b905095945050505050565b603360009054906101000a900473ffffffffffffffffffffffffffffffffffffffff1673ffffffffffffffffffffffffffffffffffffffff163373ffffffffffffffffffffffffffffffffffffffff161461076e57600080fd5b61077882826122f3565b5050565b603b6020528060005260406000206000915054906101000a900460ff1681565b8060358054905081106107e4576040517f08c379a00000000000000000000000000000000000000000000000000000000081526004016107db90613c42565b60405180910390fd5b8142603582815481106107f357fe5b9060005260206000209060090201600701541115610846576040517f08c379a000000000000000000000000000000000000000000000000000000000815260040161083d90613dc2565b60405180910390fd5b826039600082815260200190815260200160002060009054906101000a900460ff16156108a8576040517f08c379a000000000000000000000000000000000000000000000000000000000815260040161089f90613ce2565b60405180910390fd5b6108b2338561232a565b6108f1576040517f08c379a00000000000000000000000000000000000000000000000000000000081526004016108e890613be2565b60405180910390fd5b6038600085815260200190815260200160002060009054906101000a900460ff1615610952576040517f08c379a000000000000000000000000000000000000000000000000000000000815260040161094990613cc2565b60405180910390fd5b60016038600086815260200190815260200160002060006101000a81548160ff021916908315150217905550603660003373ffffffffffffffffffffffffffffffffffffffff1673ffffffffffffffffffffffffffffffffffffffff168152602001908152602001600020600090556109c9612942565b603585815481106109d657fe5b9060005260206000209060090201604051806101200160405290816000820160009054906101000a900473ffffffffffffffffffffffffffffffffffffffff1673ffffffffffffffffffffffffffffffffffffffff1673ffffffffffffffffffffffffffffffffffffffff168152602001600182018054600181600116156101000203166002900480601f016020809104026020016040519081016040528092919081815260200182805460018160011615610100020316600290048015610adf5780601f10610ab457610100808354040283529160200191610adf565b820191906000526020600020905b815481529060010190602001808311610ac257829003601f168201915b505050505081526020016002820160009054906101000a900473ffffffffffffffffffffffffffffffffffffffff1673ffffffffffffffffffffffffffffffffffffffff1673ffffffffffffffffffffffffffffffffffffffff1681526020016003820160009054906101000a900473ffffffffffffffffffffffffffffffffffffffff1673ffffffffffffffffffffffffffffffffffffffff1673ffffffffffffffffffffffffffffffffffffffff16815260200160048201548152602001600582015481526020016006820154815260200160078201548152602001600882015481525050905060008161010001511415610c5657806040015173ffffffffffffffffffffffffffffffffffffffff166342842e0e30836000015184608001516040518463ffffffff1660e01b8152600401610c1f93929190613a1d565b600060405180830381600087803b158015610c3957600080fd5b505af1158015610c4d573d6000803e3d6000fd5b50505050610cd8565b806040015173ffffffffffffffffffffffffffffffffffffffff1663f242432a30836000015184608001518560a001516040518563ffffffff1660e01b8152600401610ca59493929190613a54565b600060405180830381600087803b158015610cbf57600080fd5b505af1158015610cd3573d6000803e3d6000fd5b505050505b7fd8138f8a3f377c5259ca548e70e4c2de94f129f5a11036a15b69513cba2b426a3386604051610d099291906139cb565b60405180910390a15050505050565b603a60009054906101000a900460ff1681565b6000603460008373ffffffffffffffffffffffffffffffffffffffff168560001c1860001b815260200190815260200160002054905092915050565b600060346000838152602001908152602001600020549050919050565b603a60009054906101000a900460ff1615610e2657603b60008673ffffffffffffffffffffffffffffffffffffffff1673ffffffffffffffffffffffffffffffffffffffff16815260200190815260200160002060009054906101000a900460ff16610e25576040517f08c379a0000000000000000000000000000000000000000000000000000000008152600401610e1c90613ba2565b60405180910390fd5b5b600060019050610e3d878787878588886000611b2e565b50505050505050565b603360009054906101000a900473ffffffffffffffffffffffffffffffffffffffff1673ffffffffffffffffffffffffffffffffffffffff163373ffffffffffffffffffffffffffffffffffffffff1614610ea057600080fd5b600073ffffffffffffffffffffffffffffffffffffffff16603360009054906101000a900473ffffffffffffffffffffffffffffffffffffffff1673ffffffffffffffffffffffffffffffffffffffff167fc7c0c772add429241571afb3805861fb3cfa2af374534088b76cdb4325a87e9a60405160405180910390a36000603360006101000a81548173ffffffffffffffffffffffffffffffffffffffff021916908373ffffffffffffffffffffffffffffffffffffffff160217905550565b600060346000838560001c1860001b815260200190815260200160002054905092915050565b6000603580549050905090565b806035805490508110610fdc576040517f08c379a0000000000000000000000000000000000000000000000000000000008152600401610fd390613c42565b60405180910390fd5b814260358281548110610feb57fe5b9060005260206000209060090201600701541161103d576040517f08c379a000000000000000000000000000000000000000000000000000000000815260040161103490613c82565b60405180910390fd5b826039600082815260200190815260200160002060009054906101000a900460ff161561109f576040517f08c379a000000000000000000000000000000000000000000000000000000000815260040161109690613ce2565b60405180910390fd5b6000603585815481106110ae57fe5b9060005260206000209060090201905060016039600087815260200190815260200160002060006101000a81548160ff021916908315150217905550600073ffffffffffffffffffffffffffffffffffffffff168160030160009054906101000a900473ffffffffffffffffffffffffffffffffffffffff1673ffffffffffffffffffffffffffffffffffffffff1614156111fd5734816006015414611189576040517f08c379a000000000000000000000000000000000000000000000000000000000815260040161118090613d42565b60405180910390fd5b8060000160009054906101000a900473ffffffffffffffffffffffffffffffffffffffff1673ffffffffffffffffffffffffffffffffffffffff166108fc82600601549081150290604051600060405180830381858888f193505050501580156111f7573d6000803e3d6000fd5b5061131a565b611252333083600601548460030160009054906101000a900473ffffffffffffffffffffffffffffffffffffffff1673ffffffffffffffffffffffffffffffffffffffff166123b2909392919063ffffffff16565b6112a23060008360030160009054906101000a900473ffffffffffffffffffffffffffffffffffffffff1673ffffffffffffffffffffffffffffffffffffffff1661243b9092919063ffffffff16565b6113198160000160009054906101000a900473ffffffffffffffffffffffffffffffffffffffff1682600601548360030160009054906101000a900473ffffffffffffffffffffffffffffffffffffffff1673ffffffffffffffffffffffffffffffffffffffff166125999092919063ffffffff16565b5b6000816008015414156113c3578060020160009054906101000a900473ffffffffffffffffffffffffffffffffffffffff1673ffffffffffffffffffffffffffffffffffffffff166342842e0e303384600401546040518463ffffffff1660e01b815260040161138c93929190613a1d565b600060405180830381600087803b1580156113a657600080fd5b505af11580156113ba573d6000803e3d6000fd5b50505050611461565b8060020160009054906101000a900473ffffffffffffffffffffffffffffffffffffffff1673ffffffffffffffffffffffffffffffffffffffff1663f242432a3033846004015485600501546040518563ffffffff1660e01b815260040161142e9493929190613a54565b600060405180830381600087803b15801561144857600080fd5b505af115801561145c573d6000803e3d6000fd5b505050505b7fcdee897399ab5e465acb1bd3ed5e32c695f196321764546c59720fa6c9ce4c6933866040516114929291906139cb565b60405180910390a15050505050565b6037818051602081018201805184825260208301602085012081835280955050505050506000915090505481565b603581815481106114dc57fe5b90600052602060002090600902016000915090508060000160009054906101000a900473ffffffffffffffffffffffffffffffffffffffff1690806001018054600181600116156101000203166002900480601f0160208091040260200160405190810160405280929190818152602001828054600181600116156101000203166002900480156115ae5780601f10611583576101008083540402835291602001916115ae565b820191906000526020600020905b81548152906001019060200180831161159157829003601f168201915b5050505050908060020160009054906101000a900473ffffffffffffffffffffffffffffffffffffffff16908060030160009054906101000a900473ffffffffffffffffffffffffffffffffffffffff16908060040154908060050154908060060154908060070154908060080154905089565b603360009054906101000a900473ffffffffffffffffffffffffffffffffffffffff1673ffffffffffffffffffffffffffffffffffffffff163373ffffffffffffffffffffffffffffffffffffffff161461167c57600080fd5b6116a48273ffffffffffffffffffffffffffffffffffffffff168460001c1860001b826122f3565b505050565b603360009054906101000a900473ffffffffffffffffffffffffffffffffffffffff1673ffffffffffffffffffffffffffffffffffffffff163373ffffffffffffffffffffffffffffffffffffffff161461170357600080fd5b61170c8161261f565b50565b603360009054906101000a900473ffffffffffffffffffffffffffffffffffffffff1673ffffffffffffffffffffffffffffffffffffffff163373ffffffffffffffffffffffffffffffffffffffff1614806117b95750600073ffffffffffffffffffffffffffffffffffffffff16603360009054906101000a900473ffffffffffffffffffffffffffffffffffffffff1673ffffffffffffffffffffffffffffffffffffffff16145b6117f8576040517f08c379a00000000000000000000000000000000000000000000000000000000081526004016117ef90613b62565b60405180910390fd5b80603360006101000a81548173ffffffffffffffffffffffffffffffffffffffff021916908373ffffffffffffffffffffffffffffffffffffffff16021790555050565b60366020528060005260406000206000915090505481565b600060019054906101000a900460ff16806118735750611872612719565b5b80611889575060008054906101000a900460ff16155b6118c8576040517f08c379a00000000000000000000000000000000000000000000000000000000081526004016118bf90613d22565b60405180910390fd5b60008060019054906101000a900460ff161590508015611918576001600060016101000a81548160ff02191690831515021790555060016000806101000a81548160ff0219169083151502179055505b603360009054906101000a900473ffffffffffffffffffffffffffffffffffffffff1673ffffffffffffffffffffffffffffffffffffffff163373ffffffffffffffffffffffffffffffffffffffff1614806119c25750600073ffffffffffffffffffffffffffffffffffffffff16603360009054906101000a900473ffffffffffffffffffffffffffffffffffffffff1673ffffffffffffffffffffffffffffffffffffffff16145b611a01576040517f08c379a00000000000000000000000000000000000000000000000000000000081526004016119f890613b62565b60405180910390fd5b81603360006101000a81548173ffffffffffffffffffffffffffffffffffffffff021916908373ffffffffffffffffffffffffffffffffffffffff1602179055508015611a635760008060016101000a81548160ff0219169083151502179055505b5050565b60396020528060005260406000206000915054906101000a900460ff1681565b603360009054906101000a900473ffffffffffffffffffffffffffffffffffffffff1673ffffffffffffffffffffffffffffffffffffffff163373ffffffffffffffffffffffffffffffffffffffff1614611ae157600080fd5b611af3828460001c1860001b826122f3565b505050565b60386020528060005260406000206000915054906101000a900460ff1681565b600063f23a6e6160e01b90509695505050505050565b336000603660008373ffffffffffffffffffffffffffffffffffffffff1673ffffffffffffffffffffffffffffffffffffffff168152602001908152602001600020541115611c6357603960006001603660008573ffffffffffffffffffffffffffffffffffffffff1673ffffffffffffffffffffffffffffffffffffffff1681526020019081526020016000205403815260200190815260200160002060009054906101000a900460ff1615611c2757603660008273ffffffffffffffffffffffffffffffffffffffff1673ffffffffffffffffffffffffffffffffffffffff16815260200190815260200160002060009055611c62565b6040517f08c379a0000000000000000000000000000000000000000000000000000000008152600401611c5990613c22565b60405180910390fd5b5b886000603782604051611c769190613876565b9081526020016040518091039020541115611d9d5760006001603783604051611c9f9190613876565b90815260200160405180910390205403905060006036600060358481548110611cc457fe5b906000526020600020906009020160000160009054906101000a900473ffffffffffffffffffffffffffffffffffffffff1673ffffffffffffffffffffffffffffffffffffffff1673ffffffffffffffffffffffffffffffffffffffff16815260200190815260200160002054118015611d5b57504260358281548110611d4757fe5b906000526020600020906009020160070154115b15611d9b576040517f08c379a0000000000000000000000000000000000000000000000000000000008152600401611d9290613b42565b60405180910390fd5b505b6000851415611de1576040517f08c379a0000000000000000000000000000000000000000000000000000000008152600401611dd890613c02565b60405180910390fd5b6000841415611e25576040517f08c379a0000000000000000000000000000000000000000000000000000000008152600401611e1c90613b82565b60405180910390fd5b600f8a511115611e6a576040517f08c379a0000000000000000000000000000000000000000000000000000000008152600401611e6190613d02565b60405180910390fd5b6000831415611f2a5760018614611eb6576040517f08c379a0000000000000000000000000000000000000000000000000000000008152600401611ead90613ca2565b60405180910390fd5b8873ffffffffffffffffffffffffffffffffffffffff166342842e0e33308a6040518463ffffffff1660e01b8152600401611ef3939291906138a8565b600060405180830381600087803b158015611f0d57600080fd5b505af1158015611f21573d6000803e3d6000fd5b50505050611fe0565b6000861415611f6e576040517f08c379a0000000000000000000000000000000000000000000000000000000008152600401611f6590613ca2565b60405180910390fd5b8873ffffffffffffffffffffffffffffffffffffffff1663f242432a33308a8a6040518563ffffffff1660e01b8152600401611fad94939291906138df565b600060405180830381600087803b158015611fc757600080fd5b505af1158015611fdb573d6000803e3d6000fd5b505050505b611fe8612942565b33816000019073ffffffffffffffffffffffffffffffffffffffff16908173ffffffffffffffffffffffffffffffffffffffff16815250508a816020018190525089816040019073ffffffffffffffffffffffffffffffffffffffff16908173ffffffffffffffffffffffffffffffffffffffff168152505088816060019073ffffffffffffffffffffffffffffffffffffffff16908173ffffffffffffffffffffffffffffffffffffffff168152505087816080018181525050868160a0018181525050858160c00181815250506120ca854261273090919063ffffffff16565b8160e0018181525050838161010001818152505060006035805490509050603582908060018154018082558091505060019003906000526020600020906009020160009091909190915060008201518160000160006101000a81548173ffffffffffffffffffffffffffffffffffffffff021916908373ffffffffffffffffffffffffffffffffffffffff16021790555060208201518160010190805190602001906121779291906129d0565b5060408201518160020160006101000a81548173ffffffffffffffffffffffffffffffffffffffff021916908373ffffffffffffffffffffffffffffffffffffffff16021790555060608201518160030160006101000a81548173ffffffffffffffffffffffffffffffffffffffff021916908373ffffffffffffffffffffffffffffffffffffffff1602179055506080820151816004015560a0820151816005015560c0820151816006015560e0820151816007015561010082015181600801555050603580549050603660003373ffffffffffffffffffffffffffffffffffffffff1673ffffffffffffffffffffffffffffffffffffffff1681526020019081526020016000208190555060358054905060378d60405161229a9190613876565b9081526020016040518091039020819055507f5df3171ca1c576c52dbe66186f579a4726acd9e7a117b33ec1782bcd67285c4b82826040516122dd929190613de2565b60405180910390a1505050505050505050505050565b80603460008481526020019081526020016000205414612326578060346000848152602001908152602001600020819055505b5050565b60008273ffffffffffffffffffffffffffffffffffffffff166035838154811061235057fe5b906000526020600020906009020160000160009054906101000a900473ffffffffffffffffffffffffffffffffffffffff1673ffffffffffffffffffffffffffffffffffffffff1614156123a757600190506123ac565b600090505b92915050565b612435846323b872dd60e01b8585856040516024016123d393929190613aac565b604051602081830303815290604052907bffffffffffffffffffffffffffffffffffffffffffffffffffffffff19166020820180517bffffffffffffffffffffffffffffffffffffffffffffffffffffffff8381831617835250505050612785565b50505050565b60008114806124d4575060008373ffffffffffffffffffffffffffffffffffffffff1663dd62ed3e30856040518363ffffffff1660e01b81526004016124829291906139f4565b60206040518083038186803b15801561249a57600080fd5b505afa1580156124ae573d6000803e3d6000fd5b505050506040513d601f19601f820116820180604052508101906124d29190612fd8565b145b612513576040517f08c379a000000000000000000000000000000000000000000000000000000000815260040161250a90613d82565b60405180910390fd5b6125948363095ea7b360e01b8484604051602401612532929190613ae3565b604051602081830303815290604052907bffffffffffffffffffffffffffffffffffffffffffffffffffffffff19166020820180517bffffffffffffffffffffffffffffffffffffffffffffffffffffffff8381831617835250505050612785565b505050565b61261a8363a9059cbb60e01b84846040516024016125b8929190613ae3565b604051602081830303815290604052907bffffffffffffffffffffffffffffffffffffffffffffffffffffffff19166020820180517bffffffffffffffffffffffffffffffffffffffffffffffffffffffff8381831617835250505050612785565b505050565b600073ffffffffffffffffffffffffffffffffffffffff168173ffffffffffffffffffffffffffffffffffffffff16141561265957600080fd5b8073ffffffffffffffffffffffffffffffffffffffff16603360009054906101000a900473ffffffffffffffffffffffffffffffffffffffff1673ffffffffffffffffffffffffffffffffffffffff167fc7c0c772add429241571afb3805861fb3cfa2af374534088b76cdb4325a87e9a60405160405180910390a380603360006101000a81548173ffffffffffffffffffffffffffffffffffffffff021916908373ffffffffffffffffffffffffffffffffffffffff16021790555050565b6000803090506000813b9050600081149250505090565b60008082840190508381101561277b576040517f08c379a000000000000000000000000000000000000000000000000000000000815260040161277290613bc2565b60405180910390fd5b8091505092915050565b6127a48273ffffffffffffffffffffffffffffffffffffffff166128f7565b6127e3576040517f08c379a00000000000000000000000000000000000000000000000000000000081526004016127da90613da2565b60405180910390fd5b600060608373ffffffffffffffffffffffffffffffffffffffff168360405161280c919061385f565b6000604051808303816000865af19150503d8060008114612849576040519150601f19603f3d011682016040523d82523d6000602084013e61284e565b606091505b509150915081612893576040517f08c379a000000000000000000000000000000000000000000000000000000000815260040161288a90613c62565b60405180910390fd5b6000815111156128f157808060200190518101906128b19190612caf565b6128f0576040517f08c379a00000000000000000000000000000000000000000000000000000000081526004016128e790613d62565b60405180910390fd5b5b50505050565b60008060007fc5d2460186f7233c927e7db2dcc703c0e500b653ca82273b7bfad8045d85a47060001b9050833f915080821415801561293957506000801b8214155b92505050919050565b604051806101200160405280600073ffffffffffffffffffffffffffffffffffffffff16815260200160608152602001600073ffffffffffffffffffffffffffffffffffffffff168152602001600073ffffffffffffffffffffffffffffffffffffffff16815260200160008152602001600081526020016000815260200160008152602001600081525090565b828054600181600116156101000203166002900490600052602060002090601f016020900481019282601f10612a1157805160ff1916838001178555612a3f565b82800160010185558215612a3f579182015b82811115612a3e578251825591602001919060010190612a23565b5b509050612a4c9190612a50565b5090565b5b80821115612a69576000816000905550600101612a51565b5090565b600081359050612a7c81613ffe565b92915050565b600081519050612a9181614015565b92915050565b600081359050612aa68161402c565b92915050565b60008083601f840112612abe57600080fd5b8235905067ffffffffffffffff811115612ad757600080fd5b602083019150836001820283011115612aef57600080fd5b9250929050565b600082601f830112612b0757600080fd5b8135612b1a612b1582613e5a565b613e2d565b91508082526020830160208301858383011115612b3657600080fd5b612b41838284613fab565b50505092915050565b600081359050612b5981614043565b92915050565b600081519050612b6e81614043565b92915050565b600060208284031215612b8657600080fd5b6000612b9484828501612a6d565b91505092915050565b600080600080600060808688031215612bb557600080fd5b6000612bc388828901612a6d565b9550506020612bd488828901612a6d565b9450506040612be588828901612b4a565b935050606086013567ffffffffffffffff811115612c0257600080fd5b612c0e88828901612aac565b92509250509295509295909350565b60008060008060008060a08789031215612c3657600080fd5b6000612c4489828a01612a6d565b9650506020612c5589828a01612a6d565b9550506040612c6689828a01612b4a565b9450506060612c7789828a01612b4a565b935050608087013567ffffffffffffffff811115612c9457600080fd5b612ca089828a01612aac565b92509250509295509295509295565b600060208284031215612cc157600080fd5b6000612ccf84828501612a82565b91505092915050565b600060208284031215612cea57600080fd5b6000612cf884828501612a97565b91505092915050565b60008060408385031215612d1457600080fd5b6000612d2285828601612a97565b9250506020612d3385828601612a6d565b9150509250929050565b600080600060608486031215612d5257600080fd5b6000612d6086828701612a97565b9350506020612d7186828701612a6d565b9250506040612d8286828701612b4a565b9150509250925092565b60008060408385031215612d9f57600080fd5b6000612dad85828601612a97565b9250506020612dbe85828601612b4a565b9150509250929050565b600080600060608486031215612ddd57600080fd5b6000612deb86828701612a97565b9350506020612dfc86828701612b4a565b9250506040612e0d86828701612b4a565b9150509250925092565b600060208284031215612e2957600080fd5b600082013567ffffffffffffffff811115612e4357600080fd5b612e4f84828501612af6565b91505092915050565b60008060008060008060c08789031215612e7157600080fd5b600087013567ffffffffffffffff811115612e8b57600080fd5b612e9789828a01612af6565b9650506020612ea889828a01612a6d565b9550506040612eb989828a01612a6d565b9450506060612eca89828a01612b4a565b9350506080612edb89828a01612b4a565b92505060a0612eec89828a01612b4a565b9150509295509295509295565b600080600080600080600060e0888a031215612f1457600080fd5b600088013567ffffffffffffffff811115612f2e57600080fd5b612f3a8a828b01612af6565b9750506020612f4b8a828b01612a6d565b9650506040612f5c8a828b01612a6d565b9550506060612f6d8a828b01612b4a565b9450506080612f7e8a828b01612b4a565b93505060a0612f8f8a828b01612b4a565b92505060c0612fa08a828b01612b4a565b91505092959891949750929550565b600060208284031215612fc157600080fd5b6000612fcf84828501612b4a565b91505092915050565b600060208284031215612fea57600080fd5b6000612ff884828501612b5f565b91505092915050565b61300a81613f75565b82525050565b61301981613ef7565b82525050565b61302881613ef7565b82525050565b61303781613ee5565b82525050565b61304681613ee5565b82525050565b61305581613f09565b82525050565b61306481613f1f565b82525050565b600061307582613e86565b61307f8185613ead565b935061308f818560208601613fba565b80840191505092915050565b60006130a682613e91565b6130b08185613eb8565b93506130c0818560208601613fba565b6130c981613fed565b840191505092915050565b60006130df82613e91565b6130e98185613ec9565b93506130f9818560208601613fba565b61310281613fed565b840191505092915050565b600061311882613e91565b6131228185613eda565b9350613132818560208601613fba565b80840191505092915050565b600061314b602983613ec9565b91507f61206c69766520706f6f6c20686173206265656e20637265617465642062792060008301527f74686973206e616d6500000000000000000000000000000000000000000000006020830152604082019050919050565b60006131b1601083613ec9565b91507f696e76616c696420676f7665726e6f72000000000000000000000000000000006000830152602082019050919050565b60006131f1601e83613ec9565b91507f7468652076616c7565206f66206475726174696f6e206973207a65726f2e00006000830152602082019050919050565b6000613231600e83613ec9565b91507f696e76616c696420746f6b656e300000000000000000000000000000000000006000830152602082019050919050565b6000613271601b83613ec9565b91507f536166654d6174683a206164646974696f6e206f766572666c6f7700000000006000830152602082019050919050565b60006132b1601a83613ec9565b91507f73656e646572206973206e6f7420706f6f6c2063726561746f720000000000006000830152602082019050919050565b60006132f1602283613ec9565b91507f7468652076616c7565206f6620616d6f756e74546f74616c31206973207a657260008301527f6f2e0000000000000000000000000000000000000000000000000000000000006020830152604082019050919050565b6000613357602283613ec9565b91507f6120706f6f6c206861732063726561746564206279207468697320616464726560008301527f73730000000000000000000000000000000000000000000000000000000000006020830152604082019050919050565b60006133bd601883613ec9565b91507f7468697320706f6f6c20646f6573206e6f7420657869737400000000000000006000830152602082019050919050565b60006133fd602083613ec9565b91507f5361666545524332303a206c6f772d6c6576656c2063616c6c206661696c65646000830152602082019050919050565b600061343d601383613ec9565b91507f7468697320706f6f6c20697320636c6f736564000000000000000000000000006000830152602082019050919050565b600061347d601483613ec9565b91507f696e76616c696420616d6f756e74546f74616c300000000000000000000000006000830152602082019050919050565b60006134bd601d83613ec9565b91507f63726561746f722068617320636c61696d6564207468697320706f6f6c0000006000830152602082019050919050565b60006134fd601483613ec9565b91507f7468697320706f6f6c20697320737761707065640000000000000000000000006000830152602082019050919050565b600061353d601e83613ec9565b91507f746865206c656e677468206f66206e616d6520697320746f6f206c6f6e6700006000830152602082019050919050565b600061357d602e83613ec9565b91507f436f6e747261637420696e7374616e63652068617320616c726561647920626560008301527f656e20696e697469616c697a65640000000000000000000000000000000000006020830152604082019050919050565b60006135e3600083613e9c565b9150600082019050919050565b60006135fd601283613ec9565b91507f696e76616c69642045544820616d6f756e7400000000000000000000000000006000830152602082019050919050565b600061363d602a83613ec9565b91507f5361666545524332303a204552433230206f7065726174696f6e20646964206e60008301527f6f742073756363656564000000000000000000000000000000000000000000006020830152604082019050919050565b60006136a3603683613ec9565b91507f5361666545524332303a20617070726f76652066726f6d206e6f6e2d7a65726f60008301527f20746f206e6f6e2d7a65726f20616c6c6f77616e6365000000000000000000006020830152604082019050919050565b6000613709601f83613ec9565b91507f5361666545524332303a2063616c6c20746f206e6f6e2d636f6e7472616374006000830152602082019050919050565b6000613749601783613ec9565b91507f7468697320706f6f6c206973206e6f7420636c6f7365640000000000000000006000830152602082019050919050565b6000610120830160008301516137956000860182613010565b50602083015184820360208601526137ad828261309b565b91505060408301516137c2604086018261302e565b5060608301516137d5606086018261302e565b5060808301516137e86080860182613841565b5060a08301516137fb60a0860182613841565b5060c083015161380e60c0860182613841565b5060e083015161382160e0860182613841565b50610100830151613836610100860182613841565b508091505092915050565b61384a81613f6b565b82525050565b61385981613f6b565b82525050565b600061386b828461306a565b915081905092915050565b6000613882828461310d565b915081905092915050565b60006020820190506138a2600083018461303d565b92915050565b60006060820190506138bd6000830186613001565b6138ca602083018561303d565b6138d76040830184613850565b949350505050565b600060a0820190506138f46000830187613001565b613901602083018661303d565b61390e6040830185613850565b61391b6060830184613850565b818103608083015261392c816135d6565b905095945050505050565b60006101208201905061394d600083018c61301f565b818103602083015261395f818b6130d4565b905061396e604083018a61303d565b61397b606083018961303d565b6139886080830188613850565b61399560a0830187613850565b6139a260c0830186613850565b6139af60e0830185613850565b6139bd610100830184613850565b9a9950505050505050505050565b60006040820190506139e06000830185613001565b6139ed6020830184613850565b9392505050565b6000604082019050613a09600083018561303d565b613a16602083018461303d565b9392505050565b6000606082019050613a32600083018661303d565b613a3f6020830185613001565b613a4c6040830184613850565b949350505050565b600060a082019050613a69600083018761303d565b613a766020830186613001565b613a836040830185613850565b613a906060830184613850565b8181036080830152613aa1816135d6565b905095945050505050565b6000606082019050613ac1600083018661303d565b613ace602083018561303d565b613adb6040830184613850565b949350505050565b6000604082019050613af8600083018561303d565b613b056020830184613850565b9392505050565b6000602082019050613b21600083018461304c565b92915050565b6000602082019050613b3c600083018461305b565b92915050565b60006020820190508181036000830152613b5b8161313e565b9050919050565b60006020820190508181036000830152613b7b816131a4565b9050919050565b60006020820190508181036000830152613b9b816131e4565b9050919050565b60006020820190508181036000830152613bbb81613224565b9050919050565b60006020820190508181036000830152613bdb81613264565b9050919050565b60006020820190508181036000830152613bfb816132a4565b9050919050565b60006020820190508181036000830152613c1b816132e4565b9050919050565b60006020820190508181036000830152613c3b8161334a565b9050919050565b60006020820190508181036000830152613c5b816133b0565b9050919050565b60006020820190508181036000830152613c7b816133f0565b9050919050565b60006020820190508181036000830152613c9b81613430565b9050919050565b60006020820190508181036000830152613cbb81613470565b9050919050565b60006020820190508181036000830152613cdb816134b0565b9050919050565b60006020820190508181036000830152613cfb816134f0565b9050919050565b60006020820190508181036000830152613d1b81613530565b9050919050565b60006020820190508181036000830152613d3b81613570565b9050919050565b60006020820190508181036000830152613d5b816135f0565b9050919050565b60006020820190508181036000830152613d7b81613630565b9050919050565b60006020820190508181036000830152613d9b81613696565b9050919050565b60006020820190508181036000830152613dbb816136fc565b9050919050565b60006020820190508181036000830152613ddb8161373c565b9050919050565b60006040820190508181036000830152613dfc818561377c565b9050613e0b6020830184613850565b9392505050565b6000602082019050613e276000830184613850565b92915050565b6000604051905081810181811067ffffffffffffffff82111715613e5057600080fd5b8060405250919050565b600067ffffffffffffffff821115613e7157600080fd5b601f19601f8301169050602081019050919050565b600081519050919050565b600081519050919050565b600082825260208201905092915050565b600081905092915050565b600082825260208201905092915050565b600082825260208201905092915050565b600081905092915050565b6000613ef082613f4b565b9050919050565b6000613f0282613f4b565b9050919050565b60008115159050919050565b6000819050919050565b60007fffffffff0000000000000000000000000000000000000000000000000000000082169050919050565b600073ffffffffffffffffffffffffffffffffffffffff82169050919050565b6000819050919050565b6000613f8082613f87565b9050919050565b6000613f9282613f99565b9050919050565b6000613fa482613f4b565b9050919050565b82818337600083830152505050565b60005b83811015613fd8578082015181840152602081019050613fbd565b83811115613fe7576000848401525b50505050565b6000601f19601f8301169050919050565b61400781613ee5565b811461401257600080fd5b50565b61401e81613f09565b811461402957600080fd5b50565b61403581613f15565b811461404057600080fd5b50565b61404c81613f6b565b811461405757600080fd5b5056fea2646970667358221220974797f3caa2ac34ef274df272210b81582eca4793b28a09452333d9e8be4e6464736f6c634300060c0033",
  "compiler": {
    "name": "solc",
    "version": "0.6.12+commit.27d51765.Emscripten.clang",
    "optimizer": {
      "enabled": false,
      "runs": 200
    },
    "evmVersion": "petersburg"
  }
}