{
  "fileName": "Governable.sol",
  "contractName": "Governable",
  "source": "// SPDX-License-Identifier: MIT\n\npragma solidity ^0.6.0;\n\n/**\n * @title Initializable\n *\n * @dev Helper contract to support initializer functions. To use it, replace\n * the constructor with a function that has the `initializer` modifier.\n * WARNING: Unlike constructors, initializer functions must be manually\n * invoked. This applies both to deploying an Initializable contract, as well\n * as extending an Initializable contract via inheritance.\n * WARNING: When used with inheritance, manual care must be taken to not invoke\n * a parent initializer twice, or ensure that all initializers are idempotent,\n * because this is not dealt with automatically as with constructors.\n */\ncontract Initializable {\n\n  /**\n   * @dev Indicates that the contract has been initialized.\n   */\n  bool private initialized;\n\n  /**\n   * @dev Indicates that the contract is in the process of being initialized.\n   */\n  bool private initializing;\n\n  /**\n   * @dev Modifier to use in the initializer function of a contract.\n   */\n  modifier initializer() {\n    require(initializing || isConstructor() || !initialized, \"Contract instance has already been initialized\");\n\n    bool isTopLevelCall = !initializing;\n    if (isTopLevelCall) {\n      initializing = true;\n      initialized = true;\n    }\n\n    _;\n\n    if (isTopLevelCall) {\n      initializing = false;\n    }\n  }\n\n  /// @dev Returns true if and only if the function is running in the constructor\n  function isConstructor() private view returns (bool) {\n    // extcodesize checks the size of the code stored in an address, and\n    // address returns the current address. Since the code is still not\n    // deployed when running a constructor, any checks on its code size will\n    // yield zero, making it an effective way to detect if a contract is\n    // under construction or not.\n    address self = address(this);\n    uint256 cs;\n    assembly { cs := extcodesize(self) }\n    return cs == 0;\n  }\n\n  // Reserved storage space to allow for layout changes in the future.\n  uint256[50] private ______gap;\n}\n\n\ncontract Governable is Initializable {\n    address public governor;\n\n    event GovernorshipTransferred(address indexed previousGovernor, address indexed newGovernor);\n\n    /**\n     * @dev Contract initializer.\n     * called once by the factory at time of deployment\n     */\n    function initialize(address governor_) virtual public initializer {\n        governor = governor_;\n        emit GovernorshipTransferred(address(0), governor);\n    }\n\n    modifier governance() {\n        require(msg.sender == governor);\n        _;\n    }\n\n    /**\n     * @dev Allows the current governor to relinquish control of the contract.\n     * @notice Renouncing to governorship will leave the contract without an governor.\n     * It will not be possible to call the functions with the `governance`\n     * modifier anymore.\n     */\n    function renounceGovernorship() public governance {\n        emit GovernorshipTransferred(governor, address(0));\n        governor = address(0);\n    }\n\n    /**\n     * @dev Allows the current governor to transfer control of the contract to a newGovernor.\n     * @param newGovernor The address to transfer governorship to.\n     */\n    function transferGovernorship(address newGovernor) public governance {\n        _transferGovernorship(newGovernor);\n    }\n\n    /**\n     * @dev Transfers control of the contract to a newGovernor.\n     * @param newGovernor The address to transfer governorship to.\n     */\n    function _transferGovernorship(address newGovernor) internal {\n        require(newGovernor != address(0));\n        emit GovernorshipTransferred(governor, newGovernor);\n        governor = newGovernor;\n    }\n}\n\n\ncontract Configurable is Governable {\n\n    mapping (bytes32 => uint) internal config;\n    \n    function getConfig(bytes32 key) public view returns (uint) {\n        return config[key];\n    }\n    function getConfig(bytes32 key, uint index) public view returns (uint) {\n        return config[bytes32(uint(key) ^ index)];\n    }\n    function getConfig(bytes32 key, address addr) public view returns (uint) {\n        return config[bytes32(uint(key) ^ uint(addr))];\n    }\n\n    function _setConfig(bytes32 key, uint value) internal {\n        if(config[key] != value)\n            config[key] = value;\n    }\n    function _setConfig(bytes32 key, uint index, uint value) internal {\n        _setConfig(bytes32(uint(key) ^ index), value);\n    }\n    function _setConfig(bytes32 key, address addr, uint value) internal {\n        _setConfig(bytes32(uint(key) ^ uint(addr)), value);\n    }\n    \n    function setConfig(bytes32 key, uint value) external governance {\n        _setConfig(key, value);\n    }\n    function setConfig(bytes32 key, uint index, uint value) external governance {\n        _setConfig(bytes32(uint(key) ^ index), value);\n    }\n    function setConfig(bytes32 key, address addr, uint value) public governance {\n        _setConfig(bytes32(uint(key) ^ uint(addr)), value);\n    }\n}\n",
  "sourcePath": "contracts/Governable.sol",
  "abi": [
    {
      "anonymous": false,
      "inputs": [
        {
          "indexed": true,
          "internalType": "address",
          "name": "previousGovernor",
          "type": "address"
        },
        {
          "indexed": true,
          "internalType": "address",
          "name": "newGovernor",
          "type": "address"
        }
      ],
      "name": "GovernorshipTransferred",
      "type": "event"
    },
    {
      "inputs": [],
      "name": "governor",
      "outputs": [
        {
          "internalType": "address",
          "name": "",
          "type": "address"
        }
      ],
      "stateMutability": "view",
      "type": "function"
    },
    {
      "inputs": [
        {
          "internalType": "address",
          "name": "governor_",
          "type": "address"
        }
      ],
      "name": "initialize",
      "outputs": [],
      "stateMutability": "nonpayable",
      "type": "function"
    },
    {
      "inputs": [],
      "name": "renounceGovernorship",
      "outputs": [],
      "stateMutability": "nonpayable",
      "type": "function"
    },
    {
      "inputs": [
        {
          "internalType": "address",
          "name": "newGovernor",
          "type": "address"
        }
      ],
      "name": "transferGovernorship",
      "outputs": [],
      "stateMutability": "nonpayable",
      "type": "function"
    }
  ],
  "bytecode": "0x608060405234801561001057600080fd5b506105f0806100206000396000f3fe608060405234801561001057600080fd5b506004361061004c5760003560e01c80630c340a241461005157806381c0c26314610085578063b6aa515b1461008f578063c4d66de8146100d3575b600080fd5b610059610117565b604051808273ffffffffffffffffffffffffffffffffffffffff16815260200191505060405180910390f35b61008d61013d565b005b6100d1600480360360208110156100a557600080fd5b81019080803573ffffffffffffffffffffffffffffffffffffffff169060200190929190505050610258565b005b610115600480360360208110156100e957600080fd5b81019080803573ffffffffffffffffffffffffffffffffffffffff1690602001909291905050506102be565b005b603360009054906101000a900473ffffffffffffffffffffffffffffffffffffffff1681565b603360009054906101000a900473ffffffffffffffffffffffffffffffffffffffff1673ffffffffffffffffffffffffffffffffffffffff163373ffffffffffffffffffffffffffffffffffffffff161461019757600080fd5b600073ffffffffffffffffffffffffffffffffffffffff16603360009054906101000a900473ffffffffffffffffffffffffffffffffffffffff1673ffffffffffffffffffffffffffffffffffffffff167fc7c0c772add429241571afb3805861fb3cfa2af374534088b76cdb4325a87e9a60405160405180910390a36000603360006101000a81548173ffffffffffffffffffffffffffffffffffffffff021916908373ffffffffffffffffffffffffffffffffffffffff160217905550565b603360009054906101000a900473ffffffffffffffffffffffffffffffffffffffff1673ffffffffffffffffffffffffffffffffffffffff163373ffffffffffffffffffffffffffffffffffffffff16146102b257600080fd5b6102bb8161047b565b50565b600060019054906101000a900460ff16806102dd57506102dc610575565b5b806102f3575060008054906101000a900460ff16155b610348576040517f08c379a000000000000000000000000000000000000000000000000000000000815260040180806020018281038252602e81526020018061058d602e913960400191505060405180910390fd5b60008060019054906101000a900460ff161590508015610398576001600060016101000a81548160ff02191690831515021790555060016000806101000a81548160ff0219169083151502179055505b81603360006101000a81548173ffffffffffffffffffffffffffffffffffffffff021916908373ffffffffffffffffffffffffffffffffffffffff160217905550603360009054906101000a900473ffffffffffffffffffffffffffffffffffffffff1673ffffffffffffffffffffffffffffffffffffffff16600073ffffffffffffffffffffffffffffffffffffffff167fc7c0c772add429241571afb3805861fb3cfa2af374534088b76cdb4325a87e9a60405160405180910390a380156104775760008060016101000a81548160ff0219169083151502179055505b5050565b600073ffffffffffffffffffffffffffffffffffffffff168173ffffffffffffffffffffffffffffffffffffffff1614156104b557600080fd5b8073ffffffffffffffffffffffffffffffffffffffff16603360009054906101000a900473ffffffffffffffffffffffffffffffffffffffff1673ffffffffffffffffffffffffffffffffffffffff167fc7c0c772add429241571afb3805861fb3cfa2af374534088b76cdb4325a87e9a60405160405180910390a380603360006101000a81548173ffffffffffffffffffffffffffffffffffffffff021916908373ffffffffffffffffffffffffffffffffffffffff16021790555050565b6000803090506000813b905060008114925050509056fe436f6e747261637420696e7374616e63652068617320616c7265616479206265656e20696e697469616c697a6564a2646970667358221220f2bf1968ba844bdc2d38aa4ed6b6aa375b9f2d5ec6a8ab70d7c1fe68f66101b064736f6c634300060c0033",
  "compiler": {
    "name": "solc",
    "version": "0.6.12+commit.27d51765.Emscripten.clang",
    "optimizer": {
      "enabled": false,
      "runs": 200
    },
    "evmVersion": "petersburg"
  }
}